{
  "_format": "hh-sol-artifact-1",
  "contractName": "AvatarScheme",
  "sourceName": "contracts/dao/schemes/AvatarScheme.sol",
  "abi": [
    {
      "inputs": [
        {
          "internalType": "string",
          "name": "reason",
          "type": "string"
        }
      ],
      "name": "AvatarScheme__AvatarCallFailed",
      "type": "error"
    },
    {
      "inputs": [],
      "name": "AvatarScheme__ERC20LimitsPassed",
      "type": "error"
    },
    {
      "inputs": [],
      "name": "AvatarScheme__MaxRepPercentageChangePassed",
      "type": "error"
    },
    {
      "inputs": [],
      "name": "AvatarScheme__ProposalExecutionAlreadyRunning",
      "type": "error"
    },
    {
      "inputs": [],
      "name": "AvatarScheme__ProposalMustBeSubmitted",
      "type": "error"
    },
    {
      "inputs": [],
      "name": "AvatarScheme__SetEthPermissionUsedFailed",
      "type": "error"
    },
    {
      "inputs": [],
      "name": "AvatarScheme__TotalOptionsMustBeTwo",
      "type": "error"
    },
    {
      "inputs": [],
      "name": "Scheme_InvalidParameterArrayLength",
      "type": "error"
    },
    {
      "inputs": [],
      "name": "Scheme__AvatarAddressCannotBeZero",
      "type": "error"
    },
    {
      "inputs": [
        {
          "internalType": "string",
          "name": "reason",
          "type": "string"
        }
      ],
      "name": "Scheme__CallFailed",
      "type": "error"
    },
    {
      "inputs": [],
      "name": "Scheme__ControllerAddressCannotBeZero",
      "type": "error"
    },
    {
      "inputs": [],
      "name": "Scheme__ERC20LimitsPassed",
      "type": "error"
    },
    {
      "inputs": [],
      "name": "Scheme__InvalidTotalOptionsOrActionsCallsLength",
      "type": "error"
    },
    {
      "inputs": [],
      "name": "Scheme__MaxRepPercentageChangePassed",
      "type": "error"
    },
    {
      "inputs": [],
      "name": "Scheme__ProposalExecutionAlreadyRunning",
      "type": "error"
    },
    {
      "inputs": [],
      "name": "Scheme__ProposalMustBeSubmitted",
      "type": "error"
    },
    {
      "inputs": [],
      "name": "VotingMachineCallbacks__OnlyVotingMachine",
      "type": "error"
    },
    {
      "anonymous": false,
      "inputs": [
        {
          "indexed": true,
          "internalType": "bytes32",
          "name": "proposalId",
          "type": "bytes32"
        },
        {
          "indexed": true,
          "internalType": "uint256",
          "name": "state",
          "type": "uint256"
        }
      ],
      "name": "ProposalStateChange",
      "type": "event"
    },
    {
      "inputs": [],
      "name": "avatar",
      "outputs": [
        {
          "internalType": "contract DAOAvatar",
          "name": "",
          "type": "address"
        }
      ],
      "stateMutability": "view",
      "type": "function"
    },
    {
      "inputs": [],
      "name": "controller",
      "outputs": [
        {
          "internalType": "contract DAOController",
          "name": "",
          "type": "address"
        }
      ],
      "stateMutability": "view",
      "type": "function"
    },
    {
      "inputs": [
        {
          "internalType": "bytes32",
          "name": "proposalId",
          "type": "bytes32"
        },
        {
          "internalType": "uint256",
          "name": "winningOption",
          "type": "uint256"
        }
      ],
      "name": "executeProposal",
      "outputs": [
        {
          "internalType": "bool",
          "name": "success",
          "type": "bool"
        }
      ],
      "stateMutability": "nonpayable",
      "type": "function"
    },
    {
      "inputs": [
        {
          "internalType": "bytes32",
          "name": "proposalId",
          "type": "bytes32"
        },
        {
          "internalType": "uint256",
          "name": "winningOption",
          "type": "uint256"
        }
      ],
      "name": "finishProposal",
      "outputs": [
        {
          "internalType": "bool",
          "name": "success",
          "type": "bool"
        }
      ],
      "stateMutability": "nonpayable",
      "type": "function"
    },
    {
      "inputs": [
        {
          "internalType": "bytes",
          "name": "data",
          "type": "bytes"
        }
      ],
      "name": "getFuncSignature",
      "outputs": [
        {
          "internalType": "bytes4",
          "name": "functionSignature",
          "type": "bytes4"
        }
      ],
      "stateMutability": "pure",
      "type": "function"
    },
    {
      "inputs": [],
      "name": "getNativeReputationTotalSupply",
      "outputs": [
        {
          "internalType": "uint256",
          "name": "",
          "type": "uint256"
        }
      ],
      "stateMutability": "view",
      "type": "function"
    },
    {
      "inputs": [],
      "name": "getOrganizationProposals",
      "outputs": [
        {
          "internalType": "bytes32[]",
          "name": "proposalsIds",
          "type": "bytes32[]"
        }
      ],
      "stateMutability": "view",
      "type": "function"
    },
    {
      "inputs": [],
      "name": "getOrganizationProposalsLength",
      "outputs": [
        {
          "internalType": "uint256",
          "name": "proposalsLength",
          "type": "uint256"
        }
      ],
      "stateMutability": "view",
      "type": "function"
    },
    {
      "inputs": [
        {
          "internalType": "bytes32",
          "name": "proposalId",
          "type": "bytes32"
        }
      ],
      "name": "getProposal",
      "outputs": [
        {
          "components": [
            {
              "internalType": "address[]",
              "name": "to",
              "type": "address[]"
            },
            {
              "internalType": "bytes[]",
              "name": "callData",
              "type": "bytes[]"
            },
            {
              "internalType": "uint256[]",
              "name": "value",
              "type": "uint256[]"
            },
            {
              "internalType": "uint256",
              "name": "totalOptions",
              "type": "uint256"
            },
            {
              "internalType": "enum Scheme.ProposalState",
              "name": "state",
              "type": "uint8"
            },
            {
              "internalType": "string",
              "name": "title",
              "type": "string"
            },
            {
              "internalType": "string",
              "name": "descriptionHash",
              "type": "string"
            },
            {
              "internalType": "uint256",
              "name": "submittedTime",
              "type": "uint256"
            }
          ],
          "internalType": "struct Scheme.Proposal",
          "name": "proposal",
          "type": "tuple"
        }
      ],
      "stateMutability": "view",
      "type": "function"
    },
    {
      "inputs": [
        {
          "internalType": "uint256",
          "name": "proposalIndex",
          "type": "uint256"
        }
      ],
      "name": "getProposalByIndex",
      "outputs": [
        {
          "components": [
            {
              "internalType": "address[]",
              "name": "to",
              "type": "address[]"
            },
            {
              "internalType": "bytes[]",
              "name": "callData",
              "type": "bytes[]"
            },
            {
              "internalType": "uint256[]",
              "name": "value",
              "type": "uint256[]"
            },
            {
              "internalType": "uint256",
              "name": "totalOptions",
              "type": "uint256"
            },
            {
              "internalType": "enum Scheme.ProposalState",
              "name": "state",
              "type": "uint8"
            },
            {
              "internalType": "string",
              "name": "title",
              "type": "string"
            },
            {
              "internalType": "string",
              "name": "descriptionHash",
              "type": "string"
            },
            {
              "internalType": "uint256",
              "name": "submittedTime",
              "type": "uint256"
            }
          ],
          "internalType": "struct Scheme.Proposal",
          "name": "proposal",
          "type": "tuple"
        }
      ],
      "stateMutability": "view",
      "type": "function"
    },
    {
      "inputs": [],
      "name": "getReputation",
      "outputs": [
        {
          "internalType": "contract DAOReputation",
          "name": "",
          "type": "address"
        }
      ],
      "stateMutability": "view",
      "type": "function"
    },
    {
      "inputs": [],
      "name": "getSchemeType",
      "outputs": [
        {
          "internalType": "string",
          "name": "",
          "type": "string"
        }
      ],
      "stateMutability": "pure",
      "type": "function"
    },
    {
      "inputs": [
        {
          "internalType": "bytes32",
          "name": "_proposalId",
          "type": "bytes32"
        }
      ],
      "name": "getTotalReputationSupply",
      "outputs": [
        {
          "internalType": "uint256",
          "name": "",
          "type": "uint256"
        }
      ],
      "stateMutability": "view",
      "type": "function"
    },
    {
      "inputs": [
        {
          "internalType": "address payable",
          "name": "avatarAddress",
          "type": "address"
        },
        {
          "internalType": "address",
          "name": "votingMachineAddress",
          "type": "address"
        },
        {
          "internalType": "address",
          "name": "controllerAddress",
          "type": "address"
        },
        {
          "internalType": "address",
          "name": "permissionRegistryAddress",
          "type": "address"
        },
        {
          "internalType": "string",
          "name": "_schemeName",
          "type": "string"
        },
        {
          "internalType": "uint256",
          "name": "_maxRepPercentageChange",
          "type": "uint256"
        }
      ],
      "name": "initialize",
      "outputs": [],
      "stateMutability": "nonpayable",
      "type": "function"
    },
    {
      "inputs": [],
      "name": "maxRepPercentageChange",
      "outputs": [
        {
          "internalType": "uint256",
          "name": "",
          "type": "uint256"
        }
      ],
      "stateMutability": "view",
      "type": "function"
    },
    {
      "inputs": [],
      "name": "permissionRegistry",
      "outputs": [
        {
          "internalType": "contract PermissionRegistry",
          "name": "",
          "type": "address"
        }
      ],
      "stateMutability": "view",
      "type": "function"
    },
    {
      "inputs": [
        {
          "internalType": "bytes32",
          "name": "",
          "type": "bytes32"
        }
      ],
      "name": "proposalSnapshots",
      "outputs": [
        {
          "internalType": "uint256",
          "name": "",
          "type": "uint256"
        }
      ],
      "stateMutability": "view",
      "type": "function"
    },
    {
      "inputs": [
        {
          "internalType": "bytes32",
          "name": "",
          "type": "bytes32"
        }
      ],
      "name": "proposals",
      "outputs": [
        {
          "internalType": "uint256",
          "name": "totalOptions",
          "type": "uint256"
        },
        {
          "internalType": "enum Scheme.ProposalState",
          "name": "state",
          "type": "uint8"
        },
        {
          "internalType": "string",
          "name": "title",
          "type": "string"
        },
        {
          "internalType": "string",
          "name": "descriptionHash",
          "type": "string"
        },
        {
          "internalType": "uint256",
          "name": "submittedTime",
          "type": "uint256"
        }
      ],
      "stateMutability": "view",
      "type": "function"
    },
    {
      "inputs": [
        {
          "internalType": "uint256",
          "name": "",
          "type": "uint256"
        }
      ],
      "name": "proposalsList",
      "outputs": [
        {
          "internalType": "bytes32",
          "name": "",
          "type": "bytes32"
        }
      ],
      "stateMutability": "view",
      "type": "function"
    },
    {
      "inputs": [
        {
          "internalType": "address[]",
          "name": "to",
          "type": "address[]"
        },
        {
          "internalType": "bytes[]",
          "name": "callData",
          "type": "bytes[]"
        },
        {
          "internalType": "uint256[]",
          "name": "value",
          "type": "uint256[]"
        },
        {
          "internalType": "uint256",
          "name": "totalOptions",
          "type": "uint256"
        },
        {
          "internalType": "string",
          "name": "title",
          "type": "string"
        },
        {
          "internalType": "string",
          "name": "descriptionHash",
          "type": "string"
        }
      ],
      "name": "proposeCalls",
      "outputs": [
        {
          "internalType": "bytes32",
          "name": "proposalId",
          "type": "bytes32"
        }
      ],
      "stateMutability": "nonpayable",
      "type": "function"
    },
    {
      "inputs": [
        {
          "internalType": "address",
          "name": "_owner",
          "type": "address"
        },
        {
          "internalType": "bytes32",
          "name": "_proposalId",
          "type": "bytes32"
        }
      ],
      "name": "reputationOf",
      "outputs": [
        {
          "internalType": "uint256",
          "name": "",
          "type": "uint256"
        }
      ],
      "stateMutability": "view",
      "type": "function"
    },
    {
      "inputs": [],
      "name": "schemeName",
      "outputs": [
        {
          "internalType": "string",
          "name": "",
          "type": "string"
        }
      ],
      "stateMutability": "view",
      "type": "function"
    },
    {
      "inputs": [],
      "name": "votingMachine",
      "outputs": [
        {
          "internalType": "contract IVotingMachine",
          "name": "",
          "type": "address"
        }
      ],
      "stateMutability": "view",
      "type": "function"
    }
  ],
  "bytecode": "0x608060405234801561001057600080fd5b506129e0806100206000396000f3fe608060405234801561001057600080fd5b506004361061014d5760003560e01c8063a6abddc2116100c3578063d3d1e7ba1161007c578063d3d1e7ba1461031a578063db2131cd1461032f578063df06e36414610338578063e59570231461034d578063f77c479114610360578063ffe6a18e1461037357600080fd5b8063a6abddc2146102a8578063b551c373146102dc578063b55a5c1c146102ef578063b632a91214610302578063c45ff2811461030a578063d3b4644a1461031257600080fd5b8063430694cf11610115578063430694cf146102195780635aef7de61461022c5780635bd908501461023f5780636fde063c146102625780639588378e146102825780639a299d051461029557600080fd5b806305a82c6214610152578063088af1821461017857806332ed5b12146101a457806337d1d389146101c85780633edf7ca1146101e8575b600080fd5b610165610160366004611f03565b61037b565b6040519081526020015b60405180910390f35b61018b610186366004612000565b6103c1565b6040516001600160e01b0319909116815260200161016f565b6101b76101b2366004612042565b6103f3565b60405161016f9594939291906120e3565b6101db6101d6366004612042565b61053b565b60405161016f91906121f7565b600054610201906201000090046001600160a01b031681565b6040516001600160a01b03909116815260200161016f565b6101db610227366004612042565b610884565b600554610201906001600160a01b031681565b61025261024d3660046122c1565b6109d2565b604051901515815260200161016f565b610165610270366004612042565b60026020526000908152604090205481565b6101656102903660046122f8565b611326565b6102526102a33660046122c1565b6113b9565b60408051808201909152600f81526e417661746172536368656d655f763160881b60208201525b60405161016f9190612324565b6101656102ea366004612042565b6114b5565b600654610201906001600160a01b031681565b600454610165565b6102cf611540565b6101656115ce565b61032261163e565b60405161016f9190612337565b61016560085481565b61034b61034636600461237b565b611696565b005b61016561035b366004612042565b61180a565b600154610201906001600160a01b031681565b61020161182b565b60008560021461039e576040516370ec0ce960e11b815260040160405180910390fd5b6103b18c8c8c8c8c8c8c8c8c8c8c611899565b9c9b505050505050505050505050565b6000600482106103e9576103d9600460008486612412565b6103e29161243c565b90506103ed565b5060005b92915050565b6003602081905260009182526040909120908101546004820154600583018054929360ff909216926104249061246c565b80601f01602080910402602001604051908101604052809291908181526020018280546104509061246c565b801561049d5780601f106104725761010080835404028352916020019161049d565b820191906000526020600020905b81548152906001019060200180831161048057829003601f168201915b5050505050908060060180546104b29061246c565b80601f01602080910402602001604051908101604052809291908181526020018280546104de9061246c565b801561052b5780601f106105005761010080835404028352916020019161052b565b820191906000526020600020905b81548152906001019060200180831161050e57829003601f168201915b5050505050908060070154905085565b610543611cbe565b600360006004848154811061055a5761055a6124a6565b9060005260206000200154815260200190815260200160002060405180610100016040529081600082018054806020026020016040519081016040528092919081815260200182805480156105d857602002820191906000526020600020905b81546001600160a01b031681526001909101906020018083116105ba575b5050505050815260200160018201805480602002602001604051908101604052809291908181526020016000905b828210156106b25783829060005260206000200180546106259061246c565b80601f01602080910402602001604051908101604052809291908181526020018280546106519061246c565b801561069e5780601f106106735761010080835404028352916020019161069e565b820191906000526020600020905b81548152906001019060200180831161068157829003601f168201915b505050505081526020019060010190610606565b5050505081526020016002820180548060200260200160405190810160405280929190818152602001828054801561070957602002820191906000526020600020905b8154815260200190600101908083116106f5575b50505091835250506003828101546020830152600483015460409092019160ff169081111561073a5761073a61205b565b600381111561074b5761074b61205b565b815260200160058201805461075f9061246c565b80601f016020809104026020016040519081016040528092919081815260200182805461078b9061246c565b80156107d85780601f106107ad576101008083540402835291602001916107d8565b820191906000526020600020905b8154815290600101906020018083116107bb57829003601f168201915b505050505081526020016006820180546107f19061246c565b80601f016020809104026020016040519081016040528092919081815260200182805461081d9061246c565b801561086a5780601f1061083f5761010080835404028352916020019161086a565b820191906000526020600020905b81548152906001019060200180831161084d57829003601f168201915b505050505081526020016007820154815250509050919050565b61088c611cbe565b6000828152600360209081526040918290208251815461012093810282018401909452610100810184815290939192849284918401828280156108f857602002820191906000526020600020905b81546001600160a01b031681526001909101906020018083116108da575b5050505050815260200160018201805480602002602001604051908101604052809291908181526020016000905b828210156106b25783829060005260206000200180546109459061246c565b80601f01602080910402602001604051908101604052809291908181526020018280546109719061246c565b80156109be5780601f10610993576101008083540402835291602001916109be565b820191906000526020600020905b8154815290600101906020018083116109a157829003601f168201915b505050505081526020019060010190610926565b600080546201000090046001600160a01b03163314610a045760405163f636727160e01b815260040160405180910390fd5b60095460ff1615610a28576040516303eb6c0f60e41b815260040160405180910390fd5b6009805460ff19166001179055600083815260036020908152604080832081518154610120948102820185019093526101008101838152909391928492849190840182828015610aa157602002820191906000526020600020905b81546001600160a01b03168152600190910190602001808311610a83575b5050505050815260200160018201805480602002602001604051908101604052809291908181526020016000905b82821015610b7b578382906000526020600020018054610aee9061246c565b80601f0160208091040260200160405190810160405280929190818152602001828054610b1a9061246c565b8015610b675780601f10610b3c57610100808354040283529160200191610b67565b820191906000526020600020905b815481529060010190602001808311610b4a57829003601f168201915b505050505081526020019060010190610acf565b50505050815260200160028201805480602002602001604051908101604052809291908181526020018280548015610bd257602002820191906000526020600020905b815481526020019060010190808311610bbe575b50505091835250506003828101546020830152600483015460409092019160ff1690811115610c0357610c0361205b565b6003811115610c1457610c1461205b565b8152602001600582018054610c289061246c565b80601f0160208091040260200160405190810160405280929190818152602001828054610c549061246c565b8015610ca15780601f10610c7657610100808354040283529160200191610ca1565b820191906000526020600020905b815481529060010190602001808311610c8457829003601f168201915b50505050508152602001600682018054610cba9061246c565b80601f0160208091040260200160405190810160405280929190818152602001828054610ce69061246c565b8015610d335780601f10610d0857610100808354040283529160200191610d33565b820191906000526020600020905b815481529060010190602001808311610d1657829003601f168201915b5050509183525050600791909101546020909101529050600181608001516003811115610d6257610d6261205b565b14610d805760405163a0e586bb60e01b815260040160405180910390fd5b6001831115611312576000610d936115ce565b6001546006546040805160048082526024820183526020820180516001600160e01b0316631f3d23d960e11b17905260055492516398d3242960e01b81529596506001600160a01b03948516956398d3242995610df8958116941691600091016124bc565b6000604051808303816000875af1158015610e17573d6000803e3d6000fd5b505050506040513d6000823e601f3d908101601f19168201604052610e3f9190810190612574565b505060005b82515181101561120157600083602001518281518110610e6657610e666124a6565b602090810291909101810151908101516001548651805193945091926000926060926001600160a01b03169187908110610ea257610ea26124a6565b60200260200101516001600160a01b0316148015610eea57506001600160e01b0319831663dea9e24d60e01b1480610eea57506001600160e01b0319831663ddbfcc6b60e01b145b15610f7757600154602088015180516001600160a01b039092169187908110610f1557610f156124a6565b6020026020010151604051610f2a9190612603565b6000604051808303816000865af19150503d8060008114610f67576040519150601f19603f3d011682016040523d82523d6000602084013e610f6c565b606091505b5090925090506111c1565b600154600654600554895180516001600160a01b03948516946398d32429948116931691908a908110610fac57610fac6124a6565b6020026020010151878c604001518b81518110610fcb57610fcb6124a6565b60209081029190910101516040516001600160a01b0394851660248201529390921660448401526001600160e01b0319166064830152608482015260a40160408051601f198184030181529181526020820180516001600160e01b031663eed4703360e01b179052600554905160e085901b6001600160e01b03191681526110649392916001600160a01b0316906000906004016124bc565b6000604051808303816000875af1158015611083573d6000803e3d6000fd5b505050506040513d6000823e601f3d908101601f191682016040526110ab9190810190612574565b9092509050816110d15760405160016270e0ad60e11b0319815260040160405180910390fd5b600154875180516001600160a01b03909216916398d324299190889081106110fb576110fb6124a6565b602002602001015189602001518881518110611119576111196124a6565b6020026020010151600560009054906101000a90046001600160a01b03168b604001518a8151811061114d5761114d6124a6565b60200260200101516040518563ffffffff1660e01b815260040161117494939291906124bc565b6000604051808303816000875af1158015611193573d6000803e3d6000fd5b505050506040513d6000823e601f3d908101601f191682016040526111bb9190810190612574565b90925090505b816111ea57806040516315385b7760e21b81526004016111e19190612324565b60405180910390fd5b5050505080806111f990612635565b915050610e44565b6112096115ce565b6064600854606461121a919061264e565b6112249085612661565b61122e919061268e565b1080611264575061123d6115ce565b6064600854606461124e91906126a2565b6112589085612661565b611262919061268e565b115b1561128257604051631ab31c8160e31b815260040160405180910390fd5b60065460055460405163fb0fde8560e01b81526001600160a01b03918216600482015291169063fb0fde8590602401602060405180830381865afa1580156112ce573d6000803e3d6000fd5b505050506040513d601f19601f820116820180604052508101906112f291906126b5565b61130f576040516363141b5560e11b815260040160405180910390fd5b50505b50506009805460ff19169055600192915050565b600061133061182b565b6000838152600260205260409081902054905163277166bf60e11b81526001600160a01b0386811660048301526024820192909252911690634ee2cd7e90604401602060405180830381865afa15801561138e573d6000803e3d6000fd5b505050506040513d601f19601f820116820180604052508101906113b291906126d0565b9392505050565b600080546201000090046001600160a01b031633146113eb5760405163f636727160e01b815260040160405180910390fd5b60008381526003602052604090206001600482015460ff1660038111156114145761141461205b565b036114ab57826001036114635760048101805460ff1916600290811790915560405185907faa798b5c17de8359ce5a2d3b6a5da0de89d0b116dcf830f1809599da1d986dbb90600090a36114a1565b60048101805460ff1916600390811790915560405185907faa798b5c17de8359ce5a2d3b6a5da0de89d0b116dcf830f1809599da1d986dbb90600090a35b60019150506103ed565b60009150506103ed565b60006114bf61182b565b60008381526002602052604090819020549051630981b24d60e41b81526001600160a01b03929092169163981b24d0916114ff9160040190815260200190565b602060405180830381865afa15801561151c573d6000803e3d6000fd5b505050506040513d601f19601f820116820180604052508101906103ed91906126d0565b6007805461154d9061246c565b80601f01602080910402602001604051908101604052809291908181526020018280546115799061246c565b80156115c65780601f1061159b576101008083540402835291602001916115c6565b820191906000526020600020905b8154815290600101906020018083116115a957829003601f168201915b505050505081565b60006115d861182b565b6001600160a01b03166318160ddd6040518163ffffffff1660e01b8152600401602060405180830381865afa158015611615573d6000803e3d6000fd5b505050506040513d601f19601f8201168201806040525081019061163991906126d0565b905090565b6060600480548060200260200160405190810160405280929190818152602001828054801561168c57602002820191906000526020600020905b815481526020019060010190808311611678575b5050505050905090565b600054610100900460ff16806116af575060005460ff16155b6117125760405162461bcd60e51b815260206004820152602e60248201527f496e697469616c697a61626c653a20636f6e747261637420697320616c72656160448201526d191e481a5b9a5d1a585b1a5e995960921b60648201526084016111e1565b600054610100900460ff16158015611734576000805461ffff19166101011790555b6001600160a01b03881661175b57604051632d6eb33160e01b815260040160405180910390fd5b6001600160a01b03861661178257604051635a41e54160e01b815260040160405180910390fd5b600580546001600160a01b03199081166001600160a01b038b8116919091179092556000805462010000600160b01b031916620100008b8516021790556001805482168984161790556006805490911691871691909117905560076117e8848683612738565b5060088290558015611800576000805461ff00191690555b5050505050505050565b6004818154811061181a57600080fd5b600091825260209091200154905081565b600154604080516354c7adb960e01b815290516000926001600160a01b0316916354c7adb99160048083019260209291908290030181865afa158015611875573d6000803e3d6000fd5b505050506040513d601f19601f8201168201806040525081019061163991906127f9565b60008a891415806118aa57508a8714155b156118c857604051630e3a003960e21b815260040160405180910390fd5b6118d36001876126a2565b6118dd9088612816565b156118fb57604051631a1a260160e31b815260040160405180910390fd5b6001546040516346e361b760e01b81523060048201526000916001600160a01b0316906346e361b790602401602060405180830381865afa158015611944573d6000803e3d6000fd5b505050506040513d601f19601f8201168201806040525081019061196891906126d0565b600054600554604051634439bdaf60e11b8152600481018b9052602481018490523360448201526001600160a01b0391821660648201529293506201000090910416906388737b5e906084016020604051808303816000875af11580156119d3573d6000803e3d6000fd5b505050506040513d601f19601f820116820180604052508101906119f791906126d0565b91506040518061010001604052808e8e80806020026020016040519081016040528093929190818152602001838360200280828437600092019190915250505090825250602001611a488c8e61282a565b81526020018a8a80806020026020016040519081016040528093929190818152602001838360200280828437600092019190915250505090825250602081018990526040016001815260200187878080601f016020809104026020016040519081016040528093929190818152602001838380828437600092019190915250505090825250604080516020601f8801819004810282018101909252868152918101919087908790819084018382808284376000920182905250938552505042602093840152508481526003825260409020825180519192611b2e92849290910190611d14565b506020828101518051611b479260018501920190611d79565b5060408201518051611b63916002840191602090910190611dcb565b506060820151816003015560808201518160040160006101000a81548160ff02191690836003811115611b9857611b9861205b565b021790555060a08201516005820190611bb190826128ea565b5060c08201516006820190611bc690826128ea565b5060e09190910151600790910155600480546001810182556000919091527f8a35acfbc15ff81a39ae7d344fd709f28e8600b4aa8c65c6b64bfe7fe36bd19b01829055611c1161182b565b6001600160a01b0316635439ad866040518163ffffffff1660e01b8152600401602060405180830381865afa158015611c4e573d6000803e3d6000fd5b505050506040513d601f19601f82011682018060405250810190611c7291906126d0565b600083815260026020526040902055600160405183907faa798b5c17de8359ce5a2d3b6a5da0de89d0b116dcf830f1809599da1d986dbb90600090a3509b9a5050505050505050505050565b6040518061010001604052806060815260200160608152602001606081526020016000815260200160006003811115611cf957611cf961205b565b81526020016060815260200160608152602001600081525090565b828054828255906000526020600020908101928215611d69579160200282015b82811115611d6957825182546001600160a01b0319166001600160a01b03909116178255602090920191600190910190611d34565b50611d75929150611e06565b5090565b828054828255906000526020600020908101928215611dbf579160200282015b82811115611dbf5782518290611daf90826128ea565b5091602001919060010190611d99565b50611d75929150611e1b565b828054828255906000526020600020908101928215611d69579160200282015b82811115611d69578251825591602001919060010190611deb565b5b80821115611d755760008155600101611e07565b80821115611d75576000611e2f8282611e38565b50600101611e1b565b508054611e449061246c565b6000825580601f10611e54575050565b601f016020900490600052602060002090810190611e729190611e06565b50565b60008083601f840112611e8757600080fd5b50813567ffffffffffffffff811115611e9f57600080fd5b6020830191508360208260051b8501011115611eba57600080fd5b9250929050565b60008083601f840112611ed357600080fd5b50813567ffffffffffffffff811115611eeb57600080fd5b602083019150836020828501011115611eba57600080fd5b600080600080600080600080600080600060c08c8e031215611f2457600080fd5b67ffffffffffffffff808d351115611f3b57600080fd5b611f488e8e358f01611e75565b909c509a5060208d0135811015611f5e57600080fd5b611f6e8e60208f01358f01611e75565b909a50985060408d0135811015611f8457600080fd5b611f948e60408f01358f01611e75565b909850965060608d0135955060808d0135811015611fb157600080fd5b611fc18e60808f01358f01611ec1565b909550935060a08d0135811015611fd757600080fd5b50611fe88d60a08e01358e01611ec1565b81935080925050509295989b509295989b9093969950565b6000806020838503121561201357600080fd5b823567ffffffffffffffff81111561202a57600080fd5b61203685828601611ec1565b90969095509350505050565b60006020828403121561205457600080fd5b5035919050565b634e487b7160e01b600052602160045260246000fd5b6004811061208f57634e487b7160e01b600052602160045260246000fd5b9052565b60005b838110156120ae578181015183820152602001612096565b50506000910152565b600081518084526120cf816020860160208601612093565b601f01601f19169290920160200192915050565b8581526120f36020820186612071565b60a06040820152600061210960a08301866120b7565b828103606084015261211b81866120b7565b9150508260808301529695505050505050565b600081518084526020808501945080840160005b838110156121675781516001600160a01b031687529582019590820190600101612142565b509495945050505050565b600081518084526020808501808196508360051b8101915082860160005b858110156121ba5782840389526121a88483516120b7565b98850198935090840190600101612190565b5091979650505050505050565b600081518084526020808501945080840160005b83811015612167578151875295820195908201906001016121db565b602081526000825161010080602085015261221661012085018361212e565b91506020850151601f19808685030160408701526122348483612172565b9350604087015191508086850301606087015261225184836121c7565b9350606087015160808701526080870151915061227160a0870183612071565b60a08701519150808685030160c087015261228c84836120b7565b935060c08701519150808685030160e0870152506122aa83826120b7565b92505060e085015181850152508091505092915050565b600080604083850312156122d457600080fd5b50508035926020909101359150565b6001600160a01b0381168114611e7257600080fd5b6000806040838503121561230b57600080fd5b8235612316816122e3565b946020939093013593505050565b6020815260006113b260208301846120b7565b6020808252825182820181905260009190848201906040850190845b8181101561236f57835183529284019291840191600101612353565b50909695505050505050565b600080600080600080600060c0888a03121561239657600080fd5b87356123a1816122e3565b965060208801356123b1816122e3565b955060408801356123c1816122e3565b945060608801356123d1816122e3565b9350608088013567ffffffffffffffff8111156123ed57600080fd5b6123f98a828b01611ec1565b989b979a5095989497959660a090950135949350505050565b6000808585111561242257600080fd5b8386111561242f57600080fd5b5050820193919092039150565b6001600160e01b031981358181169160048510156124645780818660040360031b1b83161692505b505092915050565b600181811c9082168061248057607f821691505b6020821081036124a057634e487b7160e01b600052602260045260246000fd5b50919050565b634e487b7160e01b600052603260045260246000fd5b600060018060a01b038087168352608060208401526124de60808401876120b7565b94166040830152506060015292915050565b8051801515811461250057600080fd5b919050565b634e487b7160e01b600052604160045260246000fd5b604051601f8201601f1916810167ffffffffffffffff8111828210171561254457612544612505565b604052919050565b600067ffffffffffffffff82111561256657612566612505565b50601f01601f191660200190565b6000806040838503121561258757600080fd5b612590836124f0565b9150602083015167ffffffffffffffff8111156125ac57600080fd5b8301601f810185136125bd57600080fd5b80516125d06125cb8261254c565b61251b565b8181528660208385010111156125e557600080fd5b6125f6826020830160208601612093565b8093505050509250929050565b60008251612615818460208701612093565b9190910192915050565b634e487b7160e01b600052601160045260246000fd5b6000600182016126475761264761261f565b5060010190565b808201808211156103ed576103ed61261f565b80820281158282048414176103ed576103ed61261f565b634e487b7160e01b600052601260045260246000fd5b60008261269d5761269d612678565b500490565b818103818111156103ed576103ed61261f565b6000602082840312156126c757600080fd5b6113b2826124f0565b6000602082840312156126e257600080fd5b5051919050565b601f82111561273357600081815260208120601f850160051c810160208610156127105750805b601f850160051c820191505b8181101561272f5782815560010161271c565b5050505b505050565b67ffffffffffffffff83111561275057612750612505565b6127648361275e835461246c565b836126e9565b6000601f84116001811461279857600085156127805750838201355b600019600387901b1c1916600186901b1783556127f2565b600083815260209020601f19861690835b828110156127c957868501358255602094850194600190920191016127a9565b50868210156127e65760001960f88860031b161c19848701351681555b505060018560011b0183555b5050505050565b60006020828403121561280b57600080fd5b81516113b2816122e3565b60008261282557612825612678565b500690565b600067ffffffffffffffff8084111561284557612845612505565b8360051b602061285681830161251b565b86815291850191818101903684111561286e57600080fd5b865b848110156128de578035868111156128885760008081fd5b880136601f82011261289a5760008081fd5b80356128a86125cb8261254c565b81815236878385010111156128bd5760008081fd5b81878401888301376000918101870191909152845250918301918301612870565b50979650505050505050565b815167ffffffffffffffff81111561290457612904612505565b61291881612912845461246c565b846126e9565b602080601f83116001811461294d57600084156129355750858301515b600019600386901b1c1916600185901b17855561272f565b600085815260208120601f198616915b8281101561297c5788860151825594840194600190910190840161295d565b508582101561299a5787850151600019600388901b60f8161c191681555b5050505050600190811b0190555056fea264697066735822122057e4e30266d6885473667cb8b64bd59528beaed233076b794f96aaed5b72deeb64736f6c63430008110033",
  "linkReferences": {},
  "deployedLinkReferences": {}
}