{
  "_format": "hh-sol-artifact-1",
  "contractName": "Create2Deployer",
  "sourceName": "contracts/utils/Create2Deployer.sol",
  "abi": [
    {
      "inputs": [],
      "name": "Create2Deployer__InitializedFailed",
      "type": "error"
    },
    {
      "anonymous": false,
      "inputs": [
        {
          "indexed": false,
          "internalType": "address",
          "name": "addr",
          "type": "address"
        },
        {
          "indexed": false,
          "internalType": "bytes32",
          "name": "bytecodeHash",
          "type": "bytes32"
        },
        {
          "indexed": false,
          "internalType": "uint256",
          "name": "salt",
          "type": "uint256"
        }
      ],
      "name": "Deployed",
      "type": "event"
    },
    {
      "inputs": [
        {
          "internalType": "bytes",
          "name": "code",
          "type": "bytes"
        },
        {
          "internalType": "uint256",
          "name": "salt",
          "type": "uint256"
        }
      ],
      "name": "deploy",
      "outputs": [],
      "stateMutability": "nonpayable",
      "type": "function"
    },
    {
      "inputs": [
        {
          "internalType": "bytes",
          "name": "code",
          "type": "bytes"
        },
        {
          "internalType": "uint256",
          "name": "salt",
          "type": "uint256"
        },
        {
          "internalType": "bytes",
          "name": "initializeCallData",
          "type": "bytes"
        }
      ],
      "name": "deployAndInitialize",
      "outputs": [],
      "stateMutability": "nonpayable",
      "type": "function"
    }
  ],
  "bytecode": "0x608060405234801561001057600080fd5b506103b9806100206000396000f3fe608060405234801561001057600080fd5b50600436106100365760003560e01c806384bf19d01461003b5780639c4ae2d014610050575b600080fd5b61004e6100493660046102a2565b610063565b005b61004e61005e36600461030f565b610172565b6000828451602086016000f59050803b61007c57600080fd5b6000816001600160a01b03166000846040516100989190610354565b60006040518083038185875af1925050503d80600081146100d5576040519150601f19603f3d011682016040523d82523d6000602084013e6100da565b606091505b50509050806100fc5760405163f63911b960e01b815260040160405180910390fd5b7fc877950e53df8be800e454c6b5998cc737fca2ea44c18e91aac5f37b60419fc4828660405160200161012f9190610354565b60408051601f1981840301815282825280516020918201206001600160a01b03909416835282019290925290810186905260600160405180910390a15050505050565b6000818351602085016000f59050803b61018b57600080fd5b7fc877950e53df8be800e454c6b5998cc737fca2ea44c18e91aac5f37b60419fc481846040516020016101be9190610354565b60408051601f1981840301815282825280516020918201206001600160a01b03909416835282019290925290810184905260600160405180910390a1505050565b634e487b7160e01b600052604160045260246000fd5b600082601f83011261022657600080fd5b813567ffffffffffffffff80821115610241576102416101ff565b604051601f8301601f19908116603f01168101908282118183101715610269576102696101ff565b8160405283815286602085880101111561028257600080fd5b836020870160208301376000602085830101528094505050505092915050565b6000806000606084860312156102b757600080fd5b833567ffffffffffffffff808211156102cf57600080fd5b6102db87838801610215565b94506020860135935060408601359150808211156102f857600080fd5b5061030586828701610215565b9150509250925092565b6000806040838503121561032257600080fd5b823567ffffffffffffffff81111561033957600080fd5b61034585828601610215565b95602094909401359450505050565b6000825160005b81811015610375576020818601810151858301520161035b565b50600092019182525091905056fea2646970667358221220f6548198c3b1dff8afba60d690b9373dd9fe0893b45d9d13beb0c3712c89e22b64736f6c63430008110033",
  "linkReferences": {},
  "deployedLinkReferences": {}
}