{
  "_format": "hh-sol-artifact-1",
  "contractName": "DXDGuild",
  "sourceName": "contracts/erc20guild/implementations/DXDGuild.sol",
  "abi": [
    {
      "anonymous": false,
      "inputs": [],
      "name": "GuildInitialized",
      "type": "event"
    },
    {
      "anonymous": false,
      "inputs": [
        {
          "indexed": true,
          "internalType": "address",
          "name": "previousOwner",
          "type": "address"
        },
        {
          "indexed": true,
          "internalType": "address",
          "name": "newOwner",
          "type": "address"
        }
      ],
      "name": "OwnershipTransferred",
      "type": "event"
    },
    {
      "anonymous": false,
      "inputs": [
        {
          "indexed": true,
          "internalType": "bytes32",
          "name": "proposalId",
          "type": "bytes32"
        },
        {
          "indexed": false,
          "internalType": "uint256",
          "name": "newState",
          "type": "uint256"
        }
      ],
      "name": "ProposalStateChanged",
      "type": "event"
    },
    {
      "anonymous": false,
      "inputs": [
        {
          "indexed": false,
          "internalType": "address",
          "name": "voter",
          "type": "address"
        },
        {
          "indexed": false,
          "internalType": "uint256",
          "name": "value",
          "type": "uint256"
        }
      ],
      "name": "TokensLocked",
      "type": "event"
    },
    {
      "anonymous": false,
      "inputs": [
        {
          "indexed": false,
          "internalType": "address",
          "name": "voter",
          "type": "address"
        },
        {
          "indexed": false,
          "internalType": "uint256",
          "name": "value",
          "type": "uint256"
        }
      ],
      "name": "TokensWithdrawn",
      "type": "event"
    },
    {
      "anonymous": false,
      "inputs": [
        {
          "indexed": true,
          "internalType": "bytes32",
          "name": "proposalId",
          "type": "bytes32"
        },
        {
          "indexed": true,
          "internalType": "uint256",
          "name": "option",
          "type": "uint256"
        },
        {
          "indexed": false,
          "internalType": "address",
          "name": "voter",
          "type": "address"
        },
        {
          "indexed": false,
          "internalType": "uint256",
          "name": "votingPower",
          "type": "uint256"
        }
      ],
      "name": "VoteAdded",
      "type": "event"
    },
    {
      "stateMutability": "payable",
      "type": "fallback"
    },
    {
      "inputs": [],
      "name": "MAX_OPTIONS_PER_PROPOSAL",
      "outputs": [
        {
          "internalType": "uint8",
          "name": "",
          "type": "uint8"
        }
      ],
      "stateMutability": "view",
      "type": "function"
    },
    {
      "inputs": [],
      "name": "activeProposalsNow",
      "outputs": [
        {
          "internalType": "uint256",
          "name": "",
          "type": "uint256"
        }
      ],
      "stateMutability": "view",
      "type": "function"
    },
    {
      "inputs": [
        {
          "internalType": "address[]",
          "name": "to",
          "type": "address[]"
        },
        {
          "internalType": "bytes[]",
          "name": "data",
          "type": "bytes[]"
        },
        {
          "internalType": "uint256[]",
          "name": "value",
          "type": "uint256[]"
        },
        {
          "internalType": "uint256",
          "name": "totalOptions",
          "type": "uint256"
        },
        {
          "internalType": "string",
          "name": "title",
          "type": "string"
        },
        {
          "internalType": "string",
          "name": "contentHash",
          "type": "string"
        }
      ],
      "name": "createProposal",
      "outputs": [
        {
          "internalType": "bytes32",
          "name": "",
          "type": "bytes32"
        }
      ],
      "stateMutability": "nonpayable",
      "type": "function"
    },
    {
      "inputs": [
        {
          "internalType": "bytes32",
          "name": "proposalId",
          "type": "bytes32"
        }
      ],
      "name": "endProposal",
      "outputs": [],
      "stateMutability": "nonpayable",
      "type": "function"
    },
    {
      "inputs": [],
      "name": "getActiveProposalsNow",
      "outputs": [
        {
          "internalType": "uint256",
          "name": "",
          "type": "uint256"
        }
      ],
      "stateMutability": "view",
      "type": "function"
    },
    {
      "inputs": [],
      "name": "getLockTime",
      "outputs": [
        {
          "internalType": "uint256",
          "name": "",
          "type": "uint256"
        }
      ],
      "stateMutability": "view",
      "type": "function"
    },
    {
      "inputs": [],
      "name": "getMaxActiveProposals",
      "outputs": [
        {
          "internalType": "uint256",
          "name": "",
          "type": "uint256"
        }
      ],
      "stateMutability": "view",
      "type": "function"
    },
    {
      "inputs": [],
      "name": "getMaxGasPrice",
      "outputs": [
        {
          "internalType": "uint256",
          "name": "",
          "type": "uint256"
        }
      ],
      "stateMutability": "view",
      "type": "function"
    },
    {
      "inputs": [],
      "name": "getMinimumMembersForProposalCreation",
      "outputs": [
        {
          "internalType": "uint256",
          "name": "",
          "type": "uint256"
        }
      ],
      "stateMutability": "view",
      "type": "function"
    },
    {
      "inputs": [],
      "name": "getMinimumTokensLockedForProposalCreation",
      "outputs": [
        {
          "internalType": "uint256",
          "name": "",
          "type": "uint256"
        }
      ],
      "stateMutability": "view",
      "type": "function"
    },
    {
      "inputs": [],
      "name": "getName",
      "outputs": [
        {
          "internalType": "string",
          "name": "",
          "type": "string"
        }
      ],
      "stateMutability": "view",
      "type": "function"
    },
    {
      "inputs": [],
      "name": "getPermissionRegistry",
      "outputs": [
        {
          "internalType": "address",
          "name": "",
          "type": "address"
        }
      ],
      "stateMutability": "view",
      "type": "function"
    },
    {
      "inputs": [
        {
          "internalType": "bytes32",
          "name": "proposalId",
          "type": "bytes32"
        }
      ],
      "name": "getProposal",
      "outputs": [
        {
          "components": [
            {
              "internalType": "address",
              "name": "creator",
              "type": "address"
            },
            {
              "internalType": "uint256",
              "name": "startTime",
              "type": "uint256"
            },
            {
              "internalType": "uint256",
              "name": "endTime",
              "type": "uint256"
            },
            {
              "internalType": "address[]",
              "name": "to",
              "type": "address[]"
            },
            {
              "internalType": "bytes[]",
              "name": "data",
              "type": "bytes[]"
            },
            {
              "internalType": "uint256[]",
              "name": "value",
              "type": "uint256[]"
            },
            {
              "internalType": "string",
              "name": "title",
              "type": "string"
            },
            {
              "internalType": "string",
              "name": "contentHash",
              "type": "string"
            },
            {
              "internalType": "enum BaseERC20Guild.ProposalState",
              "name": "state",
              "type": "uint8"
            },
            {
              "internalType": "uint256[]",
              "name": "totalVotes",
              "type": "uint256[]"
            }
          ],
          "internalType": "struct BaseERC20Guild.Proposal",
          "name": "",
          "type": "tuple"
        }
      ],
      "stateMutability": "view",
      "type": "function"
    },
    {
      "inputs": [],
      "name": "getProposalTime",
      "outputs": [
        {
          "internalType": "uint256",
          "name": "",
          "type": "uint256"
        }
      ],
      "stateMutability": "view",
      "type": "function"
    },
    {
      "inputs": [
        {
          "internalType": "bytes32",
          "name": "proposalId",
          "type": "bytes32"
        },
        {
          "internalType": "address",
          "name": "voter",
          "type": "address"
        }
      ],
      "name": "getProposalVotesOfVoter",
      "outputs": [
        {
          "internalType": "uint256",
          "name": "option",
          "type": "uint256"
        },
        {
          "internalType": "uint256",
          "name": "votingPower",
          "type": "uint256"
        }
      ],
      "stateMutability": "view",
      "type": "function"
    },
    {
      "inputs": [],
      "name": "getProposalsIds",
      "outputs": [
        {
          "internalType": "bytes32[]",
          "name": "",
          "type": "bytes32[]"
        }
      ],
      "stateMutability": "view",
      "type": "function"
    },
    {
      "inputs": [],
      "name": "getProposalsIdsLength",
      "outputs": [
        {
          "internalType": "uint256",
          "name": "",
          "type": "uint256"
        }
      ],
      "stateMutability": "view",
      "type": "function"
    },
    {
      "inputs": [
        {
          "internalType": "bytes32",
          "name": "signedVoteHash",
          "type": "bytes32"
        }
      ],
      "name": "getSignedVote",
      "outputs": [
        {
          "internalType": "bool",
          "name": "",
          "type": "bool"
        }
      ],
      "stateMutability": "view",
      "type": "function"
    },
    {
      "inputs": [],
      "name": "getTimeForExecution",
      "outputs": [
        {
          "internalType": "uint256",
          "name": "",
          "type": "uint256"
        }
      ],
      "stateMutability": "view",
      "type": "function"
    },
    {
      "inputs": [],
      "name": "getToken",
      "outputs": [
        {
          "internalType": "address",
          "name": "",
          "type": "address"
        }
      ],
      "stateMutability": "view",
      "type": "function"
    },
    {
      "inputs": [],
      "name": "getTokenVault",
      "outputs": [
        {
          "internalType": "address",
          "name": "",
          "type": "address"
        }
      ],
      "stateMutability": "view",
      "type": "function"
    },
    {
      "inputs": [],
      "name": "getTotalLocked",
      "outputs": [
        {
          "internalType": "uint256",
          "name": "",
          "type": "uint256"
        }
      ],
      "stateMutability": "view",
      "type": "function"
    },
    {
      "inputs": [],
      "name": "getTotalMembers",
      "outputs": [
        {
          "internalType": "uint256",
          "name": "",
          "type": "uint256"
        }
      ],
      "stateMutability": "view",
      "type": "function"
    },
    {
      "inputs": [],
      "name": "getTotalProposals",
      "outputs": [
        {
          "internalType": "uint256",
          "name": "",
          "type": "uint256"
        }
      ],
      "stateMutability": "view",
      "type": "function"
    },
    {
      "inputs": [],
      "name": "getVoteGas",
      "outputs": [
        {
          "internalType": "uint256",
          "name": "",
          "type": "uint256"
        }
      ],
      "stateMutability": "view",
      "type": "function"
    },
    {
      "inputs": [
        {
          "internalType": "address",
          "name": "voter",
          "type": "address"
        }
      ],
      "name": "getVoterLockTimestamp",
      "outputs": [
        {
          "internalType": "uint256",
          "name": "",
          "type": "uint256"
        }
      ],
      "stateMutability": "view",
      "type": "function"
    },
    {
      "inputs": [],
      "name": "getVotingPowerForProposalCreation",
      "outputs": [
        {
          "internalType": "uint256",
          "name": "",
          "type": "uint256"
        }
      ],
      "stateMutability": "view",
      "type": "function"
    },
    {
      "inputs": [],
      "name": "getVotingPowerForProposalExecution",
      "outputs": [
        {
          "internalType": "uint256",
          "name": "",
          "type": "uint256"
        }
      ],
      "stateMutability": "view",
      "type": "function"
    },
    {
      "inputs": [
        {
          "internalType": "address",
          "name": "voter",
          "type": "address"
        },
        {
          "internalType": "bytes32",
          "name": "proposalId",
          "type": "bytes32"
        },
        {
          "internalType": "uint256",
          "name": "option",
          "type": "uint256"
        },
        {
          "internalType": "uint256",
          "name": "votingPower",
          "type": "uint256"
        }
      ],
      "name": "hashVote",
      "outputs": [
        {
          "internalType": "bytes32",
          "name": "",
          "type": "bytes32"
        }
      ],
      "stateMutability": "pure",
      "type": "function"
    },
    {
      "inputs": [
        {
          "internalType": "address",
          "name": "_token",
          "type": "address"
        },
        {
          "internalType": "uint256",
          "name": "_proposalTime",
          "type": "uint256"
        },
        {
          "internalType": "uint256",
          "name": "_timeForExecution",
          "type": "uint256"
        },
        {
          "internalType": "uint256",
          "name": "_votingPowerPercentageForProposalExecution",
          "type": "uint256"
        },
        {
          "internalType": "uint256",
          "name": "_votingPowerPercentageForProposalCreation",
          "type": "uint256"
        },
        {
          "internalType": "uint256",
          "name": "_voteGas",
          "type": "uint256"
        },
        {
          "internalType": "uint256",
          "name": "_maxGasPrice",
          "type": "uint256"
        },
        {
          "internalType": "uint256",
          "name": "_maxActiveProposals",
          "type": "uint256"
        },
        {
          "internalType": "uint256",
          "name": "_lockTime",
          "type": "uint256"
        },
        {
          "internalType": "address",
          "name": "_permissionRegistry",
          "type": "address"
        },
        {
          "internalType": "address",
          "name": "_votingMachine",
          "type": "address"
        }
      ],
      "name": "initialize",
      "outputs": [],
      "stateMutability": "nonpayable",
      "type": "function"
    },
    {
      "inputs": [
        {
          "internalType": "address",
          "name": "_token",
          "type": "address"
        },
        {
          "internalType": "uint256",
          "name": "_proposalTime",
          "type": "uint256"
        },
        {
          "internalType": "uint256",
          "name": "_timeForExecution",
          "type": "uint256"
        },
        {
          "internalType": "uint256",
          "name": "_votingPowerPercentageForProposalExecution",
          "type": "uint256"
        },
        {
          "internalType": "uint256",
          "name": "_votingPowerPercentageForProposalCreation",
          "type": "uint256"
        },
        {
          "internalType": "string",
          "name": "_name",
          "type": "string"
        },
        {
          "internalType": "uint256",
          "name": "_voteGas",
          "type": "uint256"
        },
        {
          "internalType": "uint256",
          "name": "_maxGasPrice",
          "type": "uint256"
        },
        {
          "internalType": "uint256",
          "name": "_maxActiveProposals",
          "type": "uint256"
        },
        {
          "internalType": "uint256",
          "name": "_lockTime",
          "type": "uint256"
        },
        {
          "internalType": "address",
          "name": "_permissionRegistry",
          "type": "address"
        }
      ],
      "name": "initialize",
      "outputs": [],
      "stateMutability": "nonpayable",
      "type": "function"
    },
    {
      "inputs": [],
      "name": "lockTime",
      "outputs": [
        {
          "internalType": "uint256",
          "name": "",
          "type": "uint256"
        }
      ],
      "stateMutability": "view",
      "type": "function"
    },
    {
      "inputs": [
        {
          "internalType": "uint256",
          "name": "tokenAmount",
          "type": "uint256"
        }
      ],
      "name": "lockTokens",
      "outputs": [],
      "stateMutability": "nonpayable",
      "type": "function"
    },
    {
      "inputs": [],
      "name": "maxActiveProposals",
      "outputs": [
        {
          "internalType": "uint256",
          "name": "",
          "type": "uint256"
        }
      ],
      "stateMutability": "view",
      "type": "function"
    },
    {
      "inputs": [],
      "name": "maxGasPrice",
      "outputs": [
        {
          "internalType": "uint256",
          "name": "",
          "type": "uint256"
        }
      ],
      "stateMutability": "view",
      "type": "function"
    },
    {
      "inputs": [],
      "name": "minimumMembersForProposalCreation",
      "outputs": [
        {
          "internalType": "uint256",
          "name": "",
          "type": "uint256"
        }
      ],
      "stateMutability": "view",
      "type": "function"
    },
    {
      "inputs": [],
      "name": "minimumTokensLockedForProposalCreation",
      "outputs": [
        {
          "internalType": "uint256",
          "name": "",
          "type": "uint256"
        }
      ],
      "stateMutability": "view",
      "type": "function"
    },
    {
      "inputs": [],
      "name": "name",
      "outputs": [
        {
          "internalType": "string",
          "name": "",
          "type": "string"
        }
      ],
      "stateMutability": "view",
      "type": "function"
    },
    {
      "inputs": [],
      "name": "owner",
      "outputs": [
        {
          "internalType": "address",
          "name": "",
          "type": "address"
        }
      ],
      "stateMutability": "view",
      "type": "function"
    },
    {
      "inputs": [],
      "name": "proposalTime",
      "outputs": [
        {
          "internalType": "uint256",
          "name": "",
          "type": "uint256"
        }
      ],
      "stateMutability": "view",
      "type": "function"
    },
    {
      "inputs": [
        {
          "internalType": "bytes32",
          "name": "",
          "type": "bytes32"
        },
        {
          "internalType": "address",
          "name": "",
          "type": "address"
        }
      ],
      "name": "proposalVotes",
      "outputs": [
        {
          "internalType": "uint256",
          "name": "option",
          "type": "uint256"
        },
        {
          "internalType": "uint256",
          "name": "votingPower",
          "type": "uint256"
        }
      ],
      "stateMutability": "view",
      "type": "function"
    },
    {
      "inputs": [
        {
          "internalType": "bytes32",
          "name": "",
          "type": "bytes32"
        }
      ],
      "name": "proposals",
      "outputs": [
        {
          "internalType": "address",
          "name": "creator",
          "type": "address"
        },
        {
          "internalType": "uint256",
          "name": "startTime",
          "type": "uint256"
        },
        {
          "internalType": "uint256",
          "name": "endTime",
          "type": "uint256"
        },
        {
          "internalType": "string",
          "name": "title",
          "type": "string"
        },
        {
          "internalType": "string",
          "name": "contentHash",
          "type": "string"
        },
        {
          "internalType": "enum BaseERC20Guild.ProposalState",
          "name": "state",
          "type": "uint8"
        }
      ],
      "stateMutability": "view",
      "type": "function"
    },
    {
      "inputs": [
        {
          "internalType": "uint256",
          "name": "",
          "type": "uint256"
        }
      ],
      "name": "proposalsIds",
      "outputs": [
        {
          "internalType": "bytes32",
          "name": "",
          "type": "bytes32"
        }
      ],
      "stateMutability": "view",
      "type": "function"
    },
    {
      "inputs": [],
      "name": "renounceOwnership",
      "outputs": [],
      "stateMutability": "nonpayable",
      "type": "function"
    },
    {
      "inputs": [
        {
          "internalType": "uint256",
          "name": "_proposalTime",
          "type": "uint256"
        },
        {
          "internalType": "uint256",
          "name": "_timeForExecution",
          "type": "uint256"
        },
        {
          "internalType": "uint256",
          "name": "_votingPowerPercentageForProposalExecution",
          "type": "uint256"
        },
        {
          "internalType": "uint256",
          "name": "_votingPowerPercentageForProposalCreation",
          "type": "uint256"
        },
        {
          "internalType": "uint256",
          "name": "_voteGas",
          "type": "uint256"
        },
        {
          "internalType": "uint256",
          "name": "_maxGasPrice",
          "type": "uint256"
        },
        {
          "internalType": "uint256",
          "name": "_maxActiveProposals",
          "type": "uint256"
        },
        {
          "internalType": "uint256",
          "name": "_lockTime",
          "type": "uint256"
        },
        {
          "internalType": "uint256",
          "name": "_minimumMembersForProposalCreation",
          "type": "uint256"
        },
        {
          "internalType": "uint256",
          "name": "_minimumTokensLockedForProposalCreation",
          "type": "uint256"
        }
      ],
      "name": "setConfig",
      "outputs": [],
      "stateMutability": "nonpayable",
      "type": "function"
    },
    {
      "inputs": [
        {
          "internalType": "bytes32",
          "name": "proposalId",
          "type": "bytes32"
        },
        {
          "internalType": "uint256",
          "name": "option",
          "type": "uint256"
        },
        {
          "internalType": "uint256",
          "name": "votingPower",
          "type": "uint256"
        },
        {
          "internalType": "address",
          "name": "voter",
          "type": "address"
        },
        {
          "internalType": "bytes",
          "name": "signature",
          "type": "bytes"
        }
      ],
      "name": "setSignedVote",
      "outputs": [],
      "stateMutability": "nonpayable",
      "type": "function"
    },
    {
      "inputs": [
        {
          "internalType": "bytes32",
          "name": "proposalId",
          "type": "bytes32"
        },
        {
          "internalType": "uint256",
          "name": "option",
          "type": "uint256"
        },
        {
          "internalType": "uint256",
          "name": "votingPower",
          "type": "uint256"
        }
      ],
      "name": "setVote",
      "outputs": [],
      "stateMutability": "nonpayable",
      "type": "function"
    },
    {
      "inputs": [
        {
          "internalType": "bytes32",
          "name": "",
          "type": "bytes32"
        }
      ],
      "name": "signedVotes",
      "outputs": [
        {
          "internalType": "bool",
          "name": "",
          "type": "bool"
        }
      ],
      "stateMutability": "view",
      "type": "function"
    },
    {
      "inputs": [],
      "name": "timeForExecution",
      "outputs": [
        {
          "internalType": "uint256",
          "name": "",
          "type": "uint256"
        }
      ],
      "stateMutability": "view",
      "type": "function"
    },
    {
      "inputs": [],
      "name": "token",
      "outputs": [
        {
          "internalType": "contract IERC20Upgradeable",
          "name": "",
          "type": "address"
        }
      ],
      "stateMutability": "view",
      "type": "function"
    },
    {
      "inputs": [],
      "name": "tokenVault",
      "outputs": [
        {
          "internalType": "contract TokenVault",
          "name": "",
          "type": "address"
        }
      ],
      "stateMutability": "view",
      "type": "function"
    },
    {
      "inputs": [
        {
          "internalType": "address",
          "name": "",
          "type": "address"
        }
      ],
      "name": "tokensLocked",
      "outputs": [
        {
          "internalType": "uint256",
          "name": "amount",
          "type": "uint256"
        },
        {
          "internalType": "uint256",
          "name": "timestamp",
          "type": "uint256"
        }
      ],
      "stateMutability": "view",
      "type": "function"
    },
    {
      "inputs": [],
      "name": "totalLocked",
      "outputs": [
        {
          "internalType": "uint256",
          "name": "",
          "type": "uint256"
        }
      ],
      "stateMutability": "view",
      "type": "function"
    },
    {
      "inputs": [],
      "name": "totalProposals",
      "outputs": [
        {
          "internalType": "uint256",
          "name": "",
          "type": "uint256"
        }
      ],
      "stateMutability": "view",
      "type": "function"
    },
    {
      "inputs": [
        {
          "internalType": "address",
          "name": "newOwner",
          "type": "address"
        }
      ],
      "name": "transferOwnership",
      "outputs": [],
      "stateMutability": "nonpayable",
      "type": "function"
    },
    {
      "inputs": [],
      "name": "voteGas",
      "outputs": [
        {
          "internalType": "uint256",
          "name": "",
          "type": "uint256"
        }
      ],
      "stateMutability": "view",
      "type": "function"
    },
    {
      "inputs": [
        {
          "internalType": "address",
          "name": "account",
          "type": "address"
        }
      ],
      "name": "votingPowerOf",
      "outputs": [
        {
          "internalType": "uint256",
          "name": "",
          "type": "uint256"
        }
      ],
      "stateMutability": "view",
      "type": "function"
    },
    {
      "inputs": [],
      "name": "votingPowerPercentageForProposalCreation",
      "outputs": [
        {
          "internalType": "uint256",
          "name": "",
          "type": "uint256"
        }
      ],
      "stateMutability": "view",
      "type": "function"
    },
    {
      "inputs": [],
      "name": "votingPowerPercentageForProposalExecution",
      "outputs": [
        {
          "internalType": "uint256",
          "name": "",
          "type": "uint256"
        }
      ],
      "stateMutability": "view",
      "type": "function"
    },
    {
      "inputs": [
        {
          "internalType": "uint256",
          "name": "tokenAmount",
          "type": "uint256"
        }
      ],
      "name": "withdrawTokens",
      "outputs": [],
      "stateMutability": "nonpayable",
      "type": "function"
    }
  ],
  "bytecode": "0x608060405234801561001057600080fd5b50615195806100206000396000f3fe608060405260043610620003b55760003560e01c80635e508c2c11620001eb578063ae619234116200010b578063e045035311620000a7578063f4732da61162000075578063f4732da61462000b33578063f98606a71462000b4a578063fc0c546a1462000b62578063fc4e703f1462000b8457005b8063e04503531462000a9b578063e158080a1462000ab3578063f09951981462000acb578063f2fde38b1462000b0e57005b8063b7c15f8d11620000e5578063b7c15f8d1462000a31578063bcc3f3bd1462000a48578063c0a4d64d1462000a6d578063c93e01e31462000a8457005b8063ae61923414620009cf578063b3929aaa14620009e7578063b3b470611462000a0c57005b806389c98c061162000187578063a16fe3421162000155578063a16fe3421462000968578063a78d80fc1462000988578063a7aeb55714620009a0578063ad6c1e3414620009b857005b806389c98c0614620008f55780638da5cb5b146200090c5780638f180305146200092c57806392b71654146200094357005b80636e27d88911620001c55780636e27d889146200086d578063715018a6146200089257806377027ff414620008aa5780638029eff114620008c157005b80635e508c2c146200082757806364fe6ed2146200083f5780636c8b72f6146200085657005b80632467ef9411620002d757806336f8f8d91162000273578063430694cf1162000241578063430694cf146200079957806354f2f7af14620007cd5780635689141214620007ed5780635bc789d9146200080557005b806336f8f8d9146200072c5780633bf353fb14620007515780633de39c1114620007695780633f10cf15146200078157005b80632d757c3e11620002b15780632d757c3e146200064c5780632fd99c001462000689578063315a095d14620006ce57806332ed5b1214620006f357005b80632467ef9414620005e657806325c069fc14620005fd5780632d5b17de146200062757005b806313108d7411620003535780631a5007dd11620003215780631a5007dd146200055f57806321df0da714620005765780632229a0e214620005aa5780632457e39314620005c157005b806313108d7414620004e557806316bbecde146200050a57806317d7de7c146200052f578063184a0ae9146200054757005b80630a366a6311620003915780630a366a63146200045c5780630d6680871462000483578063123f6d67146200049b578063130485fe14620004c057005b80623a40d014620003b757806301a598a614620003e757806306fdde031462000435575b005b348015620003c457600080fd5b50620003cf62000b9c565b604051620003de919062003a6f565b60405180910390f35b348015620003f457600080fd5b506200041f6200040636600462003ad2565b6012602052600090815260409020805460019091015482565b60408051928352602083019190915201620003de565b3480156200044257600080fd5b506200044d62000bf6565b604051620003de919062003b38565b3480156200046957600080fd5b506200047462000c8c565b604051908152602001620003de565b3480156200049057600080fd5b5062000474600d5481565b348015620004a857600080fd5b50620003b5620004ba36600462003b4d565b62000cbb565b348015620004cd57600080fd5b506200041f620004df36600462003bb6565b62000e54565b348015620004f257600080fd5b50620004746200050436600462003e53565b62000e86565b3480156200051757600080fd5b50620003b56200052936600462003f3d565b62001458565b3480156200053c57600080fd5b506200044d6200159f565b3480156200055457600080fd5b506200047460035481565b3480156200056c57600080fd5b50600a5462000474565b3480156200058357600080fd5b506000546001600160a01b03165b6040516001600160a01b039091168152602001620003de565b348015620005b757600080fd5b5060165462000474565b348015620005ce57600080fd5b50620003b5620005e036600462003f6a565b62001630565b348015620005f357600080fd5b50600c5462000474565b3480156200060a57600080fd5b5062000614600a81565b60405160ff9091168152602001620003de565b3480156200063457600080fd5b50620003b56200064636600462004005565b62001779565b3480156200065957600080fd5b50620004746200066b36600462003ad2565b6001600160a01b031660009081526012602052604090206001015490565b3480156200069657600080fd5b50620006bd620006a836600462004076565b60136020526000908152604090205460ff1681565b6040519015158152602001620003de565b348015620006db57600080fd5b50620003b5620006ed36600462004076565b62001a43565b3480156200070057600080fd5b50620007186200071236600462004076565b62001ca4565b604051620003de96959493929190620040c9565b3480156200073957600080fd5b50620003b56200074b36600462004129565b62001e08565b3480156200075e57600080fd5b5062000474600c5481565b3480156200077657600080fd5b506200047460085481565b3480156200078e57600080fd5b506200047460045481565b348015620007a657600080fd5b50620007be620007b836600462004076565b62002050565b604051620003de91906200429f565b348015620007da57600080fd5b506011546001600160a01b031662000591565b348015620007fa57600080fd5b5062000474600e5481565b3480156200081257600080fd5b5060115462000591906001600160a01b031681565b3480156200083457600080fd5b506200047460055481565b3480156200084c57600080fd5b5060105462000474565b3480156200086357600080fd5b5060075462000474565b3480156200087a57600080fd5b50620003b56200088c36600462004076565b62002403565b3480156200089f57600080fd5b50620003b562002596565b348015620008b757600080fd5b5060095462000474565b348015620008ce57600080fd5b50620006bd620008e036600462004076565b60009081526013602052604090205460ff1690565b3480156200090257600080fd5b5060085462000474565b3480156200091957600080fd5b50604a546001600160a01b031662000591565b3480156200093957600080fd5b50600b5462000474565b3480156200095057600080fd5b506200047462000962366004620043ac565b62002600565b3480156200097557600080fd5b506001546001600160a01b031662000591565b3480156200099557600080fd5b5062000474600a5481565b348015620009ad57600080fd5b5062000474600f5481565b348015620009c557600080fd5b50600f5462000474565b348015620009dc57600080fd5b506200047462002657565b348015620009f457600080fd5b506200047462000a0636600462004076565b62002669565b34801562000a1957600080fd5b50620003b562000a2b36600462004076565b6200268b565b34801562000a3e57600080fd5b5060045462000474565b34801562000a5557600080fd5b506200047462000a6736600462003ad2565b62002fc8565b34801562000a7a57600080fd5b50600d5462000474565b34801562000a9157600080fd5b5060035462000474565b34801562000aa857600080fd5b506200047460095481565b34801562000ac057600080fd5b506200047460105481565b34801562000ad857600080fd5b506200041f62000aea36600462003bb6565b60146020908152600092835260408084209091529082529020805460019091015482565b34801562000b1b57600080fd5b50620003b562000b2d36600462003ad2565b62002fe3565b34801562000b4057600080fd5b50600e5462000474565b34801562000b5757600080fd5b506200047460065481565b34801562000b6f57600080fd5b5060005462000591906001600160a01b031681565b34801562000b9157600080fd5b506200047460075481565b6060601680548060200260200160405190810160405280929190818152602001828054801562000bec57602002820191906000526020600020905b81548152602001906001019080831162000bd7575b5050505050905090565b6002805462000c0590620043e8565b80601f016020809104026020016040519081016040528092919081815260200182805462000c3390620043e8565b801562000c845780601f1062000c585761010080835404028352916020019162000c84565b820191906000526020600020905b81548152906001019060200180831162000c6657829003601f168201915b505050505081565b600061271060065462000c9e600e5490565b62000caa91906200443a565b62000cb691906200446a565b905090565b33301462000d415760405162461bcd60e51b815260206004820152604260248201527f45524332304775696c643a204f6e6c792063616c6c61626c652062792045524360448201527f32306775696c6420697473656c66206f72207768656e20696e697469616c697a606482015261195960f21b608482015260a4015b60405180910390fd5b60008a1162000d645760405162461bcd60e51b815260040162000d389062004481565b8983101562000d875760405162461bcd60e51b815260040162000d3890620044d0565b6000881162000daa5760405162461bcd60e51b815260040162000d38906200452d565b6201c90886111562000e255760405162461bcd60e51b815260206004820152603960248201527f45524332304775696c643a20766f7465206761732068617320746f206265206560448201527f7175616c206f72206c6f776572207468616e2031313730303000000000000000606482015260840162000d38565b600399909955600497909755600595909555600693909355600791909155600855600955600d55600f55601055565b60008281526014602090815260408083206001600160a01b0385168452909152902080546001909101545b9250929050565b6000601054600e54101562000f045760405162461bcd60e51b815260206004820152603960248201527f45524332304775696c643a204e6f7420656e6f75676820746f6b656e73206c6f60448201527f636b656420746f2063726561746520612070726f706f73616c00000000000000606482015260840162000d38565b600f54600b54101562000f765760405162461bcd60e51b815260206004820152603360248201527f45524332304775696c643a204e6f7420656e6f756768206d656d6265727320746044820152721bc818dc99585d194818481c1c9bdc1bdcd85b606a1b606482015260840162000d38565b600954600c541062000fea5760405162461bcd60e51b815260206004820152603660248201527f45524332304775696c643a204d6178696d756d20616d6f756e74206f662061636044820152751d1a5d99481c1c9bdc1bdcd85b1cc81c995858da195960521b606482015260840162000d38565b62000ff462000c8c565b62000fff3362002fc8565b10156200106d5760405162461bcd60e51b815260206004820152603560248201527f45524332304775696c643a204e6f7420656e6f75676820766f74696e67506f77604482015274195c881d1bc818dc99585d19481c1c9bdc1bdcd85b605a1b606482015260840162000d38565b8551875114801562001080575084518751145b620010eb5760405162461bcd60e51b815260206004820152603460248201527f45524332304775696c643a2057726f6e67206c656e677468206f6620746f2c2060448201527364617461206f722076616c75652061727261797360601b606482015260840162000d38565b6000875111620011585760405162461bcd60e51b815260206004820152603160248201527f45524332304775696c643a20746f2c20646174612076616c7565206172726179604482015270732063616e6e6f7420626520656d70747960781b606482015260840162000d38565b865184111580156200117657508385516200117491906200458a565b155b620011ea5760405162461bcd60e51b815260206004820152603760248201527f45524332304775696c643a20496e76616c696420746f74616c4f7074696f6e7360448201527f206f72206f7074696f6e2063616c6c73206c656e677468000000000000000000606482015260840162000d38565b600a841115620012635760405162461bcd60e51b815260206004820152603a60248201527f45524332304775696c643a204d6178696d756d20616d6f756e74206f66206f7060448201527f74696f6e73207065722070726f706f73616c2072656163686564000000000000606482015260840162000d38565b600a546040516bffffffffffffffffffffffff193360601b1660208201524260348201526054810191909152600090607401604051602081830303815290604052805190602001209050600a546001620012be9190620045a1565b600a55600081815260156020526040902080546001600160a01b031916331781554260018201819055600354620012f591620045a1565b600282015588516200131190600383019060208c019062003879565b5087516200132990600483019060208b0190620038e3565b5086516200134190600583019060208a01906200393c565b506006810162001352868262004601565b506007810162001363858262004601565b5062001371866001620045a1565b67ffffffffffffffff8111156200138c576200138c62003be5565b604051908082528060200260200182016040528015620013b6578160200160208202803683370190505b508051620013cf9160098401916020909101906200393c565b5060088101805460ff19166001908117909155600c54620013f091620045a1565b600c558160008051602062005140833981519152600160405190815260200160405180910390a250601680546001810182556000919091527fd833147d7dc355ba459fc788f669e58cfaf9dc25ddcd0702e87d69c7b512428901819055979650505050505050565b60008381526015602052604090206002015442106200148b5760405162461bcd60e51b815260040162000d3890620046ce565b80620014973362002fc8565b10158015620014c15750600083815260146020908152604080832033845290915290206001015481115b620014e05760405162461bcd60e51b815260040162000d389062004719565b60008381526014602090815260408083203384529091529020541580156200152257506000838152601460209081526040808320338452909152902060010154155b806200156d57506000838152601460209081526040808320338452909152902054821480156200156d5750600083815260146020908152604080832033845290915290206001015481115b6200158c5760405162461bcd60e51b815260040162000d38906200475f565b6200159a33848484620030b4565b505050565b606060028054620015b090620043e8565b80601f0160208091040260200160405190810160405280929190818152602001828054620015de90620043e8565b801562000bec5780601f10620016035761010080835404028352916020019162000bec565b820191906000526020600020905b8154815290600101906020018083116200161157509395945050505050565b60175462010000900460ff1680620016505750601754610100900460ff16155b6200166f5760405162461bcd60e51b815260040162000d3890620047c6565b60175462010000900460ff1615801562001695576017805462ffff001916620101001790555b6200169f62003302565b620016d48c8c8c8c8c6040518060400160405280600881526020016711161111dd5a5b1960c21b8152508d8d8d8d8d62001e08565b60018054604051636cfe048960e01b81523060048201526001600160a01b038581166024830152630e38c08b60e41b6044830152600060648301526084820193909352911690636cfe04899060a401600060405180830381600087803b1580156200173e57600080fd5b505af115801562001753573d6000803e3d6000fd5b5050505080156200176b576017805462ff0000191690555b505050505050505050505050565b6000858152601560205260409020600201544210620017ac5760405162461bcd60e51b815260040162000d3890620046ce565b6000620017bc8387878762002600565b60008181526013602052604090205490915060ff1615620018205760405162461bcd60e51b815260206004820152601960248201527f45524332304775696c643a20416c726561647920766f74656400000000000000604482015260640162000d38565b62001884826200187d836040517f19457468657265756d205369676e6564204d6573736167653a0a3332000000006020820152603c8101829052600090605c01604051602081830303815290604052805190602001209050919050565b9062003391565b6001600160a01b0316836001600160a01b031614620018e65760405162461bcd60e51b815260206004820152601860248201527f45524332304775696c643a2057726f6e67207369676e65720000000000000000604482015260640162000d38565b6000818152601360205260409020805460ff19166001179055836200190b8462002fc8565b101580156200193e575060008681526014602090815260408083206001600160a01b038716845290915290206001015484115b6200195d5760405162461bcd60e51b815260040162000d389062004719565b60008681526014602090815260408083206001600160a01b0387168452909152902054158015620019b1575060008681526014602090815260408083206001600160a01b0387168452909152902060010154155b8062001a0e575060008681526014602090815260408083206001600160a01b03871684529091529020548514801562001a0e575060008681526014602090815260408083206001600160a01b038716845290915290206001015484115b62001a2d5760405162461bcd60e51b815260040162000d38906200475f565b62001a3b83878787620030b4565b505050505050565b8062001a4f3362002fc8565b101562001abe5760405162461bcd60e51b815260206004820152603660248201527f45524332304775696c643a20556e61626c6520746f207769746864726177206d6044820152751bdc99481d1bdad95b9cc81d1a185b881b1bd8dad95960521b606482015260840162000d38565b33600090815260126020526040902060010154421162001b215760405162461bcd60e51b815260206004820152601f60248201527f45524332304775696c643a20546f6b656e73207374696c6c206c6f636b656400604482015260640162000d38565b6000811162001b995760405162461bcd60e51b815260206004820152603f60248201527f45524332304775696c643a20616d6f756e74206f6620746f6b656e7320746f2060448201527f7769746864726177206d7573742062652067726561746572207468616e203000606482015260840162000d38565b3360009081526012602052604090205462001bb690829062004814565b33600090815260126020526040902055600e5462001bd690829062004814565b600e5560115460405163f3fef3a360e01b8152336004820152602481018390526001600160a01b039091169063f3fef3a390604401600060405180830381600087803b15801562001c2657600080fd5b505af115801562001c3b573d6000803e3d6000fd5b5050505062001c4a3362002fc8565b60000362001c67576001600b5462001c63919062004814565b600b555b60408051338152602081018390527f6352c5382c4a4578e712449ca65e83cdb392d045dfcf1cad9615189db2da244b91015b60405180910390a150565b60156020526000908152604090208054600182015460028301546006840180546001600160a01b0390941694929391929162001ce090620043e8565b80601f016020809104026020016040519081016040528092919081815260200182805462001d0e90620043e8565b801562001d5f5780601f1062001d335761010080835404028352916020019162001d5f565b820191906000526020600020905b81548152906001019060200180831162001d4157829003601f168201915b50505050509080600701805462001d7690620043e8565b80601f016020809104026020016040519081016040528092919081815260200182805462001da490620043e8565b801562001df55780601f1062001dc95761010080835404028352916020019162001df5565b820191906000526020600020905b81548152906001019060200180831162001dd757829003601f168201915b5050506008909301549192505060ff1686565b60175462010000900460ff168062001e285750601754610100900460ff16155b62001e475760405162461bcd60e51b815260040162000d3890620047c6565b60175462010000900460ff1615801562001e6d576017805462ffff001916620101001790555b6001600160a01b038c1662001ed45760405162461bcd60e51b815260206004820152602660248201527f45524332304775696c643a20746f6b656e2063616e74206265207a65726f206160448201526564647265737360d01b606482015260840162000d38565b60008b1162001ef75760405162461bcd60e51b815260040162000d389062004481565b8a83101562001f1a5760405162461bcd60e51b815260040162000d3890620044d0565b6000891162001f3d5760405162461bcd60e51b815260040162000d38906200452d565b600262001f4b888262004601565b50600080546001600160a01b0319166001600160a01b038e16908117909155604051309062001f7a906200397a565b6001600160a01b03928316815291166020820152604001604051809103906000f08015801562001fae573d6000803e3d6000fd5b50601180546001600160a01b03199081166001600160a01b039384161790915560038d905560048c905560058b905560068a9055600788905560088790556009869055600d859055600180549091169184169190911790556040517ff0454e7b3dd17b2d61d817c1ec7d3417104e974ed42b6e08d9f77f65ffad92b790600090a180156200176b576017805462ff000019169055505050505050505050505050565b6200205a62003988565b60008281526015602090815260409182902082516101408101845281546001600160a01b031681526001820154818401526002820154818501526003820180548551818602810186019096528086529194929360608601939290830182828015620020ef57602002820191906000526020600020905b81546001600160a01b03168152600190910190602001808311620020d0575b5050505050815260200160048201805480602002602001604051908101604052809291908181526020016000905b82821015620021d35783829060005260206000200180546200213f90620043e8565b80601f01602080910402602001604051908101604052809291908181526020018280546200216d90620043e8565b8015620021be5780601f106200219257610100808354040283529160200191620021be565b820191906000526020600020905b815481529060010190602001808311620021a057829003601f168201915b5050505050815260200190600101906200211d565b505050508152602001600582018054806020026020016040519081016040528092919081815260200182805480156200222c57602002820191906000526020600020905b81548152602001906001019080831162002217575b505050505081526020016006820180546200224790620043e8565b80601f01602080910402602001604051908101604052809291908181526020018280546200227590620043e8565b8015620022c65780601f106200229a57610100808354040283529160200191620022c6565b820191906000526020600020905b815481529060010190602001808311620022a857829003601f168201915b50505050508152602001600782018054620022e190620043e8565b80601f01602080910402602001604051908101604052809291908181526020018280546200230f90620043e8565b8015620023605780601f10620023345761010080835404028352916020019162002360565b820191906000526020600020905b8154815290600101906020018083116200234257829003601f168201915b5050509183525050600882015460209091019060ff1660048111156200238a576200238a62004090565b60048111156200239e576200239e62004090565b815260200160098201805480602002602001604051908101604052809291908181526020018280548015620023f357602002820191906000526020600020905b815481526020019060010190808311620023de575b5050505050815250509050919050565b60008111620024705760405162461bcd60e51b815260206004820152603260248201527f45524332304775696c643a20546f6b656e7320746f206c6f636b2073686f756c60448201527106420626520686967686572207468616e20360741b606482015260840162000d38565b6200247b3362002fc8565b6000036200249757600b5462002493906001620045a1565b600b555b6011546040516311f9fbc960e21b8152336004820152602481018390526001600160a01b03909116906347e7ef2490604401600060405180830381600087803b158015620024e457600080fd5b505af1158015620024f9573d6000803e3d6000fd5b5050336000908152601260205260409020546200251a9250839150620045a1565b33600090815260126020526040902055600d54620025399042620045a1565b33600090815260126020526040902060010155600e546200255c908290620045a1565b600e5560408051338152602081018390527fac87f20a77d28ee8bbb58ec87ea8fa968b3393efae1a368fd50b767c2847391c910162001c99565b604a546001600160a01b03163314620025f25760405162461bcd60e51b815260206004820181905260248201527f4f776e61626c653a2063616c6c6572206973206e6f7420746865206f776e6572604482015260640162000d38565b620025fe6000620033bb565b565b6040516bffffffffffffffffffffffff19606086901b166020820152603481018490526054810183905260748101829052600090609401604051602081830303815290604052805190602001209050949350505050565b600061271060055462000c9e600e5490565b601681815481106200267a57600080fd5b600091825260209091200154905081565b60175460ff1615620026ec5760405162461bcd60e51b8152602060048201526024808201527f45524332304775696c643a2050726f706f73616c20756e6465722065786563756044820152633a34b7b760e11b606482015260840162000d38565b600160008281526015602052604090206008015460ff16600481111562002717576200271762004090565b14620027745760405162461bcd60e51b815260206004820152602560248201527f45524332304775696c643a2050726f706f73616c20616c72656164792065786560448201526418dd5d195960da1b606482015260840162000d38565b6000818152601560205260409020600201544211620027e45760405162461bcd60e51b815260206004820152602560248201527f45524332304775696c643a2050726f706f73616c206861736e277420656e646560448201526419081e595d60da1b606482015260840162000d38565b6000818152601560205260408120600901805482919082906200280b576200280b6200482a565b600091825260209091200154905060015b6000848152601560205260409020600901548110156200294a576200284062002657565b60008581526015602052604090206009018054839081106200286657620028666200482a565b906000526020600020015410158015620028b257506000848152601560205260409020600901805483919083908110620028a457620028a46200482a565b906000526020600020015410155b1562002935576000848152601560205260409020600901805483919083908110620028e157620028e16200482a565b906000526020600020015403620028fc576000925062002935565b600084815260156020526040902060090180549193508391829081106200292757620029276200482a565b906000526020600020015491505b80620029418162004840565b9150506200281c565b826000036200299d576000848152601560205260409020600801805460ff19166002908117909155849060008051602062005140833981519152905b60405190815260200160405180910390a262002fae565b6004546000858152601560205260409020600201544291620029bf91620045a1565b1015620029fe576000848152601560205260409020600801805460ff191660049081179091558490600080516020620051408339815191529062002986565b600084815260156020526040812060088101805460ff191660031790556009015462002a2d9060019062004814565b60008681526015602052604090206003015462002a4b91906200446a565b905062002a5a60018562004814565b62002a6690826200443a565b9150600062002a768284620045a1565b9050600160009054906101000a90046001600160a01b03166001600160a01b0316633e7a47b26040518163ffffffff1660e01b8152600401600060405180830381600087803b15801562002ac957600080fd5b505af115801562002ade573d6000803e3d6000fd5b505050505b8083101562002f1757600086815260156020526040812060030180548590811062002b125762002b126200482a565b6000918252602090912001546001600160a01b03161480159062002b725750600086815260156020526040812060040180548590811062002b575762002b576200482a565b90600052602060002001805462002b6e90620043e8565b9050115b1562002f0257600086815260156020526040812060040180548590811062002b9e5762002b9e6200482a565b90600052602060002001805462002bb590620043e8565b80601f016020809104026020016040519081016040528092919081815260200182805462002be390620043e8565b801562002c345780601f1062002c085761010080835404028352916020019162002c34565b820191906000526020600020905b81548152906001019060200180831162002c1657829003601f168201915b50505060208084015160015460008d815260159093526040909220600301805495965090946001600160a01b03909216935063eed47033925030918990811062002c825762002c826200482a565b9060005260206000200160009054906101000a90046001600160a01b031684601560008e81526020019081526020016000206005018a8154811062002ccb5762002ccb6200482a565b60009182526020909120015460405160e086901b6001600160e01b031990811682526001600160a01b039586166004830152939094166024850152911660448301526064820152608401600060405180830381600087803b15801562002d3057600080fd5b505af192505050801562002d42575060015b62002d9d5762002d516200485c565b806308c379a00362002d91575062002d6862004879565b8062002d75575062002d93565b8060405162461bcd60e51b815260040162000d38919062003b38565b505b3d6000803e3d6000fd5b6017805460ff19166001179055600088815260156020526040812060030180548790811062002dd05762002dd06200482a565b60009182526020808320909101548b83526015909152604090912060050180546001600160a01b03909216918890811062002e0f5762002e0f6200482a565b9060005260206000200154601560008c8152602001908152602001600020600401888154811062002e445762002e446200482a565b9060005260206000200160405162002e5d919062004909565b60006040518083038185875af1925050503d806000811462002e9c576040519150601f19603f3d011682016040523d82523d6000602084013e62002ea1565b606091505b505090508062002ef45760405162461bcd60e51b815260206004820181905260248201527f45524332304775696c643a2050726f706f73616c2063616c6c206661696c6564604482015260640162000d38565b50506017805460ff19169055505b8262002f0e8162004840565b93505062002ae3565b60015460405163fb0fde8560e01b81523060048201526001600160a01b039091169063fb0fde8590602401602060405180830381865afa15801562002f60573d6000803e3d6000fd5b505050506040513d601f19601f8201168201806040525081019062002f86919062004987565b508560008051602062005140833981519152600360405190815260200160405180910390a250505b6001600c5462002fbf919062004814565b600c5550505050565b6001600160a01b031660009081526012602052604090205490565b604a546001600160a01b031633146200303f5760405162461bcd60e51b815260206004820181905260248201527f4f776e61626c653a2063616c6c6572206973206e6f7420746865206f776e6572604482015260640162000d38565b6001600160a01b038116620030a65760405162461bcd60e51b815260206004820152602660248201527f4f776e61626c653a206e6577206f776e657220697320746865207a65726f206160448201526564647265737360d01b606482015260840162000d38565b620030b181620033bb565b50565b60008381526014602090815260408083206001600160a01b03881684528252808320600101548684526015909252909120600901805483929190859081106200310157620031016200482a565b906000526020600020015462003118919062004814565b620031249190620045a1565b60008481526015602052604090206009018054849081106200314a576200314a6200482a565b60009182526020808320909101929092558481526014825260408082206001600160a01b0388168352835280822085815560010184905585825260159092522060020154620031b1856001600160a01b031660009081526012602052604090206001015490565b1015620031e6576000838152601560209081526040808320600201546001600160a01b03881684526012909252909120600101555b604080516001600160a01b038616815260208101839052839185917f583c62f152711bcb1ca6186c1065821ff17a7cbe226dcb559a1c889dcf0d769b910160405180910390a360075415620032fc5760006200324e6008543a6200340d90919063ffffffff16565b6007546200325d91906200443a565b9050804710620032fa57604051600090339083908381818185875af1925050503d8060008114620032ab576040519150601f19603f3d011682016040523d82523d6000602084013e620032b0565b606091505b505090508062001a3b5760405162461bcd60e51b81526020600482015260146024820152734661696c656420746f20726566756e642067617360601b604482015260640162000d38565b505b50505050565b60175462010000900460ff1680620033225750601754610100900460ff16155b620033415760405162461bcd60e51b815260040162000d3890620047c6565b60175462010000900460ff1615801562003367576017805462ffff001916620101001790555b6200337162003427565b6200337b620034a1565b8015620030b1576017805462ff00001916905550565b6000806000620033a2858562003511565b91509150620033b18162003585565b5090505b92915050565b604a80546001600160a01b038381166001600160a01b0319831681179093556040519116919082907f8be0079c531659141344cd1fd0a4f28419497f9722a3daafe3b4186f6b6457e090600090a35050565b60008183106200341e578162003420565b825b9392505050565b60175462010000900460ff1680620034475750601754610100900460ff16155b620034665760405162461bcd60e51b815260040162000d3890620047c6565b60175462010000900460ff161580156200337b576017805462ffff001916620101001790558015620030b1576017805462ff00001916905550565b60175462010000900460ff1680620034c15750601754610100900460ff16155b620034e05760405162461bcd60e51b815260040162000d3890620047c6565b60175462010000900460ff1615801562003506576017805462ffff001916620101001790555b6200337b33620033bb565b60008082516041036200354b5760208301516040840151606085015160001a6200353e8782858562003753565b9450945050505062000e7f565b82516040036200357857602083015160408401516200356c86838362003848565b93509350505062000e7f565b5060009050600262000e7f565b60008160048111156200359c576200359c62004090565b03620035a55750565b6001816004811115620035bc57620035bc62004090565b036200360b5760405162461bcd60e51b815260206004820152601860248201527f45434453413a20696e76616c6964207369676e61747572650000000000000000604482015260640162000d38565b600281600481111562003622576200362262004090565b03620036715760405162461bcd60e51b815260206004820152601f60248201527f45434453413a20696e76616c6964207369676e6174757265206c656e67746800604482015260640162000d38565b600381600481111562003688576200368862004090565b03620036e25760405162461bcd60e51b815260206004820152602260248201527f45434453413a20696e76616c6964207369676e6174757265202773272076616c604482015261756560f01b606482015260840162000d38565b6004816004811115620036f957620036f962004090565b03620030b15760405162461bcd60e51b815260206004820152602260248201527f45434453413a20696e76616c6964207369676e6174757265202776272076616c604482015261756560f01b606482015260840162000d38565b6000807f7fffffffffffffffffffffffffffffff5d576e7357a4501ddfe92f46681b20a08311156200378c57506000905060036200383f565b8460ff16601b14158015620037a557508460ff16601c14155b15620037b857506000905060046200383f565b6040805160008082526020820180845289905260ff881692820192909252606081018690526080810185905260019060a0016020604051602081039080840390855afa1580156200380d573d6000803e3d6000fd5b5050604051601f1901519150506001600160a01b03811662003838576000600192509250506200383f565b9150600090505b94509492505050565b6000806001600160ff1b03831660ff84901c601b016200386b8782888562003753565b935093505050935093915050565b828054828255906000526020600020908101928215620038d1579160200282015b82811115620038d157825182546001600160a01b0319166001600160a01b039091161782556020909201916001909101906200389a565b50620038df929150620039f8565b5090565b8280548282559060005260206000209081019282156200392e579160200282015b828111156200392e57825182906200391d908262004601565b509160200191906001019062003904565b50620038df92915062003a0f565b828054828255906000526020600020908101928215620038d1579160200282015b82811115620038d15782518255916020019190600101906200395d565b61079480620049ac83390190565b60405180610140016040528060006001600160a01b031681526020016000815260200160008152602001606081526020016060815260200160608152602001606081526020016060815260200160006004811115620039eb57620039eb62004090565b8152602001606081525090565b5b80821115620038df5760008155600101620039f9565b80821115620038df57600062003a26828262003a30565b5060010162003a0f565b50805462003a3e90620043e8565b6000825580601f1062003a4f575050565b601f016020900490600052602060002090810190620030b19190620039f8565b6020808252825182820181905260009190848201906040850190845b8181101562003aa95783518352928401929184019160010162003a8b565b50909695505050505050565b80356001600160a01b038116811462003acd57600080fd5b919050565b60006020828403121562003ae557600080fd5b620034208262003ab5565b6000815180845260005b8181101562003b185760208185018101518683018201520162003afa565b506000602082860101526020601f19601f83011685010191505092915050565b60208152600062003420602083018462003af0565b6000806000806000806000806000806101408b8d03121562003b6e57600080fd5b505088359a60208a01359a5060408a013599606081013599506080810135985060a0810135975060c0810135965060e081013595506101008101359450610120013592509050565b6000806040838503121562003bca57600080fd5b8235915062003bdc6020840162003ab5565b90509250929050565b634e487b7160e01b600052604160045260246000fd5b601f8201601f1916810167ffffffffffffffff8111828210171562003c245762003c2462003be5565b6040525050565b600067ffffffffffffffff82111562003c485762003c4862003be5565b5060051b60200190565b600082601f83011262003c6457600080fd5b8135602062003c738262003c2b565b60405162003c82828262003bfb565b83815260059390931b850182019282810191508684111562003ca357600080fd5b8286015b8481101562003cc95762003cbb8162003ab5565b835291830191830162003ca7565b509695505050505050565b600082601f83011262003ce657600080fd5b813567ffffffffffffffff81111562003d035762003d0362003be5565b60405162003d1c601f8301601f19166020018262003bfb565b81815284602083860101111562003d3257600080fd5b816020850160208301376000918101602001919091529392505050565b600082601f83011262003d6157600080fd5b8135602062003d708262003c2b565b60405162003d7f828262003bfb565b83815260059390931b850182019282810191508684111562003da057600080fd5b8286015b8481101562003cc957803567ffffffffffffffff81111562003dc65760008081fd5b62003dd68986838b010162003cd4565b84525091830191830162003da4565b600082601f83011262003df757600080fd5b8135602062003e068262003c2b565b60405162003e15828262003bfb565b83815260059390931b850182019282810191508684111562003e3657600080fd5b8286015b8481101562003cc9578035835291830191830162003e3a565b60008060008060008060c0878903121562003e6d57600080fd5b863567ffffffffffffffff8082111562003e8657600080fd5b62003e948a838b0162003c52565b9750602089013591508082111562003eab57600080fd5b62003eb98a838b0162003d4f565b9650604089013591508082111562003ed057600080fd5b62003ede8a838b0162003de5565b955060608901359450608089013591508082111562003efc57600080fd5b62003f0a8a838b0162003cd4565b935060a089013591508082111562003f2157600080fd5b5062003f3089828a0162003cd4565b9150509295509295509295565b60008060006060848603121562003f5357600080fd5b505081359360208301359350604090920135919050565b60008060008060008060008060008060006101608c8e03121562003f8d57600080fd5b62003f988c62003ab5565b9a5060208c0135995060408c0135985060608c0135975060808c0135965060a08c0135955060c08c0135945060e08c013593506101008c0135925062003fe26101208d0162003ab5565b915062003ff36101408d0162003ab5565b90509295989b509295989b9093969950565b600080600080600060a086880312156200401e57600080fd5b8535945060208601359350604086013592506200403e6060870162003ab5565b9150608086013567ffffffffffffffff8111156200405b57600080fd5b620040698882890162003cd4565b9150509295509295909350565b6000602082840312156200408957600080fd5b5035919050565b634e487b7160e01b600052602160045260246000fd5b60058110620040c557634e487b7160e01b600052602160045260246000fd5b9052565b60018060a01b038716815285602082015284604082015260c060608201526000620040f860c083018662003af0565b82810360808401526200410c818662003af0565b9150506200411e60a0830184620040a6565b979650505050505050565b60008060008060008060008060008060006101608c8e0312156200414c57600080fd5b620041578c62003ab5565b9a5060208c0135995060408c0135985060608c0135975060808c0135965060a08c013567ffffffffffffffff8111156200419057600080fd5b6200419e8e828f0162003cd4565b96505060c08c0135945060e08c013593506101008c013592506101208c0135915062003ff36101408d0162003ab5565b600081518084526020808501945080840160005b83811015620042095781516001600160a01b031687529582019590820190600101620041e2565b509495945050505050565b600081518084526020808501808196508360051b8101915082860160005b85811015620042605782840389526200424d84835162003af0565b9885019893509084019060010162004232565b5091979650505050505050565b600081518084526020808501945080840160005b83811015620042095781518752958201959082019060010162004281565b60208152620042ba6020820183516001600160a01b03169052565b602082015160408201526040820151606082015260006060830151610140806080850152620042ee610160850183620041ce565b91506080850151601f19808685030160a08701526200430e848362004214565b935060a08701519150808685030160c08701526200432d84836200426d565b935060c08701519150808685030160e08701526200434c848362003af0565b935060e087015191506101008187860301818801526200436d858462003af0565b9450808801519250506101206200438781880184620040a6565b870151868503909101838701529050620043a283826200426d565b9695505050505050565b60008060008060808587031215620043c357600080fd5b620043ce8562003ab5565b966020860135965060408601359560600135945092505050565b600181811c90821680620043fd57607f821691505b6020821081036200441e57634e487b7160e01b600052602260045260246000fd5b50919050565b634e487b7160e01b600052601160045260246000fd5b8082028115828204841417620033b557620033b562004424565b634e487b7160e01b600052601260045260246000fd5b6000826200447c576200447c62004454565b500490565b6020808252602f908201527f45524332304775696c643a2070726f706f73616c2074696d652068617320746f60408201526e0206265206d6f7265207468616e203608c1b606082015260800190565b6020808252603e908201527f45524332304775696c643a206c6f636b54696d652068617320746f206265206860408201527f6967686572206f7220657175616c20746f2070726f706f73616c54696d650000606082015260800190565b6020808252603c908201527f45524332304775696c643a20766f74696e6720706f77657220666f722065786560408201527f637574696f6e2068617320746f206265206d6f7265207468616e203000000000606082015260800190565b6000826200459c576200459c62004454565b500690565b80820180821115620033b557620033b562004424565b601f8211156200159a57600081815260208120601f850160051c81016020861015620045e05750805b601f850160051c820191505b8181101562001a3b57828155600101620045ec565b815167ffffffffffffffff8111156200461e576200461e62003be5565b62004636816200462f8454620043e8565b84620045b7565b602080601f8311600181146200466e5760008415620046555750858301515b600019600386901b1c1916600185901b17855562001a3b565b600085815260208120601f198616915b828110156200469f578886015182559484019460019091019084016200467e565b5085821015620046be5787850151600019600388901b60f8161c191681555b5050505050600190811b01905550565b6020808252602b908201527f45524332304775696c643a2050726f706f73616c20656e6465642c2063616e6e60408201526a1bdd081899481d9bdd195960aa1b606082015260800190565b60208082526026908201527f45524332304775696c643a20496e76616c696420766f74696e67506f77657220604082015265185b5bdd5b9d60d21b606082015260800190565b60208082526041908201527f45524332304775696c643a2043616e6e6f74206368616e6765206f7074696f6e60408201527f20766f7465642c206f6e6c7920696e63726561736520766f74696e67506f77656060820152603960f91b608082015260a00190565b6020808252602e908201527f496e697469616c697a61626c653a20636f6e747261637420697320616c72656160408201526d191e481a5b9a5d1a585b1a5e995960921b606082015260800190565b81810381811115620033b557620033b562004424565b634e487b7160e01b600052603260045260246000fd5b60006001820162004855576200485562004424565b5060010190565b600060033d1115620048765760046000803e5060005160e01c5b90565b600060443d1015620048885790565b6040516003193d81016004833e81513d67ffffffffffffffff8160248401118184111715620048b957505050505090565b8285019150815181811115620048d25750505050505090565b843d8701016020828501011115620048ed5750505050505090565b620048fe6020828601018762003bfb565b509095945050505050565b60008083546200491981620043e8565b600182811680156200493457600181146200494a576200497b565b60ff19841687528215158302870194506200497b565b8760005260208060002060005b85811015620049725781548a82015290840190820162004957565b50505082870194505b50929695505050505050565b6000602082840312156200499a57600080fd5b815180151581146200342057600080fdfe608060405234801561001057600080fd5b5060405161079438038061079483398101604081905261002f9161007c565b600080546001600160a01b039384166001600160a01b031991821617909155600180549290931691161790556100af565b80516001600160a01b038116811461007757600080fd5b919050565b6000806040838503121561008f57600080fd5b61009883610060565b91506100a660208401610060565b90509250929050565b6106d6806100be6000396000f3fe608060405234801561001057600080fd5b506004361061007d5760003560e01c80636e9960c31161005b5780636e9960c3146100ef578063f3fef3a314610100578063f851a44014610113578063fc0c546a1461012657600080fd5b806321df0da71461008257806327e235e3146100ac57806347e7ef24146100da575b600080fd5b6000546001600160a01b03165b6040516001600160a01b0390911681526020015b60405180910390f35b6100cc6100ba36600461058a565b60026020526000908152604090205481565b6040519081526020016100a3565b6100ed6100e83660046105a5565b610139565b005b6001546001600160a01b031661008f565b6100ed61010e3660046105a5565b61020a565b60015461008f906001600160a01b031681565b60005461008f906001600160a01b031681565b6001546001600160a01b031633146101af5760405162461bcd60e51b815260206004820152602e60248201527f546f6b656e5661756c743a204465706f736974206d7573742062652073656e7460448201526d103a343937bab3b41030b236b4b760911b60648201526084015b60405180910390fd5b6000546101c7906001600160a01b031683308461025b565b6001600160a01b0382166000908152600260205260409020546101ea90826102cc565b6001600160a01b0390921660009081526002602052604090209190915550565b6001546001600160a01b0316331461022157600080fd5b600054610238906001600160a01b031683836102e1565b6001600160a01b0382166000908152600260205260409020546101ea9082610316565b6040516001600160a01b03808516602483015283166044820152606481018290526102c69085906323b872dd60e01b906084015b60408051601f198184030181529190526020810180516001600160e01b03166001600160e01b031990931692909217909152610322565b50505050565b60006102d882846105e5565b90505b92915050565b6040516001600160a01b03831660248201526044810182905261031190849063a9059cbb60e01b9060640161028f565b505050565b60006102d882846105f8565b6000610377826040518060400160405280602081526020017f5361666545524332303a206c6f772d6c6576656c2063616c6c206661696c6564815250856001600160a01b03166103f49092919063ffffffff16565b8051909150156103115780806020019051810190610395919061060b565b6103115760405162461bcd60e51b815260206004820152602a60248201527f5361666545524332303a204552433230206f7065726174696f6e20646964206e6044820152691bdd081cdd58d8d9595960b21b60648201526084016101a6565b6060610403848460008561040d565b90505b9392505050565b60608247101561046e5760405162461bcd60e51b815260206004820152602660248201527f416464726573733a20696e73756666696369656e742062616c616e636520666f6044820152651c8818d85b1b60d21b60648201526084016101a6565b843b6104bc5760405162461bcd60e51b815260206004820152601d60248201527f416464726573733a2063616c6c20746f206e6f6e2d636f6e747261637400000060448201526064016101a6565b600080866001600160a01b031685876040516104d89190610651565b60006040518083038185875af1925050503d8060008114610515576040519150601f19603f3d011682016040523d82523d6000602084013e61051a565b606091505b509150915061052a828286610535565b979650505050505050565b60608315610544575081610406565b8251156105545782518084602001fd5b8160405162461bcd60e51b81526004016101a6919061066d565b80356001600160a01b038116811461058557600080fd5b919050565b60006020828403121561059c57600080fd5b6102d88261056e565b600080604083850312156105b857600080fd5b6105c18361056e565b946020939093013593505050565b634e487b7160e01b600052601160045260246000fd5b808201808211156102db576102db6105cf565b818103818111156102db576102db6105cf565b60006020828403121561061d57600080fd5b8151801515811461040657600080fd5b60005b83811015610648578181015183820152602001610630565b50506000910152565b6000825161066381846020870161062d565b9190910192915050565b602081526000825180602084015261068c81604085016020870161062d565b601f01601f1916919091016040019291505056fea26469706673582212200dc40e929cb7cd09eab9a5dff5e560bcf87fefdb78df12750c3659d40d03ae5e64736f6c63430008110033fee62a9eec0be50eb061c711990ef0f1e17b40ea131d9347b0468acdaf8bf243a26469706673582212204f8b9840a991ed090eef950fe7eb9b9fb591f0870e8b3d53984359790669dbf264736f6c63430008110033",
  "linkReferences": {},
  "deployedLinkReferences": {}
}