{
  "_format": "hh-sol-artifact-1",
  "contractName": "ERC20Token",
  "sourceName": "contracts/utils/ERC20/ERC20Token.sol",
  "abi": [
    {
      "anonymous": false,
      "inputs": [
        {
          "indexed": true,
          "internalType": "address",
          "name": "owner",
          "type": "address"
        },
        {
          "indexed": true,
          "internalType": "address",
          "name": "spender",
          "type": "address"
        },
        {
          "indexed": false,
          "internalType": "uint256",
          "name": "value",
          "type": "uint256"
        }
      ],
      "name": "Approval",
      "type": "event"
    },
    {
      "anonymous": false,
      "inputs": [
        {
          "indexed": true,
          "internalType": "address",
          "name": "from",
          "type": "address"
        },
        {
          "indexed": true,
          "internalType": "address",
          "name": "to",
          "type": "address"
        },
        {
          "indexed": false,
          "internalType": "uint256",
          "name": "value",
          "type": "uint256"
        }
      ],
      "name": "Transfer",
      "type": "event"
    },
    {
      "inputs": [
        {
          "internalType": "address",
          "name": "owner",
          "type": "address"
        },
        {
          "internalType": "address",
          "name": "spender",
          "type": "address"
        }
      ],
      "name": "allowance",
      "outputs": [
        {
          "internalType": "uint256",
          "name": "",
          "type": "uint256"
        }
      ],
      "stateMutability": "view",
      "type": "function"
    },
    {
      "inputs": [
        {
          "internalType": "address",
          "name": "spender",
          "type": "address"
        },
        {
          "internalType": "uint256",
          "name": "amount",
          "type": "uint256"
        }
      ],
      "name": "approve",
      "outputs": [
        {
          "internalType": "bool",
          "name": "",
          "type": "bool"
        }
      ],
      "stateMutability": "nonpayable",
      "type": "function"
    },
    {
      "inputs": [
        {
          "internalType": "address",
          "name": "account",
          "type": "address"
        }
      ],
      "name": "balanceOf",
      "outputs": [
        {
          "internalType": "uint256",
          "name": "",
          "type": "uint256"
        }
      ],
      "stateMutability": "view",
      "type": "function"
    },
    {
      "inputs": [],
      "name": "decimals",
      "outputs": [
        {
          "internalType": "uint8",
          "name": "",
          "type": "uint8"
        }
      ],
      "stateMutability": "view",
      "type": "function"
    },
    {
      "inputs": [
        {
          "internalType": "address",
          "name": "spender",
          "type": "address"
        },
        {
          "internalType": "uint256",
          "name": "subtractedValue",
          "type": "uint256"
        }
      ],
      "name": "decreaseAllowance",
      "outputs": [
        {
          "internalType": "bool",
          "name": "",
          "type": "bool"
        }
      ],
      "stateMutability": "nonpayable",
      "type": "function"
    },
    {
      "inputs": [
        {
          "internalType": "address",
          "name": "spender",
          "type": "address"
        },
        {
          "internalType": "uint256",
          "name": "addedValue",
          "type": "uint256"
        }
      ],
      "name": "increaseAllowance",
      "outputs": [
        {
          "internalType": "bool",
          "name": "",
          "type": "bool"
        }
      ],
      "stateMutability": "nonpayable",
      "type": "function"
    },
    {
      "inputs": [
        {
          "internalType": "string",
          "name": "name",
          "type": "string"
        },
        {
          "internalType": "string",
          "name": "symbol",
          "type": "string"
        },
        {
          "internalType": "address",
          "name": "_initialAccount",
          "type": "address"
        },
        {
          "internalType": "uint256",
          "name": "_totalSupply",
          "type": "uint256"
        }
      ],
      "name": "initialize",
      "outputs": [],
      "stateMutability": "nonpayable",
      "type": "function"
    },
    {
      "inputs": [],
      "name": "name",
      "outputs": [
        {
          "internalType": "string",
          "name": "",
          "type": "string"
        }
      ],
      "stateMutability": "view",
      "type": "function"
    },
    {
      "inputs": [],
      "name": "symbol",
      "outputs": [
        {
          "internalType": "string",
          "name": "",
          "type": "string"
        }
      ],
      "stateMutability": "view",
      "type": "function"
    },
    {
      "inputs": [],
      "name": "totalSupply",
      "outputs": [
        {
          "internalType": "uint256",
          "name": "",
          "type": "uint256"
        }
      ],
      "stateMutability": "view",
      "type": "function"
    },
    {
      "inputs": [
        {
          "internalType": "address",
          "name": "recipient",
          "type": "address"
        },
        {
          "internalType": "uint256",
          "name": "amount",
          "type": "uint256"
        }
      ],
      "name": "transfer",
      "outputs": [
        {
          "internalType": "bool",
          "name": "",
          "type": "bool"
        }
      ],
      "stateMutability": "nonpayable",
      "type": "function"
    },
    {
      "inputs": [
        {
          "internalType": "address",
          "name": "sender",
          "type": "address"
        },
        {
          "internalType": "address",
          "name": "recipient",
          "type": "address"
        },
        {
          "internalType": "uint256",
          "name": "amount",
          "type": "uint256"
        }
      ],
      "name": "transferFrom",
      "outputs": [
        {
          "internalType": "bool",
          "name": "",
          "type": "bool"
        }
      ],
      "stateMutability": "nonpayable",
      "type": "function"
    }
  ],
  "bytecode": "0x608060405234801561001057600080fd5b50610e29806100206000396000f3fe608060405234801561001057600080fd5b50600436106100b45760003560e01c806370a082311161007157806370a082311461014157806395d89b411461016a578063a457c2d714610172578063a9059cbb14610185578063dd62ed3e14610198578063f542033f146101d157600080fd5b806306fdde03146100b9578063095ea7b3146100d757806318160ddd146100fa57806323b872dd1461010c578063313ce5671461011f578063395093511461012e575b600080fd5b6100c16101e6565b6040516100ce91906109f8565b60405180910390f35b6100ea6100e5366004610a62565b610278565b60405190151581526020016100ce565b6035545b6040519081526020016100ce565b6100ea61011a366004610a8c565b61028f565b604051601281526020016100ce565b6100ea61013c366004610a62565b61033e565b6100fe61014f366004610ac8565b6001600160a01b031660009081526033602052604090205490565b6100c161037a565b6100ea610180366004610a62565b610389565b6100ea610193366004610a62565b610422565b6100fe6101a6366004610aea565b6001600160a01b03918216600090815260346020908152604080832093909416825291909152205490565b6101e46101df366004610bc0565b61042f565b005b6060603680546101f590610c3c565b80601f016020809104026020016040519081016040528092919081815260200182805461022190610c3c565b801561026e5780601f106102435761010080835404028352916020019161026e565b820191906000526020600020905b81548152906001019060200180831161025157829003601f168201915b5050505050905090565b60006102853384846104b3565b5060015b92915050565b600061029c8484846105d7565b6001600160a01b0384166000908152603460209081526040808320338452909152902054828110156103265760405162461bcd60e51b815260206004820152602860248201527f45524332303a207472616e7366657220616d6f756e74206578636565647320616044820152676c6c6f77616e636560c01b60648201526084015b60405180910390fd5b61033385338584036104b3565b506001949350505050565b3360008181526034602090815260408083206001600160a01b03871684529091528120549091610285918590610375908690610c76565b6104b3565b6060603780546101f590610c3c565b3360009081526034602090815260408083206001600160a01b03861684529091528120548281101561040b5760405162461bcd60e51b815260206004820152602560248201527f45524332303a2064656372656173656420616c6c6f77616e63652062656c6f77604482015264207a65726f60d81b606482015260840161031d565b61041833858584036104b3565b5060019392505050565b60006102853384846105d7565b600054610100900460ff1680610448575060005460ff16155b6104645760405162461bcd60e51b815260040161031d90610c97565b600054610100900460ff16158015610486576000805461ffff19166101011790555b61049085856107a6565b61049a8383610826565b80156104ac576000805461ff00191690555b5050505050565b6001600160a01b0383166105155760405162461bcd60e51b8152602060048201526024808201527f45524332303a20617070726f76652066726f6d20746865207a65726f206164646044820152637265737360e01b606482015260840161031d565b6001600160a01b0382166105765760405162461bcd60e51b815260206004820152602260248201527f45524332303a20617070726f766520746f20746865207a65726f206164647265604482015261737360f01b606482015260840161031d565b6001600160a01b0383811660008181526034602090815260408083209487168084529482529182902085905590518481527f8c5be1e5ebec7d5bd14f71427d1e84f3dd0314c0f7b2291e5b200ac8c7c3b925910160405180910390a3505050565b6001600160a01b03831661063b5760405162461bcd60e51b815260206004820152602560248201527f45524332303a207472616e736665722066726f6d20746865207a65726f206164604482015264647265737360d81b606482015260840161031d565b6001600160a01b03821661069d5760405162461bcd60e51b815260206004820152602360248201527f45524332303a207472616e7366657220746f20746865207a65726f206164647260448201526265737360e81b606482015260840161031d565b6001600160a01b038316600090815260336020526040902054818110156107155760405162461bcd60e51b815260206004820152602660248201527f45524332303a207472616e7366657220616d6f756e7420657863656564732062604482015265616c616e636560d01b606482015260840161031d565b6001600160a01b0380851660009081526033602052604080822085850390559185168152908120805484929061074c908490610c76565b92505081905550826001600160a01b0316846001600160a01b03167fddf252ad1be2c89b69c2b068fc378daa952ba7f163c4a11628f55a4df523b3ef8460405161079891815260200190565b60405180910390a350505050565b600054610100900460ff16806107bf575060005460ff16155b6107db5760405162461bcd60e51b815260040161031d90610c97565b600054610100900460ff161580156107fd576000805461ffff19166101011790555b610805610905565b61080f8383610971565b8015610821576000805461ff00191690555b505050565b6001600160a01b03821661087c5760405162461bcd60e51b815260206004820152601f60248201527f45524332303a206d696e7420746f20746865207a65726f206164647265737300604482015260640161031d565b806035600082825461088e9190610c76565b90915550506001600160a01b038216600090815260336020526040812080548392906108bb908490610c76565b90915550506040518181526001600160a01b038316906000907fddf252ad1be2c89b69c2b068fc378daa952ba7f163c4a11628f55a4df523b3ef9060200160405180910390a35050565b600054610100900460ff168061091e575060005460ff16155b61093a5760405162461bcd60e51b815260040161031d90610c97565b600054610100900460ff1615801561095c576000805461ffff19166101011790555b801561096e576000805461ff00191690555b50565b600054610100900460ff168061098a575060005460ff16155b6109a65760405162461bcd60e51b815260040161031d90610c97565b600054610100900460ff161580156109c8576000805461ffff19166101011790555b60366109d48482610d33565b5060376109e18382610d33565b508015610821576000805461ff0019169055505050565b600060208083528351808285015260005b81811015610a2557858101830151858201604001528201610a09565b506000604082860101526040601f19601f8301168501019250505092915050565b80356001600160a01b0381168114610a5d57600080fd5b919050565b60008060408385031215610a7557600080fd5b610a7e83610a46565b946020939093013593505050565b600080600060608486031215610aa157600080fd5b610aaa84610a46565b9250610ab860208501610a46565b9150604084013590509250925092565b600060208284031215610ada57600080fd5b610ae382610a46565b9392505050565b60008060408385031215610afd57600080fd5b610b0683610a46565b9150610b1460208401610a46565b90509250929050565b634e487b7160e01b600052604160045260246000fd5b600082601f830112610b4457600080fd5b813567ffffffffffffffff80821115610b5f57610b5f610b1d565b604051601f8301601f19908116603f01168101908282118183101715610b8757610b87610b1d565b81604052838152866020858801011115610ba057600080fd5b836020870160208301376000602085830101528094505050505092915050565b60008060008060808587031215610bd657600080fd5b843567ffffffffffffffff80821115610bee57600080fd5b610bfa88838901610b33565b95506020870135915080821115610c1057600080fd5b50610c1d87828801610b33565b935050610c2c60408601610a46565b9396929550929360600135925050565b600181811c90821680610c5057607f821691505b602082108103610c7057634e487b7160e01b600052602260045260246000fd5b50919050565b8082018082111561028957634e487b7160e01b600052601160045260246000fd5b6020808252602e908201527f496e697469616c697a61626c653a20636f6e747261637420697320616c72656160408201526d191e481a5b9a5d1a585b1a5e995960921b606082015260800190565b601f82111561082157600081815260208120601f850160051c81016020861015610d0c5750805b601f850160051c820191505b81811015610d2b57828155600101610d18565b505050505050565b815167ffffffffffffffff811115610d4d57610d4d610b1d565b610d6181610d5b8454610c3c565b84610ce5565b602080601f831160018114610d965760008415610d7e5750858301515b600019600386901b1c1916600185901b178555610d2b565b600085815260208120601f198616915b82811015610dc557888601518255948401946001909101908401610da6565b5085821015610de35787850151600019600388901b60f8161c191681555b5050505050600190811b0190555056fea264697066735822122066f1f6ed6669302889794d03d7cf3cfbd9fdf22efa946bf7b5e1db452546293f64736f6c63430008110033",
  "linkReferences": {},
  "deployedLinkReferences": {}
}