{
  "_format": "hh-sol-artifact-1",
  "contractName": "ERC20GuildUpgradeable",
  "sourceName": "contracts/erc20guild/ERC20GuildUpgradeable.sol",
  "abi": [
    {
      "anonymous": false,
      "inputs": [],
      "name": "GuildInitialized",
      "type": "event"
    },
    {
      "anonymous": false,
      "inputs": [
        {
          "indexed": true,
          "internalType": "bytes32",
          "name": "proposalId",
          "type": "bytes32"
        },
        {
          "indexed": false,
          "internalType": "uint256",
          "name": "newState",
          "type": "uint256"
        }
      ],
      "name": "ProposalStateChanged",
      "type": "event"
    },
    {
      "anonymous": false,
      "inputs": [
        {
          "indexed": false,
          "internalType": "address",
          "name": "voter",
          "type": "address"
        },
        {
          "indexed": false,
          "internalType": "uint256",
          "name": "value",
          "type": "uint256"
        }
      ],
      "name": "TokensLocked",
      "type": "event"
    },
    {
      "anonymous": false,
      "inputs": [
        {
          "indexed": false,
          "internalType": "address",
          "name": "voter",
          "type": "address"
        },
        {
          "indexed": false,
          "internalType": "uint256",
          "name": "value",
          "type": "uint256"
        }
      ],
      "name": "TokensWithdrawn",
      "type": "event"
    },
    {
      "anonymous": false,
      "inputs": [
        {
          "indexed": true,
          "internalType": "bytes32",
          "name": "proposalId",
          "type": "bytes32"
        },
        {
          "indexed": true,
          "internalType": "uint256",
          "name": "option",
          "type": "uint256"
        },
        {
          "indexed": false,
          "internalType": "address",
          "name": "voter",
          "type": "address"
        },
        {
          "indexed": false,
          "internalType": "uint256",
          "name": "votingPower",
          "type": "uint256"
        }
      ],
      "name": "VoteAdded",
      "type": "event"
    },
    {
      "stateMutability": "payable",
      "type": "fallback"
    },
    {
      "inputs": [],
      "name": "MAX_OPTIONS_PER_PROPOSAL",
      "outputs": [
        {
          "internalType": "uint8",
          "name": "",
          "type": "uint8"
        }
      ],
      "stateMutability": "view",
      "type": "function"
    },
    {
      "inputs": [],
      "name": "activeProposalsNow",
      "outputs": [
        {
          "internalType": "uint256",
          "name": "",
          "type": "uint256"
        }
      ],
      "stateMutability": "view",
      "type": "function"
    },
    {
      "inputs": [
        {
          "internalType": "address[]",
          "name": "to",
          "type": "address[]"
        },
        {
          "internalType": "bytes[]",
          "name": "data",
          "type": "bytes[]"
        },
        {
          "internalType": "uint256[]",
          "name": "value",
          "type": "uint256[]"
        },
        {
          "internalType": "uint256",
          "name": "totalOptions",
          "type": "uint256"
        },
        {
          "internalType": "string",
          "name": "title",
          "type": "string"
        },
        {
          "internalType": "string",
          "name": "contentHash",
          "type": "string"
        }
      ],
      "name": "createProposal",
      "outputs": [
        {
          "internalType": "bytes32",
          "name": "",
          "type": "bytes32"
        }
      ],
      "stateMutability": "nonpayable",
      "type": "function"
    },
    {
      "inputs": [
        {
          "internalType": "bytes32",
          "name": "proposalId",
          "type": "bytes32"
        }
      ],
      "name": "endProposal",
      "outputs": [],
      "stateMutability": "nonpayable",
      "type": "function"
    },
    {
      "inputs": [],
      "name": "getActiveProposalsNow",
      "outputs": [
        {
          "internalType": "uint256",
          "name": "",
          "type": "uint256"
        }
      ],
      "stateMutability": "view",
      "type": "function"
    },
    {
      "inputs": [],
      "name": "getLockTime",
      "outputs": [
        {
          "internalType": "uint256",
          "name": "",
          "type": "uint256"
        }
      ],
      "stateMutability": "view",
      "type": "function"
    },
    {
      "inputs": [],
      "name": "getMaxActiveProposals",
      "outputs": [
        {
          "internalType": "uint256",
          "name": "",
          "type": "uint256"
        }
      ],
      "stateMutability": "view",
      "type": "function"
    },
    {
      "inputs": [],
      "name": "getMaxGasPrice",
      "outputs": [
        {
          "internalType": "uint256",
          "name": "",
          "type": "uint256"
        }
      ],
      "stateMutability": "view",
      "type": "function"
    },
    {
      "inputs": [],
      "name": "getMinimumMembersForProposalCreation",
      "outputs": [
        {
          "internalType": "uint256",
          "name": "",
          "type": "uint256"
        }
      ],
      "stateMutability": "view",
      "type": "function"
    },
    {
      "inputs": [],
      "name": "getMinimumTokensLockedForProposalCreation",
      "outputs": [
        {
          "internalType": "uint256",
          "name": "",
          "type": "uint256"
        }
      ],
      "stateMutability": "view",
      "type": "function"
    },
    {
      "inputs": [],
      "name": "getName",
      "outputs": [
        {
          "internalType": "string",
          "name": "",
          "type": "string"
        }
      ],
      "stateMutability": "view",
      "type": "function"
    },
    {
      "inputs": [],
      "name": "getPermissionRegistry",
      "outputs": [
        {
          "internalType": "address",
          "name": "",
          "type": "address"
        }
      ],
      "stateMutability": "view",
      "type": "function"
    },
    {
      "inputs": [
        {
          "internalType": "bytes32",
          "name": "proposalId",
          "type": "bytes32"
        }
      ],
      "name": "getProposal",
      "outputs": [
        {
          "components": [
            {
              "internalType": "address",
              "name": "creator",
              "type": "address"
            },
            {
              "internalType": "uint256",
              "name": "startTime",
              "type": "uint256"
            },
            {
              "internalType": "uint256",
              "name": "endTime",
              "type": "uint256"
            },
            {
              "internalType": "address[]",
              "name": "to",
              "type": "address[]"
            },
            {
              "internalType": "bytes[]",
              "name": "data",
              "type": "bytes[]"
            },
            {
              "internalType": "uint256[]",
              "name": "value",
              "type": "uint256[]"
            },
            {
              "internalType": "string",
              "name": "title",
              "type": "string"
            },
            {
              "internalType": "string",
              "name": "contentHash",
              "type": "string"
            },
            {
              "internalType": "enum BaseERC20Guild.ProposalState",
              "name": "state",
              "type": "uint8"
            },
            {
              "internalType": "uint256[]",
              "name": "totalVotes",
              "type": "uint256[]"
            }
          ],
          "internalType": "struct BaseERC20Guild.Proposal",
          "name": "",
          "type": "tuple"
        }
      ],
      "stateMutability": "view",
      "type": "function"
    },
    {
      "inputs": [],
      "name": "getProposalTime",
      "outputs": [
        {
          "internalType": "uint256",
          "name": "",
          "type": "uint256"
        }
      ],
      "stateMutability": "view",
      "type": "function"
    },
    {
      "inputs": [
        {
          "internalType": "bytes32",
          "name": "proposalId",
          "type": "bytes32"
        },
        {
          "internalType": "address",
          "name": "voter",
          "type": "address"
        }
      ],
      "name": "getProposalVotesOfVoter",
      "outputs": [
        {
          "internalType": "uint256",
          "name": "option",
          "type": "uint256"
        },
        {
          "internalType": "uint256",
          "name": "votingPower",
          "type": "uint256"
        }
      ],
      "stateMutability": "view",
      "type": "function"
    },
    {
      "inputs": [],
      "name": "getProposalsIds",
      "outputs": [
        {
          "internalType": "bytes32[]",
          "name": "",
          "type": "bytes32[]"
        }
      ],
      "stateMutability": "view",
      "type": "function"
    },
    {
      "inputs": [],
      "name": "getProposalsIdsLength",
      "outputs": [
        {
          "internalType": "uint256",
          "name": "",
          "type": "uint256"
        }
      ],
      "stateMutability": "view",
      "type": "function"
    },
    {
      "inputs": [
        {
          "internalType": "bytes32",
          "name": "signedVoteHash",
          "type": "bytes32"
        }
      ],
      "name": "getSignedVote",
      "outputs": [
        {
          "internalType": "bool",
          "name": "",
          "type": "bool"
        }
      ],
      "stateMutability": "view",
      "type": "function"
    },
    {
      "inputs": [],
      "name": "getTimeForExecution",
      "outputs": [
        {
          "internalType": "uint256",
          "name": "",
          "type": "uint256"
        }
      ],
      "stateMutability": "view",
      "type": "function"
    },
    {
      "inputs": [],
      "name": "getToken",
      "outputs": [
        {
          "internalType": "address",
          "name": "",
          "type": "address"
        }
      ],
      "stateMutability": "view",
      "type": "function"
    },
    {
      "inputs": [],
      "name": "getTokenVault",
      "outputs": [
        {
          "internalType": "address",
          "name": "",
          "type": "address"
        }
      ],
      "stateMutability": "view",
      "type": "function"
    },
    {
      "inputs": [],
      "name": "getTotalLocked",
      "outputs": [
        {
          "internalType": "uint256",
          "name": "",
          "type": "uint256"
        }
      ],
      "stateMutability": "view",
      "type": "function"
    },
    {
      "inputs": [],
      "name": "getTotalMembers",
      "outputs": [
        {
          "internalType": "uint256",
          "name": "",
          "type": "uint256"
        }
      ],
      "stateMutability": "view",
      "type": "function"
    },
    {
      "inputs": [],
      "name": "getTotalProposals",
      "outputs": [
        {
          "internalType": "uint256",
          "name": "",
          "type": "uint256"
        }
      ],
      "stateMutability": "view",
      "type": "function"
    },
    {
      "inputs": [],
      "name": "getVoteGas",
      "outputs": [
        {
          "internalType": "uint256",
          "name": "",
          "type": "uint256"
        }
      ],
      "stateMutability": "view",
      "type": "function"
    },
    {
      "inputs": [
        {
          "internalType": "address",
          "name": "voter",
          "type": "address"
        }
      ],
      "name": "getVoterLockTimestamp",
      "outputs": [
        {
          "internalType": "uint256",
          "name": "",
          "type": "uint256"
        }
      ],
      "stateMutability": "view",
      "type": "function"
    },
    {
      "inputs": [],
      "name": "getVotingPowerForProposalCreation",
      "outputs": [
        {
          "internalType": "uint256",
          "name": "",
          "type": "uint256"
        }
      ],
      "stateMutability": "view",
      "type": "function"
    },
    {
      "inputs": [],
      "name": "getVotingPowerForProposalExecution",
      "outputs": [
        {
          "internalType": "uint256",
          "name": "",
          "type": "uint256"
        }
      ],
      "stateMutability": "view",
      "type": "function"
    },
    {
      "inputs": [
        {
          "internalType": "address",
          "name": "voter",
          "type": "address"
        },
        {
          "internalType": "bytes32",
          "name": "proposalId",
          "type": "bytes32"
        },
        {
          "internalType": "uint256",
          "name": "option",
          "type": "uint256"
        },
        {
          "internalType": "uint256",
          "name": "votingPower",
          "type": "uint256"
        }
      ],
      "name": "hashVote",
      "outputs": [
        {
          "internalType": "bytes32",
          "name": "",
          "type": "bytes32"
        }
      ],
      "stateMutability": "pure",
      "type": "function"
    },
    {
      "inputs": [
        {
          "internalType": "address",
          "name": "_token",
          "type": "address"
        },
        {
          "internalType": "uint256",
          "name": "_proposalTime",
          "type": "uint256"
        },
        {
          "internalType": "uint256",
          "name": "_timeForExecution",
          "type": "uint256"
        },
        {
          "internalType": "uint256",
          "name": "_votingPowerPercentageForProposalExecution",
          "type": "uint256"
        },
        {
          "internalType": "uint256",
          "name": "_votingPowerPercentageForProposalCreation",
          "type": "uint256"
        },
        {
          "internalType": "string",
          "name": "_name",
          "type": "string"
        },
        {
          "internalType": "uint256",
          "name": "_voteGas",
          "type": "uint256"
        },
        {
          "internalType": "uint256",
          "name": "_maxGasPrice",
          "type": "uint256"
        },
        {
          "internalType": "uint256",
          "name": "_maxActiveProposals",
          "type": "uint256"
        },
        {
          "internalType": "uint256",
          "name": "_lockTime",
          "type": "uint256"
        },
        {
          "internalType": "address",
          "name": "_permissionRegistry",
          "type": "address"
        }
      ],
      "name": "initialize",
      "outputs": [],
      "stateMutability": "nonpayable",
      "type": "function"
    },
    {
      "inputs": [],
      "name": "lockTime",
      "outputs": [
        {
          "internalType": "uint256",
          "name": "",
          "type": "uint256"
        }
      ],
      "stateMutability": "view",
      "type": "function"
    },
    {
      "inputs": [
        {
          "internalType": "uint256",
          "name": "tokenAmount",
          "type": "uint256"
        }
      ],
      "name": "lockTokens",
      "outputs": [],
      "stateMutability": "nonpayable",
      "type": "function"
    },
    {
      "inputs": [],
      "name": "maxActiveProposals",
      "outputs": [
        {
          "internalType": "uint256",
          "name": "",
          "type": "uint256"
        }
      ],
      "stateMutability": "view",
      "type": "function"
    },
    {
      "inputs": [],
      "name": "maxGasPrice",
      "outputs": [
        {
          "internalType": "uint256",
          "name": "",
          "type": "uint256"
        }
      ],
      "stateMutability": "view",
      "type": "function"
    },
    {
      "inputs": [],
      "name": "minimumMembersForProposalCreation",
      "outputs": [
        {
          "internalType": "uint256",
          "name": "",
          "type": "uint256"
        }
      ],
      "stateMutability": "view",
      "type": "function"
    },
    {
      "inputs": [],
      "name": "minimumTokensLockedForProposalCreation",
      "outputs": [
        {
          "internalType": "uint256",
          "name": "",
          "type": "uint256"
        }
      ],
      "stateMutability": "view",
      "type": "function"
    },
    {
      "inputs": [],
      "name": "name",
      "outputs": [
        {
          "internalType": "string",
          "name": "",
          "type": "string"
        }
      ],
      "stateMutability": "view",
      "type": "function"
    },
    {
      "inputs": [],
      "name": "proposalTime",
      "outputs": [
        {
          "internalType": "uint256",
          "name": "",
          "type": "uint256"
        }
      ],
      "stateMutability": "view",
      "type": "function"
    },
    {
      "inputs": [
        {
          "internalType": "bytes32",
          "name": "",
          "type": "bytes32"
        },
        {
          "internalType": "address",
          "name": "",
          "type": "address"
        }
      ],
      "name": "proposalVotes",
      "outputs": [
        {
          "internalType": "uint256",
          "name": "option",
          "type": "uint256"
        },
        {
          "internalType": "uint256",
          "name": "votingPower",
          "type": "uint256"
        }
      ],
      "stateMutability": "view",
      "type": "function"
    },
    {
      "inputs": [
        {
          "internalType": "bytes32",
          "name": "",
          "type": "bytes32"
        }
      ],
      "name": "proposals",
      "outputs": [
        {
          "internalType": "address",
          "name": "creator",
          "type": "address"
        },
        {
          "internalType": "uint256",
          "name": "startTime",
          "type": "uint256"
        },
        {
          "internalType": "uint256",
          "name": "endTime",
          "type": "uint256"
        },
        {
          "internalType": "string",
          "name": "title",
          "type": "string"
        },
        {
          "internalType": "string",
          "name": "contentHash",
          "type": "string"
        },
        {
          "internalType": "enum BaseERC20Guild.ProposalState",
          "name": "state",
          "type": "uint8"
        }
      ],
      "stateMutability": "view",
      "type": "function"
    },
    {
      "inputs": [
        {
          "internalType": "uint256",
          "name": "",
          "type": "uint256"
        }
      ],
      "name": "proposalsIds",
      "outputs": [
        {
          "internalType": "bytes32",
          "name": "",
          "type": "bytes32"
        }
      ],
      "stateMutability": "view",
      "type": "function"
    },
    {
      "inputs": [
        {
          "internalType": "uint256",
          "name": "_proposalTime",
          "type": "uint256"
        },
        {
          "internalType": "uint256",
          "name": "_timeForExecution",
          "type": "uint256"
        },
        {
          "internalType": "uint256",
          "name": "_votingPowerPercentageForProposalExecution",
          "type": "uint256"
        },
        {
          "internalType": "uint256",
          "name": "_votingPowerPercentageForProposalCreation",
          "type": "uint256"
        },
        {
          "internalType": "uint256",
          "name": "_voteGas",
          "type": "uint256"
        },
        {
          "internalType": "uint256",
          "name": "_maxGasPrice",
          "type": "uint256"
        },
        {
          "internalType": "uint256",
          "name": "_maxActiveProposals",
          "type": "uint256"
        },
        {
          "internalType": "uint256",
          "name": "_lockTime",
          "type": "uint256"
        },
        {
          "internalType": "uint256",
          "name": "_minimumMembersForProposalCreation",
          "type": "uint256"
        },
        {
          "internalType": "uint256",
          "name": "_minimumTokensLockedForProposalCreation",
          "type": "uint256"
        }
      ],
      "name": "setConfig",
      "outputs": [],
      "stateMutability": "nonpayable",
      "type": "function"
    },
    {
      "inputs": [
        {
          "internalType": "bytes32",
          "name": "proposalId",
          "type": "bytes32"
        },
        {
          "internalType": "uint256",
          "name": "option",
          "type": "uint256"
        },
        {
          "internalType": "uint256",
          "name": "votingPower",
          "type": "uint256"
        },
        {
          "internalType": "address",
          "name": "voter",
          "type": "address"
        },
        {
          "internalType": "bytes",
          "name": "signature",
          "type": "bytes"
        }
      ],
      "name": "setSignedVote",
      "outputs": [],
      "stateMutability": "nonpayable",
      "type": "function"
    },
    {
      "inputs": [
        {
          "internalType": "bytes32",
          "name": "proposalId",
          "type": "bytes32"
        },
        {
          "internalType": "uint256",
          "name": "option",
          "type": "uint256"
        },
        {
          "internalType": "uint256",
          "name": "votingPower",
          "type": "uint256"
        }
      ],
      "name": "setVote",
      "outputs": [],
      "stateMutability": "nonpayable",
      "type": "function"
    },
    {
      "inputs": [
        {
          "internalType": "bytes32",
          "name": "",
          "type": "bytes32"
        }
      ],
      "name": "signedVotes",
      "outputs": [
        {
          "internalType": "bool",
          "name": "",
          "type": "bool"
        }
      ],
      "stateMutability": "view",
      "type": "function"
    },
    {
      "inputs": [],
      "name": "timeForExecution",
      "outputs": [
        {
          "internalType": "uint256",
          "name": "",
          "type": "uint256"
        }
      ],
      "stateMutability": "view",
      "type": "function"
    },
    {
      "inputs": [],
      "name": "token",
      "outputs": [
        {
          "internalType": "contract IERC20Upgradeable",
          "name": "",
          "type": "address"
        }
      ],
      "stateMutability": "view",
      "type": "function"
    },
    {
      "inputs": [],
      "name": "tokenVault",
      "outputs": [
        {
          "internalType": "contract TokenVault",
          "name": "",
          "type": "address"
        }
      ],
      "stateMutability": "view",
      "type": "function"
    },
    {
      "inputs": [
        {
          "internalType": "address",
          "name": "",
          "type": "address"
        }
      ],
      "name": "tokensLocked",
      "outputs": [
        {
          "internalType": "uint256",
          "name": "amount",
          "type": "uint256"
        },
        {
          "internalType": "uint256",
          "name": "timestamp",
          "type": "uint256"
        }
      ],
      "stateMutability": "view",
      "type": "function"
    },
    {
      "inputs": [],
      "name": "totalLocked",
      "outputs": [
        {
          "internalType": "uint256",
          "name": "",
          "type": "uint256"
        }
      ],
      "stateMutability": "view",
      "type": "function"
    },
    {
      "inputs": [],
      "name": "totalProposals",
      "outputs": [
        {
          "internalType": "uint256",
          "name": "",
          "type": "uint256"
        }
      ],
      "stateMutability": "view",
      "type": "function"
    },
    {
      "inputs": [],
      "name": "voteGas",
      "outputs": [
        {
          "internalType": "uint256",
          "name": "",
          "type": "uint256"
        }
      ],
      "stateMutability": "view",
      "type": "function"
    },
    {
      "inputs": [
        {
          "internalType": "address",
          "name": "account",
          "type": "address"
        }
      ],
      "name": "votingPowerOf",
      "outputs": [
        {
          "internalType": "uint256",
          "name": "",
          "type": "uint256"
        }
      ],
      "stateMutability": "view",
      "type": "function"
    },
    {
      "inputs": [],
      "name": "votingPowerPercentageForProposalCreation",
      "outputs": [
        {
          "internalType": "uint256",
          "name": "",
          "type": "uint256"
        }
      ],
      "stateMutability": "view",
      "type": "function"
    },
    {
      "inputs": [],
      "name": "votingPowerPercentageForProposalExecution",
      "outputs": [
        {
          "internalType": "uint256",
          "name": "",
          "type": "uint256"
        }
      ],
      "stateMutability": "view",
      "type": "function"
    },
    {
      "inputs": [
        {
          "internalType": "uint256",
          "name": "tokenAmount",
          "type": "uint256"
        }
      ],
      "name": "withdrawTokens",
      "outputs": [],
      "stateMutability": "nonpayable",
      "type": "function"
    }
  ],
  "bytecode": "0x608060405234801561001057600080fd5b50614c07806100206000396000f3fe608060405260043610620003855760003560e01c80635bc789d911620001d3578063ae61923411620000ff578063e0450353116200009b578063f4732da61162000075578063f4732da61462000a81578063f98606a71462000a98578063fc0c546a1462000ab0578063fc4e703f1462000ad257005b8063e04503531462000a0e578063e158080a1462000a26578063f09951981462000a3e57005b8063b7c15f8d11620000d9578063b7c15f8d14620009a4578063bcc3f3bd14620009bb578063c0a4d64d14620009e0578063c93e01e314620009f757005b8063ae6192341462000942578063b3929aaa146200095a578063b3b47061146200097f57005b806389c98c06116200016f578063a16fe3421162000149578063a16fe34214620008db578063a78d80fc14620008fb578063a7aeb5571462000913578063ad6c1e34146200092b57005b806389c98c0614620008885780638f180305146200089f57806392b7165414620008b657005b80636c8b72f611620001ad5780636c8b72f614620008015780636e27d889146200081857806377027ff4146200083d5780638029eff1146200085457005b80635bc789d914620007b05780635e508c2c14620007d257806364fe6ed214620007ea57005b80632467ef9411620002b357806336f8f8d9116200024f5780633f10cf1511620002295780633f10cf15146200072c578063430694cf146200074457806354f2f7af146200077857806356891412146200079857005b806336f8f8d914620006d75780633bf353fb14620006fc5780633de39c11146200071457005b80632d757c3e116200028d5780632d757c3e14620005f75780632fd99c001462000634578063315a095d146200067957806332ed5b12146200069e57005b80632467ef94146200059157806325c069fc14620005a85780632d5b17de14620005d257005b806313108d741162000323578063184a0ae911620002fd578063184a0ae914620005175780631a5007dd146200052f57806321df0da714620005465780632229a0e2146200057a57005b806313108d7414620004b557806316bbecde14620004da57806317d7de7c14620004ff57005b80630a366a6311620003615780630a366a63146200042c5780630d6680871462000453578063123f6d67146200046b578063130485fe146200049057005b80623a40d0146200038757806301a598a614620003b757806306fdde031462000405575b005b3480156200039457600080fd5b506200039f62000aea565b604051620003ae9190620035b8565b60405180910390f35b348015620003c457600080fd5b50620003ef620003d63660046200361b565b6012602052600090815260409020805460019091015482565b60408051928352602083019190915201620003ae565b3480156200041257600080fd5b506200041d62000b44565b604051620003ae919062003681565b3480156200043957600080fd5b506200044462000bda565b604051908152602001620003ae565b3480156200046057600080fd5b5062000444600d5481565b3480156200047857600080fd5b50620003856200048a36600462003696565b62000c09565b3480156200049d57600080fd5b50620003ef620004af366004620036ff565b62000da2565b348015620004c257600080fd5b5062000444620004d43660046200399c565b62000dd4565b348015620004e757600080fd5b5062000385620004f936600462003a86565b620013a6565b3480156200050c57600080fd5b506200041d620014ed565b3480156200052457600080fd5b506200044460035481565b3480156200053c57600080fd5b50600a5462000444565b3480156200055357600080fd5b506000546001600160a01b03165b6040516001600160a01b039091168152602001620003ae565b3480156200058757600080fd5b5060165462000444565b3480156200059e57600080fd5b50600c5462000444565b348015620005b557600080fd5b50620005bf600a81565b60405160ff9091168152602001620003ae565b348015620005df57600080fd5b5062000385620005f136600462003ab3565b6200157e565b3480156200060457600080fd5b5062000444620006163660046200361b565b6001600160a01b031660009081526012602052604090206001015490565b3480156200064157600080fd5b50620006686200065336600462003b24565b60136020526000908152604090205460ff1681565b6040519015158152602001620003ae565b3480156200068657600080fd5b50620003856200069836600462003b24565b62001848565b348015620006ab57600080fd5b50620006c3620006bd36600462003b24565b62001aa9565b604051620003ae9695949392919062003b77565b348015620006e457600080fd5b5062000385620006f636600462003bd7565b62001c0d565b3480156200070957600080fd5b5062000444600c5481565b3480156200072157600080fd5b506200044460085481565b3480156200073957600080fd5b506200044460045481565b3480156200075157600080fd5b50620007696200076336600462003b24565b62001e9c565b604051620003ae919062003d5f565b3480156200078557600080fd5b506011546001600160a01b031662000561565b348015620007a557600080fd5b5062000444600e5481565b348015620007bd57600080fd5b5060115462000561906001600160a01b031681565b348015620007df57600080fd5b506200044460055481565b348015620007f757600080fd5b5060105462000444565b3480156200080e57600080fd5b5060075462000444565b3480156200082557600080fd5b50620003856200083736600462003b24565b6200224f565b3480156200084a57600080fd5b5060095462000444565b3480156200086157600080fd5b50620006686200087336600462003b24565b60009081526013602052604090205460ff1690565b3480156200089557600080fd5b5060085462000444565b348015620008ac57600080fd5b50600b5462000444565b348015620008c357600080fd5b5062000444620008d536600462003e6c565b620023e2565b348015620008e857600080fd5b506001546001600160a01b031662000561565b3480156200090857600080fd5b5062000444600a5481565b3480156200092057600080fd5b5062000444600f5481565b3480156200093857600080fd5b50600f5462000444565b3480156200094f57600080fd5b506200044462002439565b3480156200096757600080fd5b50620004446200097936600462003b24565b6200244b565b3480156200098c57600080fd5b50620003856200099e36600462003b24565b6200246d565b348015620009b157600080fd5b5060045462000444565b348015620009c857600080fd5b5062000444620009da3660046200361b565b62002daa565b348015620009ed57600080fd5b50600d5462000444565b34801562000a0457600080fd5b5060035462000444565b34801562000a1b57600080fd5b506200044460095481565b34801562000a3357600080fd5b506200044460105481565b34801562000a4b57600080fd5b50620003ef62000a5d366004620036ff565b60146020908152600092835260408084209091529082529020805460019091015482565b34801562000a8e57600080fd5b50600e5462000444565b34801562000aa557600080fd5b506200044460065481565b34801562000abd57600080fd5b5060005462000561906001600160a01b031681565b34801562000adf57600080fd5b506200044460075481565b6060601680548060200260200160405190810160405280929190818152602001828054801562000b3a57602002820191906000526020600020905b81548152602001906001019080831162000b25575b5050505050905090565b6002805462000b539062003ea8565b80601f016020809104026020016040519081016040528092919081815260200182805462000b819062003ea8565b801562000bd25780601f1062000ba65761010080835404028352916020019162000bd2565b820191906000526020600020905b81548152906001019060200180831162000bb457829003601f168201915b505050505081565b600061271060065462000bec600e5490565b62000bf8919062003efa565b62000c04919062003f2a565b905090565b33301462000c8f5760405162461bcd60e51b815260206004820152604260248201527f45524332304775696c643a204f6e6c792063616c6c61626c652062792045524360448201527f32306775696c6420697473656c66206f72207768656e20696e697469616c697a606482015261195960f21b608482015260a4015b60405180910390fd5b60008a1162000cb25760405162461bcd60e51b815260040162000c869062003f41565b8983101562000cd55760405162461bcd60e51b815260040162000c869062003f90565b6000881162000cf85760405162461bcd60e51b815260040162000c869062003fed565b6201c90886111562000d735760405162461bcd60e51b815260206004820152603960248201527f45524332304775696c643a20766f7465206761732068617320746f206265206560448201527f7175616c206f72206c6f776572207468616e2031313730303000000000000000606482015260840162000c86565b600399909955600497909755600595909555600693909355600791909155600855600955600d55600f55601055565b60008281526014602090815260408083206001600160a01b0385168452909152902080546001909101545b9250929050565b6000601054600e54101562000e525760405162461bcd60e51b815260206004820152603960248201527f45524332304775696c643a204e6f7420656e6f75676820746f6b656e73206c6f60448201527f636b656420746f2063726561746520612070726f706f73616c00000000000000606482015260840162000c86565b600f54600b54101562000ec45760405162461bcd60e51b815260206004820152603360248201527f45524332304775696c643a204e6f7420656e6f756768206d656d6265727320746044820152721bc818dc99585d194818481c1c9bdc1bdcd85b606a1b606482015260840162000c86565b600954600c541062000f385760405162461bcd60e51b815260206004820152603660248201527f45524332304775696c643a204d6178696d756d20616d6f756e74206f662061636044820152751d1a5d99481c1c9bdc1bdcd85b1cc81c995858da195960521b606482015260840162000c86565b62000f4262000bda565b62000f4d3362002daa565b101562000fbb5760405162461bcd60e51b815260206004820152603560248201527f45524332304775696c643a204e6f7420656e6f75676820766f74696e67506f77604482015274195c881d1bc818dc99585d19481c1c9bdc1bdcd85b605a1b606482015260840162000c86565b8551875114801562000fce575084518751145b620010395760405162461bcd60e51b815260206004820152603460248201527f45524332304775696c643a2057726f6e67206c656e677468206f6620746f2c2060448201527364617461206f722076616c75652061727261797360601b606482015260840162000c86565b6000875111620010a65760405162461bcd60e51b815260206004820152603160248201527f45524332304775696c643a20746f2c20646174612076616c7565206172726179604482015270732063616e6e6f7420626520656d70747960781b606482015260840162000c86565b86518411158015620010c45750838551620010c291906200404a565b155b620011385760405162461bcd60e51b815260206004820152603760248201527f45524332304775696c643a20496e76616c696420746f74616c4f7074696f6e7360448201527f206f72206f7074696f6e2063616c6c73206c656e677468000000000000000000606482015260840162000c86565b600a841115620011b15760405162461bcd60e51b815260206004820152603a60248201527f45524332304775696c643a204d6178696d756d20616d6f756e74206f66206f7060448201527f74696f6e73207065722070726f706f73616c2072656163686564000000000000606482015260840162000c86565b600a546040516bffffffffffffffffffffffff193360601b1660208201524260348201526054810191909152600090607401604051602081830303815290604052805190602001209050600a5460016200120c919062004061565b600a55600081815260156020526040902080546001600160a01b031916331781554260018201819055600354620012439162004061565b600282015588516200125f90600383019060208c0190620033c2565b5087516200127790600483019060208b01906200342c565b5086516200128f90600583019060208a019062003485565b5060068101620012a08682620040c1565b5060078101620012b18582620040c1565b50620012bf86600162004061565b67ffffffffffffffff811115620012da57620012da6200372e565b60405190808252806020026020018201604052801562001304578160200160208202803683370190505b5080516200131d91600984019160209091019062003485565b5060088101805460ff19166001908117909155600c546200133e9162004061565b600c558160008051602062004bb2833981519152600160405190815260200160405180910390a250601680546001810182556000919091527fd833147d7dc355ba459fc788f669e58cfaf9dc25ddcd0702e87d69c7b512428901819055979650505050505050565b6000838152601560205260409020600201544210620013d95760405162461bcd60e51b815260040162000c86906200418e565b80620013e53362002daa565b101580156200140f5750600083815260146020908152604080832033845290915290206001015481115b6200142e5760405162461bcd60e51b815260040162000c8690620041d9565b60008381526014602090815260408083203384529091529020541580156200147057506000838152601460209081526040808320338452909152902060010154155b80620014bb5750600083815260146020908152604080832033845290915290205482148015620014bb5750600083815260146020908152604080832033845290915290206001015481115b620014da5760405162461bcd60e51b815260040162000c86906200421f565b620014e83384848462002dc5565b505050565b606060028054620014fe9062003ea8565b80601f01602080910402602001604051908101604052809291908181526020018280546200152c9062003ea8565b801562000b3a5780601f10620015515761010080835404028352916020019162000b3a565b820191906000526020600020905b8154815290600101906020018083116200155f57509395945050505050565b6000858152601560205260409020600201544210620015b15760405162461bcd60e51b815260040162000c86906200418e565b6000620015c183878787620023e2565b60008181526013602052604090205490915060ff1615620016255760405162461bcd60e51b815260206004820152601960248201527f45524332304775696c643a20416c726561647920766f74656400000000000000604482015260640162000c86565b620016898262001682836040517f19457468657265756d205369676e6564204d6573736167653a0a3332000000006020820152603c8101829052600090605c01604051602081830303815290604052805190602001209050919050565b9062003013565b6001600160a01b0316836001600160a01b031614620016eb5760405162461bcd60e51b815260206004820152601860248201527f45524332304775696c643a2057726f6e67207369676e65720000000000000000604482015260640162000c86565b6000818152601360205260409020805460ff1916600117905583620017108462002daa565b1015801562001743575060008681526014602090815260408083206001600160a01b038716845290915290206001015484115b620017625760405162461bcd60e51b815260040162000c8690620041d9565b60008681526014602090815260408083206001600160a01b0387168452909152902054158015620017b6575060008681526014602090815260408083206001600160a01b0387168452909152902060010154155b8062001813575060008681526014602090815260408083206001600160a01b03871684529091529020548514801562001813575060008681526014602090815260408083206001600160a01b038716845290915290206001015484115b620018325760405162461bcd60e51b815260040162000c86906200421f565b620018408387878762002dc5565b505050505050565b80620018543362002daa565b1015620018c35760405162461bcd60e51b815260206004820152603660248201527f45524332304775696c643a20556e61626c6520746f207769746864726177206d6044820152751bdc99481d1bdad95b9cc81d1a185b881b1bd8dad95960521b606482015260840162000c86565b336000908152601260205260409020600101544211620019265760405162461bcd60e51b815260206004820152601f60248201527f45524332304775696c643a20546f6b656e73207374696c6c206c6f636b656400604482015260640162000c86565b600081116200199e5760405162461bcd60e51b815260206004820152603f60248201527f45524332304775696c643a20616d6f756e74206f6620746f6b656e7320746f2060448201527f7769746864726177206d7573742062652067726561746572207468616e203000606482015260840162000c86565b33600090815260126020526040902054620019bb90829062004286565b33600090815260126020526040902055600e54620019db90829062004286565b600e5560115460405163f3fef3a360e01b8152336004820152602481018390526001600160a01b039091169063f3fef3a390604401600060405180830381600087803b15801562001a2b57600080fd5b505af115801562001a40573d6000803e3d6000fd5b5050505062001a4f3362002daa565b60000362001a6c576001600b5462001a68919062004286565b600b555b60408051338152602081018390527f6352c5382c4a4578e712449ca65e83cdb392d045dfcf1cad9615189db2da244b91015b60405180910390a150565b60156020526000908152604090208054600182015460028301546006840180546001600160a01b0390941694929391929162001ae59062003ea8565b80601f016020809104026020016040519081016040528092919081815260200182805462001b139062003ea8565b801562001b645780601f1062001b385761010080835404028352916020019162001b64565b820191906000526020600020905b81548152906001019060200180831162001b4657829003601f168201915b50505050509080600701805462001b7b9062003ea8565b80601f016020809104026020016040519081016040528092919081815260200182805462001ba99062003ea8565b801562001bfa5780601f1062001bce5761010080835404028352916020019162001bfa565b820191906000526020600020905b81548152906001019060200180831162001bdc57829003601f168201915b5050506008909301549192505060ff1686565b60175462010000900460ff168062001c2d5750601754610100900460ff16155b62001c925760405162461bcd60e51b815260206004820152602e60248201527f496e697469616c697a61626c653a20636f6e747261637420697320616c72656160448201526d191e481a5b9a5d1a585b1a5e995960921b606482015260840162000c86565b60175462010000900460ff1615801562001cb8576017805462ffff001916620101001790555b6001600160a01b038c1662001d1f5760405162461bcd60e51b815260206004820152602660248201527f45524332304775696c643a20746f6b656e2063616e74206265207a65726f206160448201526564647265737360d01b606482015260840162000c86565b60008b1162001d425760405162461bcd60e51b815260040162000c869062003f41565b8a83101562001d655760405162461bcd60e51b815260040162000c869062003f90565b6000891162001d885760405162461bcd60e51b815260040162000c869062003fed565b600262001d968882620040c1565b50600080546001600160a01b0319166001600160a01b038e16908117909155604051309062001dc590620034c3565b6001600160a01b03928316815291166020820152604001604051809103906000f08015801562001df9573d6000803e3d6000fd5b50601180546001600160a01b03199081166001600160a01b039384161790915560038d905560048c905560058b905560068a9055600788905560088790556009869055600d859055600180549091169184169190911790556040517ff0454e7b3dd17b2d61d817c1ec7d3417104e974ed42b6e08d9f77f65ffad92b790600090a1801562001e8e576017805462ff0000191690555b505050505050505050505050565b62001ea6620034d1565b60008281526015602090815260409182902082516101408101845281546001600160a01b03168152600182015481840152600282015481850152600382018054855181860281018601909652808652919492936060860193929083018282801562001f3b57602002820191906000526020600020905b81546001600160a01b0316815260019091019060200180831162001f1c575b5050505050815260200160048201805480602002602001604051908101604052809291908181526020016000905b828210156200201f57838290600052602060002001805462001f8b9062003ea8565b80601f016020809104026020016040519081016040528092919081815260200182805462001fb99062003ea8565b80156200200a5780601f1062001fde576101008083540402835291602001916200200a565b820191906000526020600020905b81548152906001019060200180831162001fec57829003601f168201915b50505050508152602001906001019062001f69565b505050508152602001600582018054806020026020016040519081016040528092919081815260200182805480156200207857602002820191906000526020600020905b81548152602001906001019080831162002063575b50505050508152602001600682018054620020939062003ea8565b80601f0160208091040260200160405190810160405280929190818152602001828054620020c19062003ea8565b8015620021125780601f10620020e65761010080835404028352916020019162002112565b820191906000526020600020905b815481529060010190602001808311620020f457829003601f168201915b505050505081526020016007820180546200212d9062003ea8565b80601f01602080910402602001604051908101604052809291908181526020018280546200215b9062003ea8565b8015620021ac5780601f106200218057610100808354040283529160200191620021ac565b820191906000526020600020905b8154815290600101906020018083116200218e57829003601f168201915b5050509183525050600882015460209091019060ff166004811115620021d657620021d662003b3e565b6004811115620021ea57620021ea62003b3e565b8152602001600982018054806020026020016040519081016040528092919081815260200182805480156200223f57602002820191906000526020600020905b8154815260200190600101908083116200222a575b5050505050815250509050919050565b60008111620022bc5760405162461bcd60e51b815260206004820152603260248201527f45524332304775696c643a20546f6b656e7320746f206c6f636b2073686f756c60448201527106420626520686967686572207468616e20360741b606482015260840162000c86565b620022c73362002daa565b600003620022e357600b54620022df90600162004061565b600b555b6011546040516311f9fbc960e21b8152336004820152602481018390526001600160a01b03909116906347e7ef2490604401600060405180830381600087803b1580156200233057600080fd5b505af115801562002345573d6000803e3d6000fd5b50503360009081526012602052604090205462002366925083915062004061565b33600090815260126020526040902055600d5462002385904262004061565b33600090815260126020526040902060010155600e54620023a890829062004061565b600e5560408051338152602081018390527fac87f20a77d28ee8bbb58ec87ea8fa968b3393efae1a368fd50b767c2847391c910162001a9e565b6040516bffffffffffffffffffffffff19606086901b166020820152603481018490526054810183905260748101829052600090609401604051602081830303815290604052805190602001209050949350505050565b600061271060055462000bec600e5490565b601681815481106200245c57600080fd5b600091825260209091200154905081565b60175460ff1615620024ce5760405162461bcd60e51b8152602060048201526024808201527f45524332304775696c643a2050726f706f73616c20756e6465722065786563756044820152633a34b7b760e11b606482015260840162000c86565b600160008281526015602052604090206008015460ff166004811115620024f957620024f962003b3e565b14620025565760405162461bcd60e51b815260206004820152602560248201527f45524332304775696c643a2050726f706f73616c20616c72656164792065786560448201526418dd5d195960da1b606482015260840162000c86565b6000818152601560205260409020600201544211620025c65760405162461bcd60e51b815260206004820152602560248201527f45524332304775696c643a2050726f706f73616c206861736e277420656e646560448201526419081e595d60da1b606482015260840162000c86565b600081815260156020526040812060090180548291908290620025ed57620025ed6200429c565b600091825260209091200154905060015b6000848152601560205260409020600901548110156200272c576200262262002439565b60008581526015602052604090206009018054839081106200264857620026486200429c565b90600052602060002001541015801562002694575060008481526015602052604090206009018054839190839081106200268657620026866200429c565b906000526020600020015410155b1562002717576000848152601560205260409020600901805483919083908110620026c357620026c36200429c565b906000526020600020015403620026de576000925062002717565b600084815260156020526040902060090180549193508391829081106200270957620027096200429c565b906000526020600020015491505b806200272381620042b2565b915050620025fe565b826000036200277f576000848152601560205260409020600801805460ff19166002908117909155849060008051602062004bb2833981519152905b60405190815260200160405180910390a262002d90565b6004546000858152601560205260409020600201544291620027a19162004061565b1015620027e0576000848152601560205260409020600801805460ff19166004908117909155849060008051602062004bb28339815191529062002768565b600084815260156020526040812060088101805460ff19166003179055600901546200280f9060019062004286565b6000868152601560205260409020600301546200282d919062003f2a565b90506200283c60018562004286565b62002848908262003efa565b9150600062002858828462004061565b9050600160009054906101000a90046001600160a01b03166001600160a01b0316633e7a47b26040518163ffffffff1660e01b8152600401600060405180830381600087803b158015620028ab57600080fd5b505af1158015620028c0573d6000803e3d6000fd5b505050505b8083101562002cf9576000868152601560205260408120600301805485908110620028f457620028f46200429c565b6000918252602090912001546001600160a01b03161480159062002954575060008681526015602052604081206004018054859081106200293957620029396200429c565b906000526020600020018054620029509062003ea8565b9050115b1562002ce45760008681526015602052604081206004018054859081106200298057620029806200429c565b906000526020600020018054620029979062003ea8565b80601f0160208091040260200160405190810160405280929190818152602001828054620029c59062003ea8565b801562002a165780601f10620029ea5761010080835404028352916020019162002a16565b820191906000526020600020905b815481529060010190602001808311620029f857829003601f168201915b50505060208084015160015460008d815260159093526040909220600301805495965090946001600160a01b03909216935063eed47033925030918990811062002a645762002a646200429c565b9060005260206000200160009054906101000a90046001600160a01b031684601560008e81526020019081526020016000206005018a8154811062002aad5762002aad6200429c565b60009182526020909120015460405160e086901b6001600160e01b031990811682526001600160a01b039586166004830152939094166024850152911660448301526064820152608401600060405180830381600087803b15801562002b1257600080fd5b505af192505050801562002b24575060015b62002b7f5762002b33620042ce565b806308c379a00362002b73575062002b4a620042eb565b8062002b57575062002b75565b8060405162461bcd60e51b815260040162000c86919062003681565b505b3d6000803e3d6000fd5b6017805460ff19166001179055600088815260156020526040812060030180548790811062002bb25762002bb26200429c565b60009182526020808320909101548b83526015909152604090912060050180546001600160a01b03909216918890811062002bf15762002bf16200429c565b9060005260206000200154601560008c8152602001908152602001600020600401888154811062002c265762002c266200429c565b9060005260206000200160405162002c3f91906200437b565b60006040518083038185875af1925050503d806000811462002c7e576040519150601f19603f3d011682016040523d82523d6000602084013e62002c83565b606091505b505090508062002cd65760405162461bcd60e51b815260206004820181905260248201527f45524332304775696c643a2050726f706f73616c2063616c6c206661696c6564604482015260640162000c86565b50506017805460ff19169055505b8262002cf081620042b2565b935050620028c5565b60015460405163fb0fde8560e01b81523060048201526001600160a01b039091169063fb0fde8590602401602060405180830381865afa15801562002d42573d6000803e3d6000fd5b505050506040513d601f19601f8201168201806040525081019062002d689190620043f9565b508560008051602062004bb2833981519152600360405190815260200160405180910390a250505b6001600c5462002da1919062004286565b600c5550505050565b6001600160a01b031660009081526012602052604090205490565b60008381526014602090815260408083206001600160a01b038816845282528083206001015486845260159092529091206009018054839291908590811062002e125762002e126200429c565b906000526020600020015462002e29919062004286565b62002e35919062004061565b600084815260156020526040902060090180548490811062002e5b5762002e5b6200429c565b60009182526020808320909101929092558481526014825260408082206001600160a01b038816835283528082208581556001018490558582526015909252206002015462002ec2856001600160a01b031660009081526012602052604090206001015490565b101562002ef7576000838152601560209081526040808320600201546001600160a01b03881684526012909252909120600101555b604080516001600160a01b038616815260208101839052839185917f583c62f152711bcb1ca6186c1065821ff17a7cbe226dcb559a1c889dcf0d769b910160405180910390a3600754156200300d57600062002f5f6008543a6200303d90919063ffffffff16565b60075462002f6e919062003efa565b90508047106200300b57604051600090339083908381818185875af1925050503d806000811462002fbc576040519150601f19603f3d011682016040523d82523d6000602084013e62002fc1565b606091505b5050905080620018405760405162461bcd60e51b81526020600482015260146024820152734661696c656420746f20726566756e642067617360601b604482015260640162000c86565b505b50505050565b600080600062003024858562003057565b915091506200303381620030cb565b5090505b92915050565b60008183106200304e578162003050565b825b9392505050565b6000808251604103620030915760208301516040840151606085015160001a62003084878285856200329c565b9450945050505062000dcd565b8251604003620030be5760208301516040840151620030b286838362003391565b93509350505062000dcd565b5060009050600262000dcd565b6000816004811115620030e257620030e262003b3e565b03620030eb5750565b600181600481111562003102576200310262003b3e565b03620031515760405162461bcd60e51b815260206004820152601860248201527f45434453413a20696e76616c6964207369676e61747572650000000000000000604482015260640162000c86565b600281600481111562003168576200316862003b3e565b03620031b75760405162461bcd60e51b815260206004820152601f60248201527f45434453413a20696e76616c6964207369676e6174757265206c656e67746800604482015260640162000c86565b6003816004811115620031ce57620031ce62003b3e565b03620032285760405162461bcd60e51b815260206004820152602260248201527f45434453413a20696e76616c6964207369676e6174757265202773272076616c604482015261756560f01b606482015260840162000c86565b60048160048111156200323f576200323f62003b3e565b03620032995760405162461bcd60e51b815260206004820152602260248201527f45434453413a20696e76616c6964207369676e6174757265202776272076616c604482015261756560f01b606482015260840162000c86565b50565b6000807f7fffffffffffffffffffffffffffffff5d576e7357a4501ddfe92f46681b20a0831115620032d5575060009050600362003388565b8460ff16601b14158015620032ee57508460ff16601c14155b1562003301575060009050600462003388565b6040805160008082526020820180845289905260ff881692820192909252606081018690526080810185905260019060a0016020604051602081039080840390855afa15801562003356573d6000803e3d6000fd5b5050604051601f1901519150506001600160a01b038116620033815760006001925092505062003388565b9150600090505b94509492505050565b6000806001600160ff1b03831660ff84901c601b01620033b4878288856200329c565b935093505050935093915050565b8280548282559060005260206000209081019282156200341a579160200282015b828111156200341a57825182546001600160a01b0319166001600160a01b03909116178255602090920191600190910190620033e3565b506200342892915062003541565b5090565b82805482825590600052602060002090810192821562003477579160200282015b82811115620034775782518290620034669082620040c1565b50916020019190600101906200344d565b506200342892915062003558565b8280548282559060005260206000209081019282156200341a579160200282015b828111156200341a578251825591602001919060010190620034a6565b610794806200441e83390190565b60405180610140016040528060006001600160a01b03168152602001600081526020016000815260200160608152602001606081526020016060815260200160608152602001606081526020016000600481111562003534576200353462003b3e565b8152602001606081525090565b5b8082111562003428576000815560010162003542565b80821115620034285760006200356f828262003579565b5060010162003558565b508054620035879062003ea8565b6000825580601f1062003598575050565b601f01602090049060005260206000209081019062003299919062003541565b6020808252825182820181905260009190848201906040850190845b81811015620035f257835183529284019291840191600101620035d4565b50909695505050505050565b80356001600160a01b03811681146200361657600080fd5b919050565b6000602082840312156200362e57600080fd5b6200305082620035fe565b6000815180845260005b81811015620036615760208185018101518683018201520162003643565b506000602082860101526020601f19601f83011685010191505092915050565b60208152600062003050602083018462003639565b6000806000806000806000806000806101408b8d031215620036b757600080fd5b505088359a60208a01359a5060408a013599606081013599506080810135985060a0810135975060c0810135965060e081013595506101008101359450610120013592509050565b600080604083850312156200371357600080fd5b823591506200372560208401620035fe565b90509250929050565b634e487b7160e01b600052604160045260246000fd5b601f8201601f1916810167ffffffffffffffff811182821017156200376d576200376d6200372e565b6040525050565b600067ffffffffffffffff8211156200379157620037916200372e565b5060051b60200190565b600082601f830112620037ad57600080fd5b81356020620037bc8262003774565b604051620037cb828262003744565b83815260059390931b8501820192828101915086841115620037ec57600080fd5b8286015b8481101562003812576200380481620035fe565b8352918301918301620037f0565b509695505050505050565b600082601f8301126200382f57600080fd5b813567ffffffffffffffff8111156200384c576200384c6200372e565b60405162003865601f8301601f19166020018262003744565b8181528460208386010111156200387b57600080fd5b816020850160208301376000918101602001919091529392505050565b600082601f830112620038aa57600080fd5b81356020620038b98262003774565b604051620038c8828262003744565b83815260059390931b8501820192828101915086841115620038e957600080fd5b8286015b848110156200381257803567ffffffffffffffff8111156200390f5760008081fd5b6200391f8986838b01016200381d565b845250918301918301620038ed565b600082601f8301126200394057600080fd5b813560206200394f8262003774565b6040516200395e828262003744565b83815260059390931b85018201928281019150868411156200397f57600080fd5b8286015b8481101562003812578035835291830191830162003983565b60008060008060008060c08789031215620039b657600080fd5b863567ffffffffffffffff80821115620039cf57600080fd5b620039dd8a838b016200379b565b97506020890135915080821115620039f457600080fd5b62003a028a838b0162003898565b9650604089013591508082111562003a1957600080fd5b62003a278a838b016200392e565b955060608901359450608089013591508082111562003a4557600080fd5b62003a538a838b016200381d565b935060a089013591508082111562003a6a57600080fd5b5062003a7989828a016200381d565b9150509295509295509295565b60008060006060848603121562003a9c57600080fd5b505081359360208301359350604090920135919050565b600080600080600060a0868803121562003acc57600080fd5b85359450602086013593506040860135925062003aec60608701620035fe565b9150608086013567ffffffffffffffff81111562003b0957600080fd5b62003b17888289016200381d565b9150509295509295909350565b60006020828403121562003b3757600080fd5b5035919050565b634e487b7160e01b600052602160045260246000fd5b6005811062003b7357634e487b7160e01b600052602160045260246000fd5b9052565b60018060a01b038716815285602082015284604082015260c06060820152600062003ba660c083018662003639565b828103608084015262003bba818662003639565b91505062003bcc60a083018462003b54565b979650505050505050565b60008060008060008060008060008060006101608c8e03121562003bfa57600080fd5b62003c058c620035fe565b9a5060208c0135995060408c0135985060608c0135975060808c0135965060a08c013567ffffffffffffffff81111562003c3e57600080fd5b62003c4c8e828f016200381d565b96505060c08c0135945060e08c013593506101008c013592506101208c0135915062003c7c6101408d01620035fe565b90509295989b509295989b9093969950565b600081518084526020808501945080840160005b8381101562003cc95781516001600160a01b03168752958201959082019060010162003ca2565b509495945050505050565b600081518084526020808501808196508360051b8101915082860160005b8581101562003d2057828403895262003d0d84835162003639565b9885019893509084019060010162003cf2565b5091979650505050505050565b600081518084526020808501945080840160005b8381101562003cc95781518752958201959082019060010162003d41565b6020815262003d7a6020820183516001600160a01b03169052565b60208201516040820152604082015160608201526000606083015161014080608085015262003dae61016085018362003c8e565b91506080850151601f19808685030160a087015262003dce848362003cd4565b935060a08701519150808685030160c087015262003ded848362003d2d565b935060c08701519150808685030160e087015262003e0c848362003639565b935060e0870151915061010081878603018188015262003e2d858462003639565b94508088015192505061012062003e478188018462003b54565b87015186850390910183870152905062003e62838262003d2d565b9695505050505050565b6000806000806080858703121562003e8357600080fd5b62003e8e85620035fe565b966020860135965060408601359560600135945092505050565b600181811c9082168062003ebd57607f821691505b60208210810362003ede57634e487b7160e01b600052602260045260246000fd5b50919050565b634e487b7160e01b600052601160045260246000fd5b808202811582820484141762003037576200303762003ee4565b634e487b7160e01b600052601260045260246000fd5b60008262003f3c5762003f3c62003f14565b500490565b6020808252602f908201527f45524332304775696c643a2070726f706f73616c2074696d652068617320746f60408201526e0206265206d6f7265207468616e203608c1b606082015260800190565b6020808252603e908201527f45524332304775696c643a206c6f636b54696d652068617320746f206265206860408201527f6967686572206f7220657175616c20746f2070726f706f73616c54696d650000606082015260800190565b6020808252603c908201527f45524332304775696c643a20766f74696e6720706f77657220666f722065786560408201527f637574696f6e2068617320746f206265206d6f7265207468616e203000000000606082015260800190565b6000826200405c576200405c62003f14565b500690565b8082018082111562003037576200303762003ee4565b601f821115620014e857600081815260208120601f850160051c81016020861015620040a05750805b601f850160051c820191505b818110156200184057828155600101620040ac565b815167ffffffffffffffff811115620040de57620040de6200372e565b620040f681620040ef845462003ea8565b8462004077565b602080601f8311600181146200412e5760008415620041155750858301515b600019600386901b1c1916600185901b17855562001840565b600085815260208120601f198616915b828110156200415f578886015182559484019460019091019084016200413e565b50858210156200417e5787850151600019600388901b60f8161c191681555b5050505050600190811b01905550565b6020808252602b908201527f45524332304775696c643a2050726f706f73616c20656e6465642c2063616e6e60408201526a1bdd081899481d9bdd195960aa1b606082015260800190565b60208082526026908201527f45524332304775696c643a20496e76616c696420766f74696e67506f77657220604082015265185b5bdd5b9d60d21b606082015260800190565b60208082526041908201527f45524332304775696c643a2043616e6e6f74206368616e6765206f7074696f6e60408201527f20766f7465642c206f6e6c7920696e63726561736520766f74696e67506f77656060820152603960f91b608082015260a00190565b8181038181111562003037576200303762003ee4565b634e487b7160e01b600052603260045260246000fd5b600060018201620042c757620042c762003ee4565b5060010190565b600060033d1115620042e85760046000803e5060005160e01c5b90565b600060443d1015620042fa5790565b6040516003193d81016004833e81513d67ffffffffffffffff81602484011181841117156200432b57505050505090565b8285019150815181811115620043445750505050505090565b843d87010160208285010111156200435f5750505050505090565b620043706020828601018762003744565b509095945050505050565b60008083546200438b8162003ea8565b60018281168015620043a65760018114620043bc57620043ed565b60ff1984168752821515830287019450620043ed565b8760005260208060002060005b85811015620043e45781548a820152908401908201620043c9565b50505082870194505b50929695505050505050565b6000602082840312156200440c57600080fd5b815180151581146200305057600080fdfe608060405234801561001057600080fd5b5060405161079438038061079483398101604081905261002f9161007c565b600080546001600160a01b039384166001600160a01b031991821617909155600180549290931691161790556100af565b80516001600160a01b038116811461007757600080fd5b919050565b6000806040838503121561008f57600080fd5b61009883610060565b91506100a660208401610060565b90509250929050565b6106d6806100be6000396000f3fe608060405234801561001057600080fd5b506004361061007d5760003560e01c80636e9960c31161005b5780636e9960c3146100ef578063f3fef3a314610100578063f851a44014610113578063fc0c546a1461012657600080fd5b806321df0da71461008257806327e235e3146100ac57806347e7ef24146100da575b600080fd5b6000546001600160a01b03165b6040516001600160a01b0390911681526020015b60405180910390f35b6100cc6100ba36600461058a565b60026020526000908152604090205481565b6040519081526020016100a3565b6100ed6100e83660046105a5565b610139565b005b6001546001600160a01b031661008f565b6100ed61010e3660046105a5565b61020a565b60015461008f906001600160a01b031681565b60005461008f906001600160a01b031681565b6001546001600160a01b031633146101af5760405162461bcd60e51b815260206004820152602e60248201527f546f6b656e5661756c743a204465706f736974206d7573742062652073656e7460448201526d103a343937bab3b41030b236b4b760911b60648201526084015b60405180910390fd5b6000546101c7906001600160a01b031683308461025b565b6001600160a01b0382166000908152600260205260409020546101ea90826102cc565b6001600160a01b0390921660009081526002602052604090209190915550565b6001546001600160a01b0316331461022157600080fd5b600054610238906001600160a01b031683836102e1565b6001600160a01b0382166000908152600260205260409020546101ea9082610316565b6040516001600160a01b03808516602483015283166044820152606481018290526102c69085906323b872dd60e01b906084015b60408051601f198184030181529190526020810180516001600160e01b03166001600160e01b031990931692909217909152610322565b50505050565b60006102d882846105e5565b90505b92915050565b6040516001600160a01b03831660248201526044810182905261031190849063a9059cbb60e01b9060640161028f565b505050565b60006102d882846105f8565b6000610377826040518060400160405280602081526020017f5361666545524332303a206c6f772d6c6576656c2063616c6c206661696c6564815250856001600160a01b03166103f49092919063ffffffff16565b8051909150156103115780806020019051810190610395919061060b565b6103115760405162461bcd60e51b815260206004820152602a60248201527f5361666545524332303a204552433230206f7065726174696f6e20646964206e6044820152691bdd081cdd58d8d9595960b21b60648201526084016101a6565b6060610403848460008561040d565b90505b9392505050565b60608247101561046e5760405162461bcd60e51b815260206004820152602660248201527f416464726573733a20696e73756666696369656e742062616c616e636520666f6044820152651c8818d85b1b60d21b60648201526084016101a6565b843b6104bc5760405162461bcd60e51b815260206004820152601d60248201527f416464726573733a2063616c6c20746f206e6f6e2d636f6e747261637400000060448201526064016101a6565b600080866001600160a01b031685876040516104d89190610651565b60006040518083038185875af1925050503d8060008114610515576040519150601f19603f3d011682016040523d82523d6000602084013e61051a565b606091505b509150915061052a828286610535565b979650505050505050565b60608315610544575081610406565b8251156105545782518084602001fd5b8160405162461bcd60e51b81526004016101a6919061066d565b80356001600160a01b038116811461058557600080fd5b919050565b60006020828403121561059c57600080fd5b6102d88261056e565b600080604083850312156105b857600080fd5b6105c18361056e565b946020939093013593505050565b634e487b7160e01b600052601160045260246000fd5b808201808211156102db576102db6105cf565b818103818111156102db576102db6105cf565b60006020828403121561061d57600080fd5b8151801515811461040657600080fd5b60005b83811015610648578181015183820152602001610630565b50506000910152565b6000825161066381846020870161062d565b9190910192915050565b602081526000825180602084015261068c81604085016020870161062d565b601f01601f1916919091016040019291505056fea26469706673582212200dc40e929cb7cd09eab9a5dff5e560bcf87fefdb78df12750c3659d40d03ae5e64736f6c63430008110033fee62a9eec0be50eb061c711990ef0f1e17b40ea131d9347b0468acdaf8bf243a26469706673582212206d32b3498387a435505a53b3ce249eef8bc778941855f160768653b647224d7f64736f6c63430008110033",
  "linkReferences": {},
  "deployedLinkReferences": {}
}