{
  "_format": "hh-sol-artifact-1",
  "contractName": "ERC20GuildWithERC1271",
  "sourceName": "contracts/erc20guild/implementations/ERC20GuildWithERC1271.sol",
  "abi": [
    {
      "anonymous": false,
      "inputs": [],
      "name": "GuildInitialized",
      "type": "event"
    },
    {
      "anonymous": false,
      "inputs": [
        {
          "indexed": true,
          "internalType": "bytes32",
          "name": "proposalId",
          "type": "bytes32"
        },
        {
          "indexed": false,
          "internalType": "uint256",
          "name": "newState",
          "type": "uint256"
        }
      ],
      "name": "ProposalStateChanged",
      "type": "event"
    },
    {
      "anonymous": false,
      "inputs": [
        {
          "indexed": false,
          "internalType": "address",
          "name": "voter",
          "type": "address"
        },
        {
          "indexed": false,
          "internalType": "uint256",
          "name": "value",
          "type": "uint256"
        }
      ],
      "name": "TokensLocked",
      "type": "event"
    },
    {
      "anonymous": false,
      "inputs": [
        {
          "indexed": false,
          "internalType": "address",
          "name": "voter",
          "type": "address"
        },
        {
          "indexed": false,
          "internalType": "uint256",
          "name": "value",
          "type": "uint256"
        }
      ],
      "name": "TokensWithdrawn",
      "type": "event"
    },
    {
      "anonymous": false,
      "inputs": [
        {
          "indexed": true,
          "internalType": "bytes32",
          "name": "proposalId",
          "type": "bytes32"
        },
        {
          "indexed": true,
          "internalType": "uint256",
          "name": "option",
          "type": "uint256"
        },
        {
          "indexed": false,
          "internalType": "address",
          "name": "voter",
          "type": "address"
        },
        {
          "indexed": false,
          "internalType": "uint256",
          "name": "votingPower",
          "type": "uint256"
        }
      ],
      "name": "VoteAdded",
      "type": "event"
    },
    {
      "stateMutability": "payable",
      "type": "fallback"
    },
    {
      "inputs": [
        {
          "internalType": "bytes32",
          "name": "",
          "type": "bytes32"
        }
      ],
      "name": "EIP1271SignedHashes",
      "outputs": [
        {
          "internalType": "bool",
          "name": "",
          "type": "bool"
        }
      ],
      "stateMutability": "view",
      "type": "function"
    },
    {
      "inputs": [],
      "name": "MAX_OPTIONS_PER_PROPOSAL",
      "outputs": [
        {
          "internalType": "uint8",
          "name": "",
          "type": "uint8"
        }
      ],
      "stateMutability": "view",
      "type": "function"
    },
    {
      "inputs": [],
      "name": "activeProposalsNow",
      "outputs": [
        {
          "internalType": "uint256",
          "name": "",
          "type": "uint256"
        }
      ],
      "stateMutability": "view",
      "type": "function"
    },
    {
      "inputs": [
        {
          "internalType": "address[]",
          "name": "to",
          "type": "address[]"
        },
        {
          "internalType": "bytes[]",
          "name": "data",
          "type": "bytes[]"
        },
        {
          "internalType": "uint256[]",
          "name": "value",
          "type": "uint256[]"
        },
        {
          "internalType": "uint256",
          "name": "totalOptions",
          "type": "uint256"
        },
        {
          "internalType": "string",
          "name": "title",
          "type": "string"
        },
        {
          "internalType": "string",
          "name": "contentHash",
          "type": "string"
        }
      ],
      "name": "createProposal",
      "outputs": [
        {
          "internalType": "bytes32",
          "name": "",
          "type": "bytes32"
        }
      ],
      "stateMutability": "nonpayable",
      "type": "function"
    },
    {
      "inputs": [
        {
          "internalType": "bytes32",
          "name": "proposalId",
          "type": "bytes32"
        }
      ],
      "name": "endProposal",
      "outputs": [],
      "stateMutability": "nonpayable",
      "type": "function"
    },
    {
      "inputs": [],
      "name": "getActiveProposalsNow",
      "outputs": [
        {
          "internalType": "uint256",
          "name": "",
          "type": "uint256"
        }
      ],
      "stateMutability": "view",
      "type": "function"
    },
    {
      "inputs": [
        {
          "internalType": "bytes32",
          "name": "_hash",
          "type": "bytes32"
        }
      ],
      "name": "getEIP1271SignedHash",
      "outputs": [
        {
          "internalType": "bool",
          "name": "",
          "type": "bool"
        }
      ],
      "stateMutability": "view",
      "type": "function"
    },
    {
      "inputs": [],
      "name": "getLockTime",
      "outputs": [
        {
          "internalType": "uint256",
          "name": "",
          "type": "uint256"
        }
      ],
      "stateMutability": "view",
      "type": "function"
    },
    {
      "inputs": [],
      "name": "getMaxActiveProposals",
      "outputs": [
        {
          "internalType": "uint256",
          "name": "",
          "type": "uint256"
        }
      ],
      "stateMutability": "view",
      "type": "function"
    },
    {
      "inputs": [],
      "name": "getMaxGasPrice",
      "outputs": [
        {
          "internalType": "uint256",
          "name": "",
          "type": "uint256"
        }
      ],
      "stateMutability": "view",
      "type": "function"
    },
    {
      "inputs": [],
      "name": "getMinimumMembersForProposalCreation",
      "outputs": [
        {
          "internalType": "uint256",
          "name": "",
          "type": "uint256"
        }
      ],
      "stateMutability": "view",
      "type": "function"
    },
    {
      "inputs": [],
      "name": "getMinimumTokensLockedForProposalCreation",
      "outputs": [
        {
          "internalType": "uint256",
          "name": "",
          "type": "uint256"
        }
      ],
      "stateMutability": "view",
      "type": "function"
    },
    {
      "inputs": [],
      "name": "getName",
      "outputs": [
        {
          "internalType": "string",
          "name": "",
          "type": "string"
        }
      ],
      "stateMutability": "view",
      "type": "function"
    },
    {
      "inputs": [],
      "name": "getPermissionRegistry",
      "outputs": [
        {
          "internalType": "address",
          "name": "",
          "type": "address"
        }
      ],
      "stateMutability": "view",
      "type": "function"
    },
    {
      "inputs": [
        {
          "internalType": "bytes32",
          "name": "proposalId",
          "type": "bytes32"
        }
      ],
      "name": "getProposal",
      "outputs": [
        {
          "components": [
            {
              "internalType": "address",
              "name": "creator",
              "type": "address"
            },
            {
              "internalType": "uint256",
              "name": "startTime",
              "type": "uint256"
            },
            {
              "internalType": "uint256",
              "name": "endTime",
              "type": "uint256"
            },
            {
              "internalType": "address[]",
              "name": "to",
              "type": "address[]"
            },
            {
              "internalType": "bytes[]",
              "name": "data",
              "type": "bytes[]"
            },
            {
              "internalType": "uint256[]",
              "name": "value",
              "type": "uint256[]"
            },
            {
              "internalType": "string",
              "name": "title",
              "type": "string"
            },
            {
              "internalType": "string",
              "name": "contentHash",
              "type": "string"
            },
            {
              "internalType": "enum BaseERC20Guild.ProposalState",
              "name": "state",
              "type": "uint8"
            },
            {
              "internalType": "uint256[]",
              "name": "totalVotes",
              "type": "uint256[]"
            }
          ],
          "internalType": "struct BaseERC20Guild.Proposal",
          "name": "",
          "type": "tuple"
        }
      ],
      "stateMutability": "view",
      "type": "function"
    },
    {
      "inputs": [],
      "name": "getProposalTime",
      "outputs": [
        {
          "internalType": "uint256",
          "name": "",
          "type": "uint256"
        }
      ],
      "stateMutability": "view",
      "type": "function"
    },
    {
      "inputs": [
        {
          "internalType": "bytes32",
          "name": "proposalId",
          "type": "bytes32"
        },
        {
          "internalType": "address",
          "name": "voter",
          "type": "address"
        }
      ],
      "name": "getProposalVotesOfVoter",
      "outputs": [
        {
          "internalType": "uint256",
          "name": "option",
          "type": "uint256"
        },
        {
          "internalType": "uint256",
          "name": "votingPower",
          "type": "uint256"
        }
      ],
      "stateMutability": "view",
      "type": "function"
    },
    {
      "inputs": [],
      "name": "getProposalsIds",
      "outputs": [
        {
          "internalType": "bytes32[]",
          "name": "",
          "type": "bytes32[]"
        }
      ],
      "stateMutability": "view",
      "type": "function"
    },
    {
      "inputs": [],
      "name": "getProposalsIdsLength",
      "outputs": [
        {
          "internalType": "uint256",
          "name": "",
          "type": "uint256"
        }
      ],
      "stateMutability": "view",
      "type": "function"
    },
    {
      "inputs": [
        {
          "internalType": "bytes32",
          "name": "signedVoteHash",
          "type": "bytes32"
        }
      ],
      "name": "getSignedVote",
      "outputs": [
        {
          "internalType": "bool",
          "name": "",
          "type": "bool"
        }
      ],
      "stateMutability": "view",
      "type": "function"
    },
    {
      "inputs": [],
      "name": "getTimeForExecution",
      "outputs": [
        {
          "internalType": "uint256",
          "name": "",
          "type": "uint256"
        }
      ],
      "stateMutability": "view",
      "type": "function"
    },
    {
      "inputs": [],
      "name": "getToken",
      "outputs": [
        {
          "internalType": "address",
          "name": "",
          "type": "address"
        }
      ],
      "stateMutability": "view",
      "type": "function"
    },
    {
      "inputs": [],
      "name": "getTokenVault",
      "outputs": [
        {
          "internalType": "address",
          "name": "",
          "type": "address"
        }
      ],
      "stateMutability": "view",
      "type": "function"
    },
    {
      "inputs": [],
      "name": "getTotalLocked",
      "outputs": [
        {
          "internalType": "uint256",
          "name": "",
          "type": "uint256"
        }
      ],
      "stateMutability": "view",
      "type": "function"
    },
    {
      "inputs": [],
      "name": "getTotalMembers",
      "outputs": [
        {
          "internalType": "uint256",
          "name": "",
          "type": "uint256"
        }
      ],
      "stateMutability": "view",
      "type": "function"
    },
    {
      "inputs": [],
      "name": "getTotalProposals",
      "outputs": [
        {
          "internalType": "uint256",
          "name": "",
          "type": "uint256"
        }
      ],
      "stateMutability": "view",
      "type": "function"
    },
    {
      "inputs": [],
      "name": "getVoteGas",
      "outputs": [
        {
          "internalType": "uint256",
          "name": "",
          "type": "uint256"
        }
      ],
      "stateMutability": "view",
      "type": "function"
    },
    {
      "inputs": [
        {
          "internalType": "address",
          "name": "voter",
          "type": "address"
        }
      ],
      "name": "getVoterLockTimestamp",
      "outputs": [
        {
          "internalType": "uint256",
          "name": "",
          "type": "uint256"
        }
      ],
      "stateMutability": "view",
      "type": "function"
    },
    {
      "inputs": [],
      "name": "getVotingPowerForProposalCreation",
      "outputs": [
        {
          "internalType": "uint256",
          "name": "",
          "type": "uint256"
        }
      ],
      "stateMutability": "view",
      "type": "function"
    },
    {
      "inputs": [],
      "name": "getVotingPowerForProposalExecution",
      "outputs": [
        {
          "internalType": "uint256",
          "name": "",
          "type": "uint256"
        }
      ],
      "stateMutability": "view",
      "type": "function"
    },
    {
      "inputs": [
        {
          "internalType": "address",
          "name": "voter",
          "type": "address"
        },
        {
          "internalType": "bytes32",
          "name": "proposalId",
          "type": "bytes32"
        },
        {
          "internalType": "uint256",
          "name": "option",
          "type": "uint256"
        },
        {
          "internalType": "uint256",
          "name": "votingPower",
          "type": "uint256"
        }
      ],
      "name": "hashVote",
      "outputs": [
        {
          "internalType": "bytes32",
          "name": "",
          "type": "bytes32"
        }
      ],
      "stateMutability": "pure",
      "type": "function"
    },
    {
      "inputs": [
        {
          "internalType": "address",
          "name": "_token",
          "type": "address"
        },
        {
          "internalType": "uint256",
          "name": "_proposalTime",
          "type": "uint256"
        },
        {
          "internalType": "uint256",
          "name": "_timeForExecution",
          "type": "uint256"
        },
        {
          "internalType": "uint256",
          "name": "_votingPowerPercentageForProposalExecution",
          "type": "uint256"
        },
        {
          "internalType": "uint256",
          "name": "_votingPowerPercentageForProposalCreation",
          "type": "uint256"
        },
        {
          "internalType": "string",
          "name": "_name",
          "type": "string"
        },
        {
          "internalType": "uint256",
          "name": "_voteGas",
          "type": "uint256"
        },
        {
          "internalType": "uint256",
          "name": "_maxGasPrice",
          "type": "uint256"
        },
        {
          "internalType": "uint256",
          "name": "_maxActiveProposals",
          "type": "uint256"
        },
        {
          "internalType": "uint256",
          "name": "_lockTime",
          "type": "uint256"
        },
        {
          "internalType": "address",
          "name": "_permissionRegistry",
          "type": "address"
        }
      ],
      "name": "initialize",
      "outputs": [],
      "stateMutability": "nonpayable",
      "type": "function"
    },
    {
      "inputs": [
        {
          "internalType": "bytes32",
          "name": "hash",
          "type": "bytes32"
        },
        {
          "internalType": "bytes",
          "name": "signature",
          "type": "bytes"
        }
      ],
      "name": "isValidSignature",
      "outputs": [
        {
          "internalType": "bytes4",
          "name": "magicValue",
          "type": "bytes4"
        }
      ],
      "stateMutability": "view",
      "type": "function"
    },
    {
      "inputs": [],
      "name": "lockTime",
      "outputs": [
        {
          "internalType": "uint256",
          "name": "",
          "type": "uint256"
        }
      ],
      "stateMutability": "view",
      "type": "function"
    },
    {
      "inputs": [
        {
          "internalType": "uint256",
          "name": "tokenAmount",
          "type": "uint256"
        }
      ],
      "name": "lockTokens",
      "outputs": [],
      "stateMutability": "nonpayable",
      "type": "function"
    },
    {
      "inputs": [],
      "name": "maxActiveProposals",
      "outputs": [
        {
          "internalType": "uint256",
          "name": "",
          "type": "uint256"
        }
      ],
      "stateMutability": "view",
      "type": "function"
    },
    {
      "inputs": [],
      "name": "maxGasPrice",
      "outputs": [
        {
          "internalType": "uint256",
          "name": "",
          "type": "uint256"
        }
      ],
      "stateMutability": "view",
      "type": "function"
    },
    {
      "inputs": [],
      "name": "minimumMembersForProposalCreation",
      "outputs": [
        {
          "internalType": "uint256",
          "name": "",
          "type": "uint256"
        }
      ],
      "stateMutability": "view",
      "type": "function"
    },
    {
      "inputs": [],
      "name": "minimumTokensLockedForProposalCreation",
      "outputs": [
        {
          "internalType": "uint256",
          "name": "",
          "type": "uint256"
        }
      ],
      "stateMutability": "view",
      "type": "function"
    },
    {
      "inputs": [],
      "name": "name",
      "outputs": [
        {
          "internalType": "string",
          "name": "",
          "type": "string"
        }
      ],
      "stateMutability": "view",
      "type": "function"
    },
    {
      "inputs": [],
      "name": "proposalTime",
      "outputs": [
        {
          "internalType": "uint256",
          "name": "",
          "type": "uint256"
        }
      ],
      "stateMutability": "view",
      "type": "function"
    },
    {
      "inputs": [
        {
          "internalType": "bytes32",
          "name": "",
          "type": "bytes32"
        },
        {
          "internalType": "address",
          "name": "",
          "type": "address"
        }
      ],
      "name": "proposalVotes",
      "outputs": [
        {
          "internalType": "uint256",
          "name": "option",
          "type": "uint256"
        },
        {
          "internalType": "uint256",
          "name": "votingPower",
          "type": "uint256"
        }
      ],
      "stateMutability": "view",
      "type": "function"
    },
    {
      "inputs": [
        {
          "internalType": "bytes32",
          "name": "",
          "type": "bytes32"
        }
      ],
      "name": "proposals",
      "outputs": [
        {
          "internalType": "address",
          "name": "creator",
          "type": "address"
        },
        {
          "internalType": "uint256",
          "name": "startTime",
          "type": "uint256"
        },
        {
          "internalType": "uint256",
          "name": "endTime",
          "type": "uint256"
        },
        {
          "internalType": "string",
          "name": "title",
          "type": "string"
        },
        {
          "internalType": "string",
          "name": "contentHash",
          "type": "string"
        },
        {
          "internalType": "enum BaseERC20Guild.ProposalState",
          "name": "state",
          "type": "uint8"
        }
      ],
      "stateMutability": "view",
      "type": "function"
    },
    {
      "inputs": [
        {
          "internalType": "uint256",
          "name": "",
          "type": "uint256"
        }
      ],
      "name": "proposalsIds",
      "outputs": [
        {
          "internalType": "bytes32",
          "name": "",
          "type": "bytes32"
        }
      ],
      "stateMutability": "view",
      "type": "function"
    },
    {
      "inputs": [
        {
          "internalType": "uint256",
          "name": "_proposalTime",
          "type": "uint256"
        },
        {
          "internalType": "uint256",
          "name": "_timeForExecution",
          "type": "uint256"
        },
        {
          "internalType": "uint256",
          "name": "_votingPowerPercentageForProposalExecution",
          "type": "uint256"
        },
        {
          "internalType": "uint256",
          "name": "_votingPowerPercentageForProposalCreation",
          "type": "uint256"
        },
        {
          "internalType": "uint256",
          "name": "_voteGas",
          "type": "uint256"
        },
        {
          "internalType": "uint256",
          "name": "_maxGasPrice",
          "type": "uint256"
        },
        {
          "internalType": "uint256",
          "name": "_maxActiveProposals",
          "type": "uint256"
        },
        {
          "internalType": "uint256",
          "name": "_lockTime",
          "type": "uint256"
        },
        {
          "internalType": "uint256",
          "name": "_minimumMembersForProposalCreation",
          "type": "uint256"
        },
        {
          "internalType": "uint256",
          "name": "_minimumTokensLockedForProposalCreation",
          "type": "uint256"
        }
      ],
      "name": "setConfig",
      "outputs": [],
      "stateMutability": "nonpayable",
      "type": "function"
    },
    {
      "inputs": [
        {
          "internalType": "bytes32",
          "name": "_hash",
          "type": "bytes32"
        },
        {
          "internalType": "bool",
          "name": "isValid",
          "type": "bool"
        }
      ],
      "name": "setEIP1271SignedHash",
      "outputs": [],
      "stateMutability": "nonpayable",
      "type": "function"
    },
    {
      "inputs": [
        {
          "internalType": "bytes32",
          "name": "proposalId",
          "type": "bytes32"
        },
        {
          "internalType": "uint256",
          "name": "option",
          "type": "uint256"
        },
        {
          "internalType": "uint256",
          "name": "votingPower",
          "type": "uint256"
        },
        {
          "internalType": "address",
          "name": "voter",
          "type": "address"
        },
        {
          "internalType": "bytes",
          "name": "signature",
          "type": "bytes"
        }
      ],
      "name": "setSignedVote",
      "outputs": [],
      "stateMutability": "nonpayable",
      "type": "function"
    },
    {
      "inputs": [
        {
          "internalType": "bytes32",
          "name": "proposalId",
          "type": "bytes32"
        },
        {
          "internalType": "uint256",
          "name": "option",
          "type": "uint256"
        },
        {
          "internalType": "uint256",
          "name": "votingPower",
          "type": "uint256"
        }
      ],
      "name": "setVote",
      "outputs": [],
      "stateMutability": "nonpayable",
      "type": "function"
    },
    {
      "inputs": [
        {
          "internalType": "bytes32",
          "name": "",
          "type": "bytes32"
        }
      ],
      "name": "signedVotes",
      "outputs": [
        {
          "internalType": "bool",
          "name": "",
          "type": "bool"
        }
      ],
      "stateMutability": "view",
      "type": "function"
    },
    {
      "inputs": [],
      "name": "timeForExecution",
      "outputs": [
        {
          "internalType": "uint256",
          "name": "",
          "type": "uint256"
        }
      ],
      "stateMutability": "view",
      "type": "function"
    },
    {
      "inputs": [],
      "name": "token",
      "outputs": [
        {
          "internalType": "contract IERC20Upgradeable",
          "name": "",
          "type": "address"
        }
      ],
      "stateMutability": "view",
      "type": "function"
    },
    {
      "inputs": [],
      "name": "tokenVault",
      "outputs": [
        {
          "internalType": "contract TokenVault",
          "name": "",
          "type": "address"
        }
      ],
      "stateMutability": "view",
      "type": "function"
    },
    {
      "inputs": [
        {
          "internalType": "address",
          "name": "",
          "type": "address"
        }
      ],
      "name": "tokensLocked",
      "outputs": [
        {
          "internalType": "uint256",
          "name": "amount",
          "type": "uint256"
        },
        {
          "internalType": "uint256",
          "name": "timestamp",
          "type": "uint256"
        }
      ],
      "stateMutability": "view",
      "type": "function"
    },
    {
      "inputs": [],
      "name": "totalLocked",
      "outputs": [
        {
          "internalType": "uint256",
          "name": "",
          "type": "uint256"
        }
      ],
      "stateMutability": "view",
      "type": "function"
    },
    {
      "inputs": [],
      "name": "totalProposals",
      "outputs": [
        {
          "internalType": "uint256",
          "name": "",
          "type": "uint256"
        }
      ],
      "stateMutability": "view",
      "type": "function"
    },
    {
      "inputs": [],
      "name": "voteGas",
      "outputs": [
        {
          "internalType": "uint256",
          "name": "",
          "type": "uint256"
        }
      ],
      "stateMutability": "view",
      "type": "function"
    },
    {
      "inputs": [
        {
          "internalType": "address",
          "name": "account",
          "type": "address"
        }
      ],
      "name": "votingPowerOf",
      "outputs": [
        {
          "internalType": "uint256",
          "name": "",
          "type": "uint256"
        }
      ],
      "stateMutability": "view",
      "type": "function"
    },
    {
      "inputs": [],
      "name": "votingPowerPercentageForProposalCreation",
      "outputs": [
        {
          "internalType": "uint256",
          "name": "",
          "type": "uint256"
        }
      ],
      "stateMutability": "view",
      "type": "function"
    },
    {
      "inputs": [],
      "name": "votingPowerPercentageForProposalExecution",
      "outputs": [
        {
          "internalType": "uint256",
          "name": "",
          "type": "uint256"
        }
      ],
      "stateMutability": "view",
      "type": "function"
    },
    {
      "inputs": [
        {
          "internalType": "uint256",
          "name": "tokenAmount",
          "type": "uint256"
        }
      ],
      "name": "withdrawTokens",
      "outputs": [],
      "stateMutability": "nonpayable",
      "type": "function"
    }
  ],
  "bytecode": "0x608060405234801561001057600080fd5b50614e68806100206000396000f3fe608060405260043610620003b55760003560e01c80635e508c2c11620001eb578063ae619234116200010b578063c93e01e311620000a7578063f4732da61162000075578063f4732da61462000b7d578063f98606a71462000b94578063fc0c546a1462000bac578063fc4e703f1462000bce57005b8063c93e01e31462000af3578063e04503531462000b0a578063e158080a1462000b22578063f09951981462000b3a57005b8063b3b4706111620000e5578063b3b470611462000a7b578063b7c15f8d1462000aa0578063bcc3f3bd1462000ab7578063c0a4d64d1462000adc57005b8063ae6192341462000a0a578063b2c342d51462000a22578063b3929aaa1462000a5657005b806389c98c061162000187578063a16fe3421162000155578063a16fe34214620009a3578063a78d80fc14620009c3578063a7aeb55714620009db578063ad6c1e3414620009f357005b806389c98c06146200091c5780638f180305146200093357806392b71654146200094a5780639840dccc146200096f57005b80636e27d88911620001c55780636e27d889146200088757806377027ff414620008ac578063785b3ed814620008c35780638029eff114620008e857005b80635e508c2c146200084157806364fe6ed214620008595780636c8b72f6146200087057005b80632467ef9411620002d757806336f8f8d91162000273578063430694cf1162000241578063430694cf14620007b357806354f2f7af14620007e75780635689141214620008075780635bc789d9146200081f57005b806336f8f8d914620007465780633bf353fb146200076b5780633de39c1114620007835780633f10cf15146200079b57005b80632d757c3e11620002b15780632d757c3e14620006665780632fd99c0014620006a3578063315a095d14620006e857806332ed5b12146200070d57005b80632467ef94146200060057806325c069fc14620006175780632d5b17de146200064157005b806313108d741162000353578063184a0ae91162000321578063184a0ae914620005865780631a5007dd146200059e57806321df0da714620005b55780632229a0e214620005e957005b806313108d7414620004e55780631626ba7e146200050a57806316bbecde146200054957806317d7de7c146200056e57005b80630a366a6311620003915780630a366a63146200045c5780630d6680871462000483578063123f6d67146200049b578063130485fe14620004c057005b80623a40d014620003b757806301a598a614620003e757806306fdde031462000435575b005b348015620003c457600080fd5b50620003cf62000be6565b604051620003de919062003789565b60405180910390f35b348015620003f457600080fd5b506200041f62000406366004620037ec565b6012602052600090815260409020805460019091015482565b60408051928352602083019190915201620003de565b3480156200044257600080fd5b506200044d62000c40565b604051620003de919062003852565b3480156200046957600080fd5b506200047462000cd6565b604051908152602001620003de565b3480156200049057600080fd5b5062000474600d5481565b348015620004a857600080fd5b50620003b5620004ba36600462003867565b62000d05565b348015620004cd57600080fd5b506200041f620004df366004620038d0565b62000e9e565b348015620004f257600080fd5b50620004746200050436600462003b6d565b62000ed0565b3480156200051757600080fd5b506200052f6200052936600462003c57565b620014a2565b6040516001600160e01b03199091168152602001620003de565b3480156200055657600080fd5b50620003b56200056836600462003ca2565b620014f0565b3480156200057b57600080fd5b506200044d62001637565b3480156200059357600080fd5b506200047460035481565b348015620005ab57600080fd5b50600a5462000474565b348015620005c257600080fd5b506000546001600160a01b03165b6040516001600160a01b039091168152602001620003de565b348015620005f657600080fd5b5060165462000474565b3480156200060d57600080fd5b50600c5462000474565b3480156200062457600080fd5b506200062e600a81565b60405160ff9091168152602001620003de565b3480156200064e57600080fd5b50620003b56200066036600462003ccf565b620016c8565b3480156200067357600080fd5b506200047462000685366004620037ec565b6001600160a01b031660009081526012602052604090206001015490565b348015620006b057600080fd5b50620006d7620006c236600462003d40565b60136020526000908152604090205460ff1681565b6040519015158152602001620003de565b348015620006f557600080fd5b50620003b56200070736600462003d40565b62001992565b3480156200071a57600080fd5b50620007326200072c36600462003d40565b62001bf3565b604051620003de9695949392919062003d93565b3480156200075357600080fd5b50620003b56200076536600462003df3565b62001d57565b3480156200077857600080fd5b5062000474600c5481565b3480156200079057600080fd5b506200047460085481565b348015620007a857600080fd5b506200047460045481565b348015620007c057600080fd5b50620007d8620007d236600462003d40565b62001fe6565b604051620003de919062003f7b565b348015620007f457600080fd5b506011546001600160a01b0316620005d0565b3480156200081457600080fd5b5062000474600e5481565b3480156200082c57600080fd5b50601154620005d0906001600160a01b031681565b3480156200084e57600080fd5b506200047460055481565b3480156200086657600080fd5b5060105462000474565b3480156200087d57600080fd5b5060075462000474565b3480156200089457600080fd5b50620003b5620008a636600462003d40565b62002399565b348015620008b957600080fd5b5060095462000474565b348015620008d057600080fd5b50620003b5620008e236600462004097565b6200252c565b348015620008f557600080fd5b50620006d76200090736600462003d40565b60009081526013602052604090205460ff1690565b3480156200092957600080fd5b5060085462000474565b3480156200094057600080fd5b50600b5462000474565b3480156200095757600080fd5b506200047462000969366004620040ca565b620025b7565b3480156200097c57600080fd5b50620006d76200098e36600462003d40565b60186020526000908152604090205460ff1681565b348015620009b057600080fd5b506001546001600160a01b0316620005d0565b348015620009d057600080fd5b5062000474600a5481565b348015620009e857600080fd5b5062000474600f5481565b34801562000a0057600080fd5b50600f5462000474565b34801562000a1757600080fd5b50620004746200260e565b34801562000a2f57600080fd5b50620006d762000a4136600462003d40565b60009081526018602052604090205460ff1690565b34801562000a6357600080fd5b506200047462000a7536600462003d40565b62002620565b34801562000a8857600080fd5b50620003b562000a9a36600462003d40565b62002642565b34801562000aad57600080fd5b5060045462000474565b34801562000ac457600080fd5b506200047462000ad6366004620037ec565b62002f7f565b34801562000ae957600080fd5b50600d5462000474565b34801562000b0057600080fd5b5060035462000474565b34801562000b1757600080fd5b506200047460095481565b34801562000b2f57600080fd5b506200047460105481565b34801562000b4757600080fd5b506200041f62000b59366004620038d0565b60146020908152600092835260408084209091529082529020805460019091015482565b34801562000b8a57600080fd5b50600e5462000474565b34801562000ba157600080fd5b506200047460065481565b34801562000bb957600080fd5b50600054620005d0906001600160a01b031681565b34801562000bdb57600080fd5b506200047460075481565b6060601680548060200260200160405190810160405280929190818152602001828054801562000c3657602002820191906000526020600020905b81548152602001906001019080831162000c21575b5050505050905090565b6002805462000c4f9062004106565b80601f016020809104026020016040519081016040528092919081815260200182805462000c7d9062004106565b801562000cce5780601f1062000ca25761010080835404028352916020019162000cce565b820191906000526020600020905b81548152906001019060200180831162000cb057829003601f168201915b505050505081565b600061271060065462000ce8600e5490565b62000cf4919062004158565b62000d00919062004188565b905090565b33301462000d8b5760405162461bcd60e51b815260206004820152604260248201527f45524332304775696c643a204f6e6c792063616c6c61626c652062792045524360448201527f32306775696c6420697473656c66206f72207768656e20696e697469616c697a606482015261195960f21b608482015260a4015b60405180910390fd5b60008a1162000dae5760405162461bcd60e51b815260040162000d82906200419f565b8983101562000dd15760405162461bcd60e51b815260040162000d8290620041ee565b6000881162000df45760405162461bcd60e51b815260040162000d82906200424b565b6201c90886111562000e6f5760405162461bcd60e51b815260206004820152603960248201527f45524332304775696c643a20766f7465206761732068617320746f206265206560448201527f7175616c206f72206c6f776572207468616e2031313730303000000000000000606482015260840162000d82565b600399909955600497909755600595909555600693909355600791909155600855600955600d55600f55601055565b60008281526014602090815260408083206001600160a01b0385168452909152902080546001909101545b9250929050565b6000601054600e54101562000f4e5760405162461bcd60e51b815260206004820152603960248201527f45524332304775696c643a204e6f7420656e6f75676820746f6b656e73206c6f60448201527f636b656420746f2063726561746520612070726f706f73616c00000000000000606482015260840162000d82565b600f54600b54101562000fc05760405162461bcd60e51b815260206004820152603360248201527f45524332304775696c643a204e6f7420656e6f756768206d656d6265727320746044820152721bc818dc99585d194818481c1c9bdc1bdcd85b606a1b606482015260840162000d82565b600954600c5410620010345760405162461bcd60e51b815260206004820152603660248201527f45524332304775696c643a204d6178696d756d20616d6f756e74206f662061636044820152751d1a5d99481c1c9bdc1bdcd85b1cc81c995858da195960521b606482015260840162000d82565b6200103e62000cd6565b620010493362002f7f565b1015620010b75760405162461bcd60e51b815260206004820152603560248201527f45524332304775696c643a204e6f7420656e6f75676820766f74696e67506f77604482015274195c881d1bc818dc99585d19481c1c9bdc1bdcd85b605a1b606482015260840162000d82565b85518751148015620010ca575084518751145b620011355760405162461bcd60e51b815260206004820152603460248201527f45524332304775696c643a2057726f6e67206c656e677468206f6620746f2c2060448201527364617461206f722076616c75652061727261797360601b606482015260840162000d82565b6000875111620011a25760405162461bcd60e51b815260206004820152603160248201527f45524332304775696c643a20746f2c20646174612076616c7565206172726179604482015270732063616e6e6f7420626520656d70747960781b606482015260840162000d82565b86518411158015620011c05750838551620011be9190620042a8565b155b620012345760405162461bcd60e51b815260206004820152603760248201527f45524332304775696c643a20496e76616c696420746f74616c4f7074696f6e7360448201527f206f72206f7074696f6e2063616c6c73206c656e677468000000000000000000606482015260840162000d82565b600a841115620012ad5760405162461bcd60e51b815260206004820152603a60248201527f45524332304775696c643a204d6178696d756d20616d6f756e74206f66206f7060448201527f74696f6e73207065722070726f706f73616c2072656163686564000000000000606482015260840162000d82565b600a546040516bffffffffffffffffffffffff193360601b1660208201524260348201526054810191909152600090607401604051602081830303815290604052805190602001209050600a546001620013089190620042bf565b600a55600081815260156020526040902080546001600160a01b0319163317815542600182018190556003546200133f91620042bf565b600282015588516200135b90600383019060208c019062003593565b5087516200137390600483019060208b0190620035fd565b5086516200138b90600583019060208a019062003656565b50600681016200139c86826200431f565b5060078101620013ad85826200431f565b50620013bb866001620042bf565b67ffffffffffffffff811115620013d657620013d6620038ff565b60405190808252806020026020018201604052801562001400578160200160208202803683370190505b5080516200141991600984019160209091019062003656565b5060088101805460ff19166001908117909155600c546200143a91620042bf565b600c558160008051602062004e13833981519152600160405190815260200160405180910390a250601680546001810182556000919091527fd833147d7dc355ba459fc788f669e58cfaf9dc25ddcd0702e87d69c7b512428901819055979650505050505050565b600080620014b562000ad6858562002f9a565b118015620014d1575060008381526018602052604090205460ff165b620014de576000620014e7565b630b135d3f60e11b5b90505b92915050565b6000838152601560205260409020600201544210620015235760405162461bcd60e51b815260040162000d8290620043ec565b806200152f3362002f7f565b10158015620015595750600083815260146020908152604080832033845290915290206001015481115b620015785760405162461bcd60e51b815260040162000d829062004437565b6000838152601460209081526040808320338452909152902054158015620015ba57506000838152601460209081526040808320338452909152902060010154155b80620016055750600083815260146020908152604080832033845290915290205482148015620016055750600083815260146020908152604080832033845290915290206001015481115b620016245760405162461bcd60e51b815260040162000d82906200447d565b620016323384848462002fc2565b505050565b606060028054620016489062004106565b80601f0160208091040260200160405190810160405280929190818152602001828054620016769062004106565b801562000c365780601f106200169b5761010080835404028352916020019162000c36565b820191906000526020600020905b815481529060010190602001808311620016a957509395945050505050565b6000858152601560205260409020600201544210620016fb5760405162461bcd60e51b815260040162000d8290620043ec565b60006200170b83878787620025b7565b60008181526013602052604090205490915060ff16156200176f5760405162461bcd60e51b815260206004820152601960248201527f45524332304775696c643a20416c726561647920766f74656400000000000000604482015260640162000d82565b620017d382620017cc836040517f19457468657265756d205369676e6564204d6573736167653a0a3332000000006020820152603c8101829052600090605c01604051602081830303815290604052805190602001209050919050565b9062002f9a565b6001600160a01b0316836001600160a01b031614620018355760405162461bcd60e51b815260206004820152601860248201527f45524332304775696c643a2057726f6e67207369676e65720000000000000000604482015260640162000d82565b6000818152601360205260409020805460ff19166001179055836200185a8462002f7f565b101580156200188d575060008681526014602090815260408083206001600160a01b038716845290915290206001015484115b620018ac5760405162461bcd60e51b815260040162000d829062004437565b60008681526014602090815260408083206001600160a01b038716845290915290205415801562001900575060008681526014602090815260408083206001600160a01b0387168452909152902060010154155b806200195d575060008681526014602090815260408083206001600160a01b0387168452909152902054851480156200195d575060008681526014602090815260408083206001600160a01b038716845290915290206001015484115b6200197c5760405162461bcd60e51b815260040162000d82906200447d565b6200198a8387878762002fc2565b505050505050565b806200199e3362002f7f565b101562001a0d5760405162461bcd60e51b815260206004820152603660248201527f45524332304775696c643a20556e61626c6520746f207769746864726177206d6044820152751bdc99481d1bdad95b9cc81d1a185b881b1bd8dad95960521b606482015260840162000d82565b33600090815260126020526040902060010154421162001a705760405162461bcd60e51b815260206004820152601f60248201527f45524332304775696c643a20546f6b656e73207374696c6c206c6f636b656400604482015260640162000d82565b6000811162001ae85760405162461bcd60e51b815260206004820152603f60248201527f45524332304775696c643a20616d6f756e74206f6620746f6b656e7320746f2060448201527f7769746864726177206d7573742062652067726561746572207468616e203000606482015260840162000d82565b3360009081526012602052604090205462001b05908290620044e4565b33600090815260126020526040902055600e5462001b25908290620044e4565b600e5560115460405163f3fef3a360e01b8152336004820152602481018390526001600160a01b039091169063f3fef3a390604401600060405180830381600087803b15801562001b7557600080fd5b505af115801562001b8a573d6000803e3d6000fd5b5050505062001b993362002f7f565b60000362001bb6576001600b5462001bb29190620044e4565b600b555b60408051338152602081018390527f6352c5382c4a4578e712449ca65e83cdb392d045dfcf1cad9615189db2da244b91015b60405180910390a150565b60156020526000908152604090208054600182015460028301546006840180546001600160a01b0390941694929391929162001c2f9062004106565b80601f016020809104026020016040519081016040528092919081815260200182805462001c5d9062004106565b801562001cae5780601f1062001c825761010080835404028352916020019162001cae565b820191906000526020600020905b81548152906001019060200180831162001c9057829003601f168201915b50505050509080600701805462001cc59062004106565b80601f016020809104026020016040519081016040528092919081815260200182805462001cf39062004106565b801562001d445780601f1062001d185761010080835404028352916020019162001d44565b820191906000526020600020905b81548152906001019060200180831162001d2657829003601f168201915b5050506008909301549192505060ff1686565b60175462010000900460ff168062001d775750601754610100900460ff16155b62001ddc5760405162461bcd60e51b815260206004820152602e60248201527f496e697469616c697a61626c653a20636f6e747261637420697320616c72656160448201526d191e481a5b9a5d1a585b1a5e995960921b606482015260840162000d82565b60175462010000900460ff1615801562001e02576017805462ffff001916620101001790555b6001600160a01b038c1662001e695760405162461bcd60e51b815260206004820152602660248201527f45524332304775696c643a20746f6b656e2063616e74206265207a65726f206160448201526564647265737360d01b606482015260840162000d82565b60008b1162001e8c5760405162461bcd60e51b815260040162000d82906200419f565b8a83101562001eaf5760405162461bcd60e51b815260040162000d8290620041ee565b6000891162001ed25760405162461bcd60e51b815260040162000d82906200424b565b600262001ee088826200431f565b50600080546001600160a01b0319166001600160a01b038e16908117909155604051309062001f0f9062003694565b6001600160a01b03928316815291166020820152604001604051809103906000f08015801562001f43573d6000803e3d6000fd5b50601180546001600160a01b03199081166001600160a01b039384161790915560038d905560048c905560058b905560068a9055600788905560088790556009869055600d859055600180549091169184169190911790556040517ff0454e7b3dd17b2d61d817c1ec7d3417104e974ed42b6e08d9f77f65ffad92b790600090a1801562001fd8576017805462ff0000191690555b505050505050505050505050565b62001ff0620036a2565b60008281526015602090815260409182902082516101408101845281546001600160a01b0316815260018201548184015260028201548185015260038201805485518186028101860190965280865291949293606086019392908301828280156200208557602002820191906000526020600020905b81546001600160a01b0316815260019091019060200180831162002066575b5050505050815260200160048201805480602002602001604051908101604052809291908181526020016000905b8282101562002169578382906000526020600020018054620020d59062004106565b80601f0160208091040260200160405190810160405280929190818152602001828054620021039062004106565b8015620021545780601f10620021285761010080835404028352916020019162002154565b820191906000526020600020905b8154815290600101906020018083116200213657829003601f168201915b505050505081526020019060010190620020b3565b50505050815260200160058201805480602002602001604051908101604052809291908181526020018280548015620021c257602002820191906000526020600020905b815481526020019060010190808311620021ad575b50505050508152602001600682018054620021dd9062004106565b80601f01602080910402602001604051908101604052809291908181526020018280546200220b9062004106565b80156200225c5780601f1062002230576101008083540402835291602001916200225c565b820191906000526020600020905b8154815290600101906020018083116200223e57829003601f168201915b50505050508152602001600782018054620022779062004106565b80601f0160208091040260200160405190810160405280929190818152602001828054620022a59062004106565b8015620022f65780601f10620022ca57610100808354040283529160200191620022f6565b820191906000526020600020905b815481529060010190602001808311620022d857829003601f168201915b5050509183525050600882015460209091019060ff16600481111562002320576200232062003d5a565b600481111562002334576200233462003d5a565b8152602001600982018054806020026020016040519081016040528092919081815260200182805480156200238957602002820191906000526020600020905b81548152602001906001019080831162002374575b5050505050815250509050919050565b60008111620024065760405162461bcd60e51b815260206004820152603260248201527f45524332304775696c643a20546f6b656e7320746f206c6f636b2073686f756c60448201527106420626520686967686572207468616e20360741b606482015260840162000d82565b620024113362002f7f565b6000036200242d57600b5462002429906001620042bf565b600b555b6011546040516311f9fbc960e21b8152336004820152602481018390526001600160a01b03909116906347e7ef2490604401600060405180830381600087803b1580156200247a57600080fd5b505af11580156200248f573d6000803e3d6000fd5b505033600090815260126020526040902054620024b09250839150620042bf565b33600090815260126020526040902055600d54620024cf9042620042bf565b33600090815260126020526040902060010155600e54620024f2908290620042bf565b600e5560408051338152602081018390527fac87f20a77d28ee8bbb58ec87ea8fa968b3393efae1a368fd50b767c2847391c910162001be8565b333014620025975760405162461bcd60e51b815260206004820152603160248201527f45524332304775696c6457697468455243313237313a204f6e6c792063616c6c60448201527018589b1948189e481d1a194819dd5a5b19607a1b606482015260840162000d82565b600091825260186020526040909120805460ff1916911515919091179055565b6040516bffffffffffffffffffffffff19606086901b166020820152603481018490526054810183905260748101829052600090609401604051602081830303815290604052805190602001209050949350505050565b600061271060055462000ce8600e5490565b601681815481106200263157600080fd5b600091825260209091200154905081565b60175460ff1615620026a35760405162461bcd60e51b8152602060048201526024808201527f45524332304775696c643a2050726f706f73616c20756e6465722065786563756044820152633a34b7b760e11b606482015260840162000d82565b600160008281526015602052604090206008015460ff166004811115620026ce57620026ce62003d5a565b146200272b5760405162461bcd60e51b815260206004820152602560248201527f45524332304775696c643a2050726f706f73616c20616c72656164792065786560448201526418dd5d195960da1b606482015260840162000d82565b60008181526015602052604090206002015442116200279b5760405162461bcd60e51b815260206004820152602560248201527f45524332304775696c643a2050726f706f73616c206861736e277420656e646560448201526419081e595d60da1b606482015260840162000d82565b600081815260156020526040812060090180548291908290620027c257620027c2620044fa565b600091825260209091200154905060015b6000848152601560205260409020600901548110156200290157620027f76200260e565b60008581526015602052604090206009018054839081106200281d576200281d620044fa565b90600052602060002001541015801562002869575060008481526015602052604090206009018054839190839081106200285b576200285b620044fa565b906000526020600020015410155b15620028ec576000848152601560205260409020600901805483919083908110620028985762002898620044fa565b906000526020600020015403620028b35760009250620028ec565b60008481526015602052604090206009018054919350839182908110620028de57620028de620044fa565b906000526020600020015491505b80620028f88162004510565b915050620027d3565b8260000362002954576000848152601560205260409020600801805460ff19166002908117909155849060008051602062004e13833981519152905b60405190815260200160405180910390a262002f65565b60045460008581526015602052604090206002015442916200297691620042bf565b1015620029b5576000848152601560205260409020600801805460ff19166004908117909155849060008051602062004e13833981519152906200293d565b600084815260156020526040812060088101805460ff1916600317905560090154620029e490600190620044e4565b60008681526015602052604090206003015462002a02919062004188565b905062002a11600185620044e4565b62002a1d908262004158565b9150600062002a2d8284620042bf565b9050600160009054906101000a90046001600160a01b03166001600160a01b0316633e7a47b26040518163ffffffff1660e01b8152600401600060405180830381600087803b15801562002a8057600080fd5b505af115801562002a95573d6000803e3d6000fd5b505050505b8083101562002ece57600086815260156020526040812060030180548590811062002ac95762002ac9620044fa565b6000918252602090912001546001600160a01b03161480159062002b295750600086815260156020526040812060040180548590811062002b0e5762002b0e620044fa565b90600052602060002001805462002b259062004106565b9050115b1562002eb957600086815260156020526040812060040180548590811062002b555762002b55620044fa565b90600052602060002001805462002b6c9062004106565b80601f016020809104026020016040519081016040528092919081815260200182805462002b9a9062004106565b801562002beb5780601f1062002bbf5761010080835404028352916020019162002beb565b820191906000526020600020905b81548152906001019060200180831162002bcd57829003601f168201915b50505060208084015160015460008d815260159093526040909220600301805495965090946001600160a01b03909216935063eed47033925030918990811062002c395762002c39620044fa565b9060005260206000200160009054906101000a90046001600160a01b031684601560008e81526020019081526020016000206005018a8154811062002c825762002c82620044fa565b60009182526020909120015460405160e086901b6001600160e01b031990811682526001600160a01b039586166004830152939094166024850152911660448301526064820152608401600060405180830381600087803b15801562002ce757600080fd5b505af192505050801562002cf9575060015b62002d545762002d086200452c565b806308c379a00362002d48575062002d1f62004549565b8062002d2c575062002d4a565b8060405162461bcd60e51b815260040162000d82919062003852565b505b3d6000803e3d6000fd5b6017805460ff19166001179055600088815260156020526040812060030180548790811062002d875762002d87620044fa565b60009182526020808320909101548b83526015909152604090912060050180546001600160a01b03909216918890811062002dc65762002dc6620044fa565b9060005260206000200154601560008c8152602001908152602001600020600401888154811062002dfb5762002dfb620044fa565b9060005260206000200160405162002e149190620045d9565b60006040518083038185875af1925050503d806000811462002e53576040519150601f19603f3d011682016040523d82523d6000602084013e62002e58565b606091505b505090508062002eab5760405162461bcd60e51b815260206004820181905260248201527f45524332304775696c643a2050726f706f73616c2063616c6c206661696c6564604482015260640162000d82565b50506017805460ff19169055505b8262002ec58162004510565b93505062002a9a565b60015460405163fb0fde8560e01b81523060048201526001600160a01b039091169063fb0fde8590602401602060405180830381865afa15801562002f17573d6000803e3d6000fd5b505050506040513d601f19601f8201168201806040525081019062002f3d919062004657565b508560008051602062004e13833981519152600360405190815260200160405180910390a250505b6001600c5462002f769190620044e4565b600c5550505050565b6001600160a01b031660009081526012602052604090205490565b600080600062002fab858562003210565b9150915062002fba8162003284565b509392505050565b60008381526014602090815260408083206001600160a01b03881684528252808320600101548684526015909252909120600901805483929190859081106200300f576200300f620044fa565b9060005260206000200154620030269190620044e4565b620030329190620042bf565b6000848152601560205260409020600901805484908110620030585762003058620044fa565b60009182526020808320909101929092558481526014825260408082206001600160a01b0388168352835280822085815560010184905585825260159092522060020154620030bf856001600160a01b031660009081526012602052604090206001015490565b1015620030f4576000838152601560209081526040808320600201546001600160a01b03881684526012909252909120600101555b604080516001600160a01b038616815260208101839052839185917f583c62f152711bcb1ca6186c1065821ff17a7cbe226dcb559a1c889dcf0d769b910160405180910390a3600754156200320a5760006200315c6008543a6200345590919063ffffffff16565b6007546200316b919062004158565b90508047106200320857604051600090339083908381818185875af1925050503d8060008114620031b9576040519150601f19603f3d011682016040523d82523d6000602084013e620031be565b606091505b50509050806200198a5760405162461bcd60e51b81526020600482015260146024820152734661696c656420746f20726566756e642067617360601b604482015260640162000d82565b505b50505050565b60008082516041036200324a5760208301516040840151606085015160001a6200323d878285856200346d565b9450945050505062000ec9565b82516040036200327757602083015160408401516200326b86838362003562565b93509350505062000ec9565b5060009050600262000ec9565b60008160048111156200329b576200329b62003d5a565b03620032a45750565b6001816004811115620032bb57620032bb62003d5a565b036200330a5760405162461bcd60e51b815260206004820152601860248201527f45434453413a20696e76616c6964207369676e61747572650000000000000000604482015260640162000d82565b600281600481111562003321576200332162003d5a565b03620033705760405162461bcd60e51b815260206004820152601f60248201527f45434453413a20696e76616c6964207369676e6174757265206c656e67746800604482015260640162000d82565b600381600481111562003387576200338762003d5a565b03620033e15760405162461bcd60e51b815260206004820152602260248201527f45434453413a20696e76616c6964207369676e6174757265202773272076616c604482015261756560f01b606482015260840162000d82565b6004816004811115620033f857620033f862003d5a565b03620034525760405162461bcd60e51b815260206004820152602260248201527f45434453413a20696e76616c6964207369676e6174757265202776272076616c604482015261756560f01b606482015260840162000d82565b50565b6000818310620034665781620014e7565b5090919050565b6000807f7fffffffffffffffffffffffffffffff5d576e7357a4501ddfe92f46681b20a0831115620034a6575060009050600362003559565b8460ff16601b14158015620034bf57508460ff16601c14155b15620034d2575060009050600462003559565b6040805160008082526020820180845289905260ff881692820192909252606081018690526080810185905260019060a0016020604051602081039080840390855afa15801562003527573d6000803e3d6000fd5b5050604051601f1901519150506001600160a01b038116620035525760006001925092505062003559565b9150600090505b94509492505050565b6000806001600160ff1b03831660ff84901c601b0162003585878288856200346d565b935093505050935093915050565b828054828255906000526020600020908101928215620035eb579160200282015b82811115620035eb57825182546001600160a01b0319166001600160a01b03909116178255602090920191600190910190620035b4565b50620035f992915062003712565b5090565b82805482825590600052602060002090810192821562003648579160200282015b828111156200364857825182906200363790826200431f565b50916020019190600101906200361e565b50620035f992915062003729565b828054828255906000526020600020908101928215620035eb579160200282015b82811115620035eb57825182559160200191906001019062003677565b610794806200467f83390190565b60405180610140016040528060006001600160a01b03168152602001600081526020016000815260200160608152602001606081526020016060815260200160608152602001606081526020016000600481111562003705576200370562003d5a565b8152602001606081525090565b5b80821115620035f9576000815560010162003713565b80821115620035f95760006200374082826200374a565b5060010162003729565b508054620037589062004106565b6000825580601f1062003769575050565b601f01602090049060005260206000209081019062003452919062003712565b6020808252825182820181905260009190848201906040850190845b81811015620037c357835183529284019291840191600101620037a5565b50909695505050505050565b80356001600160a01b0381168114620037e757600080fd5b919050565b600060208284031215620037ff57600080fd5b620014e782620037cf565b6000815180845260005b81811015620038325760208185018101518683018201520162003814565b506000602082860101526020601f19601f83011685010191505092915050565b602081526000620014e760208301846200380a565b6000806000806000806000806000806101408b8d0312156200388857600080fd5b505088359a60208a01359a5060408a013599606081013599506080810135985060a0810135975060c0810135965060e081013595506101008101359450610120013592509050565b60008060408385031215620038e457600080fd5b82359150620038f660208401620037cf565b90509250929050565b634e487b7160e01b600052604160045260246000fd5b601f8201601f1916810167ffffffffffffffff811182821017156200393e576200393e620038ff565b6040525050565b600067ffffffffffffffff821115620039625762003962620038ff565b5060051b60200190565b600082601f8301126200397e57600080fd5b813560206200398d8262003945565b6040516200399c828262003915565b83815260059390931b8501820192828101915086841115620039bd57600080fd5b8286015b84811015620039e357620039d581620037cf565b8352918301918301620039c1565b509695505050505050565b600082601f83011262003a0057600080fd5b813567ffffffffffffffff81111562003a1d5762003a1d620038ff565b60405162003a36601f8301601f19166020018262003915565b81815284602083860101111562003a4c57600080fd5b816020850160208301376000918101602001919091529392505050565b600082601f83011262003a7b57600080fd5b8135602062003a8a8262003945565b60405162003a99828262003915565b83815260059390931b850182019282810191508684111562003aba57600080fd5b8286015b84811015620039e357803567ffffffffffffffff81111562003ae05760008081fd5b62003af08986838b0101620039ee565b84525091830191830162003abe565b600082601f83011262003b1157600080fd5b8135602062003b208262003945565b60405162003b2f828262003915565b83815260059390931b850182019282810191508684111562003b5057600080fd5b8286015b84811015620039e3578035835291830191830162003b54565b60008060008060008060c0878903121562003b8757600080fd5b863567ffffffffffffffff8082111562003ba057600080fd5b62003bae8a838b016200396c565b9750602089013591508082111562003bc557600080fd5b62003bd38a838b0162003a69565b9650604089013591508082111562003bea57600080fd5b62003bf88a838b0162003aff565b955060608901359450608089013591508082111562003c1657600080fd5b62003c248a838b01620039ee565b935060a089013591508082111562003c3b57600080fd5b5062003c4a89828a01620039ee565b9150509295509295509295565b6000806040838503121562003c6b57600080fd5b82359150602083013567ffffffffffffffff81111562003c8a57600080fd5b62003c9885828601620039ee565b9150509250929050565b60008060006060848603121562003cb857600080fd5b505081359360208301359350604090920135919050565b600080600080600060a0868803121562003ce857600080fd5b85359450602086013593506040860135925062003d0860608701620037cf565b9150608086013567ffffffffffffffff81111562003d2557600080fd5b62003d3388828901620039ee565b9150509295509295909350565b60006020828403121562003d5357600080fd5b5035919050565b634e487b7160e01b600052602160045260246000fd5b6005811062003d8f57634e487b7160e01b600052602160045260246000fd5b9052565b60018060a01b038716815285602082015284604082015260c06060820152600062003dc260c08301866200380a565b828103608084015262003dd681866200380a565b91505062003de860a083018462003d70565b979650505050505050565b60008060008060008060008060008060006101608c8e03121562003e1657600080fd5b62003e218c620037cf565b9a5060208c0135995060408c0135985060608c0135975060808c0135965060a08c013567ffffffffffffffff81111562003e5a57600080fd5b62003e688e828f01620039ee565b96505060c08c0135945060e08c013593506101008c013592506101208c0135915062003e986101408d01620037cf565b90509295989b509295989b9093969950565b600081518084526020808501945080840160005b8381101562003ee55781516001600160a01b03168752958201959082019060010162003ebe565b509495945050505050565b600081518084526020808501808196508360051b8101915082860160005b8581101562003f3c57828403895262003f298483516200380a565b9885019893509084019060010162003f0e565b5091979650505050505050565b600081518084526020808501945080840160005b8381101562003ee55781518752958201959082019060010162003f5d565b6020815262003f966020820183516001600160a01b03169052565b60208201516040820152604082015160608201526000606083015161014080608085015262003fca61016085018362003eaa565b91506080850151601f19808685030160a087015262003fea848362003ef0565b935060a08701519150808685030160c087015262004009848362003f49565b935060c08701519150808685030160e08701526200402884836200380a565b935060e087015191506101008187860301818801526200404985846200380a565b945080880151925050610120620040638188018462003d70565b8701518685039091018387015290506200407e838262003f49565b9695505050505050565b80151581146200345257600080fd5b60008060408385031215620040ab57600080fd5b823591506020830135620040bf8162004088565b809150509250929050565b60008060008060808587031215620040e157600080fd5b620040ec85620037cf565b966020860135965060408601359560600135945092505050565b600181811c908216806200411b57607f821691505b6020821081036200413c57634e487b7160e01b600052602260045260246000fd5b50919050565b634e487b7160e01b600052601160045260246000fd5b8082028115828204841417620014ea57620014ea62004142565b634e487b7160e01b600052601260045260246000fd5b6000826200419a576200419a62004172565b500490565b6020808252602f908201527f45524332304775696c643a2070726f706f73616c2074696d652068617320746f60408201526e0206265206d6f7265207468616e203608c1b606082015260800190565b6020808252603e908201527f45524332304775696c643a206c6f636b54696d652068617320746f206265206860408201527f6967686572206f7220657175616c20746f2070726f706f73616c54696d650000606082015260800190565b6020808252603c908201527f45524332304775696c643a20766f74696e6720706f77657220666f722065786560408201527f637574696f6e2068617320746f206265206d6f7265207468616e203000000000606082015260800190565b600082620042ba57620042ba62004172565b500690565b80820180821115620014ea57620014ea62004142565b601f8211156200163257600081815260208120601f850160051c81016020861015620042fe5750805b601f850160051c820191505b818110156200198a578281556001016200430a565b815167ffffffffffffffff8111156200433c576200433c620038ff565b62004354816200434d845462004106565b84620042d5565b602080601f8311600181146200438c5760008415620043735750858301515b600019600386901b1c1916600185901b1785556200198a565b600085815260208120601f198616915b82811015620043bd578886015182559484019460019091019084016200439c565b5085821015620043dc5787850151600019600388901b60f8161c191681555b5050505050600190811b01905550565b6020808252602b908201527f45524332304775696c643a2050726f706f73616c20656e6465642c2063616e6e60408201526a1bdd081899481d9bdd195960aa1b606082015260800190565b60208082526026908201527f45524332304775696c643a20496e76616c696420766f74696e67506f77657220604082015265185b5bdd5b9d60d21b606082015260800190565b60208082526041908201527f45524332304775696c643a2043616e6e6f74206368616e6765206f7074696f6e60408201527f20766f7465642c206f6e6c7920696e63726561736520766f74696e67506f77656060820152603960f91b608082015260a00190565b81810381811115620014ea57620014ea62004142565b634e487b7160e01b600052603260045260246000fd5b60006001820162004525576200452562004142565b5060010190565b600060033d1115620045465760046000803e5060005160e01c5b90565b600060443d1015620045585790565b6040516003193d81016004833e81513d67ffffffffffffffff81602484011181841117156200458957505050505090565b8285019150815181811115620045a25750505050505090565b843d8701016020828501011115620045bd5750505050505090565b620045ce6020828601018762003915565b509095945050505050565b6000808354620045e98162004106565b600182811680156200460457600181146200461a576200464b565b60ff19841687528215158302870194506200464b565b8760005260208060002060005b85811015620046425781548a82015290840190820162004627565b50505082870194505b50929695505050505050565b6000602082840312156200466a57600080fd5b8151620046778162004088565b939250505056fe608060405234801561001057600080fd5b5060405161079438038061079483398101604081905261002f9161007c565b600080546001600160a01b039384166001600160a01b031991821617909155600180549290931691161790556100af565b80516001600160a01b038116811461007757600080fd5b919050565b6000806040838503121561008f57600080fd5b61009883610060565b91506100a660208401610060565b90509250929050565b6106d6806100be6000396000f3fe608060405234801561001057600080fd5b506004361061007d5760003560e01c80636e9960c31161005b5780636e9960c3146100ef578063f3fef3a314610100578063f851a44014610113578063fc0c546a1461012657600080fd5b806321df0da71461008257806327e235e3146100ac57806347e7ef24146100da575b600080fd5b6000546001600160a01b03165b6040516001600160a01b0390911681526020015b60405180910390f35b6100cc6100ba36600461058a565b60026020526000908152604090205481565b6040519081526020016100a3565b6100ed6100e83660046105a5565b610139565b005b6001546001600160a01b031661008f565b6100ed61010e3660046105a5565b61020a565b60015461008f906001600160a01b031681565b60005461008f906001600160a01b031681565b6001546001600160a01b031633146101af5760405162461bcd60e51b815260206004820152602e60248201527f546f6b656e5661756c743a204465706f736974206d7573742062652073656e7460448201526d103a343937bab3b41030b236b4b760911b60648201526084015b60405180910390fd5b6000546101c7906001600160a01b031683308461025b565b6001600160a01b0382166000908152600260205260409020546101ea90826102cc565b6001600160a01b0390921660009081526002602052604090209190915550565b6001546001600160a01b0316331461022157600080fd5b600054610238906001600160a01b031683836102e1565b6001600160a01b0382166000908152600260205260409020546101ea9082610316565b6040516001600160a01b03808516602483015283166044820152606481018290526102c69085906323b872dd60e01b906084015b60408051601f198184030181529190526020810180516001600160e01b03166001600160e01b031990931692909217909152610322565b50505050565b60006102d882846105e5565b90505b92915050565b6040516001600160a01b03831660248201526044810182905261031190849063a9059cbb60e01b9060640161028f565b505050565b60006102d882846105f8565b6000610377826040518060400160405280602081526020017f5361666545524332303a206c6f772d6c6576656c2063616c6c206661696c6564815250856001600160a01b03166103f49092919063ffffffff16565b8051909150156103115780806020019051810190610395919061060b565b6103115760405162461bcd60e51b815260206004820152602a60248201527f5361666545524332303a204552433230206f7065726174696f6e20646964206e6044820152691bdd081cdd58d8d9595960b21b60648201526084016101a6565b6060610403848460008561040d565b90505b9392505050565b60608247101561046e5760405162461bcd60e51b815260206004820152602660248201527f416464726573733a20696e73756666696369656e742062616c616e636520666f6044820152651c8818d85b1b60d21b60648201526084016101a6565b843b6104bc5760405162461bcd60e51b815260206004820152601d60248201527f416464726573733a2063616c6c20746f206e6f6e2d636f6e747261637400000060448201526064016101a6565b600080866001600160a01b031685876040516104d89190610651565b60006040518083038185875af1925050503d8060008114610515576040519150601f19603f3d011682016040523d82523d6000602084013e61051a565b606091505b509150915061052a828286610535565b979650505050505050565b60608315610544575081610406565b8251156105545782518084602001fd5b8160405162461bcd60e51b81526004016101a6919061066d565b80356001600160a01b038116811461058557600080fd5b919050565b60006020828403121561059c57600080fd5b6102d88261056e565b600080604083850312156105b857600080fd5b6105c18361056e565b946020939093013593505050565b634e487b7160e01b600052601160045260246000fd5b808201808211156102db576102db6105cf565b818103818111156102db576102db6105cf565b60006020828403121561061d57600080fd5b8151801515811461040657600080fd5b60005b83811015610648578181015183820152602001610630565b50506000910152565b6000825161066381846020870161062d565b9190910192915050565b602081526000825180602084015261068c81604085016020870161062d565b601f01601f1916919091016040019291505056fea26469706673582212200dc40e929cb7cd09eab9a5dff5e560bcf87fefdb78df12750c3659d40d03ae5e64736f6c63430008110033fee62a9eec0be50eb061c711990ef0f1e17b40ea131d9347b0468acdaf8bf243a26469706673582212201a7a718f77950fa362cc737d73508d12b6e2607c04083c78030b67c84869ab1b64736f6c63430008110033",
  "linkReferences": {},
  "deployedLinkReferences": {}
}