{
  "_format": "hh-sol-artifact-1",
  "contractName": "ERC20VestingFactory",
  "sourceName": "contracts/utils/ERC20VestingFactory.sol",
  "abi": [
    {
      "inputs": [
        {
          "internalType": "address",
          "name": "_erc20Token",
          "type": "address"
        },
        {
          "internalType": "address",
          "name": "_vestingOwner",
          "type": "address"
        }
      ],
      "stateMutability": "nonpayable",
      "type": "constructor"
    },
    {
      "anonymous": false,
      "inputs": [
        {
          "indexed": false,
          "internalType": "address",
          "name": "vestingContractAddress",
          "type": "address"
        }
      ],
      "name": "VestingCreated",
      "type": "event"
    },
    {
      "inputs": [
        {
          "internalType": "address",
          "name": "beneficiary",
          "type": "address"
        },
        {
          "internalType": "uint256",
          "name": "start",
          "type": "uint256"
        },
        {
          "internalType": "uint256",
          "name": "cliffDuration",
          "type": "uint256"
        },
        {
          "internalType": "uint256",
          "name": "duration",
          "type": "uint256"
        },
        {
          "internalType": "uint256",
          "name": "value",
          "type": "uint256"
        }
      ],
      "name": "create",
      "outputs": [],
      "stateMutability": "nonpayable",
      "type": "function"
    },
    {
      "inputs": [],
      "name": "erc20Token",
      "outputs": [
        {
          "internalType": "contract IERC20",
          "name": "",
          "type": "address"
        }
      ],
      "stateMutability": "view",
      "type": "function"
    },
    {
      "inputs": [],
      "name": "vestingOwner",
      "outputs": [
        {
          "internalType": "address",
          "name": "",
          "type": "address"
        }
      ],
      "stateMutability": "view",
      "type": "function"
    }
  ],
  "bytecode": "0x608060405234801561001057600080fd5b5060405161139838038061139883398101604081905261002f9161007c565b600080546001600160a01b039384166001600160a01b031991821617909155600180549290931691161790556100af565b80516001600160a01b038116811461007757600080fd5b919050565b6000806040838503121561008f57600080fd5b61009883610060565b91506100a660208401610060565b90509250929050565b6112da806100be6000396000f3fe608060405234801561001057600080fd5b50600436106100415760003560e01c80638a13eea714610046578063bd7b590814610075578063f9b6b0c414610088575b600080fd5b600054610059906001600160a01b031681565b6040516001600160a01b03909116815260200160405180910390f35b600154610059906001600160a01b031681565b61009b610096366004610304565b61009d565b005b60008585858560016040516100b1906102f7565b6001600160a01b0390951685526020850193909352604084019190915260608301521515608082015260a001604051809103906000f0801580156100f9573d6000803e3d6000fd5b506000546040516323b872dd60e01b81523360048201526001600160a01b038084166024830152604482018690529293509116906323b872dd906064016020604051808303816000875af1158015610155573d6000803e3d6000fd5b505050506040513d601f19601f820116820180604052508101906101799190610354565b506000546040516370a0823160e01b81526001600160a01b038381166004830152849216906370a0823190602401602060405180830381865afa1580156101c4573d6000803e3d6000fd5b505050506040513d601f19601f820116820180604052508101906101e8919061037d565b10156102535760405162461bcd60e51b815260206004820152603060248201527f455243323056657374696e67466163746f72793a20746f6b656e207472616e7360448201526f19995c881d5b9cdd58d8d95cdcd99d5b60821b606482015260840160405180910390fd5b60015460405163f2fde38b60e01b81526001600160a01b0391821660048201529082169063f2fde38b90602401600060405180830381600087803b15801561029a57600080fd5b505af11580156102ae573d6000803e3d6000fd5b50506040516001600160a01b03841681527fe4fb76c0ff20ae19784efe78af7946d749e229fec6e13499ab078f997113d6d39250602001905060405180910390a1505050505050565b610f0e8061039783390190565b600080600080600060a0868803121561031c57600080fd5b85356001600160a01b038116811461033357600080fd5b97602087013597506040870135966060810135965060800135945092505050565b60006020828403121561036657600080fd5b8151801515811461037657600080fd5b9392505050565b60006020828403121561038f57600080fd5b505191905056fe60806040523480156200001157600080fd5b5060405162000f0e38038062000f0e8339810160408190526200003491620002a8565b6200003f3362000241565b6001600160a01b038516620000b15760405162461bcd60e51b815260206004820152602d60248201527f546f6b656e56657374696e673a2062656e65666963696172792069732074686560448201526c207a65726f206164647265737360981b60648201526084015b60405180910390fd5b81831115620001175760405162461bcd60e51b815260206004820152602b60248201527f546f6b656e56657374696e673a20636c696666206973206c6f6e67657220746860448201526a30b710323ab930ba34b7b760a91b6064820152608401620000a8565b60008211620001695760405162461bcd60e51b815260206004820152601b60248201527f546f6b656e56657374696e673a206475726174696f6e206973203000000000006044820152606401620000a8565b426200018483866200029160201b620005911790919060201c565b11620001eb5760405162461bcd60e51b815260206004820152602f60248201527f546f6b656e56657374696e673a2066696e616c2074696d65206973206265666f60448201526e72652063757272656e742074696d6560881b6064820152608401620000a8565b600180546001600160a01b0319166001600160a01b0387161790556005805460ff1916821515179055600482905562000231848462000291602090811b6200059117901c565b6002555050506003555062000336565b600080546001600160a01b038381166001600160a01b0319831681178455604051919092169283917f8be0079c531659141344cd1fd0a4f28419497f9722a3daafe3b4186f6b6457e09190a35050565b60006200029f828462000314565b90505b92915050565b600080600080600060a08688031215620002c157600080fd5b85516001600160a01b0381168114620002d957600080fd5b80955050602086015193506040860151925060608601519150608086015180151581146200030657600080fd5b809150509295509295909350565b80820180821115620002a257634e487b7160e01b600052601160045260246000fd5b610bc880620003466000396000f3fe608060405234801561001057600080fd5b50600436106100b45760003560e01c8063872a781011610071578063872a78101461012d5780638da5cb5b146101445780639852595c14610155578063be9a65551461017e578063f2fde38b14610186578063fa01dc061461019957600080fd5b80630fb5a6b4146100b957806313d033c0146100d057806319165587146100d857806338af3eed146100ed578063715018a61461011257806374a8f1031461011a575b600080fd5b6004545b6040519081526020015b60405180910390f35b6002546100bd565b6100eb6100e6366004610a1d565b6101c5565b005b6001546001600160a01b03165b6040516001600160a01b0390911681526020016100c7565b6100eb6102bc565b6100eb610128366004610a1d565b6102f2565b60055460ff165b60405190151581526020016100c7565b6000546001600160a01b03166100fa565b6100bd610163366004610a1d565b6001600160a01b031660009081526006602052604090205490565b6003546100bd565b6100eb610194366004610a1d565b6104f6565b6101346101a7366004610a1d565b6001600160a01b031660009081526007602052604090205460ff1690565b60006101d0826105a6565b9050600081116102275760405162461bcd60e51b815260206004820152601f60248201527f546f6b656e56657374696e673a206e6f20746f6b656e7320617265206475650060448201526064015b60405180910390fd5b6001600160a01b03821660009081526006602052604090205461024a9082610591565b6001600160a01b03808416600081815260066020526040902092909255600154610276929116836105d2565b604080516001600160a01b0384168152602081018390527fc7798891864187665ac6dd119286e44ec13f014527aeeb2b8eb3fd413df93179910160405180910390a15050565b6000546001600160a01b031633146102e65760405162461bcd60e51b815260040161021e90610a3a565b6102f06000610629565b565b6000546001600160a01b0316331461031c5760405162461bcd60e51b815260040161021e90610a3a565b60055460ff1661036e5760405162461bcd60e51b815260206004820152601b60248201527f546f6b656e56657374696e673a2063616e6e6f74207265766f6b650000000000604482015260640161021e565b6001600160a01b03811660009081526007602052604090205460ff16156103e35760405162461bcd60e51b815260206004820152602360248201527f546f6b656e56657374696e673a20746f6b656e20616c7265616479207265766f6044820152621ad95960ea1b606482015260840161021e565b6040516370a0823160e01b81523060048201526000906001600160a01b038316906370a0823190602401602060405180830381865afa15801561042a573d6000803e3d6000fd5b505050506040513d601f19601f8201168201806040525081019061044e9190610a6f565b9050600061045b836105a6565b905060006104698383610679565b6001600160a01b0385166000908152600760205260409020805460ff1916600117905590506104b46104a36000546001600160a01b031690565b6001600160a01b03861690836105d2565b6040516001600160a01b03851681527f39983c6d4d174a7aee564f449d4a5c3c7ac9649d72b7793c56901183996f8af69060200160405180910390a150505050565b6000546001600160a01b031633146105205760405162461bcd60e51b815260040161021e90610a3a565b6001600160a01b0381166105855760405162461bcd60e51b815260206004820152602660248201527f4f776e61626c653a206e6577206f776e657220697320746865207a65726f206160448201526564647265737360d01b606482015260840161021e565b61058e81610629565b50565b600061059d8284610a9e565b90505b92915050565b6001600160a01b0381166000908152600660205260408120546105a0906105cc84610685565b90610679565b604080516001600160a01b038416602482015260448082018490528251808303909101815260649091019091526020810180516001600160e01b031663a9059cbb60e01b1790526106249084906107a4565b505050565b600080546001600160a01b038381166001600160a01b0319831681178455604051919092169283917f8be0079c531659141344cd1fd0a4f28419497f9722a3daafe3b4186f6b6457e09190a35050565b600061059d8284610ab1565b6040516370a0823160e01b815230600482015260009081906001600160a01b038416906370a0823190602401602060405180830381865afa1580156106ce573d6000803e3d6000fd5b505050506040513d601f19601f820116820180604052508101906106f29190610a6f565b6001600160a01b0384166000908152600660205260408120549192509061071a908390610591565b9050600254421015610730575060009392505050565b60045460035461073f91610591565b4210158061076557506001600160a01b03841660009081526007602052604090205460ff165b15610771579392505050565b61079c60045461079661078f6003544261067990919063ffffffff16565b8490610876565b90610882565b949350505050565b60006107f9826040518060400160405280602081526020017f5361666545524332303a206c6f772d6c6576656c2063616c6c206661696c6564815250856001600160a01b031661088e9092919063ffffffff16565b80519091501561062457808060200190518101906108179190610ac4565b6106245760405162461bcd60e51b815260206004820152602a60248201527f5361666545524332303a204552433230206f7065726174696f6e20646964206e6044820152691bdd081cdd58d8d9595960b21b606482015260840161021e565b600061059d8284610ae6565b600061059d8284610afd565b606061089d84846000856108a7565b90505b9392505050565b6060824710156109085760405162461bcd60e51b815260206004820152602660248201527f416464726573733a20696e73756666696369656e742062616c616e636520666f6044820152651c8818d85b1b60d21b606482015260840161021e565b843b6109565760405162461bcd60e51b815260206004820152601d60248201527f416464726573733a2063616c6c20746f206e6f6e2d636f6e7472616374000000604482015260640161021e565b600080866001600160a01b031685876040516109729190610b43565b60006040518083038185875af1925050503d80600081146109af576040519150601f19603f3d011682016040523d82523d6000602084013e6109b4565b606091505b50915091506109c48282866109cf565b979650505050505050565b606083156109de5750816108a0565b8251156109ee5782518084602001fd5b8160405162461bcd60e51b815260040161021e9190610b5f565b6001600160a01b038116811461058e57600080fd5b600060208284031215610a2f57600080fd5b81356108a081610a08565b6020808252818101527f4f776e61626c653a2063616c6c6572206973206e6f7420746865206f776e6572604082015260600190565b600060208284031215610a8157600080fd5b5051919050565b634e487b7160e01b600052601160045260246000fd5b808201808211156105a0576105a0610a88565b818103818111156105a0576105a0610a88565b600060208284031215610ad657600080fd5b815180151581146108a057600080fd5b80820281158282048414176105a0576105a0610a88565b600082610b1a57634e487b7160e01b600052601260045260246000fd5b500490565b60005b83811015610b3a578181015183820152602001610b22565b50506000910152565b60008251610b55818460208701610b1f565b9190910192915050565b6020815260008251806020840152610b7e816040850160208701610b1f565b601f01601f1916919091016040019291505056fea2646970667358221220ff3a44066318b59d29dbc20460e3212e94353434da863ea3e01e0da72cf8d7f464736f6c63430008110033a2646970667358221220b2bc83c20b38a7f863e181ab5cde8ba76323508042725931d47d8e049f6c3ccb64736f6c63430008110033",
  "linkReferences": {},
  "deployedLinkReferences": {}
}