{
  "_format": "hh-sol-artifact-1",
  "contractName": "ERC20TokenVesting",
  "sourceName": "contracts/utils/ERC20/ERC20TokenVesting.sol",
  "abi": [
    {
      "anonymous": false,
      "inputs": [
        {
          "indexed": true,
          "internalType": "address",
          "name": "previousOwner",
          "type": "address"
        },
        {
          "indexed": true,
          "internalType": "address",
          "name": "newOwner",
          "type": "address"
        }
      ],
      "name": "OwnershipTransferred",
      "type": "event"
    },
    {
      "anonymous": false,
      "inputs": [
        {
          "indexed": false,
          "internalType": "address",
          "name": "token",
          "type": "address"
        }
      ],
      "name": "TokenVestingRevoked",
      "type": "event"
    },
    {
      "anonymous": false,
      "inputs": [
        {
          "indexed": false,
          "internalType": "address",
          "name": "token",
          "type": "address"
        },
        {
          "indexed": false,
          "internalType": "uint256",
          "name": "amount",
          "type": "uint256"
        }
      ],
      "name": "TokensReleased",
      "type": "event"
    },
    {
      "inputs": [],
      "name": "beneficiary",
      "outputs": [
        {
          "internalType": "address",
          "name": "",
          "type": "address"
        }
      ],
      "stateMutability": "view",
      "type": "function"
    },
    {
      "inputs": [],
      "name": "cliff",
      "outputs": [
        {
          "internalType": "uint256",
          "name": "",
          "type": "uint256"
        }
      ],
      "stateMutability": "view",
      "type": "function"
    },
    {
      "inputs": [],
      "name": "duration",
      "outputs": [
        {
          "internalType": "uint256",
          "name": "",
          "type": "uint256"
        }
      ],
      "stateMutability": "view",
      "type": "function"
    },
    {
      "inputs": [
        {
          "internalType": "address",
          "name": "__beneficiary",
          "type": "address"
        },
        {
          "internalType": "uint256",
          "name": "__start",
          "type": "uint256"
        },
        {
          "internalType": "uint256",
          "name": "__cliffDuration",
          "type": "uint256"
        },
        {
          "internalType": "uint256",
          "name": "__duration",
          "type": "uint256"
        },
        {
          "internalType": "bool",
          "name": "__revocable",
          "type": "bool"
        }
      ],
      "name": "initialize",
      "outputs": [],
      "stateMutability": "nonpayable",
      "type": "function"
    },
    {
      "inputs": [],
      "name": "owner",
      "outputs": [
        {
          "internalType": "address",
          "name": "",
          "type": "address"
        }
      ],
      "stateMutability": "view",
      "type": "function"
    },
    {
      "inputs": [
        {
          "internalType": "contract IERC20",
          "name": "token",
          "type": "address"
        }
      ],
      "name": "release",
      "outputs": [],
      "stateMutability": "nonpayable",
      "type": "function"
    },
    {
      "inputs": [
        {
          "internalType": "address",
          "name": "token",
          "type": "address"
        }
      ],
      "name": "released",
      "outputs": [
        {
          "internalType": "uint256",
          "name": "",
          "type": "uint256"
        }
      ],
      "stateMutability": "view",
      "type": "function"
    },
    {
      "inputs": [],
      "name": "renounceOwnership",
      "outputs": [],
      "stateMutability": "nonpayable",
      "type": "function"
    },
    {
      "inputs": [],
      "name": "revocable",
      "outputs": [
        {
          "internalType": "bool",
          "name": "",
          "type": "bool"
        }
      ],
      "stateMutability": "view",
      "type": "function"
    },
    {
      "inputs": [
        {
          "internalType": "contract IERC20",
          "name": "token",
          "type": "address"
        }
      ],
      "name": "revoke",
      "outputs": [],
      "stateMutability": "nonpayable",
      "type": "function"
    },
    {
      "inputs": [
        {
          "internalType": "address",
          "name": "token",
          "type": "address"
        }
      ],
      "name": "revoked",
      "outputs": [
        {
          "internalType": "bool",
          "name": "",
          "type": "bool"
        }
      ],
      "stateMutability": "view",
      "type": "function"
    },
    {
      "inputs": [],
      "name": "start",
      "outputs": [
        {
          "internalType": "uint256",
          "name": "",
          "type": "uint256"
        }
      ],
      "stateMutability": "view",
      "type": "function"
    },
    {
      "inputs": [
        {
          "internalType": "address",
          "name": "newOwner",
          "type": "address"
        }
      ],
      "name": "transferOwnership",
      "outputs": [],
      "stateMutability": "nonpayable",
      "type": "function"
    }
  ],
  "bytecode": "0x608060405234801561001057600080fd5b50610fc8806100206000396000f3fe608060405234801561001057600080fd5b50600436106100cf5760003560e01c8063872a78101161008c5780639a63adc0116100665780639a63adc014610199578063be9a6555146101ac578063f2fde38b146101b4578063fa01dc06146101c757600080fd5b8063872a7810146101485780638da5cb5b1461015f5780639852595c1461017057600080fd5b80630fb5a6b4146100d457806313d033c0146100eb57806319165587146100f357806338af3eed14610108578063715018a61461012d57806374a8f10314610135575b600080fd5b6068545b6040519081526020015b60405180910390f35b6066546100d8565b610106610101366004610d70565b6101f3565b005b6065546001600160a01b03165b6040516001600160a01b0390911681526020016100e2565b6101066102ea565b610106610143366004610d70565b610320565b60695460ff165b60405190151581526020016100e2565b6033546001600160a01b0316610115565b6100d861017e366004610d70565b6001600160a01b03166000908152606a602052604090205490565b6101066101a7366004610d9b565b610524565b6067546100d8565b6101066101c2366004610d70565b61076d565b61014f6101d5366004610d70565b6001600160a01b03166000908152606b602052604090205460ff1690565b60006101fe82610808565b9050600081116102555760405162461bcd60e51b815260206004820152601f60248201527f546f6b656e56657374696e673a206e6f20746f6b656e7320617265206475650060448201526064015b60405180910390fd5b6001600160a01b0382166000908152606a6020526040902054610278908261083a565b6001600160a01b038084166000818152606a60205260409020929092556065546102a49291168361084d565b604080516001600160a01b0384168152602081018390527fc7798891864187665ac6dd119286e44ec13f014527aeeb2b8eb3fd413df93179910160405180910390a15050565b6033546001600160a01b031633146103145760405162461bcd60e51b815260040161024c90610df1565b61031e60006108a4565b565b6033546001600160a01b0316331461034a5760405162461bcd60e51b815260040161024c90610df1565b60695460ff1661039c5760405162461bcd60e51b815260206004820152601b60248201527f546f6b656e56657374696e673a2063616e6e6f74207265766f6b650000000000604482015260640161024c565b6001600160a01b0381166000908152606b602052604090205460ff16156104115760405162461bcd60e51b815260206004820152602360248201527f546f6b656e56657374696e673a20746f6b656e20616c7265616479207265766f6044820152621ad95960ea1b606482015260840161024c565b6040516370a0823160e01b81523060048201526000906001600160a01b038316906370a0823190602401602060405180830381865afa158015610458573d6000803e3d6000fd5b505050506040513d601f19601f8201168201806040525081019061047c9190610e26565b9050600061048983610808565b9050600061049783836108f6565b6001600160a01b0385166000908152606b60205260409020805460ff1916600117905590506104e26104d16033546001600160a01b031690565b6001600160a01b038616908361084d565b6040516001600160a01b03851681527f39983c6d4d174a7aee564f449d4a5c3c7ac9649d72b7793c56901183996f8af69060200160405180910390a150505050565b600054610100900460ff168061053d575060005460ff16155b6105595760405162461bcd60e51b815260040161024c90610e3f565b600054610100900460ff1615801561057b576000805461ffff19166101011790555b6001600160a01b0386166105e75760405162461bcd60e51b815260206004820152602d60248201527f546f6b656e56657374696e673a2062656e65666963696172792069732074686560448201526c207a65726f206164647265737360981b606482015260840161024c565b8284111561064b5760405162461bcd60e51b815260206004820152602b60248201527f546f6b656e56657374696e673a20636c696666206973206c6f6e67657220746860448201526a30b710323ab930ba34b7b760a91b606482015260840161024c565b6000831161069b5760405162461bcd60e51b815260206004820152601b60248201527f546f6b656e56657374696e673a206475726174696f6e20697320300000000000604482015260640161024c565b426106a6868561083a565b1161070b5760405162461bcd60e51b815260206004820152602f60248201527f546f6b656e56657374696e673a2066696e616c2074696d65206973206265666f60448201526e72652063757272656e742074696d6560881b606482015260840161024c565b610713610902565b606580546001600160a01b0319166001600160a01b0388161790556069805460ff1916831515179055606883905561074b858561083a565b60665560678590558015610765576000805461ff00191690555b505050505050565b6033546001600160a01b031633146107975760405162461bcd60e51b815260040161024c90610df1565b6001600160a01b0381166107fc5760405162461bcd60e51b815260206004820152602660248201527f4f776e61626c653a206e6577206f776e657220697320746865207a65726f206160448201526564647265737360d01b606482015260840161024c565b610805816108a4565b50565b6001600160a01b0381166000908152606a60205260408120546108349061082e8461097d565b906108f6565b92915050565b60006108468284610ea3565b9392505050565b604080516001600160a01b038416602482015260448082018490528251808303909101815260649091019091526020810180516001600160e01b031663a9059cbb60e01b17905261089f908490610a9c565b505050565b603380546001600160a01b038381166001600160a01b0319831681179093556040519116919082907f8be0079c531659141344cd1fd0a4f28419497f9722a3daafe3b4186f6b6457e090600090a35050565b60006108468284610eb6565b600054610100900460ff168061091b575060005460ff16155b6109375760405162461bcd60e51b815260040161024c90610e3f565b600054610100900460ff16158015610959576000805461ffff19166101011790555b610961610b6e565b610969610bd8565b8015610805576000805461ff001916905550565b6040516370a0823160e01b815230600482015260009081906001600160a01b038416906370a0823190602401602060405180830381865afa1580156109c6573d6000803e3d6000fd5b505050506040513d601f19601f820116820180604052508101906109ea9190610e26565b6001600160a01b0384166000908152606a602052604081205491925090610a1290839061083a565b9050606654421015610a28575060009392505050565b606854606754610a379161083a565b42101580610a5d57506001600160a01b0384166000908152606b602052604090205460ff165b15610a69579392505050565b610a94606854610a8e610a87606754426108f690919063ffffffff16565b8490610c38565b90610c44565b949350505050565b6000610af1826040518060400160405280602081526020017f5361666545524332303a206c6f772d6c6576656c2063616c6c206661696c6564815250856001600160a01b0316610c509092919063ffffffff16565b80519091501561089f5780806020019051810190610b0f9190610ec9565b61089f5760405162461bcd60e51b815260206004820152602a60248201527f5361666545524332303a204552433230206f7065726174696f6e20646964206e6044820152691bdd081cdd58d8d9595960b21b606482015260840161024c565b600054610100900460ff1680610b87575060005460ff16155b610ba35760405162461bcd60e51b815260040161024c90610e3f565b600054610100900460ff16158015610969576000805461ffff19166101011790558015610805576000805461ff001916905550565b600054610100900460ff1680610bf1575060005460ff16155b610c0d5760405162461bcd60e51b815260040161024c90610e3f565b600054610100900460ff16158015610c2f576000805461ffff19166101011790555b610969336108a4565b60006108468284610ee6565b60006108468284610efd565b6060610a94848460008585843b610ca95760405162461bcd60e51b815260206004820152601d60248201527f416464726573733a2063616c6c20746f206e6f6e2d636f6e7472616374000000604482015260640161024c565b600080866001600160a01b03168587604051610cc59190610f43565b60006040518083038185875af1925050503d8060008114610d02576040519150601f19603f3d011682016040523d82523d6000602084013e610d07565b606091505b5091509150610d17828286610d22565b979650505050505050565b60608315610d31575081610846565b825115610d415782518084602001fd5b8160405162461bcd60e51b815260040161024c9190610f5f565b6001600160a01b038116811461080557600080fd5b600060208284031215610d8257600080fd5b813561084681610d5b565b801515811461080557600080fd5b600080600080600060a08688031215610db357600080fd5b8535610dbe81610d5b565b94506020860135935060408601359250606086013591506080860135610de381610d8d565b809150509295509295909350565b6020808252818101527f4f776e61626c653a2063616c6c6572206973206e6f7420746865206f776e6572604082015260600190565b600060208284031215610e3857600080fd5b5051919050565b6020808252602e908201527f496e697469616c697a61626c653a20636f6e747261637420697320616c72656160408201526d191e481a5b9a5d1a585b1a5e995960921b606082015260800190565b634e487b7160e01b600052601160045260246000fd5b8082018082111561083457610834610e8d565b8181038181111561083457610834610e8d565b600060208284031215610edb57600080fd5b815161084681610d8d565b808202811582820484141761083457610834610e8d565b600082610f1a57634e487b7160e01b600052601260045260246000fd5b500490565b60005b83811015610f3a578181015183820152602001610f22565b50506000910152565b60008251610f55818460208701610f1f565b9190910192915050565b6020815260008251806020840152610f7e816040850160208701610f1f565b601f01601f1916919091016040019291505056fea26469706673582212200177b2f054f74b8bce88fa52bcfc17a92b5731ce5213adfe738e2dc144af258864736f6c63430008110033",
  "linkReferences": {},
  "deployedLinkReferences": {}
}