{
  "_format": "hh-sol-artifact-1",
  "contractName": "GuardedERC20Guild",
  "sourceName": "contracts/erc20guild/implementations/GuardedERC20Guild.sol",
  "abi": [
    {
      "anonymous": false,
      "inputs": [],
      "name": "GuildInitialized",
      "type": "event"
    },
    {
      "anonymous": false,
      "inputs": [
        {
          "indexed": true,
          "internalType": "address",
          "name": "previousOwner",
          "type": "address"
        },
        {
          "indexed": true,
          "internalType": "address",
          "name": "newOwner",
          "type": "address"
        }
      ],
      "name": "OwnershipTransferred",
      "type": "event"
    },
    {
      "anonymous": false,
      "inputs": [
        {
          "indexed": true,
          "internalType": "bytes32",
          "name": "proposalId",
          "type": "bytes32"
        },
        {
          "indexed": false,
          "internalType": "uint256",
          "name": "newState",
          "type": "uint256"
        }
      ],
      "name": "ProposalStateChanged",
      "type": "event"
    },
    {
      "anonymous": false,
      "inputs": [
        {
          "indexed": false,
          "internalType": "address",
          "name": "voter",
          "type": "address"
        },
        {
          "indexed": false,
          "internalType": "uint256",
          "name": "value",
          "type": "uint256"
        }
      ],
      "name": "TokensLocked",
      "type": "event"
    },
    {
      "anonymous": false,
      "inputs": [
        {
          "indexed": false,
          "internalType": "address",
          "name": "voter",
          "type": "address"
        },
        {
          "indexed": false,
          "internalType": "uint256",
          "name": "value",
          "type": "uint256"
        }
      ],
      "name": "TokensWithdrawn",
      "type": "event"
    },
    {
      "anonymous": false,
      "inputs": [
        {
          "indexed": true,
          "internalType": "bytes32",
          "name": "proposalId",
          "type": "bytes32"
        },
        {
          "indexed": true,
          "internalType": "uint256",
          "name": "option",
          "type": "uint256"
        },
        {
          "indexed": false,
          "internalType": "address",
          "name": "voter",
          "type": "address"
        },
        {
          "indexed": false,
          "internalType": "uint256",
          "name": "votingPower",
          "type": "uint256"
        }
      ],
      "name": "VoteAdded",
      "type": "event"
    },
    {
      "stateMutability": "payable",
      "type": "fallback"
    },
    {
      "inputs": [],
      "name": "MAX_OPTIONS_PER_PROPOSAL",
      "outputs": [
        {
          "internalType": "uint8",
          "name": "",
          "type": "uint8"
        }
      ],
      "stateMutability": "view",
      "type": "function"
    },
    {
      "inputs": [],
      "name": "activeProposalsNow",
      "outputs": [
        {
          "internalType": "uint256",
          "name": "",
          "type": "uint256"
        }
      ],
      "stateMutability": "view",
      "type": "function"
    },
    {
      "inputs": [
        {
          "internalType": "address[]",
          "name": "to",
          "type": "address[]"
        },
        {
          "internalType": "bytes[]",
          "name": "data",
          "type": "bytes[]"
        },
        {
          "internalType": "uint256[]",
          "name": "value",
          "type": "uint256[]"
        },
        {
          "internalType": "uint256",
          "name": "totalOptions",
          "type": "uint256"
        },
        {
          "internalType": "string",
          "name": "title",
          "type": "string"
        },
        {
          "internalType": "string",
          "name": "contentHash",
          "type": "string"
        }
      ],
      "name": "createProposal",
      "outputs": [
        {
          "internalType": "bytes32",
          "name": "",
          "type": "bytes32"
        }
      ],
      "stateMutability": "nonpayable",
      "type": "function"
    },
    {
      "inputs": [
        {
          "internalType": "bytes32",
          "name": "proposalId",
          "type": "bytes32"
        }
      ],
      "name": "endProposal",
      "outputs": [],
      "stateMutability": "nonpayable",
      "type": "function"
    },
    {
      "inputs": [],
      "name": "extraTimeForGuardian",
      "outputs": [
        {
          "internalType": "uint256",
          "name": "",
          "type": "uint256"
        }
      ],
      "stateMutability": "view",
      "type": "function"
    },
    {
      "inputs": [],
      "name": "getActiveProposalsNow",
      "outputs": [
        {
          "internalType": "uint256",
          "name": "",
          "type": "uint256"
        }
      ],
      "stateMutability": "view",
      "type": "function"
    },
    {
      "inputs": [],
      "name": "getExtraTimeForGuardian",
      "outputs": [
        {
          "internalType": "uint256",
          "name": "",
          "type": "uint256"
        }
      ],
      "stateMutability": "view",
      "type": "function"
    },
    {
      "inputs": [],
      "name": "getGuildGuardian",
      "outputs": [
        {
          "internalType": "address",
          "name": "",
          "type": "address"
        }
      ],
      "stateMutability": "view",
      "type": "function"
    },
    {
      "inputs": [],
      "name": "getLockTime",
      "outputs": [
        {
          "internalType": "uint256",
          "name": "",
          "type": "uint256"
        }
      ],
      "stateMutability": "view",
      "type": "function"
    },
    {
      "inputs": [],
      "name": "getMaxActiveProposals",
      "outputs": [
        {
          "internalType": "uint256",
          "name": "",
          "type": "uint256"
        }
      ],
      "stateMutability": "view",
      "type": "function"
    },
    {
      "inputs": [],
      "name": "getMaxGasPrice",
      "outputs": [
        {
          "internalType": "uint256",
          "name": "",
          "type": "uint256"
        }
      ],
      "stateMutability": "view",
      "type": "function"
    },
    {
      "inputs": [],
      "name": "getMinimumMembersForProposalCreation",
      "outputs": [
        {
          "internalType": "uint256",
          "name": "",
          "type": "uint256"
        }
      ],
      "stateMutability": "view",
      "type": "function"
    },
    {
      "inputs": [],
      "name": "getMinimumTokensLockedForProposalCreation",
      "outputs": [
        {
          "internalType": "uint256",
          "name": "",
          "type": "uint256"
        }
      ],
      "stateMutability": "view",
      "type": "function"
    },
    {
      "inputs": [],
      "name": "getName",
      "outputs": [
        {
          "internalType": "string",
          "name": "",
          "type": "string"
        }
      ],
      "stateMutability": "view",
      "type": "function"
    },
    {
      "inputs": [],
      "name": "getPermissionRegistry",
      "outputs": [
        {
          "internalType": "address",
          "name": "",
          "type": "address"
        }
      ],
      "stateMutability": "view",
      "type": "function"
    },
    {
      "inputs": [
        {
          "internalType": "bytes32",
          "name": "proposalId",
          "type": "bytes32"
        }
      ],
      "name": "getProposal",
      "outputs": [
        {
          "components": [
            {
              "internalType": "address",
              "name": "creator",
              "type": "address"
            },
            {
              "internalType": "uint256",
              "name": "startTime",
              "type": "uint256"
            },
            {
              "internalType": "uint256",
              "name": "endTime",
              "type": "uint256"
            },
            {
              "internalType": "address[]",
              "name": "to",
              "type": "address[]"
            },
            {
              "internalType": "bytes[]",
              "name": "data",
              "type": "bytes[]"
            },
            {
              "internalType": "uint256[]",
              "name": "value",
              "type": "uint256[]"
            },
            {
              "internalType": "string",
              "name": "title",
              "type": "string"
            },
            {
              "internalType": "string",
              "name": "contentHash",
              "type": "string"
            },
            {
              "internalType": "enum BaseERC20Guild.ProposalState",
              "name": "state",
              "type": "uint8"
            },
            {
              "internalType": "uint256[]",
              "name": "totalVotes",
              "type": "uint256[]"
            }
          ],
          "internalType": "struct BaseERC20Guild.Proposal",
          "name": "",
          "type": "tuple"
        }
      ],
      "stateMutability": "view",
      "type": "function"
    },
    {
      "inputs": [],
      "name": "getProposalTime",
      "outputs": [
        {
          "internalType": "uint256",
          "name": "",
          "type": "uint256"
        }
      ],
      "stateMutability": "view",
      "type": "function"
    },
    {
      "inputs": [
        {
          "internalType": "bytes32",
          "name": "proposalId",
          "type": "bytes32"
        },
        {
          "internalType": "address",
          "name": "voter",
          "type": "address"
        }
      ],
      "name": "getProposalVotesOfVoter",
      "outputs": [
        {
          "internalType": "uint256",
          "name": "option",
          "type": "uint256"
        },
        {
          "internalType": "uint256",
          "name": "votingPower",
          "type": "uint256"
        }
      ],
      "stateMutability": "view",
      "type": "function"
    },
    {
      "inputs": [],
      "name": "getProposalsIds",
      "outputs": [
        {
          "internalType": "bytes32[]",
          "name": "",
          "type": "bytes32[]"
        }
      ],
      "stateMutability": "view",
      "type": "function"
    },
    {
      "inputs": [],
      "name": "getProposalsIdsLength",
      "outputs": [
        {
          "internalType": "uint256",
          "name": "",
          "type": "uint256"
        }
      ],
      "stateMutability": "view",
      "type": "function"
    },
    {
      "inputs": [
        {
          "internalType": "bytes32",
          "name": "signedVoteHash",
          "type": "bytes32"
        }
      ],
      "name": "getSignedVote",
      "outputs": [
        {
          "internalType": "bool",
          "name": "",
          "type": "bool"
        }
      ],
      "stateMutability": "view",
      "type": "function"
    },
    {
      "inputs": [],
      "name": "getTimeForExecution",
      "outputs": [
        {
          "internalType": "uint256",
          "name": "",
          "type": "uint256"
        }
      ],
      "stateMutability": "view",
      "type": "function"
    },
    {
      "inputs": [],
      "name": "getToken",
      "outputs": [
        {
          "internalType": "address",
          "name": "",
          "type": "address"
        }
      ],
      "stateMutability": "view",
      "type": "function"
    },
    {
      "inputs": [],
      "name": "getTokenVault",
      "outputs": [
        {
          "internalType": "address",
          "name": "",
          "type": "address"
        }
      ],
      "stateMutability": "view",
      "type": "function"
    },
    {
      "inputs": [],
      "name": "getTotalLocked",
      "outputs": [
        {
          "internalType": "uint256",
          "name": "",
          "type": "uint256"
        }
      ],
      "stateMutability": "view",
      "type": "function"
    },
    {
      "inputs": [],
      "name": "getTotalMembers",
      "outputs": [
        {
          "internalType": "uint256",
          "name": "",
          "type": "uint256"
        }
      ],
      "stateMutability": "view",
      "type": "function"
    },
    {
      "inputs": [],
      "name": "getTotalProposals",
      "outputs": [
        {
          "internalType": "uint256",
          "name": "",
          "type": "uint256"
        }
      ],
      "stateMutability": "view",
      "type": "function"
    },
    {
      "inputs": [],
      "name": "getVoteGas",
      "outputs": [
        {
          "internalType": "uint256",
          "name": "",
          "type": "uint256"
        }
      ],
      "stateMutability": "view",
      "type": "function"
    },
    {
      "inputs": [
        {
          "internalType": "address",
          "name": "voter",
          "type": "address"
        }
      ],
      "name": "getVoterLockTimestamp",
      "outputs": [
        {
          "internalType": "uint256",
          "name": "",
          "type": "uint256"
        }
      ],
      "stateMutability": "view",
      "type": "function"
    },
    {
      "inputs": [],
      "name": "getVotingPowerForProposalCreation",
      "outputs": [
        {
          "internalType": "uint256",
          "name": "",
          "type": "uint256"
        }
      ],
      "stateMutability": "view",
      "type": "function"
    },
    {
      "inputs": [],
      "name": "getVotingPowerForProposalExecution",
      "outputs": [
        {
          "internalType": "uint256",
          "name": "",
          "type": "uint256"
        }
      ],
      "stateMutability": "view",
      "type": "function"
    },
    {
      "inputs": [],
      "name": "guildGuardian",
      "outputs": [
        {
          "internalType": "address",
          "name": "",
          "type": "address"
        }
      ],
      "stateMutability": "view",
      "type": "function"
    },
    {
      "inputs": [
        {
          "internalType": "address",
          "name": "voter",
          "type": "address"
        },
        {
          "internalType": "bytes32",
          "name": "proposalId",
          "type": "bytes32"
        },
        {
          "internalType": "uint256",
          "name": "option",
          "type": "uint256"
        },
        {
          "internalType": "uint256",
          "name": "votingPower",
          "type": "uint256"
        }
      ],
      "name": "hashVote",
      "outputs": [
        {
          "internalType": "bytes32",
          "name": "",
          "type": "bytes32"
        }
      ],
      "stateMutability": "pure",
      "type": "function"
    },
    {
      "inputs": [
        {
          "internalType": "address",
          "name": "_token",
          "type": "address"
        },
        {
          "internalType": "uint256",
          "name": "_proposalTime",
          "type": "uint256"
        },
        {
          "internalType": "uint256",
          "name": "_timeForExecution",
          "type": "uint256"
        },
        {
          "internalType": "uint256",
          "name": "_votingPowerPercentageForProposalExecution",
          "type": "uint256"
        },
        {
          "internalType": "uint256",
          "name": "_votingPowerPercentageForProposalCreation",
          "type": "uint256"
        },
        {
          "internalType": "string",
          "name": "_name",
          "type": "string"
        },
        {
          "internalType": "uint256",
          "name": "_voteGas",
          "type": "uint256"
        },
        {
          "internalType": "uint256",
          "name": "_maxGasPrice",
          "type": "uint256"
        },
        {
          "internalType": "uint256",
          "name": "_maxActiveProposals",
          "type": "uint256"
        },
        {
          "internalType": "uint256",
          "name": "_lockTime",
          "type": "uint256"
        },
        {
          "internalType": "address",
          "name": "_permissionRegistry",
          "type": "address"
        }
      ],
      "name": "initialize",
      "outputs": [],
      "stateMutability": "nonpayable",
      "type": "function"
    },
    {
      "inputs": [],
      "name": "lockTime",
      "outputs": [
        {
          "internalType": "uint256",
          "name": "",
          "type": "uint256"
        }
      ],
      "stateMutability": "view",
      "type": "function"
    },
    {
      "inputs": [
        {
          "internalType": "uint256",
          "name": "tokenAmount",
          "type": "uint256"
        }
      ],
      "name": "lockTokens",
      "outputs": [],
      "stateMutability": "nonpayable",
      "type": "function"
    },
    {
      "inputs": [],
      "name": "maxActiveProposals",
      "outputs": [
        {
          "internalType": "uint256",
          "name": "",
          "type": "uint256"
        }
      ],
      "stateMutability": "view",
      "type": "function"
    },
    {
      "inputs": [],
      "name": "maxGasPrice",
      "outputs": [
        {
          "internalType": "uint256",
          "name": "",
          "type": "uint256"
        }
      ],
      "stateMutability": "view",
      "type": "function"
    },
    {
      "inputs": [],
      "name": "minimumMembersForProposalCreation",
      "outputs": [
        {
          "internalType": "uint256",
          "name": "",
          "type": "uint256"
        }
      ],
      "stateMutability": "view",
      "type": "function"
    },
    {
      "inputs": [],
      "name": "minimumTokensLockedForProposalCreation",
      "outputs": [
        {
          "internalType": "uint256",
          "name": "",
          "type": "uint256"
        }
      ],
      "stateMutability": "view",
      "type": "function"
    },
    {
      "inputs": [],
      "name": "name",
      "outputs": [
        {
          "internalType": "string",
          "name": "",
          "type": "string"
        }
      ],
      "stateMutability": "view",
      "type": "function"
    },
    {
      "inputs": [],
      "name": "owner",
      "outputs": [
        {
          "internalType": "address",
          "name": "",
          "type": "address"
        }
      ],
      "stateMutability": "view",
      "type": "function"
    },
    {
      "inputs": [],
      "name": "proposalTime",
      "outputs": [
        {
          "internalType": "uint256",
          "name": "",
          "type": "uint256"
        }
      ],
      "stateMutability": "view",
      "type": "function"
    },
    {
      "inputs": [
        {
          "internalType": "bytes32",
          "name": "",
          "type": "bytes32"
        },
        {
          "internalType": "address",
          "name": "",
          "type": "address"
        }
      ],
      "name": "proposalVotes",
      "outputs": [
        {
          "internalType": "uint256",
          "name": "option",
          "type": "uint256"
        },
        {
          "internalType": "uint256",
          "name": "votingPower",
          "type": "uint256"
        }
      ],
      "stateMutability": "view",
      "type": "function"
    },
    {
      "inputs": [
        {
          "internalType": "bytes32",
          "name": "",
          "type": "bytes32"
        }
      ],
      "name": "proposals",
      "outputs": [
        {
          "internalType": "address",
          "name": "creator",
          "type": "address"
        },
        {
          "internalType": "uint256",
          "name": "startTime",
          "type": "uint256"
        },
        {
          "internalType": "uint256",
          "name": "endTime",
          "type": "uint256"
        },
        {
          "internalType": "string",
          "name": "title",
          "type": "string"
        },
        {
          "internalType": "string",
          "name": "contentHash",
          "type": "string"
        },
        {
          "internalType": "enum BaseERC20Guild.ProposalState",
          "name": "state",
          "type": "uint8"
        }
      ],
      "stateMutability": "view",
      "type": "function"
    },
    {
      "inputs": [
        {
          "internalType": "uint256",
          "name": "",
          "type": "uint256"
        }
      ],
      "name": "proposalsIds",
      "outputs": [
        {
          "internalType": "bytes32",
          "name": "",
          "type": "bytes32"
        }
      ],
      "stateMutability": "view",
      "type": "function"
    },
    {
      "inputs": [
        {
          "internalType": "bytes32",
          "name": "proposalId",
          "type": "bytes32"
        }
      ],
      "name": "rejectProposal",
      "outputs": [],
      "stateMutability": "nonpayable",
      "type": "function"
    },
    {
      "inputs": [],
      "name": "renounceOwnership",
      "outputs": [],
      "stateMutability": "nonpayable",
      "type": "function"
    },
    {
      "inputs": [
        {
          "internalType": "uint256",
          "name": "_proposalTime",
          "type": "uint256"
        },
        {
          "internalType": "uint256",
          "name": "_timeForExecution",
          "type": "uint256"
        },
        {
          "internalType": "uint256",
          "name": "_votingPowerPercentageForProposalExecution",
          "type": "uint256"
        },
        {
          "internalType": "uint256",
          "name": "_votingPowerPercentageForProposalCreation",
          "type": "uint256"
        },
        {
          "internalType": "uint256",
          "name": "_voteGas",
          "type": "uint256"
        },
        {
          "internalType": "uint256",
          "name": "_maxGasPrice",
          "type": "uint256"
        },
        {
          "internalType": "uint256",
          "name": "_maxActiveProposals",
          "type": "uint256"
        },
        {
          "internalType": "uint256",
          "name": "_lockTime",
          "type": "uint256"
        },
        {
          "internalType": "uint256",
          "name": "_minimumMembersForProposalCreation",
          "type": "uint256"
        },
        {
          "internalType": "uint256",
          "name": "_minimumTokensLockedForProposalCreation",
          "type": "uint256"
        }
      ],
      "name": "setConfig",
      "outputs": [],
      "stateMutability": "nonpayable",
      "type": "function"
    },
    {
      "inputs": [
        {
          "internalType": "address",
          "name": "_guildGuardian",
          "type": "address"
        },
        {
          "internalType": "uint256",
          "name": "_extraTimeForGuardian",
          "type": "uint256"
        }
      ],
      "name": "setGuardianConfig",
      "outputs": [],
      "stateMutability": "nonpayable",
      "type": "function"
    },
    {
      "inputs": [
        {
          "internalType": "bytes32",
          "name": "proposalId",
          "type": "bytes32"
        },
        {
          "internalType": "uint256",
          "name": "option",
          "type": "uint256"
        },
        {
          "internalType": "uint256",
          "name": "votingPower",
          "type": "uint256"
        },
        {
          "internalType": "address",
          "name": "voter",
          "type": "address"
        },
        {
          "internalType": "bytes",
          "name": "signature",
          "type": "bytes"
        }
      ],
      "name": "setSignedVote",
      "outputs": [],
      "stateMutability": "nonpayable",
      "type": "function"
    },
    {
      "inputs": [
        {
          "internalType": "bytes32",
          "name": "proposalId",
          "type": "bytes32"
        },
        {
          "internalType": "uint256",
          "name": "option",
          "type": "uint256"
        },
        {
          "internalType": "uint256",
          "name": "votingPower",
          "type": "uint256"
        }
      ],
      "name": "setVote",
      "outputs": [],
      "stateMutability": "nonpayable",
      "type": "function"
    },
    {
      "inputs": [
        {
          "internalType": "bytes32",
          "name": "",
          "type": "bytes32"
        }
      ],
      "name": "signedVotes",
      "outputs": [
        {
          "internalType": "bool",
          "name": "",
          "type": "bool"
        }
      ],
      "stateMutability": "view",
      "type": "function"
    },
    {
      "inputs": [],
      "name": "timeForExecution",
      "outputs": [
        {
          "internalType": "uint256",
          "name": "",
          "type": "uint256"
        }
      ],
      "stateMutability": "view",
      "type": "function"
    },
    {
      "inputs": [],
      "name": "token",
      "outputs": [
        {
          "internalType": "contract IERC20Upgradeable",
          "name": "",
          "type": "address"
        }
      ],
      "stateMutability": "view",
      "type": "function"
    },
    {
      "inputs": [],
      "name": "tokenVault",
      "outputs": [
        {
          "internalType": "contract TokenVault",
          "name": "",
          "type": "address"
        }
      ],
      "stateMutability": "view",
      "type": "function"
    },
    {
      "inputs": [
        {
          "internalType": "address",
          "name": "",
          "type": "address"
        }
      ],
      "name": "tokensLocked",
      "outputs": [
        {
          "internalType": "uint256",
          "name": "amount",
          "type": "uint256"
        },
        {
          "internalType": "uint256",
          "name": "timestamp",
          "type": "uint256"
        }
      ],
      "stateMutability": "view",
      "type": "function"
    },
    {
      "inputs": [],
      "name": "totalLocked",
      "outputs": [
        {
          "internalType": "uint256",
          "name": "",
          "type": "uint256"
        }
      ],
      "stateMutability": "view",
      "type": "function"
    },
    {
      "inputs": [],
      "name": "totalProposals",
      "outputs": [
        {
          "internalType": "uint256",
          "name": "",
          "type": "uint256"
        }
      ],
      "stateMutability": "view",
      "type": "function"
    },
    {
      "inputs": [
        {
          "internalType": "address",
          "name": "newOwner",
          "type": "address"
        }
      ],
      "name": "transferOwnership",
      "outputs": [],
      "stateMutability": "nonpayable",
      "type": "function"
    },
    {
      "inputs": [],
      "name": "voteGas",
      "outputs": [
        {
          "internalType": "uint256",
          "name": "",
          "type": "uint256"
        }
      ],
      "stateMutability": "view",
      "type": "function"
    },
    {
      "inputs": [
        {
          "internalType": "address",
          "name": "account",
          "type": "address"
        }
      ],
      "name": "votingPowerOf",
      "outputs": [
        {
          "internalType": "uint256",
          "name": "",
          "type": "uint256"
        }
      ],
      "stateMutability": "view",
      "type": "function"
    },
    {
      "inputs": [],
      "name": "votingPowerPercentageForProposalCreation",
      "outputs": [
        {
          "internalType": "uint256",
          "name": "",
          "type": "uint256"
        }
      ],
      "stateMutability": "view",
      "type": "function"
    },
    {
      "inputs": [],
      "name": "votingPowerPercentageForProposalExecution",
      "outputs": [
        {
          "internalType": "uint256",
          "name": "",
          "type": "uint256"
        }
      ],
      "stateMutability": "view",
      "type": "function"
    },
    {
      "inputs": [
        {
          "internalType": "uint256",
          "name": "tokenAmount",
          "type": "uint256"
        }
      ],
      "name": "withdrawTokens",
      "outputs": [],
      "stateMutability": "nonpayable",
      "type": "function"
    }
  ],
  "bytecode": "0x608060405234801561001057600080fd5b506155a2806100206000396000f3fe608060405260043610620003f15760003560e01c80635bc789d9116200020f578063ae6192341162000123578063e045035311620000b3578063f2fde38b1162000081578063f2fde38b1462000be0578063f4732da61462000c05578063f98606a71462000c1c578063fc0c546a1462000c34578063fc4e703f1462000c5657005b8063e04503531462000b4d578063e158080a1462000b65578063f09951981462000b7d578063f2f0a9f51462000bc057005b8063bcc3f3bd11620000f1578063bcc3f3bd1462000ae2578063c0a4d64d1462000b07578063c93e01e31462000b1e578063d4595ffc1462000b3557005b8063ae6192341462000a69578063b3929aaa1462000a81578063b3b470611462000aa6578063b7c15f8d1462000acb57005b806389c98c06116200019f578063a16fe342116200016d578063a16fe3421462000a02578063a78d80fc1462000a22578063a7aeb5571462000a3a578063ad6c1e341462000a5257005b806389c98c06146200098f5780638da5cb5b14620009a65780638f18030514620009c657806392b7165414620009dd57005b80636e27d88911620001dd5780636e27d8891462000907578063715018a6146200092c57806377027ff414620009445780638029eff1146200095b57005b80635bc789d9146200089f5780635e508c2c14620008c157806364fe6ed214620008d95780636c8b72f614620008f057005b80632467ef94116200030757806337e9064e1162000297578063430694cf1162000265578063430694cf14620008115780634d82a4b6146200084557806354f2f7af146200086757806356891412146200088757005b806337e9064e14620007b25780633bf353fb14620007c95780633de39c1114620007e15780633f10cf1514620007f957005b80632fd99c0011620002d55780632fd99c0014620006ea578063315a095d146200072f57806332ed5b12146200075457806336f8f8d9146200078d57005b80632467ef94146200064757806325c069fc146200065e5780632d5b17de14620006885780632d757c3e14620006ad57005b8063130485fe1162000383578063184a0ae91162000351578063184a0ae914620005cd5780631a5007dd14620005e557806321df0da714620005fc5780632229a0e2146200063057005b8063130485fe146200054657806313108d74146200056b57806316bbecde146200059057806317d7de7c14620005b557005b80630a366a6311620003c15780630a366a6314620004bd5780630d66808714620004e457806311ab31ed14620004fc578063123f6d67146200052157005b80623a40d014620003f357806301a598a6146200042357806306fdde031462000471578063080645fa1462000498575b005b3480156200040057600080fd5b506200040b62000c6e565b6040516200041a919062003e8c565b60405180910390f35b3480156200043057600080fd5b506200045b6200044236600462003eef565b6012602052600090815260409020805460019091015482565b604080519283526020830191909152016200041a565b3480156200047e57600080fd5b506200048962000cc8565b6040516200041a919062003f55565b348015620004a557600080fd5b50620003f1620004b736600462003f6a565b62000d5e565b348015620004ca57600080fd5b50620004d562000e9e565b6040519081526020016200041a565b348015620004f157600080fd5b50620004d5600d5481565b3480156200050957600080fd5b50620003f16200051b36600462003f97565b62000ecd565b3480156200052e57600080fd5b50620003f16200054036600462003fb1565b62000fe4565b3480156200055357600080fd5b506200045b620005653660046200401a565b62001179565b3480156200057857600080fd5b50620004d56200058a366004620042b7565b620011ab565b3480156200059d57600080fd5b50620003f1620005af366004620043a1565b6200177d565b348015620005c257600080fd5b5062000489620018c4565b348015620005da57600080fd5b50620004d560035481565b348015620005f257600080fd5b50600a54620004d5565b3480156200060957600080fd5b506000546001600160a01b03165b6040516001600160a01b0390911681526020016200041a565b3480156200063d57600080fd5b50601654620004d5565b3480156200065457600080fd5b50600c54620004d5565b3480156200066b57600080fd5b5062000675600a81565b60405160ff90911681526020016200041a565b3480156200069557600080fd5b50620003f1620006a7366004620043ce565b62001955565b348015620006ba57600080fd5b50620004d5620006cc36600462003eef565b6001600160a01b031660009081526012602052604090206001015490565b348015620006f757600080fd5b506200071e6200070936600462003f97565b60136020526000908152604090205460ff1681565b60405190151581526020016200041a565b3480156200073c57600080fd5b50620003f16200074e36600462003f97565b62001c1f565b3480156200076157600080fd5b50620007796200077336600462003f97565b62001e80565b6040516200041a9695949392919062004478565b3480156200079a57600080fd5b50620003f1620007ac366004620044d8565b62001fe4565b348015620007bf57600080fd5b50607d54620004d5565b348015620007d657600080fd5b50620004d5600c5481565b348015620007ee57600080fd5b50620004d560085481565b3480156200080657600080fd5b50620004d560045481565b3480156200081e57600080fd5b50620008366200083036600462003f97565b6200208a565b6040516200041a919062004660565b3480156200085257600080fd5b50607c5462000617906001600160a01b031681565b3480156200087457600080fd5b506011546001600160a01b031662000617565b3480156200089457600080fd5b50620004d5600e5481565b348015620008ac57600080fd5b5060115462000617906001600160a01b031681565b348015620008ce57600080fd5b50620004d560055481565b348015620008e657600080fd5b50601054620004d5565b348015620008fd57600080fd5b50600754620004d5565b3480156200091457600080fd5b50620003f16200092636600462003f97565b6200243d565b3480156200093957600080fd5b50620003f1620025d0565b3480156200095157600080fd5b50600954620004d5565b3480156200096857600080fd5b506200071e6200097a36600462003f97565b60009081526013602052604090205460ff1690565b3480156200099c57600080fd5b50600854620004d5565b348015620009b357600080fd5b50604a546001600160a01b031662000617565b348015620009d357600080fd5b50600b54620004d5565b348015620009ea57600080fd5b50620004d5620009fc3660046200476d565b6200263a565b34801562000a0f57600080fd5b506001546001600160a01b031662000617565b34801562000a2f57600080fd5b50620004d5600a5481565b34801562000a4757600080fd5b50620004d5600f5481565b34801562000a5f57600080fd5b50600f54620004d5565b34801562000a7657600080fd5b50620004d562002691565b34801562000a8e57600080fd5b50620004d562000aa036600462003f97565b620026a3565b34801562000ab357600080fd5b50620003f162000ac536600462003f97565b620026c5565b34801562000ad857600080fd5b50600454620004d5565b34801562000aef57600080fd5b50620004d562000b0136600462003eef565b62002850565b34801562000b1457600080fd5b50600d54620004d5565b34801562000b2b57600080fd5b50600354620004d5565b34801562000b4257600080fd5b50620004d5607d5481565b34801562000b5a57600080fd5b50620004d560095481565b34801562000b7257600080fd5b50620004d560105481565b34801562000b8a57600080fd5b506200045b62000b9c3660046200401a565b60146020908152600092835260408084209091529082529020805460019091015482565b34801562000bcd57600080fd5b50607c546001600160a01b031662000617565b34801562000bed57600080fd5b50620003f162000bff36600462003eef565b6200286b565b34801562000c1257600080fd5b50600e54620004d5565b34801562000c2957600080fd5b50620004d560065481565b34801562000c4157600080fd5b5060005462000617906001600160a01b031681565b34801562000c6357600080fd5b50620004d560075481565b6060601680548060200260200160405190810160405280929190818152602001828054801562000cbe57602002820191906000526020600020905b81548152602001906001019080831162000ca9575b5050505050905090565b6002805462000cd790620047a9565b80601f016020809104026020016040519081016040528092919081815260200182805462000d0590620047a9565b801562000d565780601f1062000d2a5761010080835404028352916020019162000d56565b820191906000526020600020905b81548152906001019060200180831162000d3857829003601f168201915b505050505081565b607c546001600160a01b0316158062000d7657503330145b62000e055760405162461bcd60e51b815260206004820152604e60248201527f4775617264656445524332304775696c643a204f6e6c792063616c6c61626c6560448201527f20627920746865206775696c6420697473656c66207768656e206775696c644760648201526d1d585c991a585b881a5cc81cd95d60921b608482015260a4015b60405180910390fd5b6001600160a01b03821662000e785760405162461bcd60e51b815260206004820152603260248201527f4775617264656445524332304775696c643a206775696c64477561726469616e60448201527102063616e74206265206164647265737320360741b606482015260840162000dfc565b607c80546001600160a01b0319166001600160a01b039390931692909217909155607d55565b600061271060065462000eb0600e5490565b62000ebc9190620047fb565b62000ec891906200482b565b905090565b600160008281526015602052604090206008015460ff16600481111562000ef85762000ef86200443f565b1462000f185760405162461bcd60e51b815260040162000dfc9062004842565b607c546001600160a01b0316331462000f9a5760405162461bcd60e51b815260206004820152603c60248201527f4775617264656445524332304775696c643a2050726f706f73616c2063616e2060448201527f62652072656a6563746564206f6e6c7920627920677561726469616e00000000606482015260840162000dfc565b600081815260156020526040902060080180546002919060ff19166001830217905550806000805160206200554d833981519152600260405190815260200160405180910390a250565b333014620010665760405162461bcd60e51b815260206004820152604260248201527f45524332304775696c643a204f6e6c792063616c6c61626c652062792045524360448201527f32306775696c6420697473656c66206f72207768656e20696e697469616c697a606482015261195960f21b608482015260a40162000dfc565b60008a11620010895760405162461bcd60e51b815260040162000dfc906200488e565b89831015620010ac5760405162461bcd60e51b815260040162000dfc90620048dd565b60008811620010cf5760405162461bcd60e51b815260040162000dfc906200493a565b6201c9088611156200114a5760405162461bcd60e51b815260206004820152603960248201527f45524332304775696c643a20766f7465206761732068617320746f206265206560448201527f7175616c206f72206c6f776572207468616e2031313730303000000000000000606482015260840162000dfc565b600399909955600497909755600595909555600693909355600791909155600855600955600d55600f55601055565b60008281526014602090815260408083206001600160a01b0385168452909152902080546001909101545b9250929050565b6000601054600e541015620012295760405162461bcd60e51b815260206004820152603960248201527f45524332304775696c643a204e6f7420656e6f75676820746f6b656e73206c6f60448201527f636b656420746f2063726561746520612070726f706f73616c00000000000000606482015260840162000dfc565b600f54600b5410156200129b5760405162461bcd60e51b815260206004820152603360248201527f45524332304775696c643a204e6f7420656e6f756768206d656d6265727320746044820152721bc818dc99585d194818481c1c9bdc1bdcd85b606a1b606482015260840162000dfc565b600954600c54106200130f5760405162461bcd60e51b815260206004820152603660248201527f45524332304775696c643a204d6178696d756d20616d6f756e74206f662061636044820152751d1a5d99481c1c9bdc1bdcd85b1cc81c995858da195960521b606482015260840162000dfc565b6200131962000e9e565b620013243362002850565b1015620013925760405162461bcd60e51b815260206004820152603560248201527f45524332304775696c643a204e6f7420656e6f75676820766f74696e67506f77604482015274195c881d1bc818dc99585d19481c1c9bdc1bdcd85b605a1b606482015260840162000dfc565b85518751148015620013a5575084518751145b620014105760405162461bcd60e51b815260206004820152603460248201527f45524332304775696c643a2057726f6e67206c656e677468206f6620746f2c2060448201527364617461206f722076616c75652061727261797360601b606482015260840162000dfc565b60008751116200147d5760405162461bcd60e51b815260206004820152603160248201527f45524332304775696c643a20746f2c20646174612076616c7565206172726179604482015270732063616e6e6f7420626520656d70747960781b606482015260840162000dfc565b865184111580156200149b575083855162001499919062004997565b155b6200150f5760405162461bcd60e51b815260206004820152603760248201527f45524332304775696c643a20496e76616c696420746f74616c4f7074696f6e7360448201527f206f72206f7074696f6e2063616c6c73206c656e677468000000000000000000606482015260840162000dfc565b600a841115620015885760405162461bcd60e51b815260206004820152603a60248201527f45524332304775696c643a204d6178696d756d20616d6f756e74206f66206f7060448201527f74696f6e73207065722070726f706f73616c2072656163686564000000000000606482015260840162000dfc565b600a546040516bffffffffffffffffffffffff193360601b1660208201524260348201526054810191909152600090607401604051602081830303815290604052805190602001209050600a546001620015e39190620049ae565b600a55600081815260156020526040902080546001600160a01b0319163317815542600182018190556003546200161a91620049ae565b600282015588516200163690600383019060208c019062003c96565b5087516200164e90600483019060208b019062003d00565b5086516200166690600583019060208a019062003d59565b506006810162001677868262004a0e565b506007810162001688858262004a0e565b5062001696866001620049ae565b67ffffffffffffffff811115620016b157620016b162004049565b604051908082528060200260200182016040528015620016db578160200160208202803683370190505b508051620016f491600984019160209091019062003d59565b5060088101805460ff19166001908117909155600c546200171591620049ae565b600c55816000805160206200554d833981519152600160405190815260200160405180910390a250601680546001810182556000919091527fd833147d7dc355ba459fc788f669e58cfaf9dc25ddcd0702e87d69c7b512428901819055979650505050505050565b6000838152601560205260409020600201544210620017b05760405162461bcd60e51b815260040162000dfc9062004adb565b80620017bc3362002850565b10158015620017e65750600083815260146020908152604080832033845290915290206001015481115b620018055760405162461bcd60e51b815260040162000dfc9062004b26565b60008381526014602090815260408083203384529091529020541580156200184757506000838152601460209081526040808320338452909152902060010154155b80620018925750600083815260146020908152604080832033845290915290205482148015620018925750600083815260146020908152604080832033845290915290206001015481115b620018b15760405162461bcd60e51b815260040162000dfc9062004b6c565b620018bf3384848462002939565b505050565b606060028054620018d590620047a9565b80601f01602080910402602001604051908101604052809291908181526020018280546200190390620047a9565b801562000cbe5780601f10620019285761010080835404028352916020019162000cbe565b820191906000526020600020905b8154815290600101906020018083116200193657509395945050505050565b6000858152601560205260409020600201544210620019885760405162461bcd60e51b815260040162000dfc9062004adb565b600062001998838787876200263a565b60008181526013602052604090205490915060ff1615620019fc5760405162461bcd60e51b815260206004820152601960248201527f45524332304775696c643a20416c726561647920766f74656400000000000000604482015260640162000dfc565b62001a608262001a59836040517f19457468657265756d205369676e6564204d6573736167653a0a3332000000006020820152603c8101829052600090605c01604051602081830303815290604052805190602001209050919050565b9062002b87565b6001600160a01b0316836001600160a01b03161462001ac25760405162461bcd60e51b815260206004820152601860248201527f45524332304775696c643a2057726f6e67207369676e65720000000000000000604482015260640162000dfc565b6000818152601360205260409020805460ff191660011790558362001ae78462002850565b1015801562001b1a575060008681526014602090815260408083206001600160a01b038716845290915290206001015484115b62001b395760405162461bcd60e51b815260040162000dfc9062004b26565b60008681526014602090815260408083206001600160a01b038716845290915290205415801562001b8d575060008681526014602090815260408083206001600160a01b0387168452909152902060010154155b8062001bea575060008681526014602090815260408083206001600160a01b03871684529091529020548514801562001bea575060008681526014602090815260408083206001600160a01b038716845290915290206001015484115b62001c095760405162461bcd60e51b815260040162000dfc9062004b6c565b62001c178387878762002939565b505050505050565b8062001c2b3362002850565b101562001c9a5760405162461bcd60e51b815260206004820152603660248201527f45524332304775696c643a20556e61626c6520746f207769746864726177206d6044820152751bdc99481d1bdad95b9cc81d1a185b881b1bd8dad95960521b606482015260840162000dfc565b33600090815260126020526040902060010154421162001cfd5760405162461bcd60e51b815260206004820152601f60248201527f45524332304775696c643a20546f6b656e73207374696c6c206c6f636b656400604482015260640162000dfc565b6000811162001d755760405162461bcd60e51b815260206004820152603f60248201527f45524332304775696c643a20616d6f756e74206f6620746f6b656e7320746f2060448201527f7769746864726177206d7573742062652067726561746572207468616e203000606482015260840162000dfc565b3360009081526012602052604090205462001d9290829062004bd3565b33600090815260126020526040902055600e5462001db290829062004bd3565b600e5560115460405163f3fef3a360e01b8152336004820152602481018390526001600160a01b039091169063f3fef3a390604401600060405180830381600087803b15801562001e0257600080fd5b505af115801562001e17573d6000803e3d6000fd5b5050505062001e263362002850565b60000362001e43576001600b5462001e3f919062004bd3565b600b555b60408051338152602081018390527f6352c5382c4a4578e712449ca65e83cdb392d045dfcf1cad9615189db2da244b91015b60405180910390a150565b60156020526000908152604090208054600182015460028301546006840180546001600160a01b0390941694929391929162001ebc90620047a9565b80601f016020809104026020016040519081016040528092919081815260200182805462001eea90620047a9565b801562001f3b5780601f1062001f0f5761010080835404028352916020019162001f3b565b820191906000526020600020905b81548152906001019060200180831162001f1d57829003601f168201915b50505050509080600701805462001f5290620047a9565b80601f016020809104026020016040519081016040528092919081815260200182805462001f8090620047a9565b801562001fd15780601f1062001fa55761010080835404028352916020019162001fd1565b820191906000526020600020905b81548152906001019060200180831162001fb357829003601f168201915b5050506008909301549192505060ff1686565b60175462010000900460ff1680620020045750601754610100900460ff16155b620020235760405162461bcd60e51b815260040162000dfc9062004be9565b60175462010000900460ff1615801562002049576017805462ffff001916620101001790555b6200205362002bb1565b620020688c8c8c8c8c8c8c8c8c8c8c62002c40565b80156200207c576017805462ff0000191690555b505050505050505050505050565b6200209462003d97565b60008281526015602090815260409182902082516101408101845281546001600160a01b0316815260018201548184015260028201548185015260038201805485518186028101860190965280865291949293606086019392908301828280156200212957602002820191906000526020600020905b81546001600160a01b031681526001909101906020018083116200210a575b5050505050815260200160048201805480602002602001604051908101604052809291908181526020016000905b828210156200220d5783829060005260206000200180546200217990620047a9565b80601f0160208091040260200160405190810160405280929190818152602001828054620021a790620047a9565b8015620021f85780601f10620021cc57610100808354040283529160200191620021f8565b820191906000526020600020905b815481529060010190602001808311620021da57829003601f168201915b50505050508152602001906001019062002157565b505050508152602001600582018054806020026020016040519081016040528092919081815260200182805480156200226657602002820191906000526020600020905b81548152602001906001019080831162002251575b505050505081526020016006820180546200228190620047a9565b80601f0160208091040260200160405190810160405280929190818152602001828054620022af90620047a9565b8015620023005780601f10620022d45761010080835404028352916020019162002300565b820191906000526020600020905b815481529060010190602001808311620022e257829003601f168201915b505050505081526020016007820180546200231b90620047a9565b80601f01602080910402602001604051908101604052809291908181526020018280546200234990620047a9565b80156200239a5780601f106200236e576101008083540402835291602001916200239a565b820191906000526020600020905b8154815290600101906020018083116200237c57829003601f168201915b5050509183525050600882015460209091019060ff166004811115620023c457620023c46200443f565b6004811115620023d857620023d86200443f565b8152602001600982018054806020026020016040519081016040528092919081815260200182805480156200242d57602002820191906000526020600020905b81548152602001906001019080831162002418575b5050505050815250509050919050565b60008111620024aa5760405162461bcd60e51b815260206004820152603260248201527f45524332304775696c643a20546f6b656e7320746f206c6f636b2073686f756c60448201527106420626520686967686572207468616e20360741b606482015260840162000dfc565b620024b53362002850565b600003620024d157600b54620024cd906001620049ae565b600b555b6011546040516311f9fbc960e21b8152336004820152602481018390526001600160a01b03909116906347e7ef2490604401600060405180830381600087803b1580156200251e57600080fd5b505af115801562002533573d6000803e3d6000fd5b505033600090815260126020526040902054620025549250839150620049ae565b33600090815260126020526040902055600d54620025739042620049ae565b33600090815260126020526040902060010155600e5462002596908290620049ae565b600e5560408051338152602081018390527fac87f20a77d28ee8bbb58ec87ea8fa968b3393efae1a368fd50b767c2847391c910162001e75565b604a546001600160a01b031633146200262c5760405162461bcd60e51b815260206004820181905260248201527f4f776e61626c653a2063616c6c6572206973206e6f7420746865206f776e6572604482015260640162000dfc565b62002638600062002e88565b565b6040516bffffffffffffffffffffffff19606086901b166020820152603481018490526054810183905260748101829052600090609401604051602081830303815290604052805190602001209050949350505050565b600061271060055462000eb0600e5490565b60168181548110620026b457600080fd5b600091825260209091200154905081565b600160008281526015602052604090206008015460ff166004811115620026f057620026f06200443f565b14620027105760405162461bcd60e51b815260040162000dfc9062004842565b607c546001600160a01b03163303620027b1576000818152601560205260409020600201544211620027ab5760405162461bcd60e51b815260206004820152603960248201527f4775617264656445524332304775696c643a2050726f706f73616c206861736e60448201527f277420656e6465642079657420666f7220677561726469616e00000000000000606482015260840162000dfc565b62002842565b607d546000828152601560205260409020600201544291620027d4919062002eda565b10620028425760405162461bcd60e51b815260206004820152603660248201527f4775617264656445524332304775696c643a2050726f706f73616c206861736e60448201527509dd08195b991959081e595d08199bdc8819dd5a5b1960521b606482015260840162000dfc565b6200284d8162002eef565b50565b6001600160a01b031660009081526012602052604090205490565b604a546001600160a01b03163314620028c75760405162461bcd60e51b815260206004820181905260248201527f4f776e61626c653a2063616c6c6572206973206e6f7420746865206f776e6572604482015260640162000dfc565b6001600160a01b0381166200292e5760405162461bcd60e51b815260206004820152602660248201527f4f776e61626c653a206e6577206f776e657220697320746865207a65726f206160448201526564647265737360d01b606482015260840162000dfc565b6200284d8162002e88565b60008381526014602090815260408083206001600160a01b038816845282528083206001015486845260159092529091206009018054839291908590811062002986576200298662004c37565b90600052602060002001546200299d919062004bd3565b620029a99190620049ae565b6000848152601560205260409020600901805484908110620029cf57620029cf62004c37565b60009182526020808320909101929092558481526014825260408082206001600160a01b038816835283528082208581556001018490558582526015909252206002015462002a36856001600160a01b031660009081526012602052604090206001015490565b101562002a6b576000838152601560209081526040808320600201546001600160a01b03881684526012909252909120600101555b604080516001600160a01b038616815260208101839052839185917f583c62f152711bcb1ca6186c1065821ff17a7cbe226dcb559a1c889dcf0d769b910160405180910390a36007541562002b8157600062002ad36008543a6200382c90919063ffffffff16565b60075462002ae29190620047fb565b905080471062002b7f57604051600090339083908381818185875af1925050503d806000811462002b30576040519150601f19603f3d011682016040523d82523d6000602084013e62002b35565b606091505b505090508062001c175760405162461bcd60e51b81526020600482015260146024820152734661696c656420746f20726566756e642067617360601b604482015260640162000dfc565b505b50505050565b600080600062002b98858562003844565b9150915062002ba781620038b8565b5090505b92915050565b60175462010000900460ff168062002bd15750601754610100900460ff16155b62002bf05760405162461bcd60e51b815260040162000dfc9062004be9565b60175462010000900460ff1615801562002c16576017805462ffff001916620101001790555b62002c2062003a86565b62002c2a62003b00565b80156200284d576017805462ff00001916905550565b60175462010000900460ff168062002c605750601754610100900460ff16155b62002c7f5760405162461bcd60e51b815260040162000dfc9062004be9565b60175462010000900460ff1615801562002ca5576017805462ffff001916620101001790555b6001600160a01b038c1662002d0c5760405162461bcd60e51b815260206004820152602660248201527f45524332304775696c643a20746f6b656e2063616e74206265207a65726f206160448201526564647265737360d01b606482015260840162000dfc565b60008b1162002d2f5760405162461bcd60e51b815260040162000dfc906200488e565b8a83101562002d525760405162461bcd60e51b815260040162000dfc90620048dd565b6000891162002d755760405162461bcd60e51b815260040162000dfc906200493a565b600262002d83888262004a0e565b50600080546001600160a01b0319166001600160a01b038e16908117909155604051309062002db29062003e07565b6001600160a01b03928316815291166020820152604001604051809103906000f08015801562002de6573d6000803e3d6000fd5b50601180546001600160a01b03199081166001600160a01b039384161790915560038d905560048c905560058b905560068a9055600788905560088790556009869055600d859055600180549091169184169190911790556040517ff0454e7b3dd17b2d61d817c1ec7d3417104e974ed42b6e08d9f77f65ffad92b790600090a180156200207c576017805462ff000019169055505050505050505050505050565b604a80546001600160a01b038381166001600160a01b0319831681179093556040519116919082907f8be0079c531659141344cd1fd0a4f28419497f9722a3daafe3b4186f6b6457e090600090a35050565b600062002ee88284620049ae565b9392505050565b60175460ff161562002f505760405162461bcd60e51b8152602060048201526024808201527f45524332304775696c643a2050726f706f73616c20756e6465722065786563756044820152633a34b7b760e11b606482015260840162000dfc565b600160008281526015602052604090206008015460ff16600481111562002f7b5762002f7b6200443f565b1462002fd85760405162461bcd60e51b815260206004820152602560248201527f45524332304775696c643a2050726f706f73616c20616c72656164792065786560448201526418dd5d195960da1b606482015260840162000dfc565b6000818152601560205260409020600201544211620030485760405162461bcd60e51b815260206004820152602560248201527f45524332304775696c643a2050726f706f73616c206861736e277420656e646560448201526419081e595d60da1b606482015260840162000dfc565b6000818152601560205260408120600901805482919082906200306f576200306f62004c37565b600091825260209091200154905060015b600084815260156020526040902060090154811015620031ae57620030a462002691565b6000858152601560205260409020600901805483908110620030ca57620030ca62004c37565b906000526020600020015410158015620031165750600084815260156020526040902060090180548391908390811062003108576200310862004c37565b906000526020600020015410155b156200319957600084815260156020526040902060090180548391908390811062003145576200314562004c37565b90600052602060002001540362003160576000925062003199565b600084815260156020526040902060090180549193508391829081106200318b576200318b62004c37565b906000526020600020015491505b80620031a58162004c4d565b91505062003080565b8260000362003201576000848152601560205260409020600801805460ff1916600290811790915584906000805160206200554d833981519152905b60405190815260200160405180910390a262003812565b60045460008581526015602052604090206002015442916200322391620049ae565b101562003262576000848152601560205260409020600801805460ff1916600490811790915584906000805160206200554d83398151915290620031ea565b600084815260156020526040812060088101805460ff1916600317905560090154620032919060019062004bd3565b600086815260156020526040902060030154620032af91906200482b565b9050620032be60018562004bd3565b620032ca9082620047fb565b91506000620032da8284620049ae565b9050600160009054906101000a90046001600160a01b03166001600160a01b0316633e7a47b26040518163ffffffff1660e01b8152600401600060405180830381600087803b1580156200332d57600080fd5b505af115801562003342573d6000803e3d6000fd5b505050505b808310156200377b57600086815260156020526040812060030180548590811062003376576200337662004c37565b6000918252602090912001546001600160a01b031614801590620033d657506000868152601560205260408120600401805485908110620033bb57620033bb62004c37565b906000526020600020018054620033d290620047a9565b9050115b156200376657600086815260156020526040812060040180548590811062003402576200340262004c37565b9060005260206000200180546200341990620047a9565b80601f01602080910402602001604051908101604052809291908181526020018280546200344790620047a9565b8015620034985780601f106200346c5761010080835404028352916020019162003498565b820191906000526020600020905b8154815290600101906020018083116200347a57829003601f168201915b50505060208084015160015460008d815260159093526040909220600301805495965090946001600160a01b03909216935063eed470339250309189908110620034e657620034e662004c37565b9060005260206000200160009054906101000a90046001600160a01b031684601560008e81526020019081526020016000206005018a815481106200352f576200352f62004c37565b60009182526020909120015460405160e086901b6001600160e01b031990811682526001600160a01b039586166004830152939094166024850152911660448301526064820152608401600060405180830381600087803b1580156200359457600080fd5b505af1925050508015620035a6575060015b6200360157620035b562004c69565b806308c379a003620035f55750620035cc62004c86565b80620035d95750620035f7565b8060405162461bcd60e51b815260040162000dfc919062003f55565b505b3d6000803e3d6000fd5b6017805460ff19166001179055600088815260156020526040812060030180548790811062003634576200363462004c37565b60009182526020808320909101548b83526015909152604090912060050180546001600160a01b03909216918890811062003673576200367362004c37565b9060005260206000200154601560008c81526020019081526020016000206004018881548110620036a857620036a862004c37565b90600052602060002001604051620036c1919062004d16565b60006040518083038185875af1925050503d806000811462003700576040519150601f19603f3d011682016040523d82523d6000602084013e62003705565b606091505b5050905080620037585760405162461bcd60e51b815260206004820181905260248201527f45524332304775696c643a2050726f706f73616c2063616c6c206661696c6564604482015260640162000dfc565b50506017805460ff19169055505b82620037728162004c4d565b93505062003347565b60015460405163fb0fde8560e01b81523060048201526001600160a01b039091169063fb0fde8590602401602060405180830381865afa158015620037c4573d6000803e3d6000fd5b505050506040513d601f19601f82011682018060405250810190620037ea919062004d94565b50856000805160206200554d833981519152600360405190815260200160405180910390a250505b6001600c5462003823919062004bd3565b600c5550505050565b60008183106200383d578162002ee8565b5090919050565b60008082516041036200387e5760208301516040840151606085015160001a620038718782858562003b70565b94509450505050620011a4565b8251604003620038ab57602083015160408401516200389f86838362003c65565b935093505050620011a4565b50600090506002620011a4565b6000816004811115620038cf57620038cf6200443f565b03620038d85750565b6001816004811115620038ef57620038ef6200443f565b036200393e5760405162461bcd60e51b815260206004820152601860248201527f45434453413a20696e76616c6964207369676e61747572650000000000000000604482015260640162000dfc565b60028160048111156200395557620039556200443f565b03620039a45760405162461bcd60e51b815260206004820152601f60248201527f45434453413a20696e76616c6964207369676e6174757265206c656e67746800604482015260640162000dfc565b6003816004811115620039bb57620039bb6200443f565b0362003a155760405162461bcd60e51b815260206004820152602260248201527f45434453413a20696e76616c6964207369676e6174757265202773272076616c604482015261756560f01b606482015260840162000dfc565b600481600481111562003a2c5762003a2c6200443f565b036200284d5760405162461bcd60e51b815260206004820152602260248201527f45434453413a20696e76616c6964207369676e6174757265202776272076616c604482015261756560f01b606482015260840162000dfc565b60175462010000900460ff168062003aa65750601754610100900460ff16155b62003ac55760405162461bcd60e51b815260040162000dfc9062004be9565b60175462010000900460ff1615801562002c2a576017805462ffff0019166201010017905580156200284d576017805462ff00001916905550565b60175462010000900460ff168062003b205750601754610100900460ff16155b62003b3f5760405162461bcd60e51b815260040162000dfc9062004be9565b60175462010000900460ff1615801562003b65576017805462ffff001916620101001790555b62002c2a3362002e88565b6000807f7fffffffffffffffffffffffffffffff5d576e7357a4501ddfe92f46681b20a083111562003ba9575060009050600362003c5c565b8460ff16601b1415801562003bc257508460ff16601c14155b1562003bd5575060009050600462003c5c565b6040805160008082526020820180845289905260ff881692820192909252606081018690526080810185905260019060a0016020604051602081039080840390855afa15801562003c2a573d6000803e3d6000fd5b5050604051601f1901519150506001600160a01b03811662003c555760006001925092505062003c5c565b9150600090505b94509492505050565b6000806001600160ff1b03831660ff84901c601b0162003c888782888562003b70565b935093505050935093915050565b82805482825590600052602060002090810192821562003cee579160200282015b8281111562003cee57825182546001600160a01b0319166001600160a01b0390911617825560209092019160019091019062003cb7565b5062003cfc92915062003e15565b5090565b82805482825590600052602060002090810192821562003d4b579160200282015b8281111562003d4b578251829062003d3a908262004a0e565b509160200191906001019062003d21565b5062003cfc92915062003e2c565b82805482825590600052602060002090810192821562003cee579160200282015b8281111562003cee57825182559160200191906001019062003d7a565b60405180610140016040528060006001600160a01b03168152602001600081526020016000815260200160608152602001606081526020016060815260200160608152602001606081526020016000600481111562003dfa5762003dfa6200443f565b8152602001606081525090565b6107948062004db983390190565b5b8082111562003cfc576000815560010162003e16565b8082111562003cfc57600062003e43828262003e4d565b5060010162003e2c565b50805462003e5b90620047a9565b6000825580601f1062003e6c575050565b601f0160209004906000526020600020908101906200284d919062003e15565b6020808252825182820181905260009190848201906040850190845b8181101562003ec65783518352928401929184019160010162003ea8565b50909695505050505050565b80356001600160a01b038116811462003eea57600080fd5b919050565b60006020828403121562003f0257600080fd5b62002ee88262003ed2565b6000815180845260005b8181101562003f355760208185018101518683018201520162003f17565b506000602082860101526020601f19601f83011685010191505092915050565b60208152600062002ee8602083018462003f0d565b6000806040838503121562003f7e57600080fd5b62003f898362003ed2565b946020939093013593505050565b60006020828403121562003faa57600080fd5b5035919050565b6000806000806000806000806000806101408b8d03121562003fd257600080fd5b505088359a60208a01359a5060408a013599606081013599506080810135985060a0810135975060c0810135965060e081013595506101008101359450610120013592509050565b600080604083850312156200402e57600080fd5b82359150620040406020840162003ed2565b90509250929050565b634e487b7160e01b600052604160045260246000fd5b601f8201601f1916810167ffffffffffffffff8111828210171562004088576200408862004049565b6040525050565b600067ffffffffffffffff821115620040ac57620040ac62004049565b5060051b60200190565b600082601f830112620040c857600080fd5b81356020620040d7826200408f565b604051620040e682826200405f565b83815260059390931b85018201928281019150868411156200410757600080fd5b8286015b848110156200412d576200411f8162003ed2565b83529183019183016200410b565b509695505050505050565b600082601f8301126200414a57600080fd5b813567ffffffffffffffff81111562004167576200416762004049565b60405162004180601f8301601f1916602001826200405f565b8181528460208386010111156200419657600080fd5b816020850160208301376000918101602001919091529392505050565b600082601f830112620041c557600080fd5b81356020620041d4826200408f565b604051620041e382826200405f565b83815260059390931b85018201928281019150868411156200420457600080fd5b8286015b848110156200412d57803567ffffffffffffffff8111156200422a5760008081fd5b6200423a8986838b010162004138565b84525091830191830162004208565b600082601f8301126200425b57600080fd5b813560206200426a826200408f565b6040516200427982826200405f565b83815260059390931b85018201928281019150868411156200429a57600080fd5b8286015b848110156200412d57803583529183019183016200429e565b60008060008060008060c08789031215620042d157600080fd5b863567ffffffffffffffff80821115620042ea57600080fd5b620042f88a838b01620040b6565b975060208901359150808211156200430f57600080fd5b6200431d8a838b01620041b3565b965060408901359150808211156200433457600080fd5b620043428a838b0162004249565b95506060890135945060808901359150808211156200436057600080fd5b6200436e8a838b0162004138565b935060a08901359150808211156200438557600080fd5b506200439489828a0162004138565b9150509295509295509295565b600080600060608486031215620043b757600080fd5b505081359360208301359350604090920135919050565b600080600080600060a08688031215620043e757600080fd5b853594506020860135935060408601359250620044076060870162003ed2565b9150608086013567ffffffffffffffff8111156200442457600080fd5b620044328882890162004138565b9150509295509295909350565b634e487b7160e01b600052602160045260246000fd5b600581106200447457634e487b7160e01b600052602160045260246000fd5b9052565b60018060a01b038716815285602082015284604082015260c060608201526000620044a760c083018662003f0d565b8281036080840152620044bb818662003f0d565b915050620044cd60a083018462004455565b979650505050505050565b60008060008060008060008060008060006101608c8e031215620044fb57600080fd5b620045068c62003ed2565b9a5060208c0135995060408c0135985060608c0135975060808c0135965060a08c013567ffffffffffffffff8111156200453f57600080fd5b6200454d8e828f0162004138565b96505060c08c0135945060e08c013593506101008c013592506101208c013591506200457d6101408d0162003ed2565b90509295989b509295989b9093969950565b600081518084526020808501945080840160005b83811015620045ca5781516001600160a01b031687529582019590820190600101620045a3565b509495945050505050565b600081518084526020808501808196508360051b8101915082860160005b85811015620046215782840389526200460e84835162003f0d565b98850198935090840190600101620045f3565b5091979650505050505050565b600081518084526020808501945080840160005b83811015620045ca5781518752958201959082019060010162004642565b602081526200467b6020820183516001600160a01b03169052565b602082015160408201526040820151606082015260006060830151610140806080850152620046af6101608501836200458f565b91506080850151601f19808685030160a0870152620046cf8483620045d5565b935060a08701519150808685030160c0870152620046ee84836200462e565b935060c08701519150808685030160e08701526200470d848362003f0d565b935060e087015191506101008187860301818801526200472e858462003f0d565b945080880151925050610120620047488188018462004455565b8701518685039091018387015290506200476383826200462e565b9695505050505050565b600080600080608085870312156200478457600080fd5b6200478f8562003ed2565b966020860135965060408601359560600135945092505050565b600181811c90821680620047be57607f821691505b602082108103620047df57634e487b7160e01b600052602260045260246000fd5b50919050565b634e487b7160e01b600052601160045260246000fd5b808202811582820484141762002bab5762002bab620047e5565b634e487b7160e01b600052601260045260246000fd5b6000826200483d576200483d62004815565b500490565b6020808252602c908201527f4775617264656445524332304775696c643a2050726f706f73616c20616c726560408201526b18591e48195e1958dd5d195960a21b606082015260800190565b6020808252602f908201527f45524332304775696c643a2070726f706f73616c2074696d652068617320746f60408201526e0206265206d6f7265207468616e203608c1b606082015260800190565b6020808252603e908201527f45524332304775696c643a206c6f636b54696d652068617320746f206265206860408201527f6967686572206f7220657175616c20746f2070726f706f73616c54696d650000606082015260800190565b6020808252603c908201527f45524332304775696c643a20766f74696e6720706f77657220666f722065786560408201527f637574696f6e2068617320746f206265206d6f7265207468616e203000000000606082015260800190565b600082620049a957620049a962004815565b500690565b8082018082111562002bab5762002bab620047e5565b601f821115620018bf57600081815260208120601f850160051c81016020861015620049ed5750805b601f850160051c820191505b8181101562001c1757828155600101620049f9565b815167ffffffffffffffff81111562004a2b5762004a2b62004049565b62004a438162004a3c8454620047a9565b84620049c4565b602080601f83116001811462004a7b576000841562004a625750858301515b600019600386901b1c1916600185901b17855562001c17565b600085815260208120601f198616915b8281101562004aac5788860151825594840194600190910190840162004a8b565b508582101562004acb5787850151600019600388901b60f8161c191681555b5050505050600190811b01905550565b6020808252602b908201527f45524332304775696c643a2050726f706f73616c20656e6465642c2063616e6e60408201526a1bdd081899481d9bdd195960aa1b606082015260800190565b60208082526026908201527f45524332304775696c643a20496e76616c696420766f74696e67506f77657220604082015265185b5bdd5b9d60d21b606082015260800190565b60208082526041908201527f45524332304775696c643a2043616e6e6f74206368616e6765206f7074696f6e60408201527f20766f7465642c206f6e6c7920696e63726561736520766f74696e67506f77656060820152603960f91b608082015260a00190565b8181038181111562002bab5762002bab620047e5565b6020808252602e908201527f496e697469616c697a61626c653a20636f6e747261637420697320616c72656160408201526d191e481a5b9a5d1a585b1a5e995960921b606082015260800190565b634e487b7160e01b600052603260045260246000fd5b60006001820162004c625762004c62620047e5565b5060010190565b600060033d111562004c835760046000803e5060005160e01c5b90565b600060443d101562004c955790565b6040516003193d81016004833e81513d67ffffffffffffffff816024840111818411171562004cc657505050505090565b828501915081518181111562004cdf5750505050505090565b843d870101602082850101111562004cfa5750505050505090565b62004d0b602082860101876200405f565b509095945050505050565b600080835462004d2681620047a9565b6001828116801562004d41576001811462004d575762004d88565b60ff198416875282151583028701945062004d88565b8760005260208060002060005b8581101562004d7f5781548a82015290840190820162004d64565b50505082870194505b50929695505050505050565b60006020828403121562004da757600080fd5b8151801515811462002ee857600080fdfe608060405234801561001057600080fd5b5060405161079438038061079483398101604081905261002f9161007c565b600080546001600160a01b039384166001600160a01b031991821617909155600180549290931691161790556100af565b80516001600160a01b038116811461007757600080fd5b919050565b6000806040838503121561008f57600080fd5b61009883610060565b91506100a660208401610060565b90509250929050565b6106d6806100be6000396000f3fe608060405234801561001057600080fd5b506004361061007d5760003560e01c80636e9960c31161005b5780636e9960c3146100ef578063f3fef3a314610100578063f851a44014610113578063fc0c546a1461012657600080fd5b806321df0da71461008257806327e235e3146100ac57806347e7ef24146100da575b600080fd5b6000546001600160a01b03165b6040516001600160a01b0390911681526020015b60405180910390f35b6100cc6100ba36600461058a565b60026020526000908152604090205481565b6040519081526020016100a3565b6100ed6100e83660046105a5565b610139565b005b6001546001600160a01b031661008f565b6100ed61010e3660046105a5565b61020a565b60015461008f906001600160a01b031681565b60005461008f906001600160a01b031681565b6001546001600160a01b031633146101af5760405162461bcd60e51b815260206004820152602e60248201527f546f6b656e5661756c743a204465706f736974206d7573742062652073656e7460448201526d103a343937bab3b41030b236b4b760911b60648201526084015b60405180910390fd5b6000546101c7906001600160a01b031683308461025b565b6001600160a01b0382166000908152600260205260409020546101ea90826102cc565b6001600160a01b0390921660009081526002602052604090209190915550565b6001546001600160a01b0316331461022157600080fd5b600054610238906001600160a01b031683836102e1565b6001600160a01b0382166000908152600260205260409020546101ea9082610316565b6040516001600160a01b03808516602483015283166044820152606481018290526102c69085906323b872dd60e01b906084015b60408051601f198184030181529190526020810180516001600160e01b03166001600160e01b031990931692909217909152610322565b50505050565b60006102d882846105e5565b90505b92915050565b6040516001600160a01b03831660248201526044810182905261031190849063a9059cbb60e01b9060640161028f565b505050565b60006102d882846105f8565b6000610377826040518060400160405280602081526020017f5361666545524332303a206c6f772d6c6576656c2063616c6c206661696c6564815250856001600160a01b03166103f49092919063ffffffff16565b8051909150156103115780806020019051810190610395919061060b565b6103115760405162461bcd60e51b815260206004820152602a60248201527f5361666545524332303a204552433230206f7065726174696f6e20646964206e6044820152691bdd081cdd58d8d9595960b21b60648201526084016101a6565b6060610403848460008561040d565b90505b9392505050565b60608247101561046e5760405162461bcd60e51b815260206004820152602660248201527f416464726573733a20696e73756666696369656e742062616c616e636520666f6044820152651c8818d85b1b60d21b60648201526084016101a6565b843b6104bc5760405162461bcd60e51b815260206004820152601d60248201527f416464726573733a2063616c6c20746f206e6f6e2d636f6e747261637400000060448201526064016101a6565b600080866001600160a01b031685876040516104d89190610651565b60006040518083038185875af1925050503d8060008114610515576040519150601f19603f3d011682016040523d82523d6000602084013e61051a565b606091505b509150915061052a828286610535565b979650505050505050565b60608315610544575081610406565b8251156105545782518084602001fd5b8160405162461bcd60e51b81526004016101a6919061066d565b80356001600160a01b038116811461058557600080fd5b919050565b60006020828403121561059c57600080fd5b6102d88261056e565b600080604083850312156105b857600080fd5b6105c18361056e565b946020939093013593505050565b634e487b7160e01b600052601160045260246000fd5b808201808211156102db576102db6105cf565b818103818111156102db576102db6105cf565b60006020828403121561061d57600080fd5b8151801515811461040657600080fd5b60005b83811015610648578181015183820152602001610630565b50506000910152565b6000825161066381846020870161062d565b9190910192915050565b602081526000825180602084015261068c81604085016020870161062d565b601f01601f1916919091016040019291505056fea26469706673582212200dc40e929cb7cd09eab9a5dff5e560bcf87fefdb78df12750c3659d40d03ae5e64736f6c63430008110033fee62a9eec0be50eb061c711990ef0f1e17b40ea131d9347b0468acdaf8bf243a2646970667358221220e0f2c779467e38be79bcaaa4445efd709f5ab2adb1f5a15fa9b95e57e589c4db64736f6c63430008110033",
  "linkReferences": {},
  "deployedLinkReferences": {}
}