{
  "_format": "hh-sol-artifact-1",
  "contractName": "MigratableERC20Guild",
  "sourceName": "contracts/erc20guild/implementations/MigratableERC20Guild.sol",
  "abi": [
    {
      "inputs": [
        {
          "internalType": "address",
          "name": "_token",
          "type": "address"
        },
        {
          "internalType": "uint256",
          "name": "_proposalTime",
          "type": "uint256"
        },
        {
          "internalType": "uint256",
          "name": "_votingPowerPercentageForProposalExecution",
          "type": "uint256"
        },
        {
          "internalType": "uint256",
          "name": "_votingPowerPercentageForProposalCreation",
          "type": "uint256"
        },
        {
          "internalType": "string",
          "name": "_name",
          "type": "string"
        },
        {
          "internalType": "uint256",
          "name": "_lockTime",
          "type": "uint256"
        },
        {
          "internalType": "address",
          "name": "_permissionRegistry",
          "type": "address"
        }
      ],
      "stateMutability": "nonpayable",
      "type": "constructor"
    },
    {
      "anonymous": false,
      "inputs": [],
      "name": "GuildInitialized",
      "type": "event"
    },
    {
      "anonymous": false,
      "inputs": [
        {
          "indexed": true,
          "internalType": "bytes32",
          "name": "proposalId",
          "type": "bytes32"
        },
        {
          "indexed": false,
          "internalType": "uint256",
          "name": "newState",
          "type": "uint256"
        }
      ],
      "name": "ProposalStateChanged",
      "type": "event"
    },
    {
      "anonymous": false,
      "inputs": [
        {
          "indexed": false,
          "internalType": "address",
          "name": "voter",
          "type": "address"
        },
        {
          "indexed": false,
          "internalType": "uint256",
          "name": "value",
          "type": "uint256"
        }
      ],
      "name": "TokensLocked",
      "type": "event"
    },
    {
      "anonymous": false,
      "inputs": [
        {
          "indexed": false,
          "internalType": "address",
          "name": "voter",
          "type": "address"
        },
        {
          "indexed": false,
          "internalType": "uint256",
          "name": "value",
          "type": "uint256"
        }
      ],
      "name": "TokensWithdrawn",
      "type": "event"
    },
    {
      "anonymous": false,
      "inputs": [
        {
          "indexed": true,
          "internalType": "bytes32",
          "name": "proposalId",
          "type": "bytes32"
        },
        {
          "indexed": true,
          "internalType": "uint256",
          "name": "option",
          "type": "uint256"
        },
        {
          "indexed": false,
          "internalType": "address",
          "name": "voter",
          "type": "address"
        },
        {
          "indexed": false,
          "internalType": "uint256",
          "name": "votingPower",
          "type": "uint256"
        }
      ],
      "name": "VoteAdded",
      "type": "event"
    },
    {
      "stateMutability": "payable",
      "type": "fallback"
    },
    {
      "inputs": [],
      "name": "MAX_OPTIONS_PER_PROPOSAL",
      "outputs": [
        {
          "internalType": "uint8",
          "name": "",
          "type": "uint8"
        }
      ],
      "stateMutability": "view",
      "type": "function"
    },
    {
      "inputs": [],
      "name": "activeProposalsNow",
      "outputs": [
        {
          "internalType": "uint256",
          "name": "",
          "type": "uint256"
        }
      ],
      "stateMutability": "view",
      "type": "function"
    },
    {
      "inputs": [
        {
          "internalType": "address",
          "name": "newTokenVault",
          "type": "address"
        }
      ],
      "name": "changeTokenVault",
      "outputs": [],
      "stateMutability": "nonpayable",
      "type": "function"
    },
    {
      "inputs": [
        {
          "internalType": "address[]",
          "name": "to",
          "type": "address[]"
        },
        {
          "internalType": "bytes[]",
          "name": "data",
          "type": "bytes[]"
        },
        {
          "internalType": "uint256[]",
          "name": "value",
          "type": "uint256[]"
        },
        {
          "internalType": "uint256",
          "name": "totalOptions",
          "type": "uint256"
        },
        {
          "internalType": "string",
          "name": "title",
          "type": "string"
        },
        {
          "internalType": "string",
          "name": "contentHash",
          "type": "string"
        }
      ],
      "name": "createProposal",
      "outputs": [
        {
          "internalType": "bytes32",
          "name": "",
          "type": "bytes32"
        }
      ],
      "stateMutability": "nonpayable",
      "type": "function"
    },
    {
      "inputs": [
        {
          "internalType": "bytes32",
          "name": "proposalId",
          "type": "bytes32"
        }
      ],
      "name": "endProposal",
      "outputs": [],
      "stateMutability": "nonpayable",
      "type": "function"
    },
    {
      "inputs": [],
      "name": "getActiveProposalsNow",
      "outputs": [
        {
          "internalType": "uint256",
          "name": "",
          "type": "uint256"
        }
      ],
      "stateMutability": "view",
      "type": "function"
    },
    {
      "inputs": [],
      "name": "getLockTime",
      "outputs": [
        {
          "internalType": "uint256",
          "name": "",
          "type": "uint256"
        }
      ],
      "stateMutability": "view",
      "type": "function"
    },
    {
      "inputs": [],
      "name": "getMaxActiveProposals",
      "outputs": [
        {
          "internalType": "uint256",
          "name": "",
          "type": "uint256"
        }
      ],
      "stateMutability": "view",
      "type": "function"
    },
    {
      "inputs": [],
      "name": "getMaxGasPrice",
      "outputs": [
        {
          "internalType": "uint256",
          "name": "",
          "type": "uint256"
        }
      ],
      "stateMutability": "view",
      "type": "function"
    },
    {
      "inputs": [],
      "name": "getMinimumMembersForProposalCreation",
      "outputs": [
        {
          "internalType": "uint256",
          "name": "",
          "type": "uint256"
        }
      ],
      "stateMutability": "view",
      "type": "function"
    },
    {
      "inputs": [],
      "name": "getMinimumTokensLockedForProposalCreation",
      "outputs": [
        {
          "internalType": "uint256",
          "name": "",
          "type": "uint256"
        }
      ],
      "stateMutability": "view",
      "type": "function"
    },
    {
      "inputs": [],
      "name": "getName",
      "outputs": [
        {
          "internalType": "string",
          "name": "",
          "type": "string"
        }
      ],
      "stateMutability": "view",
      "type": "function"
    },
    {
      "inputs": [],
      "name": "getPermissionRegistry",
      "outputs": [
        {
          "internalType": "address",
          "name": "",
          "type": "address"
        }
      ],
      "stateMutability": "view",
      "type": "function"
    },
    {
      "inputs": [
        {
          "internalType": "bytes32",
          "name": "proposalId",
          "type": "bytes32"
        }
      ],
      "name": "getProposal",
      "outputs": [
        {
          "components": [
            {
              "internalType": "address",
              "name": "creator",
              "type": "address"
            },
            {
              "internalType": "uint256",
              "name": "startTime",
              "type": "uint256"
            },
            {
              "internalType": "uint256",
              "name": "endTime",
              "type": "uint256"
            },
            {
              "internalType": "address[]",
              "name": "to",
              "type": "address[]"
            },
            {
              "internalType": "bytes[]",
              "name": "data",
              "type": "bytes[]"
            },
            {
              "internalType": "uint256[]",
              "name": "value",
              "type": "uint256[]"
            },
            {
              "internalType": "string",
              "name": "title",
              "type": "string"
            },
            {
              "internalType": "string",
              "name": "contentHash",
              "type": "string"
            },
            {
              "internalType": "enum BaseERC20Guild.ProposalState",
              "name": "state",
              "type": "uint8"
            },
            {
              "internalType": "uint256[]",
              "name": "totalVotes",
              "type": "uint256[]"
            }
          ],
          "internalType": "struct BaseERC20Guild.Proposal",
          "name": "",
          "type": "tuple"
        }
      ],
      "stateMutability": "view",
      "type": "function"
    },
    {
      "inputs": [],
      "name": "getProposalTime",
      "outputs": [
        {
          "internalType": "uint256",
          "name": "",
          "type": "uint256"
        }
      ],
      "stateMutability": "view",
      "type": "function"
    },
    {
      "inputs": [
        {
          "internalType": "bytes32",
          "name": "proposalId",
          "type": "bytes32"
        },
        {
          "internalType": "address",
          "name": "voter",
          "type": "address"
        }
      ],
      "name": "getProposalVotesOfVoter",
      "outputs": [
        {
          "internalType": "uint256",
          "name": "option",
          "type": "uint256"
        },
        {
          "internalType": "uint256",
          "name": "votingPower",
          "type": "uint256"
        }
      ],
      "stateMutability": "view",
      "type": "function"
    },
    {
      "inputs": [],
      "name": "getProposalsIds",
      "outputs": [
        {
          "internalType": "bytes32[]",
          "name": "",
          "type": "bytes32[]"
        }
      ],
      "stateMutability": "view",
      "type": "function"
    },
    {
      "inputs": [],
      "name": "getProposalsIdsLength",
      "outputs": [
        {
          "internalType": "uint256",
          "name": "",
          "type": "uint256"
        }
      ],
      "stateMutability": "view",
      "type": "function"
    },
    {
      "inputs": [
        {
          "internalType": "bytes32",
          "name": "signedVoteHash",
          "type": "bytes32"
        }
      ],
      "name": "getSignedVote",
      "outputs": [
        {
          "internalType": "bool",
          "name": "",
          "type": "bool"
        }
      ],
      "stateMutability": "view",
      "type": "function"
    },
    {
      "inputs": [],
      "name": "getTimeForExecution",
      "outputs": [
        {
          "internalType": "uint256",
          "name": "",
          "type": "uint256"
        }
      ],
      "stateMutability": "view",
      "type": "function"
    },
    {
      "inputs": [],
      "name": "getToken",
      "outputs": [
        {
          "internalType": "address",
          "name": "",
          "type": "address"
        }
      ],
      "stateMutability": "view",
      "type": "function"
    },
    {
      "inputs": [],
      "name": "getTokenVault",
      "outputs": [
        {
          "internalType": "address",
          "name": "",
          "type": "address"
        }
      ],
      "stateMutability": "view",
      "type": "function"
    },
    {
      "inputs": [],
      "name": "getTotalLocked",
      "outputs": [
        {
          "internalType": "uint256",
          "name": "",
          "type": "uint256"
        }
      ],
      "stateMutability": "view",
      "type": "function"
    },
    {
      "inputs": [],
      "name": "getTotalMembers",
      "outputs": [
        {
          "internalType": "uint256",
          "name": "",
          "type": "uint256"
        }
      ],
      "stateMutability": "view",
      "type": "function"
    },
    {
      "inputs": [],
      "name": "getTotalProposals",
      "outputs": [
        {
          "internalType": "uint256",
          "name": "",
          "type": "uint256"
        }
      ],
      "stateMutability": "view",
      "type": "function"
    },
    {
      "inputs": [],
      "name": "getVoteGas",
      "outputs": [
        {
          "internalType": "uint256",
          "name": "",
          "type": "uint256"
        }
      ],
      "stateMutability": "view",
      "type": "function"
    },
    {
      "inputs": [
        {
          "internalType": "address",
          "name": "voter",
          "type": "address"
        }
      ],
      "name": "getVoterLockTimestamp",
      "outputs": [
        {
          "internalType": "uint256",
          "name": "",
          "type": "uint256"
        }
      ],
      "stateMutability": "view",
      "type": "function"
    },
    {
      "inputs": [],
      "name": "getVotingPowerForProposalCreation",
      "outputs": [
        {
          "internalType": "uint256",
          "name": "",
          "type": "uint256"
        }
      ],
      "stateMutability": "view",
      "type": "function"
    },
    {
      "inputs": [],
      "name": "getVotingPowerForProposalExecution",
      "outputs": [
        {
          "internalType": "uint256",
          "name": "",
          "type": "uint256"
        }
      ],
      "stateMutability": "view",
      "type": "function"
    },
    {
      "inputs": [
        {
          "internalType": "address",
          "name": "voter",
          "type": "address"
        },
        {
          "internalType": "bytes32",
          "name": "proposalId",
          "type": "bytes32"
        },
        {
          "internalType": "uint256",
          "name": "option",
          "type": "uint256"
        },
        {
          "internalType": "uint256",
          "name": "votingPower",
          "type": "uint256"
        }
      ],
      "name": "hashVote",
      "outputs": [
        {
          "internalType": "bytes32",
          "name": "",
          "type": "bytes32"
        }
      ],
      "stateMutability": "pure",
      "type": "function"
    },
    {
      "inputs": [],
      "name": "lastMigrationTimestamp",
      "outputs": [
        {
          "internalType": "uint256",
          "name": "",
          "type": "uint256"
        }
      ],
      "stateMutability": "view",
      "type": "function"
    },
    {
      "inputs": [
        {
          "internalType": "uint256",
          "name": "tokenAmount",
          "type": "uint256"
        },
        {
          "internalType": "address",
          "name": "_tokenVault",
          "type": "address"
        }
      ],
      "name": "lockExternalTokens",
      "outputs": [],
      "stateMutability": "nonpayable",
      "type": "function"
    },
    {
      "inputs": [],
      "name": "lockTime",
      "outputs": [
        {
          "internalType": "uint256",
          "name": "",
          "type": "uint256"
        }
      ],
      "stateMutability": "view",
      "type": "function"
    },
    {
      "inputs": [
        {
          "internalType": "uint256",
          "name": "tokenAmount",
          "type": "uint256"
        }
      ],
      "name": "lockTokens",
      "outputs": [],
      "stateMutability": "nonpayable",
      "type": "function"
    },
    {
      "inputs": [],
      "name": "maxActiveProposals",
      "outputs": [
        {
          "internalType": "uint256",
          "name": "",
          "type": "uint256"
        }
      ],
      "stateMutability": "view",
      "type": "function"
    },
    {
      "inputs": [],
      "name": "maxGasPrice",
      "outputs": [
        {
          "internalType": "uint256",
          "name": "",
          "type": "uint256"
        }
      ],
      "stateMutability": "view",
      "type": "function"
    },
    {
      "inputs": [],
      "name": "minimumMembersForProposalCreation",
      "outputs": [
        {
          "internalType": "uint256",
          "name": "",
          "type": "uint256"
        }
      ],
      "stateMutability": "view",
      "type": "function"
    },
    {
      "inputs": [],
      "name": "minimumTokensLockedForProposalCreation",
      "outputs": [
        {
          "internalType": "uint256",
          "name": "",
          "type": "uint256"
        }
      ],
      "stateMutability": "view",
      "type": "function"
    },
    {
      "inputs": [],
      "name": "name",
      "outputs": [
        {
          "internalType": "string",
          "name": "",
          "type": "string"
        }
      ],
      "stateMutability": "view",
      "type": "function"
    },
    {
      "inputs": [],
      "name": "proposalTime",
      "outputs": [
        {
          "internalType": "uint256",
          "name": "",
          "type": "uint256"
        }
      ],
      "stateMutability": "view",
      "type": "function"
    },
    {
      "inputs": [
        {
          "internalType": "bytes32",
          "name": "",
          "type": "bytes32"
        },
        {
          "internalType": "address",
          "name": "",
          "type": "address"
        }
      ],
      "name": "proposalVotes",
      "outputs": [
        {
          "internalType": "uint256",
          "name": "option",
          "type": "uint256"
        },
        {
          "internalType": "uint256",
          "name": "votingPower",
          "type": "uint256"
        }
      ],
      "stateMutability": "view",
      "type": "function"
    },
    {
      "inputs": [
        {
          "internalType": "bytes32",
          "name": "",
          "type": "bytes32"
        }
      ],
      "name": "proposals",
      "outputs": [
        {
          "internalType": "address",
          "name": "creator",
          "type": "address"
        },
        {
          "internalType": "uint256",
          "name": "startTime",
          "type": "uint256"
        },
        {
          "internalType": "uint256",
          "name": "endTime",
          "type": "uint256"
        },
        {
          "internalType": "string",
          "name": "title",
          "type": "string"
        },
        {
          "internalType": "string",
          "name": "contentHash",
          "type": "string"
        },
        {
          "internalType": "enum BaseERC20Guild.ProposalState",
          "name": "state",
          "type": "uint8"
        }
      ],
      "stateMutability": "view",
      "type": "function"
    },
    {
      "inputs": [
        {
          "internalType": "uint256",
          "name": "",
          "type": "uint256"
        }
      ],
      "name": "proposalsIds",
      "outputs": [
        {
          "internalType": "bytes32",
          "name": "",
          "type": "bytes32"
        }
      ],
      "stateMutability": "view",
      "type": "function"
    },
    {
      "inputs": [
        {
          "internalType": "uint256",
          "name": "_proposalTime",
          "type": "uint256"
        },
        {
          "internalType": "uint256",
          "name": "_timeForExecution",
          "type": "uint256"
        },
        {
          "internalType": "uint256",
          "name": "_votingPowerPercentageForProposalExecution",
          "type": "uint256"
        },
        {
          "internalType": "uint256",
          "name": "_votingPowerPercentageForProposalCreation",
          "type": "uint256"
        },
        {
          "internalType": "uint256",
          "name": "_voteGas",
          "type": "uint256"
        },
        {
          "internalType": "uint256",
          "name": "_maxGasPrice",
          "type": "uint256"
        },
        {
          "internalType": "uint256",
          "name": "_maxActiveProposals",
          "type": "uint256"
        },
        {
          "internalType": "uint256",
          "name": "_lockTime",
          "type": "uint256"
        },
        {
          "internalType": "uint256",
          "name": "_minimumMembersForProposalCreation",
          "type": "uint256"
        },
        {
          "internalType": "uint256",
          "name": "_minimumTokensLockedForProposalCreation",
          "type": "uint256"
        }
      ],
      "name": "setConfig",
      "outputs": [],
      "stateMutability": "nonpayable",
      "type": "function"
    },
    {
      "inputs": [
        {
          "internalType": "bytes32",
          "name": "proposalId",
          "type": "bytes32"
        },
        {
          "internalType": "uint256",
          "name": "option",
          "type": "uint256"
        },
        {
          "internalType": "uint256",
          "name": "votingPower",
          "type": "uint256"
        },
        {
          "internalType": "address",
          "name": "voter",
          "type": "address"
        },
        {
          "internalType": "bytes",
          "name": "signature",
          "type": "bytes"
        }
      ],
      "name": "setSignedVote",
      "outputs": [],
      "stateMutability": "nonpayable",
      "type": "function"
    },
    {
      "inputs": [
        {
          "internalType": "bytes32",
          "name": "proposalId",
          "type": "bytes32"
        },
        {
          "internalType": "uint256",
          "name": "option",
          "type": "uint256"
        },
        {
          "internalType": "uint256",
          "name": "votingPower",
          "type": "uint256"
        }
      ],
      "name": "setVote",
      "outputs": [],
      "stateMutability": "nonpayable",
      "type": "function"
    },
    {
      "inputs": [
        {
          "internalType": "bytes32",
          "name": "",
          "type": "bytes32"
        }
      ],
      "name": "signedVotes",
      "outputs": [
        {
          "internalType": "bool",
          "name": "",
          "type": "bool"
        }
      ],
      "stateMutability": "view",
      "type": "function"
    },
    {
      "inputs": [],
      "name": "timeForExecution",
      "outputs": [
        {
          "internalType": "uint256",
          "name": "",
          "type": "uint256"
        }
      ],
      "stateMutability": "view",
      "type": "function"
    },
    {
      "inputs": [],
      "name": "token",
      "outputs": [
        {
          "internalType": "contract IERC20Upgradeable",
          "name": "",
          "type": "address"
        }
      ],
      "stateMutability": "view",
      "type": "function"
    },
    {
      "inputs": [],
      "name": "tokenVault",
      "outputs": [
        {
          "internalType": "contract TokenVault",
          "name": "",
          "type": "address"
        }
      ],
      "stateMutability": "view",
      "type": "function"
    },
    {
      "inputs": [
        {
          "internalType": "address",
          "name": "",
          "type": "address"
        }
      ],
      "name": "tokensLocked",
      "outputs": [
        {
          "internalType": "uint256",
          "name": "amount",
          "type": "uint256"
        },
        {
          "internalType": "uint256",
          "name": "timestamp",
          "type": "uint256"
        }
      ],
      "stateMutability": "view",
      "type": "function"
    },
    {
      "inputs": [
        {
          "internalType": "address",
          "name": "",
          "type": "address"
        },
        {
          "internalType": "address",
          "name": "",
          "type": "address"
        }
      ],
      "name": "tokensLockedByVault",
      "outputs": [
        {
          "internalType": "uint256",
          "name": "amount",
          "type": "uint256"
        },
        {
          "internalType": "uint256",
          "name": "timestamp",
          "type": "uint256"
        }
      ],
      "stateMutability": "view",
      "type": "function"
    },
    {
      "inputs": [],
      "name": "totalLocked",
      "outputs": [
        {
          "internalType": "uint256",
          "name": "",
          "type": "uint256"
        }
      ],
      "stateMutability": "view",
      "type": "function"
    },
    {
      "inputs": [
        {
          "internalType": "address",
          "name": "",
          "type": "address"
        }
      ],
      "name": "totalLockedByVault",
      "outputs": [
        {
          "internalType": "uint256",
          "name": "",
          "type": "uint256"
        }
      ],
      "stateMutability": "view",
      "type": "function"
    },
    {
      "inputs": [],
      "name": "totalProposals",
      "outputs": [
        {
          "internalType": "uint256",
          "name": "",
          "type": "uint256"
        }
      ],
      "stateMutability": "view",
      "type": "function"
    },
    {
      "inputs": [],
      "name": "voteGas",
      "outputs": [
        {
          "internalType": "uint256",
          "name": "",
          "type": "uint256"
        }
      ],
      "stateMutability": "view",
      "type": "function"
    },
    {
      "inputs": [
        {
          "internalType": "address",
          "name": "account",
          "type": "address"
        }
      ],
      "name": "votingPowerOf",
      "outputs": [
        {
          "internalType": "uint256",
          "name": "",
          "type": "uint256"
        }
      ],
      "stateMutability": "view",
      "type": "function"
    },
    {
      "inputs": [],
      "name": "votingPowerPercentageForProposalCreation",
      "outputs": [
        {
          "internalType": "uint256",
          "name": "",
          "type": "uint256"
        }
      ],
      "stateMutability": "view",
      "type": "function"
    },
    {
      "inputs": [],
      "name": "votingPowerPercentageForProposalExecution",
      "outputs": [
        {
          "internalType": "uint256",
          "name": "",
          "type": "uint256"
        }
      ],
      "stateMutability": "view",
      "type": "function"
    },
    {
      "inputs": [
        {
          "internalType": "uint256",
          "name": "tokenAmount",
          "type": "uint256"
        },
        {
          "internalType": "address",
          "name": "_tokenVault",
          "type": "address"
        }
      ],
      "name": "withdrawExternalTokens",
      "outputs": [],
      "stateMutability": "nonpayable",
      "type": "function"
    },
    {
      "inputs": [
        {
          "internalType": "uint256",
          "name": "tokenAmount",
          "type": "uint256"
        }
      ],
      "name": "withdrawTokens",
      "outputs": [],
      "stateMutability": "nonpayable",
      "type": "function"
    }
  ],
  "bytecode": "0x60806040523480156200001157600080fd5b5060405162005f2838038062005f28833981016040819052620000349162000349565b868686868686866001600160a01b038716620000a65760405162461bcd60e51b815260206004820152602660248201527f45524332304775696c643a20746f6b656e2063616e74206265207a65726f206160448201526564647265737360d01b60648201526084015b60405180910390fd5b600086116200010f5760405162461bcd60e51b815260206004820152602e60248201527f45524332304775696c643a2070726f706f73616c2074696d652068617320746f60448201526d0206265206d6f72652074686120360941b60648201526084016200009d565b85821015620001875760405162461bcd60e51b815260206004820152603e60248201527f45524332304775696c643a206c6f636b54696d652068617320746f206265206860448201527f6967686572206f7220657175616c20746f2070726f706f73616c54696d65000060648201526084016200009d565b60008511620001ff5760405162461bcd60e51b815260206004820152603c60248201527f45524332304775696c643a20766f74696e6720706f77657220666f722065786560448201527f637574696f6e2068617320746f206265206d6f7265207468616e20300000000060648201526084016200009d565b60026200020d8482620004fb565b50600080546001600160a01b0319166001600160a01b03891690811790915560405130906200023c9062000308565b6001600160a01b03928316815291166020820152604001604051809103906000f08015801562000270573d6000803e3d6000fd5b50601180546001600160a01b03199081166001600160a01b0393841617909155600388905560058781556006879055600d8590556001805490921692841692909217905562278d006004556000600781905560088190556009919091556040517ff0454e7b3dd17b2d61d817c1ec7d3417104e974ed42b6e08d9f77f65ffad92b79190a15050505050505050505050505050620005c7565b610794806200579483390190565b80516001600160a01b03811681146200032e57600080fd5b919050565b634e487b7160e01b600052604160045260246000fd5b600080600080600080600060e0888a0312156200036557600080fd5b620003708862000316565b60208981015160408b015160608c015160808d0151949b5091995097509550906001600160401b0380821115620003a657600080fd5b818b0191508b601f830112620003bb57600080fd5b815181811115620003d057620003d062000333565b604051601f8201601f19908116603f01168101908382118183101715620003fb57620003fb62000333565b816040528281528e868487010111156200041457600080fd5b600093505b8284101562000438578484018601518185018701529285019262000419565b600086848301015280985050505050505060a088015191506200045e60c0890162000316565b905092959891949750929550565b600181811c908216806200048157607f821691505b602082108103620004a257634e487b7160e01b600052602260045260246000fd5b50919050565b601f821115620004f657600081815260208120601f850160051c81016020861015620004d15750805b601f850160051c820191505b81811015620004f257828155600101620004dd565b5050505b505050565b81516001600160401b0381111562000517576200051762000333565b6200052f816200052884546200046c565b84620004a8565b602080601f8311600181146200056757600084156200054e5750858301515b600019600386901b1c1916600185901b178555620004f2565b600085815260208120601f198616915b82811015620005985788860151825594840194600190910190840162000577565b5085821015620005b75787850151600019600388901b60f8161c191681555b5050505050600190811b01905550565b6151bd80620005d76000396000f3fe608060405260043610620003c15760003560e01c806364fe6ed211620001f7578063ad6c1e341162000117578063dce5384411620000a7578063f4732da61162000075578063f4732da61462000ba7578063f98606a71462000bd6578063fc0c546a1462000bee578063fc4e703f1462000c1057005b8063dce538441462000b0f578063e04503531462000b34578063e158080a1462000b4c578063f09951981462000b6457005b8063b7c15f8d11620000e5578063b7c15f8d1462000aa5578063bcc3f3bd1462000abc578063c0a4d64d1462000ae1578063c93e01e31462000af857005b8063ad6c1e341462000a2c578063ae6192341462000a43578063b3929aaa1462000a5b578063b3b470611462000a8057005b80638f1803051162000193578063a77ef43b1162000161578063a77ef43b1462000994578063a78d80fc14620009b9578063a7aeb55714620009d1578063a87b186d14620009e957005b80638f180305146200091357806392b71654146200092a57806397f41545146200094f578063a16fe342146200097457005b806377027ff411620001d157806377027ff414620008995780638029eff114620008b057806384a8cceb14620008e457806389c98c0614620008fc57005b806364fe6ed214620008465780636c8b72f6146200085d5780636e27d889146200087457005b806325c069fc11620002e35780633de39c11116200027f57806356891412116200024d5780635689141214620007c35780635bc789d914620007db5780635e508c2c14620007fd5780636396f370146200081557005b80633de39c11146200073f5780633f10cf151462000757578063430694cf146200076f57806354f2f7af14620007a357005b80632fd99c0011620002bd5780632fd99c001462000684578063315a095d14620006c957806332ed5b1214620006ee5780633bf353fb146200072757005b806325c069fc14620005e45780632d5b17de146200060e5780632d757c3e146200063357005b806313108d74116200035f5780631a5007dd116200032d5780631a5007dd146200056b57806321df0da714620005825780632229a0e214620005b65780632467ef9414620005cd57005b806313108d7414620004f157806316bbecde146200051657806317d7de7c146200053b578063184a0ae9146200055357005b80630a366a63116200039d5780630a366a6314620004685780630d668087146200048f578063123f6d6714620004a7578063130485fe14620004cc57005b80623a40d014620003c357806301a598a614620003f357806306fdde031462000441575b005b348015620003d057600080fd5b50620003db62000c28565b604051620003ea919062003d22565b60405180910390f35b3480156200040057600080fd5b506200042b6200041236600462003d7e565b6012602052600090815260409020805460019091015482565b60408051928352602083019190915201620003ea565b3480156200044e57600080fd5b506200045962000c82565b604051620003ea919062003df2565b3480156200047557600080fd5b506200048062000d18565b604051908152602001620003ea565b3480156200049c57600080fd5b5062000480600d5481565b348015620004b457600080fd5b50620003c1620004c636600462003e07565b62000d5f565b348015620004d957600080fd5b506200042b620004eb36600462003e70565b62000fe9565b348015620004fe57600080fd5b50620004806200051036600462004113565b6200101b565b3480156200052357600080fd5b50620003c162000535366004620041fd565b620015ed565b3480156200054857600080fd5b506200045962001734565b3480156200056057600080fd5b506200048060035481565b3480156200057857600080fd5b50600a5462000480565b3480156200058f57600080fd5b506000546001600160a01b03165b6040516001600160a01b039091168152602001620003ea565b348015620005c357600080fd5b5060165462000480565b348015620005da57600080fd5b50600c5462000480565b348015620005f157600080fd5b50620005fb600a81565b60405160ff9091168152602001620003ea565b3480156200061b57600080fd5b50620003c16200062d3660046200422a565b620017c5565b3480156200064057600080fd5b50620004806200065236600462003d7e565b6011546001600160a01b0390811660009081526018602090815260408083209490931682529290925290206001015490565b3480156200069157600080fd5b50620006b8620006a33660046200429d565b60136020526000908152604090205460ff1681565b6040519015158152602001620003ea565b348015620006d657600080fd5b50620003c1620006e83660046200429d565b62001a8f565b348015620006fb57600080fd5b50620007136200070d3660046200429d565b62001cd1565b604051620003ea96959493929190620042f0565b3480156200073457600080fd5b5062000480600c5481565b3480156200074c57600080fd5b506200048060085481565b3480156200076457600080fd5b506200048060045481565b3480156200077c57600080fd5b50620007946200078e3660046200429d565b62001e35565b604051620003ea919062004421565b348015620007b057600080fd5b506011546001600160a01b03166200059d565b348015620007d057600080fd5b5062000480600e5481565b348015620007e857600080fd5b506011546200059d906001600160a01b031681565b3480156200080a57600080fd5b506200048060055481565b3480156200082257600080fd5b50620004806200083436600462003d7e565b60196020526000908152604090205481565b3480156200085357600080fd5b5060105462000480565b3480156200086a57600080fd5b5060075462000480565b3480156200088157600080fd5b50620003c1620008933660046200429d565b620021e8565b348015620008a657600080fd5b5060095462000480565b348015620008bd57600080fd5b50620006b8620008cf3660046200429d565b60009081526013602052604090205460ff1690565b348015620008f157600080fd5b5062000480601a5481565b3480156200090957600080fd5b5060085462000480565b3480156200092057600080fd5b50600b5462000480565b3480156200093757600080fd5b5062000480620009493660046200452e565b62002398565b3480156200095c57600080fd5b50620003c16200096e36600462003e70565b620023ef565b3480156200098157600080fd5b506001546001600160a01b03166200059d565b348015620009a157600080fd5b50620003c1620009b336600462003e70565b620025fb565b348015620009c657600080fd5b5062000480600a5481565b348015620009de57600080fd5b5062000480600f5481565b348015620009f657600080fd5b506200042b62000a083660046200456c565b60186020908152600092835260408084209091529082529020805460019091015482565b34801562000a3957600080fd5b50600f5462000480565b34801562000a5057600080fd5b506200048062002811565b34801562000a6857600080fd5b506200048062000a7a3660046200429d565b6200283b565b34801562000a8d57600080fd5b50620003c162000a9f3660046200429d565b6200285d565b34801562000ab257600080fd5b5060045462000480565b34801562000ac957600080fd5b506200048062000adb36600462003d7e565b620028d1565b34801562000aee57600080fd5b50600d5462000480565b34801562000b0557600080fd5b5060035462000480565b34801562000b1c57600080fd5b50620003c162000b2e36600462003d7e565b62002900565b34801562000b4157600080fd5b506200048060095481565b34801562000b5957600080fd5b506200048060105481565b34801562000b7157600080fd5b506200042b62000b8336600462003e70565b60146020908152600092835260408084209091529082529020805460019091015482565b34801562000bb457600080fd5b506011546001600160a01b031660009081526019602052604090205462000480565b34801562000be357600080fd5b506200048060065481565b34801562000bfb57600080fd5b506000546200059d906001600160a01b031681565b34801562000c1d57600080fd5b506200048060075481565b6060601680548060200260200160405190810160405280929190818152602001828054801562000c7857602002820191906000526020600020905b81548152602001906001019080831162000c63575b5050505050905090565b6002805462000c91906200459f565b80601f016020809104026020016040519081016040528092919081815260200182805462000cbf906200459f565b801562000d105780601f1062000ce45761010080835404028352916020019162000d10565b820191906000526020600020905b81548152906001019060200180831162000cf257829003601f168201915b505050505081565b600061271060065462000d426011546001600160a01b031660009081526019602052604090205490565b62000d4e9190620045f1565b62000d5a919062004621565b905090565b33301462000de55760405162461bcd60e51b815260206004820152604260248201527f45524332304775696c643a204f6e6c792063616c6c61626c652062792045524360448201527f32306775696c6420697473656c66206f72207768656e20696e697469616c697a606482015261195960f21b608482015260a4015b60405180910390fd5b60008a1162000e4f5760405162461bcd60e51b815260206004820152602f60248201527f45524332304775696c643a2070726f706f73616c2074696d652068617320746f60448201526e0206265206d6f7265207468616e203608c1b606482015260840162000ddc565b8983101562000ec75760405162461bcd60e51b815260206004820152603e60248201527f45524332304775696c643a206c6f636b54696d652068617320746f206265206860448201527f6967686572206f7220657175616c20746f2070726f706f73616c54696d650000606482015260840162000ddc565b6000881162000f3f5760405162461bcd60e51b815260206004820152603c60248201527f45524332304775696c643a20766f74696e6720706f77657220666f722065786560448201527f637574696f6e2068617320746f206265206d6f7265207468616e203000000000606482015260840162000ddc565b6201c90886111562000fba5760405162461bcd60e51b815260206004820152603960248201527f45524332304775696c643a20766f7465206761732068617320746f206265206560448201527f7175616c206f72206c6f776572207468616e2031313730303000000000000000606482015260840162000ddc565b600399909955600497909755600595909555600693909355600791909155600855600955600d55600f55601055565b60008281526014602090815260408083206001600160a01b0385168452909152902080546001909101545b9250929050565b6000601054600e541015620010995760405162461bcd60e51b815260206004820152603960248201527f45524332304775696c643a204e6f7420656e6f75676820746f6b656e73206c6f60448201527f636b656420746f2063726561746520612070726f706f73616c00000000000000606482015260840162000ddc565b600f54600b5410156200110b5760405162461bcd60e51b815260206004820152603360248201527f45524332304775696c643a204e6f7420656e6f756768206d656d6265727320746044820152721bc818dc99585d194818481c1c9bdc1bdcd85b606a1b606482015260840162000ddc565b600954600c54106200117f5760405162461bcd60e51b815260206004820152603660248201527f45524332304775696c643a204d6178696d756d20616d6f756e74206f662061636044820152751d1a5d99481c1c9bdc1bdcd85b1cc81c995858da195960521b606482015260840162000ddc565b6200118962000d18565b6200119433620028d1565b1015620012025760405162461bcd60e51b815260206004820152603560248201527f45524332304775696c643a204e6f7420656e6f75676820766f74696e67506f77604482015274195c881d1bc818dc99585d19481c1c9bdc1bdcd85b605a1b606482015260840162000ddc565b8551875114801562001215575084518751145b620012805760405162461bcd60e51b815260206004820152603460248201527f45524332304775696c643a2057726f6e67206c656e677468206f6620746f2c2060448201527364617461206f722076616c75652061727261797360601b606482015260840162000ddc565b6000875111620012ed5760405162461bcd60e51b815260206004820152603160248201527f45524332304775696c643a20746f2c20646174612076616c7565206172726179604482015270732063616e6e6f7420626520656d70747960781b606482015260840162000ddc565b865184111580156200130b575083855162001309919062004638565b155b6200137f5760405162461bcd60e51b815260206004820152603760248201527f45524332304775696c643a20496e76616c696420746f74616c4f7074696f6e7360448201527f206f72206f7074696f6e2063616c6c73206c656e677468000000000000000000606482015260840162000ddc565b600a841115620013f85760405162461bcd60e51b815260206004820152603a60248201527f45524332304775696c643a204d6178696d756d20616d6f756e74206f66206f7060448201527f74696f6e73207065722070726f706f73616c2072656163686564000000000000606482015260840162000ddc565b600a546040516bffffffffffffffffffffffff193360601b1660208201524260348201526054810191909152600090607401604051602081830303815290604052805190602001209050600a5460016200145391906200464f565b600a55600081815260156020526040902080546001600160a01b0319163317815542600182018190556003546200148a916200464f565b60028201558851620014a690600383019060208c019062003b2c565b508751620014be90600483019060208b019062003b96565b508651620014d690600583019060208a019062003bef565b5060068101620014e78682620046af565b5060078101620014f88582620046af565b50620015068660016200464f565b67ffffffffffffffff81111562001521576200152162003ea3565b6040519080825280602002602001820160405280156200154b578160200160208202803683370190505b5080516200156491600984019160209091019062003bef565b5060088101805460ff19166001908117909155600c5462001585916200464f565b600c558160008051602062005168833981519152600160405190815260200160405180910390a250601680546001810182556000919091527fd833147d7dc355ba459fc788f669e58cfaf9dc25ddcd0702e87d69c7b512428901819055979650505050505050565b6000838152601560205260409020600201544210620016205760405162461bcd60e51b815260040162000ddc906200477c565b806200162c33620028d1565b10158015620016565750600083815260146020908152604080832033845290915290206001015481115b620016755760405162461bcd60e51b815260040162000ddc90620047c7565b6000838152601460209081526040808320338452909152902054158015620016b757506000838152601460209081526040808320338452909152902060010154155b80620017025750600083815260146020908152604080832033845290915290205482148015620017025750600083815260146020908152604080832033845290915290206001015481115b620017215760405162461bcd60e51b815260040162000ddc906200480d565b6200172f3384848462002bd6565b505050565b60606002805462001745906200459f565b80601f016020809104026020016040519081016040528092919081815260200182805462001773906200459f565b801562000c785780601f10620017985761010080835404028352916020019162000c78565b820191906000526020600020905b815481529060010190602001808311620017a657509395945050505050565b6000858152601560205260409020600201544210620017f85760405162461bcd60e51b815260040162000ddc906200477c565b6000620018088387878762002398565b60008181526013602052604090205490915060ff16156200186c5760405162461bcd60e51b815260206004820152601960248201527f45524332304775696c643a20416c726561647920766f74656400000000000000604482015260640162000ddc565b620018d082620018c9836040517f19457468657265756d205369676e6564204d6573736167653a0a3332000000006020820152603c8101829052600090605c01604051602081830303815290604052805190602001209050919050565b9062002e22565b6001600160a01b0316836001600160a01b031614620019325760405162461bcd60e51b815260206004820152601860248201527f45524332304775696c643a2057726f6e67207369676e65720000000000000000604482015260640162000ddc565b6000818152601360205260409020805460ff19166001179055836200195784620028d1565b101580156200198a575060008681526014602090815260408083206001600160a01b038716845290915290206001015484115b620019a95760405162461bcd60e51b815260040162000ddc90620047c7565b60008681526014602090815260408083206001600160a01b0387168452909152902054158015620019fd575060008681526014602090815260408083206001600160a01b0387168452909152902060010154155b8062001a5a575060008681526014602090815260408083206001600160a01b03871684529091529020548514801562001a5a575060008681526014602090815260408083206001600160a01b038716845290915290206001015484115b62001a795760405162461bcd60e51b815260040162000ddc906200480d565b62001a878387878762002bd6565b505050505050565b8062001a9b33620028d1565b101562001b115760405162461bcd60e51b815260206004820152603f60248201527f4d696772617461626c65455243324775696c643a20556e61626c6520746f207760448201527f69746864726177206d6f726520746f6b656e73207468616e206c6f636b656400606482015260840162000ddc565b6011546001600160a01b03166000908152601860209081526040808320338452909152902060010154421162001b5b5760405162461bcd60e51b815260040162000ddc9062004874565b6011546001600160a01b0316600090815260186020908152604080832033845290915290205462001b8d908262002e4c565b601180546001600160a01b039081166000908152601860209081526040808320338452825280832095909555925490911681526019909152205462001bd3908262002e4c565b601180546001600160a01b0390811660009081526019602052604090819020939093559054915163f3fef3a360e01b81523360048201526024810184905291169063f3fef3a390604401600060405180830381600087803b15801562001c3857600080fd5b505af115801562001c4d573d6000803e3d6000fd5b50506011546001600160a01b031660009081526018602090815260408083203384529091528120549003915062001c94905057600b5462001c9090600162002e4c565b600b555b60408051338152602081018390527f6352c5382c4a4578e712449ca65e83cdb392d045dfcf1cad9615189db2da244b91015b60405180910390a150565b60156020526000908152604090208054600182015460028301546006840180546001600160a01b0390941694929391929162001d0d906200459f565b80601f016020809104026020016040519081016040528092919081815260200182805462001d3b906200459f565b801562001d8c5780601f1062001d605761010080835404028352916020019162001d8c565b820191906000526020600020905b81548152906001019060200180831162001d6e57829003601f168201915b50505050509080600701805462001da3906200459f565b80601f016020809104026020016040519081016040528092919081815260200182805462001dd1906200459f565b801562001e225780601f1062001df65761010080835404028352916020019162001e22565b820191906000526020600020905b81548152906001019060200180831162001e0457829003601f168201915b5050506008909301549192505060ff1686565b62001e3f62003c2d565b60008281526015602090815260409182902082516101408101845281546001600160a01b03168152600182015481840152600282015481850152600382018054855181860281018601909652808652919492936060860193929083018282801562001ed457602002820191906000526020600020905b81546001600160a01b0316815260019091019060200180831162001eb5575b5050505050815260200160048201805480602002602001604051908101604052809291908181526020016000905b8282101562001fb857838290600052602060002001805462001f24906200459f565b80601f016020809104026020016040519081016040528092919081815260200182805462001f52906200459f565b801562001fa35780601f1062001f775761010080835404028352916020019162001fa3565b820191906000526020600020905b81548152906001019060200180831162001f8557829003601f168201915b50505050508152602001906001019062001f02565b505050508152602001600582018054806020026020016040519081016040528092919081815260200182805480156200201157602002820191906000526020600020905b81548152602001906001019080831162001ffc575b505050505081526020016006820180546200202c906200459f565b80601f01602080910402602001604051908101604052809291908181526020018280546200205a906200459f565b8015620020ab5780601f106200207f57610100808354040283529160200191620020ab565b820191906000526020600020905b8154815290600101906020018083116200208d57829003601f168201915b50505050508152602001600782018054620020c6906200459f565b80601f0160208091040260200160405190810160405280929190818152602001828054620020f4906200459f565b8015620021455780601f10620021195761010080835404028352916020019162002145565b820191906000526020600020905b8154815290600101906020018083116200212757829003601f168201915b5050509183525050600882015460209091019060ff1660048111156200216f576200216f620042b7565b6004811115620021835762002183620042b7565b815260200160098201805480602002602001604051908101604052809291908181526020018280548015620021d857602002820191906000526020600020905b815481526020019060010190808311620021c3575b5050505050815250509050919050565b6011546040516311f9fbc960e21b8152336004820152602481018390526001600160a01b03909116906347e7ef2490604401600060405180830381600087803b1580156200223557600080fd5b505af11580156200224a573d6000803e3d6000fd5b50506011546001600160a01b031660009081526018602090815260408083203384529091528120549003915062002291905057600b546200228d90600162002e61565b600b555b6011546001600160a01b03166000908152601860209081526040808320338452909152902054620022c3908262002e61565b6011546001600160a01b03166000908152601860209081526040808320338452909152902055600d54620022f990429062002e61565b601180546001600160a01b039081166000908152601860209081526040808320338452825280832060010195909555925490911681526019909152205462002342908262002e61565b6011546001600160a01b03166000908152601960209081526040918290209290925580513381529182018390527fac87f20a77d28ee8bbb58ec87ea8fa968b3393efae1a368fd50b767c2847391c910162001cc6565b6040516bffffffffffffffffffffffff19606086901b166020820152603481018490526054810183905260748101829052600090609401604051602081830303815290604052805190602001209050949350505050565b6011546001600160a01b038083169116036200249a5760405162461bcd60e51b815260206004820152605760248201527f4d696772617461626c65455243324775696c643a205573652064656661756c7460448201527f206c6f636b546f6b656e732875696e74323536292066756e6374696f6e20746f60648201527f206c6f636b20696e206f6666696369616c207661756c74000000000000000000608482015260a40162000ddc565b6040516311f9fbc960e21b8152336004820152602481018390526001600160a01b038216906347e7ef2490604401600060405180830381600087803b158015620024e357600080fd5b505af1158015620024f8573d6000803e3d6000fd5b5050506001600160a01b03821660009081526018602090815260408083203384529091529020546200252c91508362002e61565b6001600160a01b0382166000908152601860209081526040808320338452909152902055600d546200256090429062002e61565b6001600160a01b038216600081815260186020908152604080832033845282528083206001019490945591815260199091522054620025a0908362002e61565b6001600160a01b0382166000908152601960209081526040918290209290925580513381529182018490527fac87f20a77d28ee8bbb58ec87ea8fa968b3393efae1a368fd50b767c2847391c91015b60405180910390a15050565b6011546001600160a01b03808316911603620026b05760405162461bcd60e51b815260206004820152606160248201527f4d696772617461626c65455243324775696c643a205573652064656661756c7460448201527f207769746864726177546f6b656e732875696e74323536292066756e6374696f60648201527f6e20746f2077697468647261772066726f6d206f6666696369616c207661756c6084820152601d60fa1b60a482015260c40162000ddc565b6001600160a01b03811660009081526018602090815260408083203384529091529020600101544211620026f85760405162461bcd60e51b815260040162000ddc9062004874565b6001600160a01b038116600090815260186020908152604080832033845290915290205462002728908362002e4c565b6001600160a01b03821660008181526018602090815260408083203384528252808320949094559181526019909152205462002765908362002e4c565b6001600160a01b0382166000818152601960205260409081902092909255905163f3fef3a360e01b81523360048201526024810184905263f3fef3a390604401600060405180830381600087803b158015620027c057600080fd5b505af1158015620027d5573d6000803e3d6000fd5b505060408051338152602081018690527f6352c5382c4a4578e712449ca65e83cdb392d045dfcf1cad9615189db2da244b9350019050620025ef565b600061271060055462000d426011546001600160a01b031660009081526019602052604090205490565b601681815481106200284c57600080fd5b600091825260209091200154905081565b601a546000828152601560205260409020600101541015620028c357600081815260156020526040902060080180546004919060ff191660018302179055508060008051602062005168833981519152600460405190815260200160405180910390a250565b620028ce8162002e6f565b50565b6011546001600160a01b0390811660009081526018602090815260408083209490931682529290925290205490565b333014620029775760405162461bcd60e51b815260206004820152603f60248201527f4d696772617461626c65455243324775696c643a20546865207661756c74206360448201527f616e206265206368616e676564206f6e6c7920627920746865206775696c6400606482015260840162000ddc565b601180546001600160a01b0319166001600160a01b03831690811790915560408051636e9960c360e01b81529051309291636e9960c39160048083019260209291908290030181865afa158015620029d3573d6000803e3d6000fd5b505050506040513d601f19601f82011682018060405250810190620029f99190620048bc565b6001600160a01b03161462002a775760405162461bcd60e51b815260206004820152603860248201527f4d696772617461626c65455243324775696c643a20546865207661756c74206160448201527f646d696e2068617320746f20626520746865206775696c640000000000000000606482015260840162000ddc565b601160009054906101000a90046001600160a01b03166001600160a01b03166321df0da76040518163ffffffff1660e01b8152600401602060405180830381865afa15801562002acb573d6000803e3d6000fd5b505050506040513d601f19601f8201168201806040525081019062002af19190620048bc565b600080546001600160a01b0319166001600160a01b039290921691909117905560405162002b226020820162003c9d565b601f1982820381018352601f90910116604081905262002b469190602001620048dc565b60405160208183030381529060405280519060200120816001600160a01b03163f1462002bcf5760405162461bcd60e51b815260206004820152603060248201527f4d696772617461626c65455243324775696c643a2057726f6e6720636f64652060448201526f1bd9881b995dd51bdad95b95985d5b1d60821b606482015260840162000ddc565b5042601a55565b60008381526014602090815260408083206001600160a01b038816845282528083206001015486845260159092529091206009018054839291908590811062002c235762002c23620048fa565b906000526020600020015462002c3a919062004910565b62002c4691906200464f565b600084815260156020526040902060090180548490811062002c6c5762002c6c620048fa565b6000918252602080832091909101929092558481526014825260408082206001600160a01b03888116808552918552828420878155600190810187905588855260158652838520600201546011549092168552601886528385209285529190945291200154101562002d06576000838152601560209081526040808320600201546001600160a01b03881684526012909252909120600101555b604080516001600160a01b038616815260208101839052839185917f583c62f152711bcb1ca6186c1065821ff17a7cbe226dcb559a1c889dcf0d769b910160405180910390a36007541562002e1c57600062002d6e6008543a620037ac90919063ffffffff16565b60075462002d7d9190620045f1565b905080471062002e1a57604051600090339083908381818185875af1925050503d806000811462002dcb576040519150601f19603f3d011682016040523d82523d6000602084013e62002dd0565b606091505b505090508062001a875760405162461bcd60e51b81526020600482015260146024820152734661696c656420746f20726566756e642067617360601b604482015260640162000ddc565b505b50505050565b600080600062002e338585620037c4565b9150915062002e428162003838565b5090505b92915050565b600062002e5a828462004910565b9392505050565b600062002e5a82846200464f565b60175460ff161562002ed05760405162461bcd60e51b8152602060048201526024808201527f45524332304775696c643a2050726f706f73616c20756e6465722065786563756044820152633a34b7b760e11b606482015260840162000ddc565b600160008281526015602052604090206008015460ff16600481111562002efb5762002efb620042b7565b1462002f585760405162461bcd60e51b815260206004820152602560248201527f45524332304775696c643a2050726f706f73616c20616c72656164792065786560448201526418dd5d195960da1b606482015260840162000ddc565b600081815260156020526040902060020154421162002fc85760405162461bcd60e51b815260206004820152602560248201527f45524332304775696c643a2050726f706f73616c206861736e277420656e646560448201526419081e595d60da1b606482015260840162000ddc565b60008181526015602052604081206009018054829190829062002fef5762002fef620048fa565b600091825260209091200154905060015b6000848152601560205260409020600901548110156200312e576200302462002811565b60008581526015602052604090206009018054839081106200304a576200304a620048fa565b9060005260206000200154101580156200309657506000848152601560205260409020600901805483919083908110620030885762003088620048fa565b906000526020600020015410155b1562003119576000848152601560205260409020600901805483919083908110620030c557620030c5620048fa565b906000526020600020015403620030e0576000925062003119565b600084815260156020526040902060090180549193508391829081106200310b576200310b620048fa565b906000526020600020015491505b80620031258162004926565b91505062003000565b8260000362003181576000848152601560205260409020600801805460ff19166002908117909155849060008051602062005168833981519152905b60405190815260200160405180910390a262003792565b6004546000858152601560205260409020600201544291620031a3916200464f565b1015620031e2576000848152601560205260409020600801805460ff19166004908117909155849060008051602062005168833981519152906200316a565b600084815260156020526040812060088101805460ff1916600317905560090154620032119060019062004910565b6000868152601560205260409020600301546200322f919062004621565b90506200323e60018562004910565b6200324a9082620045f1565b915060006200325a82846200464f565b9050600160009054906101000a90046001600160a01b03166001600160a01b0316633e7a47b26040518163ffffffff1660e01b8152600401600060405180830381600087803b158015620032ad57600080fd5b505af1158015620032c2573d6000803e3d6000fd5b505050505b80831015620036fb576000868152601560205260408120600301805485908110620032f657620032f6620048fa565b6000918252602090912001546001600160a01b03161480159062003356575060008681526015602052604081206004018054859081106200333b576200333b620048fa565b90600052602060002001805462003352906200459f565b9050115b15620036e6576000868152601560205260408120600401805485908110620033825762003382620048fa565b90600052602060002001805462003399906200459f565b80601f0160208091040260200160405190810160405280929190818152602001828054620033c7906200459f565b8015620034185780601f10620033ec5761010080835404028352916020019162003418565b820191906000526020600020905b815481529060010190602001808311620033fa57829003601f168201915b50505060208084015160015460008d815260159093526040909220600301805495965090946001600160a01b03909216935063eed470339250309189908110620034665762003466620048fa565b9060005260206000200160009054906101000a90046001600160a01b031684601560008e81526020019081526020016000206005018a81548110620034af57620034af620048fa565b60009182526020909120015460405160e086901b6001600160e01b031990811682526001600160a01b039586166004830152939094166024850152911660448301526064820152608401600060405180830381600087803b1580156200351457600080fd5b505af192505050801562003526575060015b62003581576200353562004942565b806308c379a0036200357557506200354c6200495f565b8062003559575062003577565b8060405162461bcd60e51b815260040162000ddc919062003df2565b505b3d6000803e3d6000fd5b6017805460ff191660011790556000888152601560205260408120600301805487908110620035b457620035b4620048fa565b60009182526020808320909101548b83526015909152604090912060050180546001600160a01b039092169188908110620035f357620035f3620048fa565b9060005260206000200154601560008c81526020019081526020016000206004018881548110620036285762003628620048fa565b90600052602060002001604051620036419190620049ef565b60006040518083038185875af1925050503d806000811462003680576040519150601f19603f3d011682016040523d82523d6000602084013e62003685565b606091505b5050905080620036d85760405162461bcd60e51b815260206004820181905260248201527f45524332304775696c643a2050726f706f73616c2063616c6c206661696c6564604482015260640162000ddc565b50506017805460ff19169055505b82620036f28162004926565b935050620032c7565b60015460405163fb0fde8560e01b81523060048201526001600160a01b039091169063fb0fde8590602401602060405180830381865afa15801562003744573d6000803e3d6000fd5b505050506040513d601f19601f820116820180604052508101906200376a919062004a6d565b508560008051602062005168833981519152600360405190815260200160405180910390a250505b6001600c54620037a3919062004910565b600c5550505050565b6000818310620037bd578162002e5a565b5090919050565b6000808251604103620037fe5760208301516040840151606085015160001a620037f18782858562003a06565b9450945050505062001014565b82516040036200382b57602083015160408401516200381f86838362003afb565b93509350505062001014565b5060009050600262001014565b60008160048111156200384f576200384f620042b7565b03620038585750565b60018160048111156200386f576200386f620042b7565b03620038be5760405162461bcd60e51b815260206004820152601860248201527f45434453413a20696e76616c6964207369676e61747572650000000000000000604482015260640162000ddc565b6002816004811115620038d557620038d5620042b7565b03620039245760405162461bcd60e51b815260206004820152601f60248201527f45434453413a20696e76616c6964207369676e6174757265206c656e67746800604482015260640162000ddc565b60038160048111156200393b576200393b620042b7565b03620039955760405162461bcd60e51b815260206004820152602260248201527f45434453413a20696e76616c6964207369676e6174757265202773272076616c604482015261756560f01b606482015260840162000ddc565b6004816004811115620039ac57620039ac620042b7565b03620028ce5760405162461bcd60e51b815260206004820152602260248201527f45434453413a20696e76616c6964207369676e6174757265202776272076616c604482015261756560f01b606482015260840162000ddc565b6000807f7fffffffffffffffffffffffffffffff5d576e7357a4501ddfe92f46681b20a083111562003a3f575060009050600362003af2565b8460ff16601b1415801562003a5857508460ff16601c14155b1562003a6b575060009050600462003af2565b6040805160008082526020820180845289905260ff881692820192909252606081018690526080810185905260019060a0016020604051602081039080840390855afa15801562003ac0573d6000803e3d6000fd5b5050604051601f1901519150506001600160a01b03811662003aeb5760006001925092505062003af2565b9150600090505b94509492505050565b6000806001600160ff1b03831660ff84901c601b0162003b1e8782888562003a06565b935093505050935093915050565b82805482825590600052602060002090810192821562003b84579160200282015b8281111562003b8457825182546001600160a01b0319166001600160a01b0390911617825560209092019160019091019062003b4d565b5062003b9292915062003cab565b5090565b82805482825590600052602060002090810192821562003be1579160200282015b8281111562003be1578251829062003bd09082620046af565b509160200191906001019062003bb7565b5062003b9292915062003cc2565b82805482825590600052602060002090810192821562003b84579160200282015b8281111562003b8457825182559160200191906001019062003c10565b60405180610140016040528060006001600160a01b03168152602001600081526020016000815260200160608152602001606081526020016060815260200160608152602001606081526020016000600481111562003c905762003c90620042b7565b8152602001606081525090565b6106d68062004a9283390190565b5b8082111562003b92576000815560010162003cac565b8082111562003b9257600062003cd9828262003ce3565b5060010162003cc2565b50805462003cf1906200459f565b6000825580601f1062003d02575050565b601f016020900490600052602060002090810190620028ce919062003cab565b6020808252825182820181905260009190848201906040850190845b8181101562003d5c5783518352928401929184019160010162003d3e565b50909695505050505050565b6001600160a01b0381168114620028ce57600080fd5b60006020828403121562003d9157600080fd5b813562002e5a8162003d68565b60005b8381101562003dbb57818101518382015260200162003da1565b50506000910152565b6000815180845262003dde81602086016020860162003d9e565b601f01601f19169290920160200192915050565b60208152600062002e5a602083018462003dc4565b6000806000806000806000806000806101408b8d03121562003e2857600080fd5b505088359a60208a01359a5060408a013599606081013599506080810135985060a0810135975060c0810135965060e081013595506101008101359450610120013592509050565b6000806040838503121562003e8457600080fd5b82359150602083013562003e988162003d68565b809150509250929050565b634e487b7160e01b600052604160045260246000fd5b601f8201601f1916810167ffffffffffffffff8111828210171562003ee25762003ee262003ea3565b6040525050565b600067ffffffffffffffff82111562003f065762003f0662003ea3565b5060051b60200190565b600082601f83011262003f2257600080fd5b8135602062003f318262003ee9565b60405162003f40828262003eb9565b83815260059390931b850182019282810191508684111562003f6157600080fd5b8286015b8481101562003f8957803562003f7b8162003d68565b835291830191830162003f65565b509695505050505050565b600082601f83011262003fa657600080fd5b813567ffffffffffffffff81111562003fc35762003fc362003ea3565b60405162003fdc601f8301601f19166020018262003eb9565b81815284602083860101111562003ff257600080fd5b816020850160208301376000918101602001919091529392505050565b600082601f8301126200402157600080fd5b81356020620040308262003ee9565b6040516200403f828262003eb9565b83815260059390931b85018201928281019150868411156200406057600080fd5b8286015b8481101562003f8957803567ffffffffffffffff811115620040865760008081fd5b620040968986838b010162003f94565b84525091830191830162004064565b600082601f830112620040b757600080fd5b81356020620040c68262003ee9565b604051620040d5828262003eb9565b83815260059390931b8501820192828101915086841115620040f657600080fd5b8286015b8481101562003f895780358352918301918301620040fa565b60008060008060008060c087890312156200412d57600080fd5b863567ffffffffffffffff808211156200414657600080fd5b620041548a838b0162003f10565b975060208901359150808211156200416b57600080fd5b620041798a838b016200400f565b965060408901359150808211156200419057600080fd5b6200419e8a838b01620040a5565b9550606089013594506080890135915080821115620041bc57600080fd5b620041ca8a838b0162003f94565b935060a0890135915080821115620041e157600080fd5b50620041f089828a0162003f94565b9150509295509295509295565b6000806000606084860312156200421357600080fd5b505081359360208301359350604090920135919050565b600080600080600060a086880312156200424357600080fd5b8535945060208601359350604086013592506060860135620042658162003d68565b9150608086013567ffffffffffffffff8111156200428257600080fd5b620042908882890162003f94565b9150509295509295909350565b600060208284031215620042b057600080fd5b5035919050565b634e487b7160e01b600052602160045260246000fd5b60058110620042ec57634e487b7160e01b600052602160045260246000fd5b9052565b60018060a01b038716815285602082015284604082015260c0606082015260006200431f60c083018662003dc4565b828103608084015262004333818662003dc4565b9150506200434560a0830184620042cd565b979650505050505050565b600081518084526020808501945080840160005b838110156200438b5781516001600160a01b03168752958201959082019060010162004364565b509495945050505050565b600081518084526020808501808196508360051b8101915082860160005b85811015620043e2578284038952620043cf84835162003dc4565b98850198935090840190600101620043b4565b5091979650505050505050565b600081518084526020808501945080840160005b838110156200438b5781518752958201959082019060010162004403565b602081526200443c6020820183516001600160a01b03169052565b6020820151604082015260408201516060820152600060608301516101408060808501526200447061016085018362004350565b91506080850151601f19808685030160a087015262004490848362004396565b935060a08701519150808685030160c0870152620044af8483620043ef565b935060c08701519150808685030160e0870152620044ce848362003dc4565b935060e08701519150610100818786030181880152620044ef858462003dc4565b9450808801519250506101206200450981880184620042cd565b870151868503909101838701529050620045248382620043ef565b9695505050505050565b600080600080608085870312156200454557600080fd5b8435620045528162003d68565b966020860135965060408601359560600135945092505050565b600080604083850312156200458057600080fd5b82356200458d8162003d68565b9150602083013562003e988162003d68565b600181811c90821680620045b457607f821691505b602082108103620045d557634e487b7160e01b600052602260045260246000fd5b50919050565b634e487b7160e01b600052601160045260246000fd5b808202811582820484141762002e465762002e46620045db565b634e487b7160e01b600052601260045260246000fd5b6000826200463357620046336200460b565b500490565b6000826200464a576200464a6200460b565b500690565b8082018082111562002e465762002e46620045db565b601f8211156200172f57600081815260208120601f850160051c810160208610156200468e5750805b601f850160051c820191505b8181101562001a87578281556001016200469a565b815167ffffffffffffffff811115620046cc57620046cc62003ea3565b620046e481620046dd84546200459f565b8462004665565b602080601f8311600181146200471c5760008415620047035750858301515b600019600386901b1c1916600185901b17855562001a87565b600085815260208120601f198616915b828110156200474d578886015182559484019460019091019084016200472c565b50858210156200476c5787850151600019600388901b60f8161c191681555b5050505050600190811b01905550565b6020808252602b908201527f45524332304775696c643a2050726f706f73616c20656e6465642c2063616e6e60408201526a1bdd081899481d9bdd195960aa1b606082015260800190565b60208082526026908201527f45524332304775696c643a20496e76616c696420766f74696e67506f77657220604082015265185b5bdd5b9d60d21b606082015260800190565b60208082526041908201527f45524332304775696c643a2043616e6e6f74206368616e6765206f7074696f6e60408201527f20766f7465642c206f6e6c7920696e63726561736520766f74696e67506f77656060820152603960f91b608082015260a00190565b60208082526028908201527f4d696772617461626c65455243324775696c643a20546f6b656e73207374696c6040820152671b081b1bd8dad95960c21b606082015260800190565b600060208284031215620048cf57600080fd5b815162002e5a8162003d68565b60008251620048f081846020870162003d9e565b9190910192915050565b634e487b7160e01b600052603260045260246000fd5b8181038181111562002e465762002e46620045db565b6000600182016200493b576200493b620045db565b5060010190565b600060033d11156200495c5760046000803e5060005160e01c5b90565b600060443d10156200496e5790565b6040516003193d81016004833e81513d67ffffffffffffffff81602484011181841117156200499f57505050505090565b8285019150815181811115620049b85750505050505090565b843d8701016020828501011115620049d35750505050505090565b620049e46020828601018762003eb9565b509095945050505050565b6000808354620049ff816200459f565b6001828116801562004a1a576001811462004a305762004a61565b60ff198416875282151583028701945062004a61565b8760005260208060002060005b8581101562004a585781548a82015290840190820162004a3d565b50505082870194505b50929695505050505050565b60006020828403121562004a8057600080fd5b8151801515811462002e5a57600080fdfe608060405234801561001057600080fd5b506004361061007d5760003560e01c80636e9960c31161005b5780636e9960c3146100ef578063f3fef3a314610100578063f851a44014610113578063fc0c546a1461012657600080fd5b806321df0da71461008257806327e235e3146100ac57806347e7ef24146100da575b600080fd5b6000546001600160a01b03165b6040516001600160a01b0390911681526020015b60405180910390f35b6100cc6100ba36600461058a565b60026020526000908152604090205481565b6040519081526020016100a3565b6100ed6100e83660046105a5565b610139565b005b6001546001600160a01b031661008f565b6100ed61010e3660046105a5565b61020a565b60015461008f906001600160a01b031681565b60005461008f906001600160a01b031681565b6001546001600160a01b031633146101af5760405162461bcd60e51b815260206004820152602e60248201527f546f6b656e5661756c743a204465706f736974206d7573742062652073656e7460448201526d103a343937bab3b41030b236b4b760911b60648201526084015b60405180910390fd5b6000546101c7906001600160a01b031683308461025b565b6001600160a01b0382166000908152600260205260409020546101ea90826102cc565b6001600160a01b0390921660009081526002602052604090209190915550565b6001546001600160a01b0316331461022157600080fd5b600054610238906001600160a01b031683836102e1565b6001600160a01b0382166000908152600260205260409020546101ea9082610316565b6040516001600160a01b03808516602483015283166044820152606481018290526102c69085906323b872dd60e01b906084015b60408051601f198184030181529190526020810180516001600160e01b03166001600160e01b031990931692909217909152610322565b50505050565b60006102d882846105e5565b90505b92915050565b6040516001600160a01b03831660248201526044810182905261031190849063a9059cbb60e01b9060640161028f565b505050565b60006102d882846105f8565b6000610377826040518060400160405280602081526020017f5361666545524332303a206c6f772d6c6576656c2063616c6c206661696c6564815250856001600160a01b03166103f49092919063ffffffff16565b8051909150156103115780806020019051810190610395919061060b565b6103115760405162461bcd60e51b815260206004820152602a60248201527f5361666545524332303a204552433230206f7065726174696f6e20646964206e6044820152691bdd081cdd58d8d9595960b21b60648201526084016101a6565b6060610403848460008561040d565b90505b9392505050565b60608247101561046e5760405162461bcd60e51b815260206004820152602660248201527f416464726573733a20696e73756666696369656e742062616c616e636520666f6044820152651c8818d85b1b60d21b60648201526084016101a6565b843b6104bc5760405162461bcd60e51b815260206004820152601d60248201527f416464726573733a2063616c6c20746f206e6f6e2d636f6e747261637400000060448201526064016101a6565b600080866001600160a01b031685876040516104d89190610651565b60006040518083038185875af1925050503d8060008114610515576040519150601f19603f3d011682016040523d82523d6000602084013e61051a565b606091505b509150915061052a828286610535565b979650505050505050565b60608315610544575081610406565b8251156105545782518084602001fd5b8160405162461bcd60e51b81526004016101a6919061066d565b80356001600160a01b038116811461058557600080fd5b919050565b60006020828403121561059c57600080fd5b6102d88261056e565b600080604083850312156105b857600080fd5b6105c18361056e565b946020939093013593505050565b634e487b7160e01b600052601160045260246000fd5b808201808211156102db576102db6105cf565b818103818111156102db576102db6105cf565b60006020828403121561061d57600080fd5b8151801515811461040657600080fd5b60005b83811015610648578181015183820152602001610630565b50506000910152565b6000825161066381846020870161062d565b9190910192915050565b602081526000825180602084015261068c81604085016020870161062d565b601f01601f1916919091016040019291505056fea26469706673582212200dc40e929cb7cd09eab9a5dff5e560bcf87fefdb78df12750c3659d40d03ae5e64736f6c63430008110033fee62a9eec0be50eb061c711990ef0f1e17b40ea131d9347b0468acdaf8bf243a2646970667358221220d743ada0175b7a839dc1ae316aae532b10cafb417795d2c07d110e09f320163e64736f6c63430008110033608060405234801561001057600080fd5b5060405161079438038061079483398101604081905261002f9161007c565b600080546001600160a01b039384166001600160a01b031991821617909155600180549290931691161790556100af565b80516001600160a01b038116811461007757600080fd5b919050565b6000806040838503121561008f57600080fd5b61009883610060565b91506100a660208401610060565b90509250929050565b6106d6806100be6000396000f3fe608060405234801561001057600080fd5b506004361061007d5760003560e01c80636e9960c31161005b5780636e9960c3146100ef578063f3fef3a314610100578063f851a44014610113578063fc0c546a1461012657600080fd5b806321df0da71461008257806327e235e3146100ac57806347e7ef24146100da575b600080fd5b6000546001600160a01b03165b6040516001600160a01b0390911681526020015b60405180910390f35b6100cc6100ba36600461058a565b60026020526000908152604090205481565b6040519081526020016100a3565b6100ed6100e83660046105a5565b610139565b005b6001546001600160a01b031661008f565b6100ed61010e3660046105a5565b61020a565b60015461008f906001600160a01b031681565b60005461008f906001600160a01b031681565b6001546001600160a01b031633146101af5760405162461bcd60e51b815260206004820152602e60248201527f546f6b656e5661756c743a204465706f736974206d7573742062652073656e7460448201526d103a343937bab3b41030b236b4b760911b60648201526084015b60405180910390fd5b6000546101c7906001600160a01b031683308461025b565b6001600160a01b0382166000908152600260205260409020546101ea90826102cc565b6001600160a01b0390921660009081526002602052604090209190915550565b6001546001600160a01b0316331461022157600080fd5b600054610238906001600160a01b031683836102e1565b6001600160a01b0382166000908152600260205260409020546101ea9082610316565b6040516001600160a01b03808516602483015283166044820152606481018290526102c69085906323b872dd60e01b906084015b60408051601f198184030181529190526020810180516001600160e01b03166001600160e01b031990931692909217909152610322565b50505050565b60006102d882846105e5565b90505b92915050565b6040516001600160a01b03831660248201526044810182905261031190849063a9059cbb60e01b9060640161028f565b505050565b60006102d882846105f8565b6000610377826040518060400160405280602081526020017f5361666545524332303a206c6f772d6c6576656c2063616c6c206661696c6564815250856001600160a01b03166103f49092919063ffffffff16565b8051909150156103115780806020019051810190610395919061060b565b6103115760405162461bcd60e51b815260206004820152602a60248201527f5361666545524332303a204552433230206f7065726174696f6e20646964206e6044820152691bdd081cdd58d8d9595960b21b60648201526084016101a6565b6060610403848460008561040d565b90505b9392505050565b60608247101561046e5760405162461bcd60e51b815260206004820152602660248201527f416464726573733a20696e73756666696369656e742062616c616e636520666f6044820152651c8818d85b1b60d21b60648201526084016101a6565b843b6104bc5760405162461bcd60e51b815260206004820152601d60248201527f416464726573733a2063616c6c20746f206e6f6e2d636f6e747261637400000060448201526064016101a6565b600080866001600160a01b031685876040516104d89190610651565b60006040518083038185875af1925050503d8060008114610515576040519150601f19603f3d011682016040523d82523d6000602084013e61051a565b606091505b509150915061052a828286610535565b979650505050505050565b60608315610544575081610406565b8251156105545782518084602001fd5b8160405162461bcd60e51b81526004016101a6919061066d565b80356001600160a01b038116811461058557600080fd5b919050565b60006020828403121561059c57600080fd5b6102d88261056e565b600080604083850312156105b857600080fd5b6105c18361056e565b946020939093013593505050565b634e487b7160e01b600052601160045260246000fd5b808201808211156102db576102db6105cf565b818103818111156102db576102db6105cf565b60006020828403121561061d57600080fd5b8151801515811461040657600080fd5b60005b83811015610648578181015183820152602001610630565b50506000910152565b6000825161066381846020870161062d565b9190910192915050565b602081526000825180602084015261068c81604085016020870161062d565b601f01601f1916919091016040019291505056fea26469706673582212200dc40e929cb7cd09eab9a5dff5e560bcf87fefdb78df12750c3659d40d03ae5e64736f6c63430008110033",
  "linkReferences": {},
  "deployedLinkReferences": {}
}