{
  "_format": "hh-sol-artifact-1",
  "contractName": "SnapshotRepERC20Guild",
  "sourceName": "contracts/erc20guild/implementations/SnapshotRepERC20Guild.sol",
  "abi": [
    {
      "anonymous": false,
      "inputs": [],
      "name": "GuildInitialized",
      "type": "event"
    },
    {
      "anonymous": false,
      "inputs": [
        {
          "indexed": true,
          "internalType": "bytes32",
          "name": "proposalId",
          "type": "bytes32"
        },
        {
          "indexed": false,
          "internalType": "uint256",
          "name": "newState",
          "type": "uint256"
        }
      ],
      "name": "ProposalStateChanged",
      "type": "event"
    },
    {
      "anonymous": false,
      "inputs": [
        {
          "indexed": false,
          "internalType": "address",
          "name": "voter",
          "type": "address"
        },
        {
          "indexed": false,
          "internalType": "uint256",
          "name": "value",
          "type": "uint256"
        }
      ],
      "name": "TokensLocked",
      "type": "event"
    },
    {
      "anonymous": false,
      "inputs": [
        {
          "indexed": false,
          "internalType": "address",
          "name": "voter",
          "type": "address"
        },
        {
          "indexed": false,
          "internalType": "uint256",
          "name": "value",
          "type": "uint256"
        }
      ],
      "name": "TokensWithdrawn",
      "type": "event"
    },
    {
      "anonymous": false,
      "inputs": [
        {
          "indexed": true,
          "internalType": "bytes32",
          "name": "proposalId",
          "type": "bytes32"
        },
        {
          "indexed": true,
          "internalType": "uint256",
          "name": "option",
          "type": "uint256"
        },
        {
          "indexed": false,
          "internalType": "address",
          "name": "voter",
          "type": "address"
        },
        {
          "indexed": false,
          "internalType": "uint256",
          "name": "votingPower",
          "type": "uint256"
        }
      ],
      "name": "VoteAdded",
      "type": "event"
    },
    {
      "stateMutability": "payable",
      "type": "fallback"
    },
    {
      "inputs": [],
      "name": "MAX_OPTIONS_PER_PROPOSAL",
      "outputs": [
        {
          "internalType": "uint8",
          "name": "",
          "type": "uint8"
        }
      ],
      "stateMutability": "view",
      "type": "function"
    },
    {
      "inputs": [],
      "name": "activeProposalsNow",
      "outputs": [
        {
          "internalType": "uint256",
          "name": "",
          "type": "uint256"
        }
      ],
      "stateMutability": "view",
      "type": "function"
    },
    {
      "inputs": [
        {
          "internalType": "address[]",
          "name": "to",
          "type": "address[]"
        },
        {
          "internalType": "bytes[]",
          "name": "data",
          "type": "bytes[]"
        },
        {
          "internalType": "uint256[]",
          "name": "value",
          "type": "uint256[]"
        },
        {
          "internalType": "uint256",
          "name": "totalOptions",
          "type": "uint256"
        },
        {
          "internalType": "string",
          "name": "title",
          "type": "string"
        },
        {
          "internalType": "string",
          "name": "contentHash",
          "type": "string"
        }
      ],
      "name": "createProposal",
      "outputs": [
        {
          "internalType": "bytes32",
          "name": "",
          "type": "bytes32"
        }
      ],
      "stateMutability": "nonpayable",
      "type": "function"
    },
    {
      "inputs": [
        {
          "internalType": "bytes32",
          "name": "proposalId",
          "type": "bytes32"
        }
      ],
      "name": "endProposal",
      "outputs": [],
      "stateMutability": "nonpayable",
      "type": "function"
    },
    {
      "inputs": [],
      "name": "getActiveProposalsNow",
      "outputs": [
        {
          "internalType": "uint256",
          "name": "",
          "type": "uint256"
        }
      ],
      "stateMutability": "view",
      "type": "function"
    },
    {
      "inputs": [],
      "name": "getLockTime",
      "outputs": [
        {
          "internalType": "uint256",
          "name": "",
          "type": "uint256"
        }
      ],
      "stateMutability": "view",
      "type": "function"
    },
    {
      "inputs": [],
      "name": "getMaxActiveProposals",
      "outputs": [
        {
          "internalType": "uint256",
          "name": "",
          "type": "uint256"
        }
      ],
      "stateMutability": "view",
      "type": "function"
    },
    {
      "inputs": [],
      "name": "getMaxGasPrice",
      "outputs": [
        {
          "internalType": "uint256",
          "name": "",
          "type": "uint256"
        }
      ],
      "stateMutability": "view",
      "type": "function"
    },
    {
      "inputs": [],
      "name": "getMinimumMembersForProposalCreation",
      "outputs": [
        {
          "internalType": "uint256",
          "name": "",
          "type": "uint256"
        }
      ],
      "stateMutability": "view",
      "type": "function"
    },
    {
      "inputs": [],
      "name": "getMinimumTokensLockedForProposalCreation",
      "outputs": [
        {
          "internalType": "uint256",
          "name": "",
          "type": "uint256"
        }
      ],
      "stateMutability": "view",
      "type": "function"
    },
    {
      "inputs": [],
      "name": "getName",
      "outputs": [
        {
          "internalType": "string",
          "name": "",
          "type": "string"
        }
      ],
      "stateMutability": "view",
      "type": "function"
    },
    {
      "inputs": [],
      "name": "getPermissionRegistry",
      "outputs": [
        {
          "internalType": "address",
          "name": "",
          "type": "address"
        }
      ],
      "stateMutability": "view",
      "type": "function"
    },
    {
      "inputs": [
        {
          "internalType": "bytes32",
          "name": "proposalId",
          "type": "bytes32"
        }
      ],
      "name": "getProposal",
      "outputs": [
        {
          "components": [
            {
              "internalType": "address",
              "name": "creator",
              "type": "address"
            },
            {
              "internalType": "uint256",
              "name": "startTime",
              "type": "uint256"
            },
            {
              "internalType": "uint256",
              "name": "endTime",
              "type": "uint256"
            },
            {
              "internalType": "address[]",
              "name": "to",
              "type": "address[]"
            },
            {
              "internalType": "bytes[]",
              "name": "data",
              "type": "bytes[]"
            },
            {
              "internalType": "uint256[]",
              "name": "value",
              "type": "uint256[]"
            },
            {
              "internalType": "string",
              "name": "title",
              "type": "string"
            },
            {
              "internalType": "string",
              "name": "contentHash",
              "type": "string"
            },
            {
              "internalType": "enum BaseERC20Guild.ProposalState",
              "name": "state",
              "type": "uint8"
            },
            {
              "internalType": "uint256[]",
              "name": "totalVotes",
              "type": "uint256[]"
            }
          ],
          "internalType": "struct BaseERC20Guild.Proposal",
          "name": "",
          "type": "tuple"
        }
      ],
      "stateMutability": "view",
      "type": "function"
    },
    {
      "inputs": [
        {
          "internalType": "bytes32",
          "name": "proposalId",
          "type": "bytes32"
        }
      ],
      "name": "getProposalSnapshotId",
      "outputs": [
        {
          "internalType": "uint256",
          "name": "",
          "type": "uint256"
        }
      ],
      "stateMutability": "view",
      "type": "function"
    },
    {
      "inputs": [],
      "name": "getProposalTime",
      "outputs": [
        {
          "internalType": "uint256",
          "name": "",
          "type": "uint256"
        }
      ],
      "stateMutability": "view",
      "type": "function"
    },
    {
      "inputs": [
        {
          "internalType": "bytes32",
          "name": "proposalId",
          "type": "bytes32"
        },
        {
          "internalType": "address",
          "name": "voter",
          "type": "address"
        }
      ],
      "name": "getProposalVotesOfVoter",
      "outputs": [
        {
          "internalType": "uint256",
          "name": "option",
          "type": "uint256"
        },
        {
          "internalType": "uint256",
          "name": "votingPower",
          "type": "uint256"
        }
      ],
      "stateMutability": "view",
      "type": "function"
    },
    {
      "inputs": [],
      "name": "getProposalsIds",
      "outputs": [
        {
          "internalType": "bytes32[]",
          "name": "",
          "type": "bytes32[]"
        }
      ],
      "stateMutability": "view",
      "type": "function"
    },
    {
      "inputs": [],
      "name": "getProposalsIdsLength",
      "outputs": [
        {
          "internalType": "uint256",
          "name": "",
          "type": "uint256"
        }
      ],
      "stateMutability": "view",
      "type": "function"
    },
    {
      "inputs": [
        {
          "internalType": "bytes32",
          "name": "signedVoteHash",
          "type": "bytes32"
        }
      ],
      "name": "getSignedVote",
      "outputs": [
        {
          "internalType": "bool",
          "name": "",
          "type": "bool"
        }
      ],
      "stateMutability": "view",
      "type": "function"
    },
    {
      "inputs": [
        {
          "internalType": "bytes32",
          "name": "proposalId",
          "type": "bytes32"
        }
      ],
      "name": "getSnapshotVotingPowerForProposalExecution",
      "outputs": [
        {
          "internalType": "uint256",
          "name": "",
          "type": "uint256"
        }
      ],
      "stateMutability": "view",
      "type": "function"
    },
    {
      "inputs": [],
      "name": "getTimeForExecution",
      "outputs": [
        {
          "internalType": "uint256",
          "name": "",
          "type": "uint256"
        }
      ],
      "stateMutability": "view",
      "type": "function"
    },
    {
      "inputs": [],
      "name": "getToken",
      "outputs": [
        {
          "internalType": "address",
          "name": "",
          "type": "address"
        }
      ],
      "stateMutability": "view",
      "type": "function"
    },
    {
      "inputs": [],
      "name": "getTokenVault",
      "outputs": [
        {
          "internalType": "address",
          "name": "",
          "type": "address"
        }
      ],
      "stateMutability": "view",
      "type": "function"
    },
    {
      "inputs": [],
      "name": "getTotalLocked",
      "outputs": [
        {
          "internalType": "uint256",
          "name": "",
          "type": "uint256"
        }
      ],
      "stateMutability": "view",
      "type": "function"
    },
    {
      "inputs": [],
      "name": "getTotalMembers",
      "outputs": [
        {
          "internalType": "uint256",
          "name": "",
          "type": "uint256"
        }
      ],
      "stateMutability": "view",
      "type": "function"
    },
    {
      "inputs": [],
      "name": "getTotalProposals",
      "outputs": [
        {
          "internalType": "uint256",
          "name": "",
          "type": "uint256"
        }
      ],
      "stateMutability": "view",
      "type": "function"
    },
    {
      "inputs": [],
      "name": "getVoteGas",
      "outputs": [
        {
          "internalType": "uint256",
          "name": "",
          "type": "uint256"
        }
      ],
      "stateMutability": "view",
      "type": "function"
    },
    {
      "inputs": [
        {
          "internalType": "address",
          "name": "voter",
          "type": "address"
        }
      ],
      "name": "getVoterLockTimestamp",
      "outputs": [
        {
          "internalType": "uint256",
          "name": "",
          "type": "uint256"
        }
      ],
      "stateMutability": "view",
      "type": "function"
    },
    {
      "inputs": [],
      "name": "getVotingPowerForProposalCreation",
      "outputs": [
        {
          "internalType": "uint256",
          "name": "",
          "type": "uint256"
        }
      ],
      "stateMutability": "view",
      "type": "function"
    },
    {
      "inputs": [],
      "name": "getVotingPowerForProposalExecution",
      "outputs": [
        {
          "internalType": "uint256",
          "name": "",
          "type": "uint256"
        }
      ],
      "stateMutability": "view",
      "type": "function"
    },
    {
      "inputs": [
        {
          "internalType": "address",
          "name": "voter",
          "type": "address"
        },
        {
          "internalType": "bytes32",
          "name": "proposalId",
          "type": "bytes32"
        },
        {
          "internalType": "uint256",
          "name": "option",
          "type": "uint256"
        },
        {
          "internalType": "uint256",
          "name": "votingPower",
          "type": "uint256"
        }
      ],
      "name": "hashVote",
      "outputs": [
        {
          "internalType": "bytes32",
          "name": "",
          "type": "bytes32"
        }
      ],
      "stateMutability": "pure",
      "type": "function"
    },
    {
      "inputs": [
        {
          "internalType": "address",
          "name": "_token",
          "type": "address"
        },
        {
          "internalType": "uint256",
          "name": "_proposalTime",
          "type": "uint256"
        },
        {
          "internalType": "uint256",
          "name": "_timeForExecution",
          "type": "uint256"
        },
        {
          "internalType": "uint256",
          "name": "_votingPowerPercentageForProposalExecution",
          "type": "uint256"
        },
        {
          "internalType": "uint256",
          "name": "_votingPowerPercentageForProposalCreation",
          "type": "uint256"
        },
        {
          "internalType": "string",
          "name": "_name",
          "type": "string"
        },
        {
          "internalType": "uint256",
          "name": "_voteGas",
          "type": "uint256"
        },
        {
          "internalType": "uint256",
          "name": "_maxGasPrice",
          "type": "uint256"
        },
        {
          "internalType": "uint256",
          "name": "_maxActiveProposals",
          "type": "uint256"
        },
        {
          "internalType": "uint256",
          "name": "_lockTime",
          "type": "uint256"
        },
        {
          "internalType": "address",
          "name": "_permissionRegistry",
          "type": "address"
        }
      ],
      "name": "initialize",
      "outputs": [],
      "stateMutability": "nonpayable",
      "type": "function"
    },
    {
      "inputs": [],
      "name": "lockTime",
      "outputs": [
        {
          "internalType": "uint256",
          "name": "",
          "type": "uint256"
        }
      ],
      "stateMutability": "view",
      "type": "function"
    },
    {
      "inputs": [
        {
          "internalType": "uint256",
          "name": "",
          "type": "uint256"
        }
      ],
      "name": "lockTokens",
      "outputs": [],
      "stateMutability": "nonpayable",
      "type": "function"
    },
    {
      "inputs": [],
      "name": "maxActiveProposals",
      "outputs": [
        {
          "internalType": "uint256",
          "name": "",
          "type": "uint256"
        }
      ],
      "stateMutability": "view",
      "type": "function"
    },
    {
      "inputs": [],
      "name": "maxGasPrice",
      "outputs": [
        {
          "internalType": "uint256",
          "name": "",
          "type": "uint256"
        }
      ],
      "stateMutability": "view",
      "type": "function"
    },
    {
      "inputs": [],
      "name": "minimumMembersForProposalCreation",
      "outputs": [
        {
          "internalType": "uint256",
          "name": "",
          "type": "uint256"
        }
      ],
      "stateMutability": "view",
      "type": "function"
    },
    {
      "inputs": [],
      "name": "minimumTokensLockedForProposalCreation",
      "outputs": [
        {
          "internalType": "uint256",
          "name": "",
          "type": "uint256"
        }
      ],
      "stateMutability": "view",
      "type": "function"
    },
    {
      "inputs": [],
      "name": "name",
      "outputs": [
        {
          "internalType": "string",
          "name": "",
          "type": "string"
        }
      ],
      "stateMutability": "view",
      "type": "function"
    },
    {
      "inputs": [],
      "name": "proposalTime",
      "outputs": [
        {
          "internalType": "uint256",
          "name": "",
          "type": "uint256"
        }
      ],
      "stateMutability": "view",
      "type": "function"
    },
    {
      "inputs": [
        {
          "internalType": "bytes32",
          "name": "",
          "type": "bytes32"
        },
        {
          "internalType": "address",
          "name": "",
          "type": "address"
        }
      ],
      "name": "proposalVotes",
      "outputs": [
        {
          "internalType": "uint256",
          "name": "option",
          "type": "uint256"
        },
        {
          "internalType": "uint256",
          "name": "votingPower",
          "type": "uint256"
        }
      ],
      "stateMutability": "view",
      "type": "function"
    },
    {
      "inputs": [
        {
          "internalType": "bytes32",
          "name": "",
          "type": "bytes32"
        }
      ],
      "name": "proposals",
      "outputs": [
        {
          "internalType": "address",
          "name": "creator",
          "type": "address"
        },
        {
          "internalType": "uint256",
          "name": "startTime",
          "type": "uint256"
        },
        {
          "internalType": "uint256",
          "name": "endTime",
          "type": "uint256"
        },
        {
          "internalType": "string",
          "name": "title",
          "type": "string"
        },
        {
          "internalType": "string",
          "name": "contentHash",
          "type": "string"
        },
        {
          "internalType": "enum BaseERC20Guild.ProposalState",
          "name": "state",
          "type": "uint8"
        }
      ],
      "stateMutability": "view",
      "type": "function"
    },
    {
      "inputs": [
        {
          "internalType": "uint256",
          "name": "",
          "type": "uint256"
        }
      ],
      "name": "proposalsIds",
      "outputs": [
        {
          "internalType": "bytes32",
          "name": "",
          "type": "bytes32"
        }
      ],
      "stateMutability": "view",
      "type": "function"
    },
    {
      "inputs": [
        {
          "internalType": "bytes32",
          "name": "",
          "type": "bytes32"
        }
      ],
      "name": "proposalsSnapshots",
      "outputs": [
        {
          "internalType": "uint256",
          "name": "",
          "type": "uint256"
        }
      ],
      "stateMutability": "view",
      "type": "function"
    },
    {
      "inputs": [
        {
          "internalType": "uint256",
          "name": "_proposalTime",
          "type": "uint256"
        },
        {
          "internalType": "uint256",
          "name": "_timeForExecution",
          "type": "uint256"
        },
        {
          "internalType": "uint256",
          "name": "_votingPowerPercentageForProposalExecution",
          "type": "uint256"
        },
        {
          "internalType": "uint256",
          "name": "_votingPowerPercentageForProposalCreation",
          "type": "uint256"
        },
        {
          "internalType": "uint256",
          "name": "_voteGas",
          "type": "uint256"
        },
        {
          "internalType": "uint256",
          "name": "_maxGasPrice",
          "type": "uint256"
        },
        {
          "internalType": "uint256",
          "name": "_maxActiveProposals",
          "type": "uint256"
        },
        {
          "internalType": "uint256",
          "name": "_lockTime",
          "type": "uint256"
        },
        {
          "internalType": "uint256",
          "name": "_minimumMembersForProposalCreation",
          "type": "uint256"
        },
        {
          "internalType": "uint256",
          "name": "_minimumTokensLockedForProposalCreation",
          "type": "uint256"
        }
      ],
      "name": "setConfig",
      "outputs": [],
      "stateMutability": "nonpayable",
      "type": "function"
    },
    {
      "inputs": [
        {
          "internalType": "bytes32",
          "name": "proposalId",
          "type": "bytes32"
        },
        {
          "internalType": "uint256",
          "name": "option",
          "type": "uint256"
        },
        {
          "internalType": "uint256",
          "name": "votingPower",
          "type": "uint256"
        },
        {
          "internalType": "address",
          "name": "voter",
          "type": "address"
        },
        {
          "internalType": "bytes",
          "name": "signature",
          "type": "bytes"
        }
      ],
      "name": "setSignedVote",
      "outputs": [],
      "stateMutability": "nonpayable",
      "type": "function"
    },
    {
      "inputs": [
        {
          "internalType": "bytes32",
          "name": "proposalId",
          "type": "bytes32"
        },
        {
          "internalType": "uint256",
          "name": "option",
          "type": "uint256"
        },
        {
          "internalType": "uint256",
          "name": "votingPower",
          "type": "uint256"
        }
      ],
      "name": "setVote",
      "outputs": [],
      "stateMutability": "nonpayable",
      "type": "function"
    },
    {
      "inputs": [
        {
          "internalType": "bytes32",
          "name": "",
          "type": "bytes32"
        }
      ],
      "name": "signedVotes",
      "outputs": [
        {
          "internalType": "bool",
          "name": "",
          "type": "bool"
        }
      ],
      "stateMutability": "view",
      "type": "function"
    },
    {
      "inputs": [],
      "name": "timeForExecution",
      "outputs": [
        {
          "internalType": "uint256",
          "name": "",
          "type": "uint256"
        }
      ],
      "stateMutability": "view",
      "type": "function"
    },
    {
      "inputs": [],
      "name": "token",
      "outputs": [
        {
          "internalType": "contract IERC20Upgradeable",
          "name": "",
          "type": "address"
        }
      ],
      "stateMutability": "view",
      "type": "function"
    },
    {
      "inputs": [],
      "name": "tokenVault",
      "outputs": [
        {
          "internalType": "contract TokenVault",
          "name": "",
          "type": "address"
        }
      ],
      "stateMutability": "view",
      "type": "function"
    },
    {
      "inputs": [
        {
          "internalType": "address",
          "name": "",
          "type": "address"
        }
      ],
      "name": "tokensLocked",
      "outputs": [
        {
          "internalType": "uint256",
          "name": "amount",
          "type": "uint256"
        },
        {
          "internalType": "uint256",
          "name": "timestamp",
          "type": "uint256"
        }
      ],
      "stateMutability": "view",
      "type": "function"
    },
    {
      "inputs": [],
      "name": "totalLocked",
      "outputs": [
        {
          "internalType": "uint256",
          "name": "",
          "type": "uint256"
        }
      ],
      "stateMutability": "view",
      "type": "function"
    },
    {
      "inputs": [],
      "name": "totalProposals",
      "outputs": [
        {
          "internalType": "uint256",
          "name": "",
          "type": "uint256"
        }
      ],
      "stateMutability": "view",
      "type": "function"
    },
    {
      "inputs": [],
      "name": "voteGas",
      "outputs": [
        {
          "internalType": "uint256",
          "name": "",
          "type": "uint256"
        }
      ],
      "stateMutability": "view",
      "type": "function"
    },
    {
      "inputs": [
        {
          "internalType": "address",
          "name": "account",
          "type": "address"
        }
      ],
      "name": "votingPowerOf",
      "outputs": [
        {
          "internalType": "uint256",
          "name": "",
          "type": "uint256"
        }
      ],
      "stateMutability": "view",
      "type": "function"
    },
    {
      "inputs": [
        {
          "internalType": "address",
          "name": "account",
          "type": "address"
        },
        {
          "internalType": "uint256",
          "name": "snapshotId",
          "type": "uint256"
        }
      ],
      "name": "votingPowerOfAt",
      "outputs": [
        {
          "internalType": "uint256",
          "name": "",
          "type": "uint256"
        }
      ],
      "stateMutability": "view",
      "type": "function"
    },
    {
      "inputs": [
        {
          "internalType": "address[]",
          "name": "accounts",
          "type": "address[]"
        },
        {
          "internalType": "uint256[]",
          "name": "snapshotIds",
          "type": "uint256[]"
        }
      ],
      "name": "votingPowerOfMultipleAt",
      "outputs": [
        {
          "internalType": "uint256[]",
          "name": "",
          "type": "uint256[]"
        }
      ],
      "stateMutability": "view",
      "type": "function"
    },
    {
      "inputs": [],
      "name": "votingPowerPercentageForProposalCreation",
      "outputs": [
        {
          "internalType": "uint256",
          "name": "",
          "type": "uint256"
        }
      ],
      "stateMutability": "view",
      "type": "function"
    },
    {
      "inputs": [],
      "name": "votingPowerPercentageForProposalExecution",
      "outputs": [
        {
          "internalType": "uint256",
          "name": "",
          "type": "uint256"
        }
      ],
      "stateMutability": "view",
      "type": "function"
    },
    {
      "inputs": [
        {
          "internalType": "uint256",
          "name": "",
          "type": "uint256"
        }
      ],
      "name": "withdrawTokens",
      "outputs": [],
      "stateMutability": "nonpayable",
      "type": "function"
    }
  ],
  "bytecode": "0x608060405234801561001057600080fd5b50615067806100206000396000f3fe608060405260043610620003c15760003560e01c80635e508c2c11620001f7578063ae6192341162000117578063e045035311620000a7578063f98606a71162000075578063f98606a71462000b6b578063f9a92d821462000b83578063fc0c546a1462000ba8578063fc4e703f1462000bca57005b8063e04503531462000ae0578063e158080a1462000af8578063f09951981462000b10578063f4732da61462000b5357005b8063bcc3f3bd11620000e5578063bcc3f3bd1462000a68578063c0a4d64d1462000a8d578063c93e01e31462000aa4578063d8c6a6d11462000abb57005b8063ae61923414620009ef578063b3929aaa1462000a07578063b3b470611462000a2c578063b7c15f8d1462000a5157005b806389c98c061162000193578063a78d80fc1162000161578063a78d80fc1462000974578063a7aeb557146200098c578063ad6c1e3414620009a4578063adf2c7b614620009bb57005b806389c98c0614620009015780638f180305146200091857806392b71654146200092f578063a16fe342146200095457005b80636e27d88911620001d15780636e27d88914620006e657806371893546146200088557806377027ff414620008b65780638029eff114620008cd57005b80635e508c2c146200083f57806364fe6ed214620008575780636c8b72f6146200086e57005b80632467ef9411620002e357806336f8f8d9116200027f578063430694cf116200024d578063430694cf14620007b157806354f2f7af14620007e55780635689141214620008055780635bc789d9146200081d57005b806336f8f8d914620007445780633bf353fb14620007695780633de39c1114620007815780633f10cf15146200079957005b80632d757c3e11620002bd5780632d757c3e14620006645780632fd99c0014620006a1578063315a095d14620006e657806332ed5b12146200070b57005b80632467ef9414620005fe57806325c069fc14620006155780632d5b17de146200063f57005b806313108d74116200035f5780631a5007dd116200032d5780631a5007dd146200056b57806321df0da714620005825780632229a0e214620005b657806322bafdff14620005cd57005b806313108d7414620004f157806316bbecde146200051657806317d7de7c146200053b578063184a0ae9146200055357005b80630a366a63116200039d5780630a366a6314620004685780630d668087146200048f578063123f6d6714620004a7578063130485fe14620004cc57005b80623a40d014620003c357806301a598a614620003f357806306fdde031462000441575b005b348015620003d057600080fd5b50620003db62000be2565b604051620003ea919062003919565b60405180910390f35b3480156200040057600080fd5b506200042b620004123660046200397c565b6012602052600090815260409020805460019091015482565b60408051928352602083019190915201620003ea565b3480156200044e57600080fd5b506200045962000c3c565b604051620003ea9190620039e2565b3480156200047557600080fd5b506200048062000cd2565b604051908152602001620003ea565b3480156200049c57600080fd5b5062000480600d5481565b348015620004b457600080fd5b50620003c1620004c6366004620039f7565b62000d01565b348015620004d957600080fd5b506200042b620004eb36600462003a60565b62000e9a565b348015620004fe57600080fd5b50620004806200051036600462003cfd565b62000ecc565b3480156200052357600080fd5b50620003c16200053536600462003de7565b62000f73565b3480156200054857600080fd5b5062000459620010ee565b3480156200056057600080fd5b506200048060035481565b3480156200057857600080fd5b50600a5462000480565b3480156200058f57600080fd5b506000546001600160a01b03165b6040516001600160a01b039091168152602001620003ea565b348015620005c357600080fd5b5060165462000480565b348015620005da57600080fd5b5062000480620005ec36600462003e14565b60009081526018602052604090205490565b3480156200060b57600080fd5b50600c5462000480565b3480156200062257600080fd5b506200062c600a81565b60405160ff9091168152602001620003ea565b3480156200064c57600080fd5b50620003c16200065e36600462003e2e565b6200117f565b3480156200067157600080fd5b5062000480620006833660046200397c565b6001600160a01b031660009081526012602052604090206001015490565b348015620006ae57600080fd5b50620006d5620006c036600462003e14565b60136020526000908152604090205460ff1681565b6040519015158152602001620003ea565b348015620006f357600080fd5b50620003c16200070536600462003e14565b620014ac565b3480156200071857600080fd5b50620007306200072a36600462003e14565b62001509565b604051620003ea9695949392919062003ed8565b3480156200075157600080fd5b50620003c16200076336600462003f38565b6200166d565b3480156200077657600080fd5b5062000480600c5481565b3480156200078e57600080fd5b506200048060085481565b348015620007a657600080fd5b506200048060045481565b348015620007be57600080fd5b50620007d6620007d036600462003e14565b6200184b565b604051620003ea9190620040c0565b348015620007f257600080fd5b506011546001600160a01b03166200059d565b3480156200081257600080fd5b5062000480600e5481565b3480156200082a57600080fd5b506011546200059d906001600160a01b031681565b3480156200084c57600080fd5b506200048060055481565b3480156200086457600080fd5b5060105462000480565b3480156200087b57600080fd5b5060075462000480565b3480156200089257600080fd5b5062000480620008a436600462003e14565b60186020526000908152604090205481565b348015620008c357600080fd5b5060095462000480565b348015620008da57600080fd5b50620006d5620008ec36600462003e14565b60009081526013602052604090205460ff1690565b3480156200090e57600080fd5b5060085462000480565b3480156200092557600080fd5b50600b5462000480565b3480156200093c57600080fd5b50620004806200094e366004620041cd565b62001bfe565b3480156200096157600080fd5b506001546001600160a01b03166200059d565b3480156200098157600080fd5b5062000480600a5481565b3480156200099957600080fd5b5062000480600f5481565b348015620009b157600080fd5b50600f5462000480565b348015620009c857600080fd5b50620009e0620009da36600462004209565b62001c55565b604051620003ea919062004274565b348015620009fc57600080fd5b506200048062001d33565b34801562000a1457600080fd5b506200048062000a2636600462003e14565b62001d45565b34801562000a3957600080fd5b50620003c162000a4b36600462003e14565b62001d67565b34801562000a5e57600080fd5b5060045462000480565b34801562000a7557600080fd5b506200048062000a873660046200397c565b620026c6565b34801562000a9a57600080fd5b50600d5462000480565b34801562000ab157600080fd5b5060035462000480565b34801562000ac857600080fd5b506200048062000ada36600462003e14565b62002738565b34801562000aed57600080fd5b506200048060095481565b34801562000b0557600080fd5b506200048060105481565b34801562000b1d57600080fd5b506200042b62000b2f36600462003a60565b60146020908152600092835260408084209091529082529020805460019091015482565b34801562000b6057600080fd5b5062000480620027e5565b34801562000b7857600080fd5b506200048060065481565b34801562000b9057600080fd5b506200048062000ba236600462004289565b62002860565b34801562000bb557600080fd5b506000546200059d906001600160a01b031681565b34801562000bd757600080fd5b506200048060075481565b6060601680548060200260200160405190810160405280929190818152602001828054801562000c3257602002820191906000526020600020905b81548152602001906001019080831162000c1d575b5050505050905090565b6002805462000c4b90620042b6565b80601f016020809104026020016040519081016040528092919081815260200182805462000c7990620042b6565b801562000cca5780601f1062000c9e5761010080835404028352916020019162000cca565b820191906000526020600020905b81548152906001019060200180831162000cac57829003601f168201915b505050505081565b600061271060065462000ce4620027e5565b62000cf0919062004308565b62000cfc919062004338565b905090565b33301462000d875760405162461bcd60e51b815260206004820152604260248201527f45524332304775696c643a204f6e6c792063616c6c61626c652062792045524360448201527f32306775696c6420697473656c66206f72207768656e20696e697469616c697a606482015261195960f21b608482015260a4015b60405180910390fd5b60008a1162000daa5760405162461bcd60e51b815260040162000d7e906200434f565b8983101562000dcd5760405162461bcd60e51b815260040162000d7e906200439e565b6000881162000df05760405162461bcd60e51b815260040162000d7e90620043fb565b6201c90886111562000e6b5760405162461bcd60e51b815260206004820152603960248201527f45524332304775696c643a20766f7465206761732068617320746f206265206560448201527f7175616c206f72206c6f776572207468616e2031313730303000000000000000606482015260840162000d7e565b600399909955600497909755600595909555600693909355600791909155600855600955600d55600f55601055565b60008281526014602090815260408083206001600160a01b0385168452909152902080546001909101545b9250929050565b60008062000edf888888888888620028e0565b905060008054906101000a90046001600160a01b03166001600160a01b0316635439ad866040518163ffffffff1660e01b8152600401602060405180830381865afa15801562000f33573d6000803e3d6000fd5b505050506040513d601f19601f8201168201806040525081019062000f59919062004458565b600082815260186020526040902055979650505050505050565b600083815260156020526040902060020154421062000fa65760405162461bcd60e51b815260040162000d7e9062004472565b600083815260186020526040902054819062000fc490339062002860565b1015801562000fee5750600083815260146020908152604080832033845290915290206001015481115b6200100d5760405162461bcd60e51b815260040162000d7e90620044c8565b60008381526014602090815260408083203384529091529020541580156200104f57506000838152601460209081526040808320338452909152902060010154155b80620010735750600083815260146020908152604080832033845290915290205482145b620010db5760405162461bcd60e51b815260206004820152603160248201527f536e617073686f7452657045524332304775696c643a2043616e6e6f74206368604482015270185b99d9481bdc1d1a5bdb881d9bdd1959607a1b606482015260840162000d7e565b620010e93384848462002eb2565b505050565b606060028054620010ff90620042b6565b80601f01602080910402602001604051908101604052809291908181526020018280546200112d90620042b6565b801562000c325780601f10620011525761010080835404028352916020019162000c32565b820191906000526020600020905b8154815290600101906020018083116200116057509395945050505050565b6000858152601560205260409020600201544210620011b25760405162461bcd60e51b815260040162000d7e9062004472565b6000620011c28387878762001bfe565b60008181526013602052604090205490915060ff1615620012325760405162461bcd60e51b8152602060048201526024808201527f536e617073686f7452657045524332304775696c643a20416c726561647920766044820152631bdd195960e21b606482015260840162000d7e565b62001296826200128f836040517f19457468657265756d205369676e6564204d6573736167653a0a3332000000006020820152603c8101829052600090605c01604051602081830303815290604052805190602001209050919050565b9062003100565b6001600160a01b0316836001600160a01b031614620013045760405162461bcd60e51b815260206004820152602360248201527f536e617073686f7452657045524332304775696c643a2057726f6e67207369676044820152623732b960e91b606482015260840162000d7e565b6000818152601360209081526040808320805460ff19166001179055888352601890915290205484906200133a90859062002860565b101580156200136d575060008681526014602090815260408083206001600160a01b038716845290915290206001015484115b6200138c5760405162461bcd60e51b815260040162000d7e90620044c8565b60008681526014602090815260408083206001600160a01b0387168452909152902054158015620013e0575060008681526014602090815260408083206001600160a01b0387168452909152902060010154155b806200140d575060008681526014602090815260408083206001600160a01b038716845290915290205485145b620014965760405162461bcd60e51b815260206004820152604c60248201527f536e617073686f7452657045524332304775696c643a2043616e6e6f7420636860448201527f616e6765206f7074696f6e20766f7465642c206f6e6c7920696e63726561736560648201526b103b37ba34b733a837bbb2b960a11b608482015260a40162000d7e565b620014a48387878762002eb2565b505050505050565b60405162461bcd60e51b815260206004820152602b60248201527f536e617073686f7452657045524332304775696c643a20746f6b656e2076617560448201526a1b1d08191a5cd8589b195960aa1b606482015260840162000d7e565b60156020526000908152604090208054600182015460028301546006840180546001600160a01b039094169492939192916200154590620042b6565b80601f01602080910402602001604051908101604052809291908181526020018280546200157390620042b6565b8015620015c45780601f106200159857610100808354040283529160200191620015c4565b820191906000526020600020905b815481529060010190602001808311620015a657829003601f168201915b505050505090806007018054620015db90620042b6565b80601f01602080910402602001604051908101604052809291908181526020018280546200160990620042b6565b80156200165a5780601f106200162e576101008083540402835291602001916200165a565b820191906000526020600020905b8154815290600101906020018083116200163c57829003601f168201915b5050506008909301549192505060ff1686565b60175462010000900460ff16806200168d5750601754610100900460ff16155b620016ac5760405162461bcd60e51b815260040162000d7e9062004519565b60175462010000900460ff16158015620016d2576017805462ffff001916620101001790555b620016e78c8c8c8c8c8c8c8c8c8c8c62003120565b600160009054906101000a90046001600160a01b03166001600160a01b0316636cfe0489308e7f40c10f19c047ae7dfa66d6312b683d2ea3dfbcb4159e96b967c5f4b0a86f2842600060016040518663ffffffff1660e01b81526004016200175495949392919062004567565b600060405180830381600087803b1580156200176f57600080fd5b505af115801562001784573d6000803e3d6000fd5b50505050600160009054906101000a90046001600160a01b03166001600160a01b0316636cfe0489308e7f9dc29fac0ba6d4fc521c69c2b0c636d612e3343bc39ed934429b8876b0d12cba600060016040518663ffffffff1660e01b8152600401620017f595949392919062004567565b600060405180830381600087803b1580156200181057600080fd5b505af115801562001825573d6000803e3d6000fd5b5050505080156200183d576017805462ff0000191690555b505050505050505050505050565b6200185562003723565b60008281526015602090815260409182902082516101408101845281546001600160a01b031681526001820154818401526002820154818501526003820180548551818602810186019096528086529194929360608601939290830182828015620018ea57602002820191906000526020600020905b81546001600160a01b03168152600190910190602001808311620018cb575b5050505050815260200160048201805480602002602001604051908101604052809291908181526020016000905b82821015620019ce5783829060005260206000200180546200193a90620042b6565b80601f01602080910402602001604051908101604052809291908181526020018280546200196890620042b6565b8015620019b95780601f106200198d57610100808354040283529160200191620019b9565b820191906000526020600020905b8154815290600101906020018083116200199b57829003601f168201915b50505050508152602001906001019062001918565b5050505081526020016005820180548060200260200160405190810160405280929190818152602001828054801562001a2757602002820191906000526020600020905b81548152602001906001019080831162001a12575b5050505050815260200160068201805462001a4290620042b6565b80601f016020809104026020016040519081016040528092919081815260200182805462001a7090620042b6565b801562001ac15780601f1062001a955761010080835404028352916020019162001ac1565b820191906000526020600020905b81548152906001019060200180831162001aa357829003601f168201915b5050505050815260200160078201805462001adc90620042b6565b80601f016020809104026020016040519081016040528092919081815260200182805462001b0a90620042b6565b801562001b5b5780601f1062001b2f5761010080835404028352916020019162001b5b565b820191906000526020600020905b81548152906001019060200180831162001b3d57829003601f168201915b5050509183525050600882015460209091019060ff16600481111562001b855762001b8562003e9f565b600481111562001b995762001b9962003e9f565b81526020016009820180548060200260200160405190810160405280929190818152602001828054801562001bee57602002820191906000526020600020905b81548152602001906001019080831162001bd9575b5050505050815250509050919050565b6040516bffffffffffffffffffffffff19606086901b166020820152603481018490526054810183905260748101829052600090609401604051602081830303815290604052805190602001209050949350505050565b60606000835167ffffffffffffffff81111562001c765762001c7662003a8f565b60405190808252806020026020018201604052801562001ca0578160200160208202803683370190505b50905060005b845181101562001d295762001cf485828151811062001cc95762001cc9620045a2565b602002602001015185838151811062001ce65762001ce6620045a2565b602002602001015162002860565b82828151811062001d095762001d09620045a2565b60209081029190910101528062001d2081620045b8565b91505062001ca6565b5090505b92915050565b600061271060055462000ce4620027e5565b6016818154811062001d5657600080fd5b600091825260209091200154905081565b60175460ff161562001dcf5760405162461bcd60e51b815260206004820152602a60248201527f4552433230536e617073686f745265703a2050726f706f73616c20756e6465726044820152691032bc32b1baba34b7b760b11b606482015260840162000d7e565b600160008281526015602052604090206008015460ff16600481111562001dfa5762001dfa62003e9f565b1462001e5d5760405162461bcd60e51b815260206004820152602b60248201527f4552433230536e617073686f745265703a2050726f706f73616c20616c72656160448201526a191e48195e1958dd5d195960aa1b606482015260840162000d7e565b600081815260156020526040902060020154421162001ed35760405162461bcd60e51b815260206004820152602b60248201527f4552433230536e617073686f745265703a2050726f706f73616c206861736e2760448201526a1d08195b991959081e595d60aa1b606482015260840162000d7e565b60008181526015602052604081206009018054829190829062001efa5762001efa620045a2565b600091825260209091200154905060015b6000848152601560205260409020600901548110156200203a5762001f308462002738565b600085815260156020526040902060090180548390811062001f565762001f56620045a2565b90600052602060002001541015801562001fa25750600084815260156020526040902060090180548391908390811062001f945762001f94620045a2565b906000526020600020015410155b156200202557600084815260156020526040902060090180548391908390811062001fd15762001fd1620045a2565b90600052602060002001540362001fec576000925062002025565b60008481526015602052604090206009018054919350839182908110620020175762002017620045a2565b906000526020600020015491505b806200203181620045b8565b91505062001f0b565b826000036200208d576000848152601560205260409020600801805460ff19166002908117909155849060008051602062005012833981519152905b60405190815260200160405180910390a2620026ad565b6004546000858152601560205260409020600201544291620020b0919062003368565b1015620020ef576000848152601560205260409020600801805460ff191660049081179091558490600080516020620050128339815191529062002076565b600084815260156020526040812060088101805460ff19166003179055600901546200213b906200212290600162003376565b6000878152601560205260409020600301549062003384565b9050620021566200214e85600162003376565b829062003392565b9150600062002166838362003368565b9050600160009054906101000a90046001600160a01b03166001600160a01b0316633e7a47b26040518163ffffffff1660e01b8152600401600060405180830381600087803b158015620021b957600080fd5b505af1158015620021ce573d6000803e3d6000fd5b505050505b8083101562002616576000868152601560205260408120600301805485908110620022025762002202620045a2565b6000918252602090912001546001600160a01b0316148015906200226257506000868152601560205260408120600401805485908110620022475762002247620045a2565b9060005260206000200180546200225e90620042b6565b9050115b15620026015760008681526015602052604081206004018054859081106200228e576200228e620045a2565b906000526020600020018054620022a590620042b6565b80601f0160208091040260200160405190810160405280929190818152602001828054620022d390620042b6565b8015620023245780601f10620022f85761010080835404028352916020019162002324565b820191906000526020600020905b8154815290600101906020018083116200230657829003601f168201915b50505060208084015160015460008d815260159093526040909220600301805495965090946001600160a01b03909216935063eed470339250309189908110620023725762002372620045a2565b9060005260206000200160009054906101000a90046001600160a01b031684601560008e81526020019081526020016000206005018a81548110620023bb57620023bb620045a2565b60009182526020909120015460405160e086901b6001600160e01b031990811682526001600160a01b039586166004830152939094166024850152911660448301526064820152608401600060405180830381600087803b1580156200242057600080fd5b505af192505050801562002432575060015b6200248d5762002441620045d4565b806308c379a00362002481575062002458620045f1565b8062002465575062002483565b8060405162461bcd60e51b815260040162000d7e9190620039e2565b505b3d6000803e3d6000fd5b6017805460ff191660011790556000888152601560205260408120600301805487908110620024c057620024c0620045a2565b60009182526020808320909101548b83526015909152604090912060050180546001600160a01b039092169188908110620024ff57620024ff620045a2565b9060005260206000200154601560008c81526020019081526020016000206004018881548110620025345762002534620045a2565b906000526020600020016040516200254d919062004681565b60006040518083038185875af1925050503d80600081146200258c576040519150601f19603f3d011682016040523d82523d6000602084013e62002591565b606091505b5050905080620025f35760405162461bcd60e51b815260206004820152602660248201527f4552433230536e617073686f745265703a2050726f706f73616c2063616c6c2060448201526519985a5b195960d21b606482015260840162000d7e565b50506017805460ff19169055505b826200260d81620045b8565b935050620021d3565b60015460405163fb0fde8560e01b81523060048201526001600160a01b039091169063fb0fde8590602401602060405180830381865afa1580156200265f573d6000803e3d6000fd5b505050506040513d601f19601f82011682018060405250810190620026859190620046ff565b508560008051602062005012833981519152600360405190815260200160405180910390a250505b600c54620026bd90600162003376565b600c5550505050565b600080546040516370a0823160e01b81526001600160a01b038481166004830152909116906370a0823190602401602060405180830381865afa15801562002712573d6000803e3d6000fd5b505050506040513d601f19601f8201168201806040525081019062001d2d919062004458565b60055460008054909162001d2d9161271091620027de916001600160a01b031663981b24d0620027748860009081526018602052604090205490565b6040518263ffffffff1660e01b81526004016200279391815260200190565b602060405180830381865afa158015620027b1573d6000803e3d6000fd5b505050506040513d601f19601f82011682018060405250810190620027d7919062004458565b9062003392565b9062003384565b60008060009054906101000a90046001600160a01b03166001600160a01b03166318160ddd6040518163ffffffff1660e01b8152600401602060405180830381865afa1580156200283a573d6000803e3d6000fd5b505050506040513d601f19601f8201168201806040525081019062000cfc919062004458565b6000805460405163277166bf60e11b81526001600160a01b0385811660048301526024820185905290911690634ee2cd7e90604401602060405180830381865afa158015620028b3573d6000803e3d6000fd5b505050506040513d601f19601f82011682018060405250810190620028d9919062004458565b9392505050565b6000601054600e5410156200295e5760405162461bcd60e51b815260206004820152603960248201527f45524332304775696c643a204e6f7420656e6f75676820746f6b656e73206c6f60448201527f636b656420746f2063726561746520612070726f706f73616c00000000000000606482015260840162000d7e565b600f54600b541015620029d05760405162461bcd60e51b815260206004820152603360248201527f45524332304775696c643a204e6f7420656e6f756768206d656d6265727320746044820152721bc818dc99585d194818481c1c9bdc1bdcd85b606a1b606482015260840162000d7e565b600954600c541062002a445760405162461bcd60e51b815260206004820152603660248201527f45524332304775696c643a204d6178696d756d20616d6f756e74206f662061636044820152751d1a5d99481c1c9bdc1bdcd85b1cc81c995858da195960521b606482015260840162000d7e565b62002a4e62000cd2565b62002a5933620026c6565b101562002ac75760405162461bcd60e51b815260206004820152603560248201527f45524332304775696c643a204e6f7420656e6f75676820766f74696e67506f77604482015274195c881d1bc818dc99585d19481c1c9bdc1bdcd85b605a1b606482015260840162000d7e565b8551875114801562002ada575084518751145b62002b455760405162461bcd60e51b815260206004820152603460248201527f45524332304775696c643a2057726f6e67206c656e677468206f6620746f2c2060448201527364617461206f722076616c75652061727261797360601b606482015260840162000d7e565b600087511162002bb25760405162461bcd60e51b815260206004820152603160248201527f45524332304775696c643a20746f2c20646174612076616c7565206172726179604482015270732063616e6e6f7420626520656d70747960781b606482015260840162000d7e565b8651841115801562002bd0575083855162002bce919062004723565b155b62002c445760405162461bcd60e51b815260206004820152603760248201527f45524332304775696c643a20496e76616c696420746f74616c4f7074696f6e7360448201527f206f72206f7074696f6e2063616c6c73206c656e677468000000000000000000606482015260840162000d7e565b600a84111562002cbd5760405162461bcd60e51b815260206004820152603a60248201527f45524332304775696c643a204d6178696d756d20616d6f756e74206f66206f7060448201527f74696f6e73207065722070726f706f73616c2072656163686564000000000000606482015260840162000d7e565b600a546040516bffffffffffffffffffffffff193360601b1660208201524260348201526054810191909152600090607401604051602081830303815290604052805190602001209050600a54600162002d1891906200473a565b600a55600081815260156020526040902080546001600160a01b03191633178155426001820181905560035462002d4f916200473a565b6002820155885162002d6b90600383019060208c019062003793565b50875162002d8390600483019060208b0190620037fd565b50865162002d9b90600583019060208a019062003856565b506006810162002dac86826200479a565b506007810162002dbd85826200479a565b5062002dcb8660016200473a565b67ffffffffffffffff81111562002de65762002de662003a8f565b60405190808252806020026020018201604052801562002e10578160200160208202803683370190505b50805162002e2991600984019160209091019062003856565b5060088101805460ff19166001908117909155600c5462002e4a916200473a565b600c558160008051602062005012833981519152600160405190815260200160405180910390a250601680546001810182556000919091527fd833147d7dc355ba459fc788f669e58cfaf9dc25ddcd0702e87d69c7b512428901819055979650505050505050565b60008381526014602090815260408083206001600160a01b038816845282528083206001015486845260159092529091206009018054839291908590811062002eff5762002eff620045a2565b906000526020600020015462002f16919062004867565b62002f2291906200473a565b600084815260156020526040902060090180548490811062002f485762002f48620045a2565b60009182526020808320909101929092558481526014825260408082206001600160a01b038816835283528082208581556001018490558582526015909252206002015462002faf856001600160a01b031660009081526012602052604090206001015490565b101562002fe4576000838152601560209081526040808320600201546001600160a01b03881684526012909252909120600101555b604080516001600160a01b038616815260208101839052839185917f583c62f152711bcb1ca6186c1065821ff17a7cbe226dcb559a1c889dcf0d769b910160405180910390a360075415620030fa5760006200304c6008543a620033a090919063ffffffff16565b6007546200305b919062004308565b9050804710620030f857604051600090339083908381818185875af1925050503d8060008114620030a9576040519150601f19603f3d011682016040523d82523d6000602084013e620030ae565b606091505b5050905080620014a45760405162461bcd60e51b81526020600482015260146024820152734661696c656420746f20726566756e642067617360601b604482015260640162000d7e565b505b50505050565b6000806000620031118585620033b8565b9150915062001d29816200342c565b60175462010000900460ff1680620031405750601754610100900460ff16155b6200315f5760405162461bcd60e51b815260040162000d7e9062004519565b60175462010000900460ff1615801562003185576017805462ffff001916620101001790555b6001600160a01b038c16620031ec5760405162461bcd60e51b815260206004820152602660248201527f45524332304775696c643a20746f6b656e2063616e74206265207a65726f206160448201526564647265737360d01b606482015260840162000d7e565b60008b116200320f5760405162461bcd60e51b815260040162000d7e906200434f565b8a831015620032325760405162461bcd60e51b815260040162000d7e906200439e565b60008911620032555760405162461bcd60e51b815260040162000d7e90620043fb565b60026200326388826200479a565b50600080546001600160a01b0319166001600160a01b038e169081179091556040513090620032929062003894565b6001600160a01b03928316815291166020820152604001604051809103906000f080158015620032c6573d6000803e3d6000fd5b50601180546001600160a01b03199081166001600160a01b039384161790915560038d905560048c905560058b905560068a9055600788905560088790556009869055600d859055600180549091169184169190911790556040517ff0454e7b3dd17b2d61d817c1ec7d3417104e974ed42b6e08d9f77f65ffad92b790600090a180156200183d576017805462ff000019169055505050505050505050505050565b6000620028d982846200473a565b6000620028d9828462004867565b6000620028d9828462004338565b6000620028d9828462004308565b6000818310620033b15781620028d9565b5090919050565b6000808251604103620033f25760208301516040840151606085015160001a620033e587828585620035fd565b9450945050505062000ec5565b82516040036200341f576020830151604084015162003413868383620036f2565b93509350505062000ec5565b5060009050600262000ec5565b600081600481111562003443576200344362003e9f565b036200344c5750565b600181600481111562003463576200346362003e9f565b03620034b25760405162461bcd60e51b815260206004820152601860248201527f45434453413a20696e76616c6964207369676e61747572650000000000000000604482015260640162000d7e565b6002816004811115620034c957620034c962003e9f565b03620035185760405162461bcd60e51b815260206004820152601f60248201527f45434453413a20696e76616c6964207369676e6174757265206c656e67746800604482015260640162000d7e565b60038160048111156200352f576200352f62003e9f565b03620035895760405162461bcd60e51b815260206004820152602260248201527f45434453413a20696e76616c6964207369676e6174757265202773272076616c604482015261756560f01b606482015260840162000d7e565b6004816004811115620035a057620035a062003e9f565b03620035fa5760405162461bcd60e51b815260206004820152602260248201527f45434453413a20696e76616c6964207369676e6174757265202776272076616c604482015261756560f01b606482015260840162000d7e565b50565b6000807f7fffffffffffffffffffffffffffffff5d576e7357a4501ddfe92f46681b20a0831115620036365750600090506003620036e9565b8460ff16601b141580156200364f57508460ff16601c14155b15620036625750600090506004620036e9565b6040805160008082526020820180845289905260ff881692820192909252606081018690526080810185905260019060a0016020604051602081039080840390855afa158015620036b7573d6000803e3d6000fd5b5050604051601f1901519150506001600160a01b038116620036e257600060019250925050620036e9565b9150600090505b94509492505050565b6000806001600160ff1b03831660ff84901c601b016200371587828885620035fd565b935093505050935093915050565b60405180610140016040528060006001600160a01b03168152602001600081526020016000815260200160608152602001606081526020016060815260200160608152602001606081526020016000600481111562003786576200378662003e9f565b8152602001606081525090565b828054828255906000526020600020908101928215620037eb579160200282015b82811115620037eb57825182546001600160a01b0319166001600160a01b03909116178255602090920191600190910190620037b4565b50620037f9929150620038a2565b5090565b82805482825590600052602060002090810192821562003848579160200282015b828111156200384857825182906200383790826200479a565b50916020019190600101906200381e565b50620037f9929150620038b9565b828054828255906000526020600020908101928215620037eb579160200282015b82811115620037eb57825182559160200191906001019062003877565b610794806200487e83390190565b5b80821115620037f95760008155600101620038a3565b80821115620037f9576000620038d08282620038da565b50600101620038b9565b508054620038e890620042b6565b6000825580601f10620038f9575050565b601f016020900490600052602060002090810190620035fa9190620038a2565b6020808252825182820181905260009190848201906040850190845b81811015620039535783518352928401929184019160010162003935565b50909695505050505050565b80356001600160a01b03811681146200397757600080fd5b919050565b6000602082840312156200398f57600080fd5b620028d9826200395f565b6000815180845260005b81811015620039c257602081850181015186830182015201620039a4565b506000602082860101526020601f19601f83011685010191505092915050565b602081526000620028d960208301846200399a565b6000806000806000806000806000806101408b8d03121562003a1857600080fd5b505088359a60208a01359a5060408a013599606081013599506080810135985060a0810135975060c0810135965060e081013595506101008101359450610120013592509050565b6000806040838503121562003a7457600080fd5b8235915062003a86602084016200395f565b90509250929050565b634e487b7160e01b600052604160045260246000fd5b601f8201601f1916810167ffffffffffffffff8111828210171562003ace5762003ace62003a8f565b6040525050565b600067ffffffffffffffff82111562003af25762003af262003a8f565b5060051b60200190565b600082601f83011262003b0e57600080fd5b8135602062003b1d8262003ad5565b60405162003b2c828262003aa5565b83815260059390931b850182019282810191508684111562003b4d57600080fd5b8286015b8481101562003b735762003b65816200395f565b835291830191830162003b51565b509695505050505050565b600082601f83011262003b9057600080fd5b813567ffffffffffffffff81111562003bad5762003bad62003a8f565b60405162003bc6601f8301601f19166020018262003aa5565b81815284602083860101111562003bdc57600080fd5b816020850160208301376000918101602001919091529392505050565b600082601f83011262003c0b57600080fd5b8135602062003c1a8262003ad5565b60405162003c29828262003aa5565b83815260059390931b850182019282810191508684111562003c4a57600080fd5b8286015b8481101562003b7357803567ffffffffffffffff81111562003c705760008081fd5b62003c808986838b010162003b7e565b84525091830191830162003c4e565b600082601f83011262003ca157600080fd5b8135602062003cb08262003ad5565b60405162003cbf828262003aa5565b83815260059390931b850182019282810191508684111562003ce057600080fd5b8286015b8481101562003b73578035835291830191830162003ce4565b60008060008060008060c0878903121562003d1757600080fd5b863567ffffffffffffffff8082111562003d3057600080fd5b62003d3e8a838b0162003afc565b9750602089013591508082111562003d5557600080fd5b62003d638a838b0162003bf9565b9650604089013591508082111562003d7a57600080fd5b62003d888a838b0162003c8f565b955060608901359450608089013591508082111562003da657600080fd5b62003db48a838b0162003b7e565b935060a089013591508082111562003dcb57600080fd5b5062003dda89828a0162003b7e565b9150509295509295509295565b60008060006060848603121562003dfd57600080fd5b505081359360208301359350604090920135919050565b60006020828403121562003e2757600080fd5b5035919050565b600080600080600060a0868803121562003e4757600080fd5b85359450602086013593506040860135925062003e67606087016200395f565b9150608086013567ffffffffffffffff81111562003e8457600080fd5b62003e928882890162003b7e565b9150509295509295909350565b634e487b7160e01b600052602160045260246000fd5b6005811062003ed457634e487b7160e01b600052602160045260246000fd5b9052565b60018060a01b038716815285602082015284604082015260c06060820152600062003f0760c08301866200399a565b828103608084015262003f1b81866200399a565b91505062003f2d60a083018462003eb5565b979650505050505050565b60008060008060008060008060008060006101608c8e03121562003f5b57600080fd5b62003f668c6200395f565b9a5060208c0135995060408c0135985060608c0135975060808c0135965060a08c013567ffffffffffffffff81111562003f9f57600080fd5b62003fad8e828f0162003b7e565b96505060c08c0135945060e08c013593506101008c013592506101208c0135915062003fdd6101408d016200395f565b90509295989b509295989b9093969950565b600081518084526020808501945080840160005b838110156200402a5781516001600160a01b03168752958201959082019060010162004003565b509495945050505050565b600081518084526020808501808196508360051b8101915082860160005b85811015620040815782840389526200406e8483516200399a565b9885019893509084019060010162004053565b5091979650505050505050565b600081518084526020808501945080840160005b838110156200402a57815187529582019590820190600101620040a2565b60208152620040db6020820183516001600160a01b03169052565b6020820151604082015260408201516060820152600060608301516101408060808501526200410f61016085018362003fef565b91506080850151601f19808685030160a08701526200412f848362004035565b935060a08701519150808685030160c08701526200414e84836200408e565b935060c08701519150808685030160e08701526200416d84836200399a565b935060e087015191506101008187860301818801526200418e85846200399a565b945080880151925050610120620041a88188018462003eb5565b870151868503909101838701529050620041c383826200408e565b9695505050505050565b60008060008060808587031215620041e457600080fd5b620041ef856200395f565b966020860135965060408601359560600135945092505050565b600080604083850312156200421d57600080fd5b823567ffffffffffffffff808211156200423657600080fd5b620042448683870162003afc565b935060208501359150808211156200425b57600080fd5b506200426a8582860162003c8f565b9150509250929050565b602081526000620028d960208301846200408e565b600080604083850312156200429d57600080fd5b620042a8836200395f565b946020939093013593505050565b600181811c90821680620042cb57607f821691505b602082108103620042ec57634e487b7160e01b600052602260045260246000fd5b50919050565b634e487b7160e01b600052601160045260246000fd5b808202811582820484141762001d2d5762001d2d620042f2565b634e487b7160e01b600052601260045260246000fd5b6000826200434a576200434a62004322565b500490565b6020808252602f908201527f45524332304775696c643a2070726f706f73616c2074696d652068617320746f60408201526e0206265206d6f7265207468616e203608c1b606082015260800190565b6020808252603e908201527f45524332304775696c643a206c6f636b54696d652068617320746f206265206860408201527f6967686572206f7220657175616c20746f2070726f706f73616c54696d650000606082015260800190565b6020808252603c908201527f45524332304775696c643a20766f74696e6720706f77657220666f722065786560408201527f637574696f6e2068617320746f206265206d6f7265207468616e203000000000606082015260800190565b6000602082840312156200446b57600080fd5b5051919050565b60208082526036908201527f536e617073686f7452657045524332304775696c643a2050726f706f73616c20604082015275195b9919590b0818d85b9b9bdd081899481d9bdd195960521b606082015260800190565b60208082526031908201527f536e617073686f7452657045524332304775696c643a20496e76616c696420766040820152701bdd1a5b99d41bddd95c88185b5bdd5b9d607a1b606082015260800190565b6020808252602e908201527f496e697469616c697a61626c653a20636f6e747261637420697320616c72656160408201526d191e481a5b9a5d1a585b1a5e995960921b606082015260800190565b6001600160a01b0395861681529390941660208401526001600160e01b03199190911660408301526060820152901515608082015260a00190565b634e487b7160e01b600052603260045260246000fd5b600060018201620045cd57620045cd620042f2565b5060010190565b600060033d1115620045ee5760046000803e5060005160e01c5b90565b600060443d1015620046005790565b6040516003193d81016004833e81513d67ffffffffffffffff81602484011181841117156200463157505050505090565b82850191508151818111156200464a5750505050505090565b843d8701016020828501011115620046655750505050505090565b620046766020828601018762003aa5565b509095945050505050565b60008083546200469181620042b6565b60018281168015620046ac5760018114620046c257620046f3565b60ff1984168752821515830287019450620046f3565b8760005260208060002060005b85811015620046ea5781548a820152908401908201620046cf565b50505082870194505b50929695505050505050565b6000602082840312156200471257600080fd5b81518015158114620028d957600080fd5b60008262004735576200473562004322565b500690565b8082018082111562001d2d5762001d2d620042f2565b601f821115620010e957600081815260208120601f850160051c81016020861015620047795750805b601f850160051c820191505b81811015620014a45782815560010162004785565b815167ffffffffffffffff811115620047b757620047b762003a8f565b620047cf81620047c88454620042b6565b8462004750565b602080601f831160018114620048075760008415620047ee5750858301515b600019600386901b1c1916600185901b178555620014a4565b600085815260208120601f198616915b82811015620048385788860151825594840194600190910190840162004817565b5085821015620048575787850151600019600388901b60f8161c191681555b5050505050600190811b01905550565b8181038181111562001d2d5762001d2d620042f256fe608060405234801561001057600080fd5b5060405161079438038061079483398101604081905261002f9161007c565b600080546001600160a01b039384166001600160a01b031991821617909155600180549290931691161790556100af565b80516001600160a01b038116811461007757600080fd5b919050565b6000806040838503121561008f57600080fd5b61009883610060565b91506100a660208401610060565b90509250929050565b6106d6806100be6000396000f3fe608060405234801561001057600080fd5b506004361061007d5760003560e01c80636e9960c31161005b5780636e9960c3146100ef578063f3fef3a314610100578063f851a44014610113578063fc0c546a1461012657600080fd5b806321df0da71461008257806327e235e3146100ac57806347e7ef24146100da575b600080fd5b6000546001600160a01b03165b6040516001600160a01b0390911681526020015b60405180910390f35b6100cc6100ba36600461058a565b60026020526000908152604090205481565b6040519081526020016100a3565b6100ed6100e83660046105a5565b610139565b005b6001546001600160a01b031661008f565b6100ed61010e3660046105a5565b61020a565b60015461008f906001600160a01b031681565b60005461008f906001600160a01b031681565b6001546001600160a01b031633146101af5760405162461bcd60e51b815260206004820152602e60248201527f546f6b656e5661756c743a204465706f736974206d7573742062652073656e7460448201526d103a343937bab3b41030b236b4b760911b60648201526084015b60405180910390fd5b6000546101c7906001600160a01b031683308461025b565b6001600160a01b0382166000908152600260205260409020546101ea90826102cc565b6001600160a01b0390921660009081526002602052604090209190915550565b6001546001600160a01b0316331461022157600080fd5b600054610238906001600160a01b031683836102e1565b6001600160a01b0382166000908152600260205260409020546101ea9082610316565b6040516001600160a01b03808516602483015283166044820152606481018290526102c69085906323b872dd60e01b906084015b60408051601f198184030181529190526020810180516001600160e01b03166001600160e01b031990931692909217909152610322565b50505050565b60006102d882846105e5565b90505b92915050565b6040516001600160a01b03831660248201526044810182905261031190849063a9059cbb60e01b9060640161028f565b505050565b60006102d882846105f8565b6000610377826040518060400160405280602081526020017f5361666545524332303a206c6f772d6c6576656c2063616c6c206661696c6564815250856001600160a01b03166103f49092919063ffffffff16565b8051909150156103115780806020019051810190610395919061060b565b6103115760405162461bcd60e51b815260206004820152602a60248201527f5361666545524332303a204552433230206f7065726174696f6e20646964206e6044820152691bdd081cdd58d8d9595960b21b60648201526084016101a6565b6060610403848460008561040d565b90505b9392505050565b60608247101561046e5760405162461bcd60e51b815260206004820152602660248201527f416464726573733a20696e73756666696369656e742062616c616e636520666f6044820152651c8818d85b1b60d21b60648201526084016101a6565b843b6104bc5760405162461bcd60e51b815260206004820152601d60248201527f416464726573733a2063616c6c20746f206e6f6e2d636f6e747261637400000060448201526064016101a6565b600080866001600160a01b031685876040516104d89190610651565b60006040518083038185875af1925050503d8060008114610515576040519150601f19603f3d011682016040523d82523d6000602084013e61051a565b606091505b509150915061052a828286610535565b979650505050505050565b60608315610544575081610406565b8251156105545782518084602001fd5b8160405162461bcd60e51b81526004016101a6919061066d565b80356001600160a01b038116811461058557600080fd5b919050565b60006020828403121561059c57600080fd5b6102d88261056e565b600080604083850312156105b857600080fd5b6105c18361056e565b946020939093013593505050565b634e487b7160e01b600052601160045260246000fd5b808201808211156102db576102db6105cf565b818103818111156102db576102db6105cf565b60006020828403121561061d57600080fd5b8151801515811461040657600080fd5b60005b83811015610648578181015183820152602001610630565b50506000910152565b6000825161066381846020870161062d565b9190910192915050565b602081526000825180602084015261068c81604085016020870161062d565b601f01601f1916919091016040019291505056fea26469706673582212200dc40e929cb7cd09eab9a5dff5e560bcf87fefdb78df12750c3659d40d03ae5e64736f6c63430008110033fee62a9eec0be50eb061c711990ef0f1e17b40ea131d9347b0468acdaf8bf243a2646970667358221220984f41165af6499a10c58beeccbf32f19a51babd44ef3d266d70c4b4989b15d664736f6c63430008110033",
  "linkReferences": {},
  "deployedLinkReferences": {}
}