{
  "_format": "hh-sol-artifact-1",
  "contractName": "VotingMachine",
  "sourceName": "contracts/dao/votingMachine/VotingMachine.sol",
  "abi": [
    {
      "inputs": [
        {
          "internalType": "contract IERC20",
          "name": "stakingTokenAddress",
          "type": "address"
        }
      ],
      "stateMutability": "nonpayable",
      "type": "constructor"
    },
    {
      "inputs": [],
      "name": "VotingMachine__AddressNotRegisteredInSchemeRefounds",
      "type": "error"
    },
    {
      "inputs": [],
      "name": "VotingMachine__EndCannotBeBiggerThanListLength",
      "type": "error"
    },
    {
      "inputs": [],
      "name": "VotingMachine__InvalidNonce",
      "type": "error"
    },
    {
      "inputs": [],
      "name": "VotingMachine__InvalidOptionsAmount",
      "type": "error"
    },
    {
      "inputs": [],
      "name": "VotingMachine__InvalidParameters",
      "type": "error"
    },
    {
      "inputs": [],
      "name": "VotingMachine__NotEnoughtReputation",
      "type": "error"
    },
    {
      "inputs": [],
      "name": "VotingMachine__OnlySchemeOrAvatarCanSetSchemeRefound",
      "type": "error"
    },
    {
      "inputs": [],
      "name": "VotingMachine__ProposalAlreadyVoted",
      "type": "error"
    },
    {
      "inputs": [],
      "name": "VotingMachine__ProposalIsNotVotable",
      "type": "error"
    },
    {
      "inputs": [],
      "name": "VotingMachine__SchemeRefundBalanceIsZero",
      "type": "error"
    },
    {
      "inputs": [
        {
          "internalType": "string",
          "name": "",
          "type": "string"
        }
      ],
      "name": "VotingMachine__SetParametersError",
      "type": "error"
    },
    {
      "inputs": [],
      "name": "VotingMachine__StakingAmountIsTooHight",
      "type": "error"
    },
    {
      "inputs": [],
      "name": "VotingMachine__StakingAmountShouldBeBiggerThanZero",
      "type": "error"
    },
    {
      "inputs": [],
      "name": "VotingMachine__StartCannotBeBiggerThanEnd",
      "type": "error"
    },
    {
      "inputs": [],
      "name": "VotingMachine__StartCannotBeBiggerThanListLength",
      "type": "error"
    },
    {
      "inputs": [],
      "name": "VotingMachine__TotalStakesIsToHight",
      "type": "error"
    },
    {
      "inputs": [
        {
          "internalType": "address",
          "name": "to",
          "type": "address"
        },
        {
          "internalType": "uint256",
          "name": "amount",
          "type": "uint256"
        }
      ],
      "name": "VotingMachine__TransferFailed",
      "type": "error"
    },
    {
      "inputs": [],
      "name": "VotingMachine__TransferFromStakerFailed",
      "type": "error"
    },
    {
      "inputs": [],
      "name": "VotingMachine__VoterMustHaveReputation",
      "type": "error"
    },
    {
      "inputs": [],
      "name": "VotingMachine__WrongDecisionValue",
      "type": "error"
    },
    {
      "inputs": [],
      "name": "VotingMachine__WrongProposalStateToRedeem",
      "type": "error"
    },
    {
      "inputs": [],
      "name": "VotingMachine__WrongProposalStateToRedeemDaoBounty",
      "type": "error"
    },
    {
      "inputs": [],
      "name": "VotingMachine__WrongSigner",
      "type": "error"
    },
    {
      "inputs": [],
      "name": "VotingMachine__WrongStakingToken",
      "type": "error"
    },
    {
      "inputs": [],
      "name": "VotingMachine__WrongVoteShared",
      "type": "error"
    },
    {
      "anonymous": false,
      "inputs": [
        {
          "indexed": false,
          "internalType": "bytes32",
          "name": "proposalId",
          "type": "bytes32"
        },
        {
          "indexed": false,
          "internalType": "address",
          "name": "voter",
          "type": "address"
        },
        {
          "indexed": false,
          "internalType": "uint256",
          "name": "option",
          "type": "uint256"
        },
        {
          "indexed": false,
          "internalType": "uint256",
          "name": "amount",
          "type": "uint256"
        },
        {
          "indexed": false,
          "internalType": "uint256",
          "name": "nonce",
          "type": "uint256"
        },
        {
          "indexed": false,
          "internalType": "uint256",
          "name": "actionType",
          "type": "uint256"
        },
        {
          "indexed": false,
          "internalType": "bytes",
          "name": "signature",
          "type": "bytes"
        }
      ],
      "name": "ActionSigned",
      "type": "event"
    },
    {
      "anonymous": false,
      "inputs": [
        {
          "indexed": true,
          "internalType": "bytes32",
          "name": "proposalId",
          "type": "bytes32"
        },
        {
          "indexed": true,
          "internalType": "address",
          "name": "avatar",
          "type": "address"
        },
        {
          "indexed": false,
          "internalType": "uint256",
          "name": "option",
          "type": "uint256"
        },
        {
          "indexed": false,
          "internalType": "uint256",
          "name": "totalReputation",
          "type": "uint256"
        }
      ],
      "name": "ExecuteProposal",
      "type": "event"
    },
    {
      "anonymous": false,
      "inputs": [
        {
          "indexed": true,
          "internalType": "bytes32",
          "name": "proposalId",
          "type": "bytes32"
        },
        {
          "indexed": true,
          "internalType": "address",
          "name": "avatar",
          "type": "address"
        },
        {
          "indexed": false,
          "internalType": "uint256",
          "name": "numOfOptions",
          "type": "uint256"
        },
        {
          "indexed": false,
          "internalType": "address",
          "name": "proposer",
          "type": "address"
        },
        {
          "indexed": false,
          "internalType": "bytes32",
          "name": "paramsHash",
          "type": "bytes32"
        }
      ],
      "name": "NewProposal",
      "type": "event"
    },
    {
      "anonymous": false,
      "inputs": [
        {
          "indexed": false,
          "internalType": "string",
          "name": "",
          "type": "string"
        }
      ],
      "name": "ProposalExecuteResult",
      "type": "event"
    },
    {
      "anonymous": false,
      "inputs": [
        {
          "indexed": true,
          "internalType": "bytes32",
          "name": "proposalId",
          "type": "bytes32"
        },
        {
          "indexed": true,
          "internalType": "address",
          "name": "avatar",
          "type": "address"
        },
        {
          "indexed": true,
          "internalType": "address",
          "name": "beneficiary",
          "type": "address"
        },
        {
          "indexed": false,
          "internalType": "uint256",
          "name": "amount",
          "type": "uint256"
        }
      ],
      "name": "Redeem",
      "type": "event"
    },
    {
      "anonymous": false,
      "inputs": [
        {
          "indexed": true,
          "internalType": "bytes32",
          "name": "proposalId",
          "type": "bytes32"
        },
        {
          "indexed": true,
          "internalType": "address",
          "name": "avatar",
          "type": "address"
        },
        {
          "indexed": true,
          "internalType": "address",
          "name": "staker",
          "type": "address"
        },
        {
          "indexed": false,
          "internalType": "uint256",
          "name": "option",
          "type": "uint256"
        },
        {
          "indexed": false,
          "internalType": "uint256",
          "name": "amount",
          "type": "uint256"
        }
      ],
      "name": "Stake",
      "type": "event"
    },
    {
      "anonymous": false,
      "inputs": [
        {
          "indexed": true,
          "internalType": "bytes32",
          "name": "proposalId",
          "type": "bytes32"
        },
        {
          "indexed": false,
          "internalType": "enum VotingMachine.ProposalState",
          "name": "proposalState",
          "type": "uint8"
        }
      ],
      "name": "StateChange",
      "type": "event"
    },
    {
      "anonymous": false,
      "inputs": [
        {
          "indexed": true,
          "internalType": "address",
          "name": "avatar",
          "type": "address"
        },
        {
          "indexed": false,
          "internalType": "address",
          "name": "beneficiary",
          "type": "address"
        },
        {
          "indexed": false,
          "internalType": "uint256",
          "name": "amount",
          "type": "uint256"
        }
      ],
      "name": "UnclaimedDaoBounty",
      "type": "event"
    },
    {
      "anonymous": false,
      "inputs": [
        {
          "indexed": true,
          "internalType": "bytes32",
          "name": "proposalId",
          "type": "bytes32"
        },
        {
          "indexed": true,
          "internalType": "address",
          "name": "avatar",
          "type": "address"
        },
        {
          "indexed": true,
          "internalType": "address",
          "name": "voter",
          "type": "address"
        },
        {
          "indexed": false,
          "internalType": "uint256",
          "name": "option",
          "type": "uint256"
        },
        {
          "indexed": false,
          "internalType": "uint256",
          "name": "reputation",
          "type": "uint256"
        }
      ],
      "name": "VoteProposal",
      "type": "event"
    },
    {
      "anonymous": false,
      "inputs": [
        {
          "indexed": false,
          "internalType": "bytes32",
          "name": "proposalId",
          "type": "bytes32"
        },
        {
          "indexed": false,
          "internalType": "address",
          "name": "voter",
          "type": "address"
        },
        {
          "indexed": false,
          "internalType": "uint256",
          "name": "option",
          "type": "uint256"
        },
        {
          "indexed": false,
          "internalType": "uint256",
          "name": "amount",
          "type": "uint256"
        }
      ],
      "name": "VoteSignaled",
      "type": "event"
    },
    {
      "inputs": [],
      "name": "NO",
      "outputs": [
        {
          "internalType": "uint256",
          "name": "",
          "type": "uint256"
        }
      ],
      "stateMutability": "view",
      "type": "function"
    },
    {
      "inputs": [],
      "name": "NUM_OF_OPTIONS",
      "outputs": [
        {
          "internalType": "uint256",
          "name": "",
          "type": "uint256"
        }
      ],
      "stateMutability": "view",
      "type": "function"
    },
    {
      "inputs": [],
      "name": "SIGNED_ACTION_HASH_EIP712",
      "outputs": [
        {
          "internalType": "bytes32",
          "name": "",
          "type": "bytes32"
        }
      ],
      "stateMutability": "view",
      "type": "function"
    },
    {
      "inputs": [],
      "name": "YES",
      "outputs": [
        {
          "internalType": "uint256",
          "name": "",
          "type": "uint256"
        }
      ],
      "stateMutability": "view",
      "type": "function"
    },
    {
      "inputs": [
        {
          "internalType": "bytes32",
          "name": "proposalId",
          "type": "bytes32"
        }
      ],
      "name": "calculateBoostChange",
      "outputs": [
        {
          "internalType": "uint256",
          "name": "toBoost",
          "type": "uint256"
        }
      ],
      "stateMutability": "view",
      "type": "function"
    },
    {
      "inputs": [
        {
          "internalType": "uint256",
          "name": "thresholdConst",
          "type": "uint256"
        },
        {
          "internalType": "uint256",
          "name": "limitExponentValue",
          "type": "uint256"
        },
        {
          "internalType": "uint256",
          "name": "boostedProposalsCounter",
          "type": "uint256"
        }
      ],
      "name": "calculateThreshold",
      "outputs": [
        {
          "internalType": "uint256",
          "name": "threshold",
          "type": "uint256"
        }
      ],
      "stateMutability": "pure",
      "type": "function"
    },
    {
      "inputs": [
        {
          "internalType": "bytes32",
          "name": "proposalId",
          "type": "bytes32"
        }
      ],
      "name": "execute",
      "outputs": [
        {
          "internalType": "bool",
          "name": "proposalExecuted",
          "type": "bool"
        }
      ],
      "stateMutability": "nonpayable",
      "type": "function"
    },
    {
      "inputs": [
        {
          "internalType": "bytes32",
          "name": "proposalId",
          "type": "bytes32"
        },
        {
          "internalType": "address",
          "name": "voter",
          "type": "address"
        }
      ],
      "name": "executeSignaledVote",
      "outputs": [],
      "stateMutability": "nonpayable",
      "type": "function"
    },
    {
      "inputs": [
        {
          "internalType": "bytes32",
          "name": "proposalId",
          "type": "bytes32"
        },
        {
          "internalType": "address",
          "name": "staker",
          "type": "address"
        },
        {
          "internalType": "uint256",
          "name": "option",
          "type": "uint256"
        },
        {
          "internalType": "uint256",
          "name": "amount",
          "type": "uint256"
        },
        {
          "internalType": "bytes",
          "name": "signature",
          "type": "bytes"
        }
      ],
      "name": "executeSignedStake",
      "outputs": [
        {
          "internalType": "bool",
          "name": "proposalExecuted",
          "type": "bool"
        }
      ],
      "stateMutability": "nonpayable",
      "type": "function"
    },
    {
      "inputs": [
        {
          "internalType": "bytes32",
          "name": "proposalId",
          "type": "bytes32"
        },
        {
          "internalType": "address",
          "name": "voter",
          "type": "address"
        },
        {
          "internalType": "uint256",
          "name": "option",
          "type": "uint256"
        },
        {
          "internalType": "uint256",
          "name": "amount",
          "type": "uint256"
        },
        {
          "internalType": "bytes",
          "name": "signature",
          "type": "bytes"
        }
      ],
      "name": "executeSignedVote",
      "outputs": [],
      "stateMutability": "nonpayable",
      "type": "function"
    },
    {
      "inputs": [
        {
          "internalType": "uint256",
          "name": "start",
          "type": "uint256"
        },
        {
          "internalType": "uint256",
          "name": "end",
          "type": "uint256"
        },
        {
          "internalType": "address",
          "name": "avatar",
          "type": "address"
        }
      ],
      "name": "getActiveProposals",
      "outputs": [
        {
          "internalType": "bytes32[]",
          "name": "activeProposalsArray",
          "type": "bytes32[]"
        }
      ],
      "stateMutability": "view",
      "type": "function"
    },
    {
      "inputs": [
        {
          "internalType": "address",
          "name": "avatar",
          "type": "address"
        }
      ],
      "name": "getActiveProposalsCount",
      "outputs": [
        {
          "internalType": "uint256",
          "name": "activeProposalsCount",
          "type": "uint256"
        }
      ],
      "stateMutability": "view",
      "type": "function"
    },
    {
      "inputs": [],
      "name": "getAllowedRangeOfOptions",
      "outputs": [
        {
          "internalType": "uint256",
          "name": "min",
          "type": "uint256"
        },
        {
          "internalType": "uint256",
          "name": "max",
          "type": "uint256"
        }
      ],
      "stateMutability": "pure",
      "type": "function"
    },
    {
      "inputs": [
        {
          "internalType": "uint256",
          "name": "start",
          "type": "uint256"
        },
        {
          "internalType": "uint256",
          "name": "end",
          "type": "uint256"
        },
        {
          "internalType": "address",
          "name": "avatar",
          "type": "address"
        }
      ],
      "name": "getInactiveProposals",
      "outputs": [
        {
          "internalType": "bytes32[]",
          "name": "inactiveProposalsArray",
          "type": "bytes32[]"
        }
      ],
      "stateMutability": "view",
      "type": "function"
    },
    {
      "inputs": [
        {
          "internalType": "address",
          "name": "avatar",
          "type": "address"
        }
      ],
      "name": "getInactiveProposalsCount",
      "outputs": [
        {
          "internalType": "uint256",
          "name": "inactiveProposalsCount",
          "type": "uint256"
        }
      ],
      "stateMutability": "view",
      "type": "function"
    },
    {
      "inputs": [
        {
          "internalType": "bytes32",
          "name": "proposalId",
          "type": "bytes32"
        }
      ],
      "name": "getNumberOfOptions",
      "outputs": [
        {
          "internalType": "uint256",
          "name": "proposalOptionsAmount",
          "type": "uint256"
        }
      ],
      "stateMutability": "view",
      "type": "function"
    },
    {
      "inputs": [
        {
          "internalType": "uint256[8]",
          "name": "params",
          "type": "uint256[8]"
        }
      ],
      "name": "getParametersHash",
      "outputs": [
        {
          "internalType": "bytes32",
          "name": "paramsHash",
          "type": "bytes32"
        }
      ],
      "stateMutability": "pure",
      "type": "function"
    },
    {
      "inputs": [
        {
          "internalType": "bytes32",
          "name": "proposalId",
          "type": "bytes32"
        }
      ],
      "name": "getProposalAvatar",
      "outputs": [
        {
          "internalType": "address",
          "name": "avatarAddress",
          "type": "address"
        }
      ],
      "stateMutability": "view",
      "type": "function"
    },
    {
      "inputs": [
        {
          "internalType": "bytes32",
          "name": "proposalId",
          "type": "bytes32"
        }
      ],
      "name": "getProposalStatus",
      "outputs": [
        {
          "internalType": "uint256",
          "name": "votesNo",
          "type": "uint256"
        },
        {
          "internalType": "uint256",
          "name": "votesYes",
          "type": "uint256"
        },
        {
          "internalType": "uint256",
          "name": "preBoostedVotesNo",
          "type": "uint256"
        },
        {
          "internalType": "uint256",
          "name": "preBoostedVotesYes",
          "type": "uint256"
        },
        {
          "internalType": "uint256",
          "name": "totalStakesNo",
          "type": "uint256"
        },
        {
          "internalType": "uint256",
          "name": "totalStakesYes",
          "type": "uint256"
        }
      ],
      "stateMutability": "view",
      "type": "function"
    },
    {
      "inputs": [
        {
          "internalType": "bytes32",
          "name": "paramsHash",
          "type": "bytes32"
        },
        {
          "internalType": "bytes32",
          "name": "schemeId",
          "type": "bytes32"
        }
      ],
      "name": "getSchemeThreshold",
      "outputs": [
        {
          "internalType": "uint256",
          "name": "schemeThreshold",
          "type": "uint256"
        }
      ],
      "stateMutability": "view",
      "type": "function"
    },
    {
      "inputs": [
        {
          "internalType": "bytes32",
          "name": "proposalId",
          "type": "bytes32"
        },
        {
          "internalType": "address",
          "name": "staker",
          "type": "address"
        }
      ],
      "name": "getStaker",
      "outputs": [
        {
          "internalType": "uint256",
          "name": "option",
          "type": "uint256"
        },
        {
          "internalType": "uint256",
          "name": "amount",
          "type": "uint256"
        }
      ],
      "stateMutability": "view",
      "type": "function"
    },
    {
      "inputs": [
        {
          "internalType": "bytes32",
          "name": "proposalId",
          "type": "bytes32"
        },
        {
          "internalType": "address",
          "name": "voter",
          "type": "address"
        }
      ],
      "name": "getVoter",
      "outputs": [
        {
          "internalType": "uint256",
          "name": "option",
          "type": "uint256"
        },
        {
          "internalType": "uint256",
          "name": "amount",
          "type": "uint256"
        }
      ],
      "stateMutability": "view",
      "type": "function"
    },
    {
      "inputs": [
        {
          "internalType": "bytes32",
          "name": "proposalId",
          "type": "bytes32"
        },
        {
          "internalType": "address",
          "name": "signer",
          "type": "address"
        },
        {
          "internalType": "uint256",
          "name": "option",
          "type": "uint256"
        },
        {
          "internalType": "uint256",
          "name": "amount",
          "type": "uint256"
        },
        {
          "internalType": "uint256",
          "name": "nonce",
          "type": "uint256"
        },
        {
          "internalType": "uint256",
          "name": "actionType",
          "type": "uint256"
        }
      ],
      "name": "hashAction",
      "outputs": [
        {
          "internalType": "bytes32",
          "name": "actionHash",
          "type": "bytes32"
        }
      ],
      "stateMutability": "view",
      "type": "function"
    },
    {
      "inputs": [
        {
          "internalType": "bytes32",
          "name": "proposalId",
          "type": "bytes32"
        }
      ],
      "name": "isVotable",
      "outputs": [
        {
          "internalType": "bool",
          "name": "isProposalVotable",
          "type": "bool"
        }
      ],
      "stateMutability": "view",
      "type": "function"
    },
    {
      "inputs": [
        {
          "internalType": "uint256",
          "name": "a",
          "type": "uint256"
        },
        {
          "internalType": "uint256",
          "name": "b",
          "type": "uint256"
        }
      ],
      "name": "multiplyRealMath",
      "outputs": [
        {
          "internalType": "uint256",
          "name": "",
          "type": "uint256"
        }
      ],
      "stateMutability": "pure",
      "type": "function"
    },
    {
      "inputs": [
        {
          "internalType": "bytes32",
          "name": "",
          "type": "bytes32"
        }
      ],
      "name": "parameters",
      "outputs": [
        {
          "internalType": "uint256",
          "name": "queuedVoteRequiredPercentage",
          "type": "uint256"
        },
        {
          "internalType": "uint256",
          "name": "queuedVotePeriodLimit",
          "type": "uint256"
        },
        {
          "internalType": "uint256",
          "name": "boostedVotePeriodLimit",
          "type": "uint256"
        },
        {
          "internalType": "uint256",
          "name": "preBoostedVotePeriodLimit",
          "type": "uint256"
        },
        {
          "internalType": "uint256",
          "name": "thresholdConst",
          "type": "uint256"
        },
        {
          "internalType": "uint256",
          "name": "limitExponentValue",
          "type": "uint256"
        },
        {
          "internalType": "uint256",
          "name": "quietEndingPeriod",
          "type": "uint256"
        },
        {
          "internalType": "uint256",
          "name": "daoBounty",
          "type": "uint256"
        },
        {
          "internalType": "uint256",
          "name": "boostedVoteRequiredPercentage",
          "type": "uint256"
        }
      ],
      "stateMutability": "view",
      "type": "function"
    },
    {
      "inputs": [
        {
          "internalType": "bytes32",
          "name": "",
          "type": "bytes32"
        }
      ],
      "name": "proposals",
      "outputs": [
        {
          "internalType": "bytes32",
          "name": "schemeId",
          "type": "bytes32"
        },
        {
          "internalType": "address",
          "name": "callbacks",
          "type": "address"
        },
        {
          "internalType": "enum VotingMachine.ProposalState",
          "name": "state",
          "type": "uint8"
        },
        {
          "internalType": "enum VotingMachine.ExecutionState",
          "name": "executionState",
          "type": "uint8"
        },
        {
          "internalType": "uint256",
          "name": "winningVote",
          "type": "uint256"
        },
        {
          "internalType": "address",
          "name": "proposer",
          "type": "address"
        },
        {
          "internalType": "uint256",
          "name": "currentBoostedVotePeriodLimit",
          "type": "uint256"
        },
        {
          "internalType": "bytes32",
          "name": "paramsHash",
          "type": "bytes32"
        },
        {
          "internalType": "uint256",
          "name": "daoBounty",
          "type": "uint256"
        },
        {
          "internalType": "uint256",
          "name": "totalStakes",
          "type": "uint256"
        },
        {
          "internalType": "uint256",
          "name": "secondsFromTimeOutTillExecuteBoosted",
          "type": "uint256"
        }
      ],
      "stateMutability": "view",
      "type": "function"
    },
    {
      "inputs": [],
      "name": "proposalsCnt",
      "outputs": [
        {
          "internalType": "uint256",
          "name": "",
          "type": "uint256"
        }
      ],
      "stateMutability": "view",
      "type": "function"
    },
    {
      "inputs": [
        {
          "internalType": "uint256",
          "name": "totalOptions",
          "type": "uint256"
        },
        {
          "internalType": "bytes32",
          "name": "paramsHash",
          "type": "bytes32"
        },
        {
          "internalType": "address",
          "name": "proposer",
          "type": "address"
        },
        {
          "internalType": "address",
          "name": "avatar",
          "type": "address"
        }
      ],
      "name": "propose",
      "outputs": [
        {
          "internalType": "bytes32",
          "name": "proposalId",
          "type": "bytes32"
        }
      ],
      "stateMutability": "nonpayable",
      "type": "function"
    },
    {
      "inputs": [
        {
          "internalType": "bytes32",
          "name": "proposalId",
          "type": "bytes32"
        },
        {
          "internalType": "address",
          "name": "beneficiary",
          "type": "address"
        }
      ],
      "name": "redeem",
      "outputs": [
        {
          "internalType": "uint256",
          "name": "reward",
          "type": "uint256"
        }
      ],
      "stateMutability": "nonpayable",
      "type": "function"
    },
    {
      "inputs": [
        {
          "internalType": "bytes32",
          "name": "",
          "type": "bytes32"
        }
      ],
      "name": "schemes",
      "outputs": [
        {
          "internalType": "address",
          "name": "avatar",
          "type": "address"
        },
        {
          "internalType": "uint256",
          "name": "stakingTokenBalance",
          "type": "uint256"
        },
        {
          "internalType": "uint256",
          "name": "voteGasBalance",
          "type": "uint256"
        },
        {
          "internalType": "uint256",
          "name": "voteGas",
          "type": "uint256"
        },
        {
          "internalType": "uint256",
          "name": "maxGasPrice",
          "type": "uint256"
        },
        {
          "internalType": "uint256",
          "name": "boostedProposalsCounter",
          "type": "uint256"
        },
        {
          "internalType": "uint256",
          "name": "preBoostedProposalsCounter",
          "type": "uint256"
        }
      ],
      "stateMutability": "view",
      "type": "function"
    },
    {
      "inputs": [
        {
          "internalType": "bytes32",
          "name": "proposalId",
          "type": "bytes32"
        }
      ],
      "name": "score",
      "outputs": [
        {
          "internalType": "uint256",
          "name": "proposalScore",
          "type": "uint256"
        }
      ],
      "stateMutability": "view",
      "type": "function"
    },
    {
      "inputs": [
        {
          "internalType": "uint256[8]",
          "name": "params",
          "type": "uint256[8]"
        }
      ],
      "name": "setParameters",
      "outputs": [
        {
          "internalType": "bytes32",
          "name": "paramsHash",
          "type": "bytes32"
        }
      ],
      "stateMutability": "nonpayable",
      "type": "function"
    },
    {
      "inputs": [
        {
          "internalType": "address",
          "name": "avatar",
          "type": "address"
        },
        {
          "internalType": "address",
          "name": "scheme",
          "type": "address"
        },
        {
          "internalType": "uint256",
          "name": "voteGas",
          "type": "uint256"
        },
        {
          "internalType": "uint256",
          "name": "maxGasPrice",
          "type": "uint256"
        }
      ],
      "name": "setSchemeRefund",
      "outputs": [],
      "stateMutability": "payable",
      "type": "function"
    },
    {
      "inputs": [
        {
          "internalType": "bytes32",
          "name": "proposalId",
          "type": "bytes32"
        },
        {
          "internalType": "address",
          "name": "voter",
          "type": "address"
        },
        {
          "internalType": "uint256",
          "name": "option",
          "type": "uint256"
        },
        {
          "internalType": "uint256",
          "name": "amount",
          "type": "uint256"
        },
        {
          "internalType": "uint256",
          "name": "nonce",
          "type": "uint256"
        },
        {
          "internalType": "uint256",
          "name": "actionType",
          "type": "uint256"
        },
        {
          "internalType": "bytes",
          "name": "signature",
          "type": "bytes"
        }
      ],
      "name": "shareSignedAction",
      "outputs": [],
      "stateMutability": "nonpayable",
      "type": "function"
    },
    {
      "inputs": [
        {
          "internalType": "bytes32",
          "name": "proposalId",
          "type": "bytes32"
        }
      ],
      "name": "shouldBoost",
      "outputs": [
        {
          "internalType": "bool",
          "name": "shouldProposalBeBoosted",
          "type": "bool"
        }
      ],
      "stateMutability": "view",
      "type": "function"
    },
    {
      "inputs": [
        {
          "internalType": "bytes32",
          "name": "proposalId",
          "type": "bytes32"
        },
        {
          "internalType": "uint256",
          "name": "option",
          "type": "uint256"
        },
        {
          "internalType": "uint256",
          "name": "amount",
          "type": "uint256"
        }
      ],
      "name": "signalVote",
      "outputs": [],
      "stateMutability": "nonpayable",
      "type": "function"
    },
    {
      "inputs": [
        {
          "internalType": "address",
          "name": "",
          "type": "address"
        }
      ],
      "name": "signerNonce",
      "outputs": [
        {
          "internalType": "uint256",
          "name": "",
          "type": "uint256"
        }
      ],
      "stateMutability": "view",
      "type": "function"
    },
    {
      "inputs": [
        {
          "internalType": "bytes32",
          "name": "proposalId",
          "type": "bytes32"
        },
        {
          "internalType": "uint256",
          "name": "option",
          "type": "uint256"
        },
        {
          "internalType": "uint256",
          "name": "amount",
          "type": "uint256"
        }
      ],
      "name": "stake",
      "outputs": [
        {
          "internalType": "bool",
          "name": "proposalExecuted",
          "type": "bool"
        }
      ],
      "stateMutability": "nonpayable",
      "type": "function"
    },
    {
      "inputs": [],
      "name": "stakingToken",
      "outputs": [
        {
          "internalType": "contract IERC20",
          "name": "",
          "type": "address"
        }
      ],
      "stateMutability": "view",
      "type": "function"
    },
    {
      "inputs": [
        {
          "internalType": "bytes32",
          "name": "proposalId",
          "type": "bytes32"
        },
        {
          "internalType": "uint256",
          "name": "option",
          "type": "uint256"
        },
        {
          "internalType": "uint256",
          "name": "amount",
          "type": "uint256"
        }
      ],
      "name": "vote",
      "outputs": [
        {
          "internalType": "bool",
          "name": "proposalExecuted",
          "type": "bool"
        }
      ],
      "stateMutability": "nonpayable",
      "type": "function"
    },
    {
      "inputs": [
        {
          "internalType": "bytes32",
          "name": "",
          "type": "bytes32"
        },
        {
          "internalType": "address",
          "name": "",
          "type": "address"
        }
      ],
      "name": "votesSignaled",
      "outputs": [
        {
          "internalType": "uint256",
          "name": "option",
          "type": "uint256"
        },
        {
          "internalType": "uint256",
          "name": "amount",
          "type": "uint256"
        }
      ],
      "stateMutability": "view",
      "type": "function"
    },
    {
      "inputs": [
        {
          "internalType": "address",
          "name": "scheme",
          "type": "address"
        }
      ],
      "name": "withdrawRefundBalance",
      "outputs": [],
      "stateMutability": "nonpayable",
      "type": "function"
    }
  ],
  "bytecode": "0x60806040523480156200001157600080fd5b5060405162004bac38038062004bac833981016040819052620000349162000082565b6001600160a01b0381166200005c576040516348ff4cf560e01b815260040160405180910390fd5b600b80546001600160a01b0319166001600160a01b0392909216919091179055620000b4565b6000602082840312156200009557600080fd5b81516001600160a01b0381168114620000ad57600080fd5b9392505050565b614ae880620000c46000396000f3fe60806040526004361061025c5760003560e01c8063886dcaca11610144578063c0835106116100b6578063e38c08b01161007a578063e38c08b014610a49578063e5af18c514610a69578063e751f27114610a89578063f3b3129c14610aa9578063f5c84a9114610ac9578063fb7c562314610ae957600080fd5b8063c083510614610948578063c23a2403146108e6578063c4c1d1e414610968578063cc3bf9e914610988578063d0d98cbb146109a857600080fd5b8063a30ccbe611610108578063a30ccbe6146107c0578063a5a7f9db146107e0578063a601a4a114610800578063b2449d65146108e6578063b419f4ae146108fb578063b8bd65bc1461092857600080fd5b8063886dcaca146106a157806388737b5e146106c157806393dfd045146106e15780639b1984911461078d578063a1eb9eda146107a057600080fd5b806338843e79116101dd5780636f8b7633116101a15780636f8b7633146105bc57806370e544af146105dc578063715112b2146105fc57806372f702f31461061c578063764eaad31461065457806380f5e0a11461068157600080fd5b806338843e79146105245780633d6254c8146105445780633eb3022a146105665780635031049f1461057c5780636b8124371461059c57600080fd5b80632514e2bf116102245780632514e2bf146103ae578063278607dd146103ed5780632daedd521461040d57806330128f8e1461043d57806332ed5b121461048857600080fd5b806302506804146102615780630d4834421461031357806316db51721461033657806321b4b3dc1461036b57806322f0e36f14610381575b600080fd5b34801561026d57600080fd5b506102ca61027c366004614323565b60056020528060005260406000206000915090508060000154908060010154908060020154908060030154908060040154908060050154908060060154908060070154908060080154905089565b60408051998a5260208a0198909852968801959095526060870193909352608086019190915260a085015260c084015260e0830152610100820152610120015b60405180910390f35b34801561031f57600080fd5b50610328600181565b60405190815260200161030a565b34801561034257600080fd5b50610356610351366004614358565b610b09565b6040805192835260208301919091520161030a565b34801561037757600080fd5b50610328600a5481565b34801561038d57600080fd5b5061032861039c366004614384565b600c6020526000908152604090205481565b3480156103ba57600080fd5b506103566103c9366004614358565b600d6020908152600092835260408084209091529082529020805460019091015482565b3480156103f957600080fd5b5061032861040836600461439f565b610b3b565b34801561041957600080fd5b5061042d6104283660046143ed565b610cc2565b604051901515815260200161030a565b34801561044957600080fd5b50610356610458366004614358565b60009182526002602090815260408084206001600160a01b03939093168452919052902080546001909101549091565b34801561049457600080fd5b5061050d6104a3366004614323565b600660208190526000918252604090912080546001820154600283015460038401546004850154600586015496860154600787015460089097015495976001600160a01b038087169860ff600160a01b8904811699600160a81b909904169795909116949192918b565b60405161030a9b9a99989796959493929190614443565b34801561053057600080fd5b5061042d61053f3660046144ff565b610cda565b34801561055057600080fd5b5061056461055f366004614358565b610de4565b005b34801561057257600080fd5b5060016002610356565b34801561058857600080fd5b50610328610597366004614384565b610ec8565b3480156105a857600080fd5b506103286105b7366004614570565b610eef565b3480156105c857600080fd5b506103286105d7366004614384565b6112b2565b3480156105e857600080fd5b506105646105f7366004614384565b6112d3565b34801561060857600080fd5b5061056461061736600461459b565b6113aa565b34801561062857600080fd5b50600b5461063c906001600160a01b031681565b6040516001600160a01b03909116815260200161030a565b34801561066057600080fd5b5061067461066f36600461461f565b6114c5565b60405161030a9190614654565b34801561068d57600080fd5b5061042d61069c366004614323565b6114ed565b3480156106ad57600080fd5b506103286106bc3660046146db565b611641565b3480156106cd57600080fd5b506103286106dc36600461475a565b6116c2565b3480156106ed57600080fd5b506107606106fc366004614323565b6000818152602081815260408083206001808552908352818420546002808652838620548787528386528487208488528652848720548288528588205498885260038752858820948852939095528386205490865292909420549395929490939092565b604080519687526020870195909552938501929092526060840152608083015260a082015260c00161030a565b61056461079b3660046147a0565b6116da565b3480156107ac57600080fd5b506103286107bb3660046147e2565b6117bc565b3480156107cc57600080fd5b506105646107db3660046143ed565b6117f0565b3480156107ec57600080fd5b506105646107fb3660046144ff565b611903565b34801561080c57600080fd5b506103286040517f6164647265737320566f74696e674d616368696e654164647265737300000000602082015271189e5d195ccccc88141c9bdc1bdcd85b125960721b603c8201526d30b2323932b9b99029b4b3b732b960911b604e8201526b75696e7432353620566f746560a01b605c8201527475696e7432353620416d6f756e74546f5374616b6560581b60688201526c75696e74323536204e6f6e636560981b607d8201526c39ba3934b7339020b1ba34b7b760991b608a8201526097016040516020818303038152906040528051906020012081565b3480156108f257600080fd5b50610328600281565b34801561090757600080fd5b50610328610916366004614323565b6000908152600e602052604090205490565b34801561093457600080fd5b506103286109433660046147e2565b611a3a565b34801561095457600080fd5b5061042d610963366004614323565b611a46565b34801561097457600080fd5b5061063c610983366004614323565b611ad1565b34801561099457600080fd5b506103286109a3366004614358565b611af9565b3480156109b457600080fd5b50610a0a6109c3366004614323565b60076020526000908152604090208054600182015460028301546003840154600485015460058601546006909601546001600160a01b039095169593949293919290919087565b604080516001600160a01b0390981688526020880196909652948601939093526060850191909152608084015260a083015260c082015260e00161030a565b348015610a5557600080fd5b5061042d610a643660046143ed565b61201c565b348015610a7557600080fd5b50610328610a84366004614323565b612079565b348015610a9557600080fd5b5061042d610aa4366004614323565b6120b2565b348015610ab557600080fd5b50610674610ac436600461461f565b6120e4565b348015610ad557600080fd5b50610328610ae4366004614323565b61210c565b348015610af557600080fd5b50610328610b043660046143ed565b612319565b60008281526004602090815260408083206001600160a01b0385168452909152902080546001909101545b9250929050565b604080518082018252600d81526c566f74696e674d616368696e6560981b6020918201528151808301835260018152603160f81b9082015281517f8b73c3c69bb8fe3d512ecc4cf759cc79239f7b179b0ffacaa9a75d522b39400f818301527f5c73065f3b262485dd25d9c20243fe792204f48dc2064efb8309c6cfa776f927818401527fc89efdaa54c0f20c7adf612882df0950f5a951637e0307cdcb4c672f298b8bc660608201524660808201523060a0808301919091528351808303909101815260c0820184528051908301207f8d7c6ad2a22a364e8ac038d4e057e1efbf2b87ba890588ecd6e068cf14586cd460e08301526101008201999099526001600160a01b03979097166101208801526101408701959095526101608601939093526101808501919091526101a080850191909152815180850390910181526101c08401825280519083012061190160f01b6101e08501526101e28401949094526102028084019490945280518084039094018452610222909201909152815191012090565b6000610cd08484843361232f565b90505b9392505050565b600080610d1188888888600c60008d6001600160a01b03166001600160a01b03168152602001908152602001600020546002610b3b565b9050610d5e84848080601f016020809104026020016040519081016040528093929190818152602001838380828437600092019190915250610d5892508591506126479050565b90612682565b6001600160a01b0316876001600160a01b031614610d8f57604051632725ce3960e01b815260040160405180910390fd5b6001600160a01b0387166000908152600c6020526040902054610db390600161481a565b6001600160a01b0388166000908152600c6020526040902055610dd88887878a61232f565b98975050505050505050565b81610dee81611a46565b610e0b576040516361a1e91560e01b815260040160405180910390fd5b6000838152600d602090815260408083206001600160a01b0386168452909152902054610e4b57604051630666f2bb60e11b815260040160405180910390fd5b6000838152600d602090815260408083206001600160a01b038616845290915290208054600190910154610e839185918591906126a6565b506000838152600d602090815260408083206001600160a01b038616845282528083208381556001018390558583526006909152902054610ec390612bbe565b505050565b6001600160a01b0381166000908152600860205260408120610ee990612c81565b92915050565b600061271082351180610f0457506113888235105b15610f6d576040516351253d8b60e01b815260206004820152602d60248201527f35303030203c3d20717565756564566f7465526571756972656450657263656e60448201526c074616765203c3d20313030303609c1b60648201526084015b60405180910390fd5b613e8060808301351180610f8757506103e8608083013511155b15610fd5576040516351253d8b60e01b815260206004820152601e60248201527f31303030203c207468726573686f6c64436f6e7374203c3d20313630303000006044820152606401610f64565b60a082013560408301351015611042576040516351253d8b60e01b815260206004820152602b60248201527f626f6f73746564566f7465506572696f644c696d6974203e3d2071756965744560448201526a1b991a5b99d4195c9a5bd960aa1b6064820152608401610f64565b60c0820135611094576040516351253d8b60e01b815260206004820152601760248201527f64616f426f756e74792073686f756c64206265203e20300000000000000000006044820152606401610f64565b60e0820135823511611128576040516351253d8b60e01b815260206004820152605060248201527f717565756564566f7465526571756972656450657263656e746167652073686f60448201527f756c6420656220686967686572207468616e20626f6f73746564566f7465526560648201526f71756972656450657263656e7461676560801b608482015260a401610f64565b604080516101008181019092526111579184906008908390839080828437600092019190915250611641915050565b905060ac60026107d05b613e808110156111c25760808501358110801561118c5750611184816002614843565b608086013511155b156111a25761119b828461485a565b92506111c2565b816111ac8161487c565b92506111bb9050816002614843565b9050611161565b506040805161012081018252853581526020808701359082015285820135918101919091526060808601359082015260808082019061120f908701356001600160d81b03166103e8612c8b565b81526020810184905260a0860135604082015260c08601356060820152608001856007602002013581525060056000858152602001908152602001600020600082015181600001556020820151816001015560408201518160020155606082015181600301556080820151816004015560a0820151816005015560c0820151816006015560e0820151816007015561010082015181600801559050505050919050565b6001600160a01b0381166000908152600960205260408120610ee990612c81565b600033826040516020016112e8929190614895565b60408051601f19818403018152918152815160209283012060008181526007909352912060030154909150611330576040516303afe48d60e61b815260040160405180910390fd5b60008181526007602052604090206002015461135f576040516325891ff160e21b815260040160405180910390fd5b60008181526007602052604080822060020180549083905590519091339183156108fc0291849190818181858888f193505050501580156113a4573d6000803e3d6000fd5b50505050565b87866113c2826000908152600e602052604090205490565b8111806113cd575080155b156113eb5760405163ed5a18b160e01b815260040160405180910390fd5b60006113fb8b8b8b8b8b8b610b3b565b905061144285858080601f016020809104026020016040519081016040528093929190818152602001838380828437600092019190915250610d5892508591506126479050565b6001600160a01b03168a6001600160a01b03161461147357604051632725ce3960e01b815260040160405180910390fd5b7f7cbcdc8a2bb6897d833d348c838b3c54b98377efa00f98a27c42a85408644ec68b8b8b8b8b8b8b8b6040516114b09897969594939291906148bc565b60405180910390a15050505050505050505050565b6001600160a01b0381166000908152600960205260409020606090610cd09085908590612cc3565b60008181526006602090815260408083208151610180810183528154815260018201546001600160a01b0381169482019490945284939092830190600160a01b900460ff16600781111561154357611543614419565b600781111561155457611554614419565b81526020016001820160159054906101000a900460ff16600681111561157c5761157c614419565b600681111561158d5761158d614419565b8152600282015460208201526003808301546001600160a01b0316604080840191909152600484015460608085019190915260058501546080850152600685015460a0850152600785015460c0850152600885015460e08501528151908101918290526101009093019291600985019182845b8154815260200190600101908083116116005750505050508152505090506116308160e0015182600001516117bc565b61163984612079565b119392505050565b805160208083015160408085015160608087015160808089015160a0808b015160c0808d015160e0808f01518b519d8e019e909e52998c019a909a52958a019690965291880192909252860152840152820152610100810191909152600090610120015b604051602081830303815290604052805190602001209050919050565b60006116d16002858585612e2d565b95945050505050565b60006001600160a01b038416330361171c5733856040516020016116ff929190614895565b604051602081830303815290604052805190602001209050611758565b6001600160a01b038516330361175857833360405160200161173f929190614895565b6040516020818303038152906040528051906020012090505b8061177657604051630694c18560e31b815260040160405180910390fd5b60008181526007602052604090206002015461179390349061481a565b600091825260076020526040909120600281019190915560038101929092556004909101555050565b6000828152600560208181526040808420600481015490840154868652600790935290842090920154610cd3929190612319565b826117fa81611a46565b611817576040516361a1e91560e01b815260040160405180910390fd5b838361182f826000908152600e602052604090205490565b81118061183a575080155b156118585760405163ed5a18b160e01b815260040160405180910390fd5b6000868152600d602090815260408083203384529091529020541561189057604051635f921f3760e01b815260040160405180910390fd5b6000868152600d602090815260408083203380855290835292819020888155600101879055805189815291820192909252908101869052606081018590527f0aad680ea090e3d71ef3942023475bbf0e4092d03db1a09f00e9a8f2e046e2829060800160405180910390a1505050505050565b8561190d81611a46565b61192a576040516361a1e91560e01b815260040160405180910390fd5b6001600160a01b0386166000908152600c60205260408120546119569089908990899089906001610b3b565b905061199d84848080601f016020809104026020016040519081016040528093929190818152602001838380828437600092019190915250610d5892508591506126479050565b6001600160a01b0316876001600160a01b0316146119ce57604051632725ce3960e01b815260040160405180910390fd5b6001600160a01b0387166000908152600c60205260409020546119f290600161481a565b6001600160a01b0388166000908152600c6020526040902055611a17888888886126a6565b50600088815260066020526040902054611a3090612bbe565b5050505050505050565b6000610cd383836131ba565b600081815260066020526040812060010154600160a01b900460ff166005816007811115611a7657611a76614419565b1480611a9357506006816007811115611a9157611a91614419565b145b80611aaf57506007816007811115611aad57611aad614419565b145b80610cd357506004816007811115611ac957611ac9614419565b149392505050565b600090815260066020908152604080832054835260079091529020546001600160a01b031690565b600082815260066020526040812060026001820154600160a01b900460ff166007811115611b2957611b29614419565b14158015611b57575060036001820154600160a01b900460ff166007811115611b5457611b54614419565b14155b8015611b825750600180820154600160a01b900460ff166007811115611b7f57611b7f614419565b14155b15611ba05760405163677ab11960e01b815260040160405180910390fd5b600581810154600090815260208281526040808320815161012081018352815481526001808301548286015260028084015483860152600380850154606085015260048086015460808601529885015460a085015260068086015460c0860152600786015460e08601526008909501546101008501528c88529786528487206001600160a01b038c168852865284872080830154948a01548d8952988752858820918852955283862054908652928520549197509492939291611c629161481a565b611c6c9190614920565b600183015490915015611eb957600180850154600160a01b900460ff166007811115611c9a57611c9a614419565b14158015611cac575060028401548254145b15611eb1576000878152600360209081526040808320600288015484529091529020546001830154611cdf908390614843565b611ce9919061485a565b825490955060011901611eb15760008781526003602090815260408083206002880154845290915281205460e08501516001850154611d289190614843565b611d32919061485a565b600b549091506001600160a01b031663dd62ed3e611d4f8a611ad1565b6040516001600160e01b031960e084901b1681526001600160a01b039091166004820152306024820152604401602060405180830381865afa158015611d99573d6000803e3d6000fd5b505050506040513d601f19601f82011682018060405250810190611dbd9190614933565b811015611e5d57600b546001600160a01b03166323b872dd611dde8a611ad1565b6040516001600160e01b031960e084901b1681526001600160a01b039182166004820152908a166024820152604481018490526064016020604051808303816000875af1158015611e33573d6000803e3d6000fd5b505050506040513d601f19601f82011682018060405250810190611e57919061494c565b50611eaf565b611e6688611ad1565b604080516001600160a01b038a811682526020820185905292909216917fa0761a444ed6a1da1e3d9aceebe666c374f9a076d53ecd2fdb2fee8056f82cf5910160405180910390a25b505b600060018301555b841561201257848460070154611ecf9190614920565b600780860191909155845460009081526020919091526040902060010154611ef8908690614920565b845460009081526007602052604080822060010192909255600b54915163a9059cbb60e01b81526001600160a01b038981166004830152602482018990529192919091169063a9059cbb906044016020604051808303816000875af1158015611f65573d6000803e3d6000fd5b505050506040513d601f19601f82011682018060405250810190611f89919061494c565b905080611fbb57604051635168c45f60e11b81526001600160a01b038816600482015260248101879052604401610f64565b84546000908152600760209081526040918290205491518881526001600160a01b038a81169316918b917f6d26871c9f457d104b2122485f659f126f7a0cf6938cf20482c03f49794a2fbf910160405180910390a4505b5050505092915050565b60008361202881611a46565b612045576040516361a1e91560e01b815260040160405180910390fd5b600085815260066020526040812090612060873388886126a6565b905061206f8260000154612bbe565b9695505050505050565b600081815260036020908152604080832060018452909152808220546002835290822054610ee9916001600160d81b0390911690612c8b565b6000816120be81611a46565b6120db576040516361a1e91560e01b815260040160405180910390fd5b610cd383613223565b6001600160a01b0381166000908152600860205260409020606090610cd09085908590612cc3565b60008181526006602090815260408083208151610180810183528154815260018201546001600160a01b0381169482019490945284939092830190600160a01b900460ff16600781111561216257612162614419565b600781111561217357612173614419565b81526020016001820160159054906101000a900460ff16600681111561219b5761219b614419565b60068111156121ac576121ac614419565b8152600282015460208201526003808301546001600160a01b0316604080840191909152600484015460608085019190915260058501546080850152600685015460a0850152600785015460c0850152600885015460e08501528151908101918290526101009093019291600985019182845b81548152602001906001019080831161221f575050509190925250505060e081018051600090815260056020818152604080842060040154945184528084208301548651855260079092528084206006015486518552908420909201549495509193612290939291610b049161481a565b600085815260036020908152604080832060018452909152812054919250906122c4906122be84600261481a565b906131ba565b60008681526003602090815260408083206002845290915290205490915081111561230e576000858152600360209081526040808320600284529091529020546116d19082614920565b506000949350505050565b6000610cd06123288385613cfb565b8590613d11565b6000848152600e60205260408120548590859081118061234d575080155b1561236b5760405163ed5a18b160e01b815260040160405180910390fd5b6000851161238c576040516330f759b560e21b815260040160405180910390fd5b61239587613223565b156123a3576001925061263d565b600087815260066020526040902060056001820154600160a01b900460ff1660078111156123d3576123d3614419565b14158015612401575060046001820154600160a01b900460ff1660078111156123fe576123fe614419565b14155b1561241057600093505061263d565b60008881526004602090815260408083206001600160a01b03891684529091529020600181015415801590612446575080548814155b156124565760009450505061263d565b600b546040516323b872dd60e01b81526001600160a01b038881166004830152306024830152604482018a905260009216906323b872dd906064016020604051808303816000875af11580156124b0573d6000803e3d6000fd5b505050506040513d601f19601f820116820180604052508101906124d4919061494c565b9050806124f457604051633750dfa560e11b815260040160405180910390fd5b8254600090815260076020526040812060010180548a929061251790849061481a565b9091555050600783015461252c90899061481a565b6007840155600182015461254190899061481a565b60018301819055898355600160801b101561256f576040516302beac3360e21b815260040160405180910390fd5b600160801b836007015411156125985760405163062fcaff60e21b815260040160405180910390fd5b60008a81526003602090815260408083208c84529091529020546125bc908961481a565b60008b81526003602090815260408083208d84528252808320939093558554825260078152908290205482518c81529182018b90526001600160a01b038a8116939116918d917fd0239d7d4acf51def4507fa173be466927de5d75d8b10d840cd6994d6e10231091015b60405180910390a46126378a613223565b95505050505b5050949350505050565b6040517f19457468657265756d205369676e6564204d6573736167653a0a3332000000006020820152603c8101829052600090605c016116a5565b60008060006126918585613d58565b9150915061269e81613dc3565b509392505050565b6000848152600e6020526040812054859084908111806126c4575080155b156126e25760405163ed5a18b160e01b815260040160405180910390fd5b6126eb87613223565b156126f9576001925061263d565b6000878152600660208181526040808420600580820154865280845282862083516101208101855281548152600180830154828801526002830154828701526003830154606083015260048084015460808401529383015460a08301528288015460c0830152600783015460e08301526008909201546101008201528e885295909452928101549151634ac41bc760e11b81526001600160a01b038c811694820194909452602481018d905293949093909290911690639588378e90604401602060405180830381865afa1580156127d5573d6000803e3d6000fd5b505050506040513d601f19601f820116820180604052508101906127f99190614933565b90508060000361281c57604051631e4e424d60e31b815260040160405180910390fd5b8681101561283d57604051632328906960e11b815260040160405180910390fd5b86600003612849578096505b60008a81526002602090815260408083206001600160a01b038d16845290915290206001015415612880576000955050505061263d565b60008a8152602081815260408083208b84529091529020546128a2908861481a565b60008b8152602081815260408083208c845290915280822083905560028501548252812054908a90521080612907575060008a815260208181526040808320600286015484529091528082205460018352912054148015612907575060028260020154145b15612a265760066001830154600160a01b900460ff16600781111561292e5761292e614419565b14801561295c57508260c00151836040015161294a9190614920565b600a8301546129599042614920565b10155b80612986575060076001830154600160a01b900460ff16600781111561298457612984614419565b145b15612a1e5760076001830154600160a01b900460ff1660078111156129ad576129ad614419565b14612a175760c0830151600483015560018201805460ff60a01b1916600760a01b17908190556040518b917f21aca7f0285ccddeca2935074d3e36b5ab8fea0327f84cbbf12cf1b6d1a749f991612a0e91600160a01b900460ff169061496e565b60405180910390a25b42600a8301555b600282018890555b604080516060810182528981526020810189905290810160056001850154600160a01b900460ff166007811115612a5f57612a5f614419565b1480612a8a575060046001850154600160a01b900460ff166007811115612a8857612a88614419565b145b1515905260008b81526002602081815260408084206001600160a01b038f1685528252928390208451815590840151600182015592909101519101805460ff191691151591909117905560056001830154600160a01b900460ff166007811115612af657612af6614419565b1480612b21575060046001830154600160a01b900460ff166007811115612b1f57612b1f614419565b145b15612b655760008a81526001602090815260408083208b8452909152902054612b4a908861481a565b60008b81526001602090815260408083208c84529091529020555b81546000908152600760209081526040918290205482518b81529182018a90526001600160a01b038c8116939116918d917f066c061a3792cb3eb64a441a928655fcbafb4a54b49725fe9cd2951df5e7189e9101612626565b60008181526007602052604090206003015415612c7e57600081815260076020526040812060040154612bf2903a90613cfb565b600083815260076020526040902060030154612c0e9190614843565b6000838152600760205260409020600201549091508111612c7c5760008281526007602052604081206002018054839290612c4a908490614920565b9091555050604051339082156108fc029083906000818181858888f19350505050158015610ec3573d6000803e3d6000fd5b505b50565b6000610ee9825490565b6000610cd3612ca7600160281b6001600160d81b038616614843565b612cbe600160281b6001600160d81b038616614843565b613f79565b60606000612cd083612c81565b905080600003612cf0575050604080516000815260208101909152610cd3565b80851115612d11576040516368d3b91b60e01b815260040160405180910390fd5b80841115612d3257604051635798cc0960e01b815260040160405180910390fd5b83851115612d535760405163ecb193ab60e01b815260040160405180910390fd5b6000612d60600183614920565b905060008515612d705785612d72565b815b9050600087612d8283600161481a565b612d8c9190614920565b90508067ffffffffffffffff811115612da757612da7614698565b604051908082528060200260200182016040528015612dd0578160200160208202803683370190505b50945060005b81811015612e2157612df2612deb8a8361481a565b8890613f94565b868281518110612e0457612e0461482d565b602090810291909101015280612e198161487c565b915050612dd6565b50505050509392505050565b60006002851015612e51576040516336d37ddf60e11b815260040160405180910390fd5b6000848152600560205260409020546113881115612e8257604051631189a84760e31b815260040160405180910390fd5b600a546040516bffffffffffffffffffffffff193060601b1660208201526034810191909152605401604051602081830303815290604052805190602001209050600a546001612ed2919061481a565b600a55612edd614240565b336020808301829052604051612ef69291869101614895565b60408051601f19818403018152918152815160209283012083526004838201526101608301514290526000878152600583528181206002015460c08501526001600160a01b0387811660a08601526001608086015260e08501899052845182526007909352205416612fbf576001600160a01b038316612f95578051600090815260076020526040902080546001600160a01b03191633179055612fbf565b8051600090815260076020526040902080546001600160a01b0319166001600160a01b0385161790555b60008581526005602090815260408083206007908101546101008601819052868552600384528285206001808752908552838620919091558685526006845293829020855181559285015193830180546001600160a01b031981166001600160a01b039096169586178255928601518695909391926001600160a81b03199092161790600160a01b90849081111561305957613059614419565b0217905550606082015160018201805460ff60a81b1916600160a81b83600681111561308757613087614419565b02179055506080820151600282015560a0820151600380830180546001600160a01b0319166001600160a01b039093169290921790915560c0830151600483015560e08301516005830155610100830151600683015561012083015160078301556101408301516008830155610160830151613108916009840191906142b2565b5050506000828152600e6020526040812087905561314d90839060089061312e83611ad1565b6001600160a01b03168152602081019190915260400160002090613fa0565b5080516000908152600760209081526040918290205482518981526001600160a01b0388811693820193909352928301889052169083907f75b4ff136cc5de5957574c797de3334eb1c141271922b825eb071e0487ba2c5c9060600160405180910390a350949350505050565b6000806131c78385614843565b9050826131d4858361485a565b146132195760405162461bcd60e51b81526020600482015260156024820152745265616c4d617468206d756c206f766572666c6f7760581b6044820152606401610f64565b60281c9392505050565b60008161322f81611a46565b61324c576040516361a1e91560e01b815260040160405180910390fd5b60008381526006602081815260408084206005808201548652808452828620835161012081018552815481526001808301548288015260028301548287015260038301546060830152600483015460808301529282015460a08201529581015460c087015260078082015460e088015260089091015461010087015283516101808101855283548152918301546001600160a01b038116958301959095529195939092869290840191600160a01b900460ff169081111561330f5761330f614419565b600781111561332057613320614419565b81526020016001820160159054906101000a900460ff16600681111561334857613348614419565b600681111561335957613359614419565b8152600282015460208201526003808301546001600160a01b0316604080840191909152600484015460608085019190915260058501546080850152600685015460a0850152600785015460c0850152600885015460e08501528151908101918290526101009093019291600985019182845b8154815260200190600101908083116133cc5750505091909252505050600184015460405163b551c37360e01b8152600481018990529192506000916001600160a01b039091169063b551c37390602401602060405180830381865afa15801561343a573d6000803e3d6000fd5b505050506040513d601f19601f8201168201806040525081019061345e9190614933565b835190915061346f6127108361485a565b6134799190614843565b6000888152602081815260408083206002890154845290915290205411156135715760046001850154600160a01b900460ff1660078111156134bd576134bd614419565b036134dc5760018401805460ff60a81b1916600160a91b179055613557565b60056001850154600160a01b900460ff1660078111156134fe576134fe614419565b036135415760018401805460ff60a81b1916600160aa1b179055835460009081526007602052604081206006018054916135378361497c565b9190505550613557565b60018401805460ff60a81b1916600360a91b1790555b60018401805460ff60a01b1916600160a11b179055613782565b60046001850154600160a01b900460ff16600781111561359357613593614419565b0361362657602083015160098501546135ac9042614920565b106135d85760018481018054600287019290925561ffff60a01b1990911661030160a01b179055613626565b6135e1876114ed565b156136265760018401805460ff60a01b1916600560a01b17905542600b850155835460009081526007602052604081206006018054916136208361487c565b91905055505b60056001850154600160a01b900460ff16600781111561364857613648614419565b03613782576060830151600b8501546136619042614920565b106137285761366f876114ed565b156136e957835460009081526007602052604090206005015461100011156136e45760018401805460ff60a01b1916600360a11b1790556060830151600b8501546136ba919061481a565b600a850155835460009081526007602052604081206005018054916136de8361487c565b91905055505b6136ff565b60018401805460ff60a01b1916600160a21b1790555b8354600090815260076020526040812060060180549161371e8361497c565b9190505550613782565b61373a846005015485600001546117bc565b61374388612079565b116137825760018401805460ff60a01b1916600160a21b1790558354600090815260076020526040812060060180549161377c8361497c565b91905055505b60066001850154600160a01b900460ff1660078111156137a4576137a4614419565b14806137cf575060076001850154600160a01b900460ff1660078111156137cd576137cd614419565b145b15613869576004840154600a8501546137e89042614920565b10613869576101008301516137ff6127108361485a565b6138099190614843565b60008881526020818152604080832060028901548452909152902054106138465760018401805461ffff60a01b191661060360a01b179055613869565b60018481018054600287019290925561ffff60a01b1990911661050160a01b1790555b60006001850154600160a81b900460ff16600681111561388b5761388b614419565b14613c1d5760056001850154600160a81b900460ff1660068111156138b2576138b2614419565b14806138dd575060066001850154600160a81b900460ff1660068111156138db576138db614419565b145b1561390757835460009081526007602052604081206005018054916139018361497c565b91905055505b61393787600860006139188b611ad1565b6001600160a01b03168152602081019190915260400160002090613fac565b50613949876009600061312e8b611ad1565b50835460009081526007602090815260409182902054600287015483519081529182018490526001600160a01b03169189917f37471b9c9d295ffb1309ad070b8964700bfb7b555e8e8292d0b6cbc7dba35d10910160405180910390a3600184015460028501546040516305bd908560e41b8152600481018a905260248101919091526001600160a01b0390911690635bd90850906044016020604051808303816000875af1925050508015613a1c575060408051601f3d908101601f19168201909252613a199181019061494c565b60015b613b6157613a28614993565b806308c379a003613a9e5750613a3c6149af565b80613a475750613b18565b6001858101805460ff60a81b1916600160a81b835b02179055507fc47b365839edd5ceac2af5379b7e67092809eeac75e4f9303a4ad42d0d3c067e81604051613a909190614a2e565b60405180910390a150613b9d565b634e487b7103613b1857613ab0614a7c565b90613abb5750613b18565b60018501805460ff60a81b1916600160a81b17905560408051602081018390527fc47b365839edd5ceac2af5379b7e67092809eeac75e4f9303a4ad42d0d3c067e910160408051601f1981840301815290829052613a9091614a2e565b3d808015613b42576040519150601f19603f3d011682016040523d82523d6000602084013e613b47565b606091505b506001858101805460ff60a81b1916600160a81b83613a5c565b506040805160208082526000908201527fc47b365839edd5ceac2af5379b7e67092809eeac75e4f9303a4ad42d0d3c067e910160405180910390a15b60018401546002850154604051639a299d0560e01b8152600481018a905260248101919091526001600160a01b0390911690639a299d05906044016020604051808303816000875af1158015613bf7573d6000803e3d6000fd5b505050506040513d601f19601f82011682018060405250810190613c1b919061494c565b505b6001840154600160a01b900460ff166007811115613c3d57613c3d614419565b82604001516007811115613c5357613c53614419565b14613ca157600184015460405188917f21aca7f0285ccddeca2935074d3e36b5ab8fea0327f84cbbf12cf1b6d1a749f991613c9891600160a01b900460ff169061496e565b60405180910390a25b60006001850154600160a81b900460ff166006811115613cc357613cc3614419565b14158015613cf05750600180850154600160a81b900460ff166006811115613ced57613ced614419565b14155b979650505050505050565b6000818310613d0a5781610cd3565b5090919050565b60008282600160281b5b81156116d15781600116600103613d3957613d3681846131ba565b90505b60019190911c908115613d5357613d5083846131ba565b92505b613d1b565b6000808251604103613d8e5760208301516040840151606085015160001a613d8287828585613fb8565b94509450505050610b34565b8251604003613db75760208301516040840151613dac8683836140a5565b935093505050610b34565b50600090506002610b34565b6000816004811115613dd757613dd7614419565b03613ddf5750565b6001816004811115613df357613df3614419565b03613e405760405162461bcd60e51b815260206004820152601860248201527f45434453413a20696e76616c6964207369676e617475726500000000000000006044820152606401610f64565b6002816004811115613e5457613e54614419565b03613ea15760405162461bcd60e51b815260206004820152601f60248201527f45434453413a20696e76616c6964207369676e6174757265206c656e677468006044820152606401610f64565b6003816004811115613eb557613eb5614419565b03613f0d5760405162461bcd60e51b815260206004820152602260248201527f45434453413a20696e76616c6964207369676e6174757265202773272076616c604482015261756560f01b6064820152608401610f64565b6004816004811115613f2157613f21614419565b03612c7e5760405162461bcd60e51b815260206004820152602260248201527f45434453413a20696e76616c6964207369676e6174757265202776272076616c604482015261756560f01b6064820152608401610f64565b600081613f8a600160281b85614843565b610cd3919061485a565b6000610cd383836140d4565b6000610cd383836140fe565b6000610cd3838361414d565b6000807f7fffffffffffffffffffffffffffffff5d576e7357a4501ddfe92f46681b20a0831115613fef575060009050600361409c565b8460ff16601b1415801561400757508460ff16601c14155b15614018575060009050600461409c565b6040805160008082526020820180845289905260ff881692820192909252606081018690526080810185905260019060a0016020604051602081039080840390855afa15801561406c573d6000803e3d6000fd5b5050604051601f1901519150506001600160a01b0381166140955760006001925092505061409c565b9150600090505b94509492505050565b6000806001600160ff1b03831660ff84901c601b016140c687828885613fb8565b935093505050935093915050565b60008260000182815481106140eb576140eb61482d565b9060005260206000200154905092915050565b600081815260018301602052604081205461414557508154600181810184556000848152602080822090930184905584548482528286019093526040902091909155610ee9565b506000610ee9565b60008181526001830160205260408120548015614236576000614171600183614920565b855490915060009061418590600190614920565b90508181146141ea5760008660000182815481106141a5576141a561482d565b90600052602060002001549050808760000184815481106141c8576141c861482d565b6000918252602080832090910192909255918252600188019052604090208390555b85548690806141fb576141fb614a9c565b600190038181906000526020600020016000905590558560010160008681526020019081526020016000206000905560019350505050610ee9565b6000915050610ee9565b604080516101808101825260008082526020820181905290918201908152602001600081526020016000815260200160006001600160a01b0316815260200160008152602001600080191681526020016000815260200160008152602001600081526020016142ad6142f0565b905290565b82600381019282156142e0579160200282015b828111156142e05782518255916020019190600101906142c5565b506142ec92915061430e565b5090565b60405180606001604052806003906020820280368337509192915050565b5b808211156142ec576000815560010161430f565b60006020828403121561433557600080fd5b5035919050565b80356001600160a01b038116811461435357600080fd5b919050565b6000806040838503121561436b57600080fd5b8235915061437b6020840161433c565b90509250929050565b60006020828403121561439657600080fd5b610cd38261433c565b60008060008060008060c087890312156143b857600080fd5b863595506143c86020880161433c565b95989597505050506040840135936060810135936080820135935060a0909101359150565b60008060006060848603121561440257600080fd5b505081359360208301359350604090920135919050565b634e487b7160e01b600052602160045260246000fd5b6008811061443f5761443f614419565b9052565b8b81526001600160a01b038b81166020830152610160820190614469604084018d61442f565b60078b1061447957614479614419565b606083019a909a5260808201989098529590971660a086015260c085019390935260e084019190915261010083015261012082015261014001919091529392505050565b60008083601f8401126144cf57600080fd5b50813567ffffffffffffffff8111156144e757600080fd5b602083019150836020828501011115610b3457600080fd5b60008060008060008060a0878903121561451857600080fd5b863595506145286020880161433c565b94506040870135935060608701359250608087013567ffffffffffffffff81111561455257600080fd5b61455e89828a016144bd565b979a9699509497509295939492505050565b600061010080838503121561458457600080fd5b83818401111561459357600080fd5b509092915050565b60008060008060008060008060e0898b0312156145b757600080fd5b883597506145c760208a0161433c565b965060408901359550606089013594506080890135935060a0890135925060c089013567ffffffffffffffff8111156145ff57600080fd5b61460b8b828c016144bd565b999c989b5096995094979396929594505050565b60008060006060848603121561463457600080fd5b833592506020840135915061464b6040850161433c565b90509250925092565b6020808252825182820181905260009190848201906040850190845b8181101561468c57835183529284019291840191600101614670565b50909695505050505050565b634e487b7160e01b600052604160045260246000fd5b601f8201601f1916810167ffffffffffffffff811182821017156146d4576146d4614698565b6040525050565b60006101008083850312156146ef57600080fd5b83601f8401126146fe57600080fd5b60405181810181811067ffffffffffffffff8211171561472057614720614698565b60405290830190808583111561473557600080fd5b845b8381101561474f578035825260209182019101614737565b509095945050505050565b6000806000806080858703121561477057600080fd5b84359350602085013592506147876040860161433c565b91506147956060860161433c565b905092959194509250565b600080600080608085870312156147b657600080fd5b6147bf8561433c565b93506147cd6020860161433c565b93969395505050506040820135916060013590565b600080604083850312156147f557600080fd5b50508035926020909101359150565b634e487b7160e01b600052601160045260246000fd5b80820180821115610ee957610ee9614804565b634e487b7160e01b600052603260045260246000fd5b8082028115828204841417610ee957610ee9614804565b60008261487757634e487b7160e01b600052601260045260246000fd5b500490565b60006001820161488e5761488e614804565b5060010190565b6bffffffffffffffffffffffff19606093841b811682529190921b16601482015260280190565b88815260018060a01b03881660208201528660408201528560608201528460808201528360a082015260e060c08201528160e082015260006101008385828501376000838501820152601f909301601f191690910190910198975050505050505050565b81810381811115610ee957610ee9614804565b60006020828403121561494557600080fd5b5051919050565b60006020828403121561495e57600080fd5b81518015158114610cd357600080fd5b60208101610ee9828461442f565b60008161498b5761498b614804565b506000190190565b600060033d11156149ac5760046000803e5060005160e01c5b90565b600060443d10156149bd5790565b6040516003193d81016004833e81513d67ffffffffffffffff81602484011181841117156149ed57505050505090565b8285019150815181811115614a055750505050505090565b843d8701016020828501011115614a1f5750505050505090565b61474f602082860101876146ae565b600060208083528351808285015260005b81811015614a5b57858101830151858201604001528201614a3f565b506000604082860101526040601f19601f8301168501019250505092915050565b60008060233d1115614a98576020600460003e50506000516001905b9091565b634e487b7160e01b600052603160045260246000fdfea2646970667358221220579e2c0eb7df1e9b151538398265a801161e3aefe692c52f51091a5bf7a1250f64736f6c63430008110033",
  "linkReferences": {},
  "deployedLinkReferences": {}
}