{
  "_format": "hh-sol-artifact-1",
  "contractName": "WalletScheme",
  "sourceName": "contracts/dao/schemes/WalletScheme.sol",
  "abi": [
    {
      "inputs": [],
      "name": "Scheme_InvalidParameterArrayLength",
      "type": "error"
    },
    {
      "inputs": [],
      "name": "Scheme__AvatarAddressCannotBeZero",
      "type": "error"
    },
    {
      "inputs": [
        {
          "internalType": "string",
          "name": "reason",
          "type": "string"
        }
      ],
      "name": "Scheme__CallFailed",
      "type": "error"
    },
    {
      "inputs": [],
      "name": "Scheme__CannotInitTwice",
      "type": "error"
    },
    {
      "inputs": [],
      "name": "Scheme__ControllerAddressCannotBeZero",
      "type": "error"
    },
    {
      "inputs": [],
      "name": "Scheme__ERC20LimitsPassed",
      "type": "error"
    },
    {
      "inputs": [],
      "name": "Scheme__InvalidTotalOptionsOrActionsCallsLength",
      "type": "error"
    },
    {
      "inputs": [],
      "name": "Scheme__MaxRepPercentageChangePassed",
      "type": "error"
    },
    {
      "inputs": [],
      "name": "Scheme__ProposalExecutionAlreadyRunning",
      "type": "error"
    },
    {
      "inputs": [],
      "name": "Scheme__ProposalMustBeSubmitted",
      "type": "error"
    },
    {
      "inputs": [],
      "name": "WalletScheme__CannotMakeAvatarCalls",
      "type": "error"
    },
    {
      "inputs": [],
      "name": "WalletScheme__TotalOptionsMustBeTwo",
      "type": "error"
    },
    {
      "anonymous": false,
      "inputs": [
        {
          "indexed": true,
          "internalType": "bytes32",
          "name": "proposalId",
          "type": "bytes32"
        },
        {
          "indexed": true,
          "internalType": "uint256",
          "name": "state",
          "type": "uint256"
        }
      ],
      "name": "ProposalStateChange",
      "type": "event"
    },
    {
      "inputs": [],
      "name": "avatar",
      "outputs": [
        {
          "internalType": "contract DAOAvatar",
          "name": "",
          "type": "address"
        }
      ],
      "stateMutability": "view",
      "type": "function"
    },
    {
      "inputs": [],
      "name": "controller",
      "outputs": [
        {
          "internalType": "contract DAOController",
          "name": "",
          "type": "address"
        }
      ],
      "stateMutability": "view",
      "type": "function"
    },
    {
      "inputs": [
        {
          "internalType": "bytes32",
          "name": "proposalId",
          "type": "bytes32"
        },
        {
          "internalType": "uint256",
          "name": "winningOption",
          "type": "uint256"
        }
      ],
      "name": "executeProposal",
      "outputs": [
        {
          "internalType": "bool",
          "name": "",
          "type": "bool"
        }
      ],
      "stateMutability": "nonpayable",
      "type": "function"
    },
    {
      "inputs": [
        {
          "internalType": "bytes32",
          "name": "proposalId",
          "type": "bytes32"
        },
        {
          "internalType": "uint256",
          "name": "winningOption",
          "type": "uint256"
        }
      ],
      "name": "finishProposal",
      "outputs": [
        {
          "internalType": "bool",
          "name": "success",
          "type": "bool"
        }
      ],
      "stateMutability": "nonpayable",
      "type": "function"
    },
    {
      "inputs": [
        {
          "internalType": "bytes",
          "name": "data",
          "type": "bytes"
        }
      ],
      "name": "getFuncSignature",
      "outputs": [
        {
          "internalType": "bytes4",
          "name": "functionSignature",
          "type": "bytes4"
        }
      ],
      "stateMutability": "pure",
      "type": "function"
    },
    {
      "inputs": [],
      "name": "getNativeReputationTotalSupply",
      "outputs": [
        {
          "internalType": "uint256",
          "name": "",
          "type": "uint256"
        }
      ],
      "stateMutability": "view",
      "type": "function"
    },
    {
      "inputs": [],
      "name": "getOrganizationProposals",
      "outputs": [
        {
          "internalType": "bytes32[]",
          "name": "proposalsIds",
          "type": "bytes32[]"
        }
      ],
      "stateMutability": "view",
      "type": "function"
    },
    {
      "inputs": [],
      "name": "getOrganizationProposalsLength",
      "outputs": [
        {
          "internalType": "uint256",
          "name": "proposalsLength",
          "type": "uint256"
        }
      ],
      "stateMutability": "view",
      "type": "function"
    },
    {
      "inputs": [
        {
          "internalType": "bytes32",
          "name": "proposalId",
          "type": "bytes32"
        }
      ],
      "name": "getProposal",
      "outputs": [
        {
          "components": [
            {
              "internalType": "address[]",
              "name": "to",
              "type": "address[]"
            },
            {
              "internalType": "bytes[]",
              "name": "callData",
              "type": "bytes[]"
            },
            {
              "internalType": "uint256[]",
              "name": "value",
              "type": "uint256[]"
            },
            {
              "internalType": "uint256",
              "name": "totalOptions",
              "type": "uint256"
            },
            {
              "internalType": "enum Scheme.ProposalState",
              "name": "state",
              "type": "uint8"
            },
            {
              "internalType": "string",
              "name": "title",
              "type": "string"
            },
            {
              "internalType": "string",
              "name": "descriptionHash",
              "type": "string"
            },
            {
              "internalType": "uint256",
              "name": "submittedTime",
              "type": "uint256"
            }
          ],
          "internalType": "struct Scheme.Proposal",
          "name": "proposal",
          "type": "tuple"
        }
      ],
      "stateMutability": "view",
      "type": "function"
    },
    {
      "inputs": [
        {
          "internalType": "uint256",
          "name": "proposalIndex",
          "type": "uint256"
        }
      ],
      "name": "getProposalByIndex",
      "outputs": [
        {
          "components": [
            {
              "internalType": "address[]",
              "name": "to",
              "type": "address[]"
            },
            {
              "internalType": "bytes[]",
              "name": "callData",
              "type": "bytes[]"
            },
            {
              "internalType": "uint256[]",
              "name": "value",
              "type": "uint256[]"
            },
            {
              "internalType": "uint256",
              "name": "totalOptions",
              "type": "uint256"
            },
            {
              "internalType": "enum Scheme.ProposalState",
              "name": "state",
              "type": "uint8"
            },
            {
              "internalType": "string",
              "name": "title",
              "type": "string"
            },
            {
              "internalType": "string",
              "name": "descriptionHash",
              "type": "string"
            },
            {
              "internalType": "uint256",
              "name": "submittedTime",
              "type": "uint256"
            }
          ],
          "internalType": "struct Scheme.Proposal",
          "name": "proposal",
          "type": "tuple"
        }
      ],
      "stateMutability": "view",
      "type": "function"
    },
    {
      "inputs": [],
      "name": "getReputation",
      "outputs": [
        {
          "internalType": "contract DAOReputation",
          "name": "",
          "type": "address"
        }
      ],
      "stateMutability": "view",
      "type": "function"
    },
    {
      "inputs": [],
      "name": "getSchemeType",
      "outputs": [
        {
          "internalType": "string",
          "name": "",
          "type": "string"
        }
      ],
      "stateMutability": "pure",
      "type": "function"
    },
    {
      "inputs": [
        {
          "internalType": "bytes32",
          "name": "_proposalId",
          "type": "bytes32"
        }
      ],
      "name": "getTotalReputationSupply",
      "outputs": [
        {
          "internalType": "uint256",
          "name": "",
          "type": "uint256"
        }
      ],
      "stateMutability": "view",
      "type": "function"
    },
    {
      "inputs": [
        {
          "internalType": "address payable",
          "name": "avatarAddress",
          "type": "address"
        },
        {
          "internalType": "address",
          "name": "votingMachineAddress",
          "type": "address"
        },
        {
          "internalType": "address",
          "name": "controllerAddress",
          "type": "address"
        },
        {
          "internalType": "address",
          "name": "permissionRegistryAddress",
          "type": "address"
        },
        {
          "internalType": "string",
          "name": "_schemeName",
          "type": "string"
        },
        {
          "internalType": "uint256",
          "name": "_maxRepPercentageChange",
          "type": "uint256"
        }
      ],
      "name": "initialize",
      "outputs": [],
      "stateMutability": "nonpayable",
      "type": "function"
    },
    {
      "inputs": [],
      "name": "maxRepPercentageChange",
      "outputs": [
        {
          "internalType": "uint256",
          "name": "",
          "type": "uint256"
        }
      ],
      "stateMutability": "view",
      "type": "function"
    },
    {
      "inputs": [],
      "name": "permissionRegistry",
      "outputs": [
        {
          "internalType": "contract PermissionRegistry",
          "name": "",
          "type": "address"
        }
      ],
      "stateMutability": "view",
      "type": "function"
    },
    {
      "inputs": [
        {
          "internalType": "bytes32",
          "name": "",
          "type": "bytes32"
        }
      ],
      "name": "proposalSnapshots",
      "outputs": [
        {
          "internalType": "uint256",
          "name": "",
          "type": "uint256"
        }
      ],
      "stateMutability": "view",
      "type": "function"
    },
    {
      "inputs": [
        {
          "internalType": "bytes32",
          "name": "",
          "type": "bytes32"
        }
      ],
      "name": "proposals",
      "outputs": [
        {
          "internalType": "uint256",
          "name": "totalOptions",
          "type": "uint256"
        },
        {
          "internalType": "enum Scheme.ProposalState",
          "name": "state",
          "type": "uint8"
        },
        {
          "internalType": "string",
          "name": "title",
          "type": "string"
        },
        {
          "internalType": "string",
          "name": "descriptionHash",
          "type": "string"
        },
        {
          "internalType": "uint256",
          "name": "submittedTime",
          "type": "uint256"
        }
      ],
      "stateMutability": "view",
      "type": "function"
    },
    {
      "inputs": [
        {
          "internalType": "uint256",
          "name": "",
          "type": "uint256"
        }
      ],
      "name": "proposalsList",
      "outputs": [
        {
          "internalType": "bytes32",
          "name": "",
          "type": "bytes32"
        }
      ],
      "stateMutability": "view",
      "type": "function"
    },
    {
      "inputs": [
        {
          "internalType": "address[]",
          "name": "to",
          "type": "address[]"
        },
        {
          "internalType": "bytes[]",
          "name": "callData",
          "type": "bytes[]"
        },
        {
          "internalType": "uint256[]",
          "name": "value",
          "type": "uint256[]"
        },
        {
          "internalType": "uint256",
          "name": "totalOptions",
          "type": "uint256"
        },
        {
          "internalType": "string",
          "name": "title",
          "type": "string"
        },
        {
          "internalType": "string",
          "name": "descriptionHash",
          "type": "string"
        }
      ],
      "name": "proposeCalls",
      "outputs": [
        {
          "internalType": "bytes32",
          "name": "proposalId",
          "type": "bytes32"
        }
      ],
      "stateMutability": "nonpayable",
      "type": "function"
    },
    {
      "inputs": [
        {
          "internalType": "address",
          "name": "_owner",
          "type": "address"
        },
        {
          "internalType": "bytes32",
          "name": "_proposalId",
          "type": "bytes32"
        }
      ],
      "name": "reputationOf",
      "outputs": [
        {
          "internalType": "uint256",
          "name": "",
          "type": "uint256"
        }
      ],
      "stateMutability": "view",
      "type": "function"
    },
    {
      "inputs": [],
      "name": "schemeName",
      "outputs": [
        {
          "internalType": "string",
          "name": "",
          "type": "string"
        }
      ],
      "stateMutability": "view",
      "type": "function"
    },
    {
      "inputs": [],
      "name": "votingMachine",
      "outputs": [
        {
          "internalType": "contract IVotingMachine",
          "name": "",
          "type": "address"
        }
      ],
      "stateMutability": "view",
      "type": "function"
    },
    {
      "stateMutability": "payable",
      "type": "receive"
    }
  ],
  "bytecode": "0x608060405234801561001057600080fd5b50612951806100206000396000f3fe6080604052600436106101445760003560e01c8063a6abddc2116100b6578063d3d1e7ba1161006f578063d3d1e7ba146103ef578063db2131cd14610411578063df06e36414610427578063e595702314610449578063f77c479114610469578063ffe6a18e1461048957600080fd5b8063a6abddc21461032f578063b551c37314610370578063b55a5c1c14610390578063b632a912146103b0578063c45ff281146103c5578063d3b4644a146103da57600080fd5b8063430694cf11610108578063430694cf146102525780635aef7de6146102725780635bd90850146102925780636fde063c146102c25780639588378e146102ef5780639a299d051461030f57600080fd5b806305a82c6214610150578063088af1821461018357806332ed5b12146101bc57806337d1d389146101ed5780633edf7ca11461021a57600080fd5b3661014b57005b600080fd5b34801561015c57600080fd5b5061017061016b366004611f0e565b61049e565b6040519081526020015b60405180910390f35b34801561018f57600080fd5b506101a361019e36600461200b565b6104e4565b6040516001600160e01b0319909116815260200161017a565b3480156101c857600080fd5b506101dc6101d736600461204d565b610516565b60405161017a9594939291906120ee565b3480156101f957600080fd5b5061020d61020836600461204d565b61065e565b60405161017a9190612202565b34801561022657600080fd5b5060005461023a906001600160a01b031681565b6040516001600160a01b03909116815260200161017a565b34801561025e57600080fd5b5061020d61026d36600461204d565b6109a7565b34801561027e57600080fd5b5060055461023a906001600160a01b031681565b34801561029e57600080fd5b506102b26102ad3660046122cc565b610af5565b604051901515815260200161017a565b3480156102ce57600080fd5b506101706102dd36600461204d565b60026020526000908152604090205481565b3480156102fb57600080fd5b5061017061030a366004612303565b610bc4565b34801561031b57600080fd5b506102b261032a3660046122cc565b610c50565b34801561033b57600080fd5b5060408051808201909152600f81526e57616c6c6574536368656d655f763160881b60208201525b60405161017a919061232f565b34801561037c57600080fd5b5061017061038b36600461204d565b610d54565b34801561039c57600080fd5b5060065461023a906001600160a01b031681565b3480156103bc57600080fd5b50600454610170565b3480156103d157600080fd5b50610363610ddf565b3480156103e657600080fd5b50610170610e6d565b3480156103fb57600080fd5b50610404610edd565b60405161017a9190612342565b34801561041d57600080fd5b5061017060085481565b34801561043357600080fd5b50610447610442366004612386565b610f35565b005b34801561045557600080fd5b5061017061046436600461204d565b611010565b34801561047557600080fd5b5060015461023a906001600160a01b031681565b34801561049557600080fd5b5061023a611031565b6000856002146104c1576040516301fef65960e01b815260040160405180910390fd5b6104d48c8c8c8c8c8c8c8c8c8c8c61109f565b9c9b505050505050505050505050565b60006004821061050c576104fc60046000848661241d565b61050591612447565b9050610510565b5060005b92915050565b6003602081905260009182526040909120908101546004820154600583018054929360ff9092169261054790612477565b80601f016020809104026020016040519081016040528092919081815260200182805461057390612477565b80156105c05780601f10610595576101008083540402835291602001916105c0565b820191906000526020600020905b8154815290600101906020018083116105a357829003601f168201915b5050505050908060060180546105d590612477565b80601f016020809104026020016040519081016040528092919081815260200182805461060190612477565b801561064e5780601f106106235761010080835404028352916020019161064e565b820191906000526020600020905b81548152906001019060200180831161063157829003601f168201915b5050505050908060070154905085565b610666611cc9565b600360006004848154811061067d5761067d6124b1565b9060005260206000200154815260200190815260200160002060405180610100016040529081600082018054806020026020016040519081016040528092919081815260200182805480156106fb57602002820191906000526020600020905b81546001600160a01b031681526001909101906020018083116106dd575b5050505050815260200160018201805480602002602001604051908101604052809291908181526020016000905b828210156107d557838290600052602060002001805461074890612477565b80601f016020809104026020016040519081016040528092919081815260200182805461077490612477565b80156107c15780601f10610796576101008083540402835291602001916107c1565b820191906000526020600020905b8154815290600101906020018083116107a457829003601f168201915b505050505081526020019060010190610729565b5050505081526020016002820180548060200260200160405190810160405280929190818152602001828054801561082c57602002820191906000526020600020905b815481526020019060010190808311610818575b50505091835250506003828101546020830152600483015460409092019160ff169081111561085d5761085d612066565b600381111561086e5761086e612066565b815260200160058201805461088290612477565b80601f01602080910402602001604051908101604052809291908181526020018280546108ae90612477565b80156108fb5780601f106108d0576101008083540402835291602001916108fb565b820191906000526020600020905b8154815290600101906020018083116108de57829003601f168201915b5050505050815260200160068201805461091490612477565b80601f016020809104026020016040519081016040528092919081815260200182805461094090612477565b801561098d5780601f106109625761010080835404028352916020019161098d565b820191906000526020600020905b81548152906001019060200180831161097057829003601f168201915b505050505081526020016007820154815250509050919050565b6109af611cc9565b600082815260036020908152604091829020825181546101209381028201840190945261010081018481529093919284928491840182828015610a1b57602002820191906000526020600020905b81546001600160a01b031681526001909101906020018083116109fd575b5050505050815260200160018201805480602002602001604051908101604052809291908181526020016000905b828210156107d5578382906000526020600020018054610a6890612477565b80601f0160208091040260200160405190810160405280929190818152602001828054610a9490612477565b8015610ae15780601f10610ab657610100808354040283529160200191610ae1565b820191906000526020600020905b815481529060010190602001808311610ac457829003601f168201915b505050505081526020019060010190610a49565b600080546001600160a01b03163314610b295760405162461bcd60e51b8152600401610b20906124c7565b60405180910390fd5b60015460405163d90e0dad60e01b81523060048201526001600160a01b039091169063d90e0dad90602401602060405180830381865afa158015610b71573d6000803e3d6000fd5b505050506040513d601f19601f82011682018060405250810190610b959190612511565b15610bb35760405163898f2b5360e01b815260040160405180910390fd5b610bbd83836114bd565b9392505050565b6000610bce611031565b6000838152600260205260409081902054905163277166bf60e11b81526001600160a01b0386811660048301526024820192909252911690634ee2cd7e90604401602060405180830381865afa158015610c2c573d6000803e3d6000fd5b505050506040513d601f19601f82011682018060405250810190610bbd9190612533565b600080546001600160a01b03163314610c7b5760405162461bcd60e51b8152600401610b20906124c7565b60008381526003602052604090206001600482015460ff166003811115610ca457610ca4612066565b14610cc257604051634fa9c28b60e01b815260040160405180910390fd5b82600103610d0c5760048101805460ff1916600290811790915560405185907faa798b5c17de8359ce5a2d3b6a5da0de89d0b116dcf830f1809599da1d986dbb90600090a3610d4a565b60048101805460ff1916600390811790915560405185907faa798b5c17de8359ce5a2d3b6a5da0de89d0b116dcf830f1809599da1d986dbb90600090a35b5060019392505050565b6000610d5e611031565b60008381526002602052604090819020549051630981b24d60e41b81526001600160a01b03929092169163981b24d091610d9e9160040190815260200190565b602060405180830381865afa158015610dbb573d6000803e3d6000fd5b505050506040513d601f19601f820116820180604052508101906105109190612533565b60078054610dec90612477565b80601f0160208091040260200160405190810160405280929190818152602001828054610e1890612477565b8015610e655780601f10610e3a57610100808354040283529160200191610e65565b820191906000526020600020905b815481529060010190602001808311610e4857829003601f168201915b505050505081565b6000610e77611031565b6001600160a01b03166318160ddd6040518163ffffffff1660e01b8152600401602060405180830381865afa158015610eb4573d6000803e3d6000fd5b505050506040513d601f19601f82011682018060405250810190610ed89190612533565b905090565b60606004805480602002602001604051908101604052809291908181526020018280548015610f2b57602002820191906000526020600020905b815481526020019060010190808311610f17575b5050505050905090565b6005546001600160a01b031615610f5f5760405163112e35c560e21b815260040160405180910390fd5b6001600160a01b038716610f8657604051632d6eb33160e01b815260040160405180910390fd5b6001600160a01b038516610fad57604051635a41e54160e01b815260040160405180910390fd5b600580546001600160a01b03808a166001600160a01b0319928316179092556000805489841690831617905560018054888416908316179055600680549287169290911691909117905560076110048385836125b1565b50600855505050505050565b6004818154811061102057600080fd5b600091825260209091200154905081565b600154604080516354c7adb960e01b815290516000926001600160a01b0316916354c7adb99160048083019260209291908290030181865afa15801561107b573d6000803e3d6000fd5b505050506040513d601f19601f82011682018060405250810190610ed89190612672565b60008a891415806110b057508a8714155b156110ce57604051630e3a003960e21b815260040160405180910390fd5b6110d96001876126a5565b6110e390886126ce565b1561110157604051631a1a260160e31b815260040160405180910390fd5b6001546040516346e361b760e01b81523060048201526000916001600160a01b0316906346e361b790602401602060405180830381865afa15801561114a573d6000803e3d6000fd5b505050506040513d601f19601f8201168201806040525081019061116e9190612533565b600054600554604051634439bdaf60e11b8152600481018b9052602481018490523360448201526001600160a01b03918216606482015292935016906388737b5e906084016020604051808303816000875af11580156111d2573d6000803e3d6000fd5b505050506040513d601f19601f820116820180604052508101906111f69190612533565b91506040518061010001604052808e8e808060200260200160405190810160405280939291908181526020018383602002808284376000920191909152505050908252506020016112478c8e612713565b81526020018a8a80806020026020016040519081016040528093929190818152602001838360200280828437600092019190915250505090825250602081018990526040016001815260200187878080601f016020809104026020016040519081016040528093929190818152602001838380828437600092019190915250505090825250604080516020601f880181900481028201810190925286815291810191908790879081908401838280828437600092018290525093855250504260209384015250848152600382526040902082518051919261132d92849290910190611d1f565b5060208281015180516113469260018501920190611d84565b5060408201518051611362916002840191602090910190611dd6565b506060820151816003015560808201518160040160006101000a81548160ff0219169083600381111561139757611397612066565b021790555060a082015160058201906113b090826127e8565b5060c082015160068201906113c590826127e8565b5060e09190910151600790910155600480546001810182556000919091527f8a35acfbc15ff81a39ae7d344fd709f28e8600b4aa8c65c6b64bfe7fe36bd19b01829055611410611031565b6001600160a01b0316635439ad866040518163ffffffff1660e01b8152600401602060405180830381865afa15801561144d573d6000803e3d6000fd5b505050506040513d601f19601f820116820180604052508101906114719190612533565b600083815260026020526040902055600160405183907faa798b5c17de8359ce5a2d3b6a5da0de89d0b116dcf830f1809599da1d986dbb90600090a3509b9a5050505050505050505050565b600080546001600160a01b031633146114e85760405162461bcd60e51b8152600401610b20906124c7565b60095460ff161561150c57604051633216058f60e21b815260040160405180910390fd5b6009805460ff1916600117905560008381526003602090815260408083208151815461012094810282018501909352610100810183815290939192849284919084018282801561158557602002820191906000526020600020905b81546001600160a01b03168152600190910190602001808311611567575b5050505050815260200160018201805480602002602001604051908101604052809291908181526020016000905b8282101561165f5783829060005260206000200180546115d290612477565b80601f01602080910402602001604051908101604052809291908181526020018280546115fe90612477565b801561164b5780601f106116205761010080835404028352916020019161164b565b820191906000526020600020905b81548152906001019060200180831161162e57829003601f168201915b5050505050815260200190600101906115b3565b505050508152602001600282018054806020026020016040519081016040528092919081815260200182805480156116b657602002820191906000526020600020905b8154815260200190600101908083116116a2575b50505091835250506003828101546020830152600483015460409092019160ff16908111156116e7576116e7612066565b60038111156116f8576116f8612066565b815260200160058201805461170c90612477565b80601f016020809104026020016040519081016040528092919081815260200182805461173890612477565b80156117855780601f1061175a57610100808354040283529160200191611785565b820191906000526020600020905b81548152906001019060200180831161176857829003601f168201915b5050505050815260200160068201805461179e90612477565b80601f01602080910402602001604051908101604052809291908181526020018280546117ca90612477565b80156118175780601f106117ec57610100808354040283529160200191611817565b820191906000526020600020905b8154815290600101906020018083116117fa57829003601f168201915b505050918352505060079190910154602090910152905060018160800151600381111561184657611846612066565b1461186457604051634fa9c28b60e01b815260040160405180910390fd5b6001831115611cb5576000611877610e6d565b9050600660009054906101000a90046001600160a01b03166001600160a01b0316633e7a47b26040518163ffffffff1660e01b8152600401600060405180830381600087803b1580156118c957600080fd5b505af11580156118dd573d6000803e3d6000fd5b5050505060006002856118f091906126a5565b6001846060015161190191906126a5565b84515161190e91906128a8565b61191891906128bc565b905060006001846060015161192d91906126a5565b84515161193a91906128a8565b61194490836128d3565b9050600060605b82841015611ba55760008660200151858151811061196b5761196b6124b1565b6020026020010151905060006001600160a01b031687600001518681518110611996576119966124b1565b60200260200101516001600160a01b03161415806119d157506000876040015186815181106119c7576119c76124b1565b6020026020010151115b806119dd575060008151115b15611b92576020810151600654885180516001600160a01b039092169163eed470339130918a908110611a1257611a126124b1565b6020026020010151848c604001518b81518110611a3157611a316124b1565b60200260200101516040518563ffffffff1660e01b8152600401611a8694939291906001600160a01b0394851681529290931660208301526001600160e01b0319166040820152606081019190915260800190565b600060405180830381600087803b158015611aa057600080fd5b505af1158015611ab4573d6000803e3d6000fd5b5050505087600001518681518110611ace57611ace6124b1565b60200260200101516001600160a01b031688604001518781518110611af557611af56124b1565b602002602001015189602001518881518110611b1357611b136124b1565b6020026020010151604051611b2891906128e6565b60006040518083038185875af1925050503d8060008114611b65576040519150601f19603f3d011682016040523d82523d6000602084013e611b6a565b606091505b50909450925083611b9057826040516378bbebb160e01b8152600401610b20919061232f565b505b5083611b9d81612902565b94505061194b565b611bad610e6d565b60646008546064611bbe91906128d3565b611bc890886128bc565b611bd291906128a8565b1080611c085750611be1610e6d565b60646008546064611bf291906126a5565b611bfc90886128bc565b611c0691906128a8565b115b15611c265760405163309f22ef60e21b815260040160405180910390fd5b60065460405163fb0fde8560e01b81523060048201526001600160a01b039091169063fb0fde8590602401602060405180830381865afa158015611c6e573d6000803e3d6000fd5b505050506040513d601f19601f82011682018060405250810190611c929190612511565b611caf57604051630b5d348960e31b815260040160405180910390fd5b50505050505b50506009805460ff19169055600192915050565b6040518061010001604052806060815260200160608152602001606081526020016000815260200160006003811115611d0457611d04612066565b81526020016060815260200160608152602001600081525090565b828054828255906000526020600020908101928215611d74579160200282015b82811115611d7457825182546001600160a01b0319166001600160a01b03909116178255602090920191600190910190611d3f565b50611d80929150611e11565b5090565b828054828255906000526020600020908101928215611dca579160200282015b82811115611dca5782518290611dba90826127e8565b5091602001919060010190611da4565b50611d80929150611e26565b828054828255906000526020600020908101928215611d74579160200282015b82811115611d74578251825591602001919060010190611df6565b5b80821115611d805760008155600101611e12565b80821115611d80576000611e3a8282611e43565b50600101611e26565b508054611e4f90612477565b6000825580601f10611e5f575050565b601f016020900490600052602060002090810190611e7d9190611e11565b50565b60008083601f840112611e9257600080fd5b50813567ffffffffffffffff811115611eaa57600080fd5b6020830191508360208260051b8501011115611ec557600080fd5b9250929050565b60008083601f840112611ede57600080fd5b50813567ffffffffffffffff811115611ef657600080fd5b602083019150836020828501011115611ec557600080fd5b600080600080600080600080600080600060c08c8e031215611f2f57600080fd5b67ffffffffffffffff808d351115611f4657600080fd5b611f538e8e358f01611e80565b909c509a5060208d0135811015611f6957600080fd5b611f798e60208f01358f01611e80565b909a50985060408d0135811015611f8f57600080fd5b611f9f8e60408f01358f01611e80565b909850965060608d0135955060808d0135811015611fbc57600080fd5b611fcc8e60808f01358f01611ecc565b909550935060a08d0135811015611fe257600080fd5b50611ff38d60a08e01358e01611ecc565b81935080925050509295989b509295989b9093969950565b6000806020838503121561201e57600080fd5b823567ffffffffffffffff81111561203557600080fd5b61204185828601611ecc565b90969095509350505050565b60006020828403121561205f57600080fd5b5035919050565b634e487b7160e01b600052602160045260246000fd5b6004811061209a57634e487b7160e01b600052602160045260246000fd5b9052565b60005b838110156120b95781810151838201526020016120a1565b50506000910152565b600081518084526120da81602086016020860161209e565b601f01601f19169290920160200192915050565b8581526120fe602082018661207c565b60a06040820152600061211460a08301866120c2565b828103606084015261212681866120c2565b9150508260808301529695505050505050565b600081518084526020808501945080840160005b838110156121725781516001600160a01b03168752958201959082019060010161214d565b509495945050505050565b600081518084526020808501808196508360051b8101915082860160005b858110156121c55782840389526121b38483516120c2565b9885019893509084019060010161219b565b5091979650505050505050565b600081518084526020808501945080840160005b83811015612172578151875295820195908201906001016121e6565b6020815260008251610100806020850152612221610120850183612139565b91506020850151601f198086850301604087015261223f848361217d565b9350604087015191508086850301606087015261225c84836121d2565b9350606087015160808701526080870151915061227c60a087018361207c565b60a08701519150808685030160c087015261229784836120c2565b935060c08701519150808685030160e0870152506122b583826120c2565b92505060e085015181850152508091505092915050565b600080604083850312156122df57600080fd5b50508035926020909101359150565b6001600160a01b0381168114611e7d57600080fd5b6000806040838503121561231657600080fd5b8235612321816122ee565b946020939093013593505050565b602081526000610bbd60208301846120c2565b6020808252825182820181905260009190848201906040850190845b8181101561237a5783518352928401929184019160010161235e565b50909695505050505050565b600080600080600080600060c0888a0312156123a157600080fd5b87356123ac816122ee565b965060208801356123bc816122ee565b955060408801356123cc816122ee565b945060608801356123dc816122ee565b9350608088013567ffffffffffffffff8111156123f857600080fd5b6124048a828b01611ecc565b989b979a5095989497959660a090950135949350505050565b6000808585111561242d57600080fd5b8386111561243a57600080fd5b5050820193919092039150565b6001600160e01b0319813581811691600485101561246f5780818660040360031b1b83161692505b505092915050565b600181811c9082168061248b57607f821691505b6020821081036124ab57634e487b7160e01b600052602260045260246000fd5b50919050565b634e487b7160e01b600052603260045260246000fd5b6020808252602a908201527f566f74696e674d616368696e6543616c6c6261636b733a206f6e6c7920566f74604082015269696e674d616368696e6560b01b606082015260800190565b60006020828403121561252357600080fd5b81518015158114610bbd57600080fd5b60006020828403121561254557600080fd5b5051919050565b634e487b7160e01b600052604160045260246000fd5b601f8211156125ac57600081815260208120601f850160051c810160208610156125895750805b601f850160051c820191505b818110156125a857828155600101612595565b5050505b505050565b67ffffffffffffffff8311156125c9576125c961254c565b6125dd836125d78354612477565b83612562565b6000601f84116001811461261157600085156125f95750838201355b600019600387901b1c1916600186901b17835561266b565b600083815260209020601f19861690835b828110156126425786850135825560209485019460019092019101612622565b508682101561265f5760001960f88860031b161c19848701351681555b505060018560011b0183555b5050505050565b60006020828403121561268457600080fd5b8151610bbd816122ee565b634e487b7160e01b600052601160045260246000fd5b818103818111156105105761051061268f565b634e487b7160e01b600052601260045260246000fd5b6000826126dd576126dd6126b8565b500690565b604051601f8201601f1916810167ffffffffffffffff8111828210171561270b5761270b61254c565b604052919050565b600067ffffffffffffffff8084111561272e5761272e61254c565b8360051b602061273f8183016126e2565b86815291850191818101903684111561275757600080fd5b865b848110156127dc578035868111156127715760008081fd5b8801601f36818301126127845760008081fd5b8135888111156127965761279661254c565b6127a7818301601f191688016126e2565b915080825236878285010111156127be5760008081fd5b80878401888401376000908201870152845250918301918301612759565b50979650505050505050565b815167ffffffffffffffff8111156128025761280261254c565b612816816128108454612477565b84612562565b602080601f83116001811461284b57600084156128335750858301515b600019600386901b1c1916600185901b1785556125a8565b600085815260208120601f198616915b8281101561287a5788860151825594840194600190910190840161285b565b50858210156128985787850151600019600388901b60f8161c191681555b5050505050600190811b01905550565b6000826128b7576128b76126b8565b500490565b80820281158282048414176105105761051061268f565b808201808211156105105761051061268f565b600082516128f881846020870161209e565b9190910192915050565b6000600182016129145761291461268f565b506001019056fea26469706673582212208dc4ccedad6e89129ef97b990574e114d9e7b29763b8494a9a3604dcda4e97b264736f6c63430008110033",
  "linkReferences": {},
  "deployedLinkReferences": {}
}