{
  "_format": "hh-sol-artifact-1",
  "contractName": "DAOAvatar",
  "sourceName": "contracts/dao/DAOAvatar.sol",
  "abi": [
    {
      "anonymous": false,
      "inputs": [
        {
          "indexed": true,
          "internalType": "address",
          "name": "to",
          "type": "address"
        },
        {
          "indexed": false,
          "internalType": "bytes",
          "name": "data",
          "type": "bytes"
        },
        {
          "indexed": false,
          "internalType": "uint256",
          "name": "value",
          "type": "uint256"
        },
        {
          "indexed": false,
          "internalType": "bool",
          "name": "callSuccess",
          "type": "bool"
        },
        {
          "indexed": false,
          "internalType": "bytes",
          "name": "callData",
          "type": "bytes"
        }
      ],
      "name": "CallExecuted",
      "type": "event"
    },
    {
      "anonymous": false,
      "inputs": [
        {
          "indexed": true,
          "internalType": "address",
          "name": "previousOwner",
          "type": "address"
        },
        {
          "indexed": true,
          "internalType": "address",
          "name": "newOwner",
          "type": "address"
        }
      ],
      "name": "OwnershipTransferred",
      "type": "event"
    },
    {
      "inputs": [
        {
          "internalType": "address",
          "name": "to",
          "type": "address"
        },
        {
          "internalType": "bytes",
          "name": "data",
          "type": "bytes"
        },
        {
          "internalType": "uint256",
          "name": "value",
          "type": "uint256"
        }
      ],
      "name": "executeCall",
      "outputs": [
        {
          "internalType": "bool",
          "name": "callSuccess",
          "type": "bool"
        },
        {
          "internalType": "bytes",
          "name": "callData",
          "type": "bytes"
        }
      ],
      "stateMutability": "nonpayable",
      "type": "function"
    },
    {
      "inputs": [
        {
          "internalType": "address",
          "name": "owner",
          "type": "address"
        }
      ],
      "name": "initialize",
      "outputs": [],
      "stateMutability": "nonpayable",
      "type": "function"
    },
    {
      "inputs": [],
      "name": "owner",
      "outputs": [
        {
          "internalType": "address",
          "name": "",
          "type": "address"
        }
      ],
      "stateMutability": "view",
      "type": "function"
    },
    {
      "inputs": [],
      "name": "renounceOwnership",
      "outputs": [],
      "stateMutability": "nonpayable",
      "type": "function"
    },
    {
      "inputs": [
        {
          "internalType": "address",
          "name": "newOwner",
          "type": "address"
        }
      ],
      "name": "transferOwnership",
      "outputs": [],
      "stateMutability": "nonpayable",
      "type": "function"
    },
    {
      "stateMutability": "payable",
      "type": "receive"
    }
  ],
  "bytecode": "0x608060405234801561001057600080fd5b5061079c806100206000396000f3fe60806040526004361061004e5760003560e01c806354132d781461005a578063715018a6146100915780638da5cb5b146100a8578063c4d66de8146100d0578063f2fde38b146100f057600080fd5b3661005557005b600080fd5b34801561006657600080fd5b5061007a610075366004610529565b610110565b604051610088929190610644565b60405180910390f35b34801561009d57600080fd5b506100a6610211565b005b3480156100b457600080fd5b506033546040516001600160a01b039091168152602001610088565b3480156100dc57600080fd5b506100a66100eb366004610667565b610247565b3480156100fc57600080fd5b506100a661010b366004610667565b6102c5565b60006060336001600160a01b03166101306033546001600160a01b031690565b6001600160a01b03161461015f5760405162461bcd60e51b815260040161015690610689565b60405180910390fd5b846001600160a01b0316838560405161017891906106be565b60006040518083038185875af1925050503d80600081146101b5576040519150601f19603f3d011682016040523d82523d6000602084013e6101ba565b606091505b5060405191935091506001600160a01b038616907f78fc4a9489b1398448c4719f4411bc95e253a4e9004f3558c1839e3759955dbf906102019087908790879087906106da565b60405180910390a2935093915050565b6033546001600160a01b0316331461023b5760405162461bcd60e51b815260040161015690610689565b6102456000610360565b565b600054610100900460ff1680610260575060005460ff16155b61027c5760405162461bcd60e51b815260040161015690610718565b600054610100900460ff1615801561029e576000805461ffff19166101011790555b6102a66103b2565b6102af826102c5565b80156102c1576000805461ff00191690555b5050565b6033546001600160a01b031633146102ef5760405162461bcd60e51b815260040161015690610689565b6001600160a01b0381166103545760405162461bcd60e51b815260206004820152602660248201527f4f776e61626c653a206e6577206f776e657220697320746865207a65726f206160448201526564647265737360d01b6064820152608401610156565b61035d81610360565b50565b603380546001600160a01b038381166001600160a01b0319831681179093556040519116919082907f8be0079c531659141344cd1fd0a4f28419497f9722a3daafe3b4186f6b6457e090600090a35050565b600054610100900460ff16806103cb575060005460ff16155b6103e75760405162461bcd60e51b815260040161015690610718565b600054610100900460ff16158015610409576000805461ffff19166101011790555b61041161042d565b610419610497565b801561035d576000805461ff001916905550565b600054610100900460ff1680610446575060005460ff16155b6104625760405162461bcd60e51b815260040161015690610718565b600054610100900460ff16158015610419576000805461ffff1916610101179055801561035d576000805461ff001916905550565b600054610100900460ff16806104b0575060005460ff16155b6104cc5760405162461bcd60e51b815260040161015690610718565b600054610100900460ff161580156104ee576000805461ffff19166101011790555b61041933610360565b80356001600160a01b038116811461050e57600080fd5b919050565b634e487b7160e01b600052604160045260246000fd5b60008060006060848603121561053e57600080fd5b610547846104f7565b9250602084013567ffffffffffffffff8082111561056457600080fd5b818601915086601f83011261057857600080fd5b81358181111561058a5761058a610513565b604051601f8201601f19908116603f011681019083821181831017156105b2576105b2610513565b816040528281528960208487010111156105cb57600080fd5b826020860160208301376000602084830101528096505050505050604084013590509250925092565b60005b8381101561060f5781810151838201526020016105f7565b50506000910152565b600081518084526106308160208601602086016105f4565b601f01601f19169290920160200192915050565b821515815260406020820152600061065f6040830184610618565b949350505050565b60006020828403121561067957600080fd5b610682826104f7565b9392505050565b6020808252818101527f4f776e61626c653a2063616c6c6572206973206e6f7420746865206f776e6572604082015260600190565b600082516106d08184602087016105f4565b9190910192915050565b6080815260006106ed6080830187610618565b8560208401528415156040840152828103606084015261070d8185610618565b979650505050505050565b6020808252602e908201527f496e697469616c697a61626c653a20636f6e747261637420697320616c72656160408201526d191e481a5b9a5d1a585b1a5e995960921b60608201526080019056fea2646970667358221220f85158054329dfe74385fb3525bac1b772c82cdf308a6f0c7804c6b36f768ad064736f6c63430008110033",
  "linkReferences": {},
  "deployedLinkReferences": {}
}