{
  "_format": "hh-sol-artifact-1",
  "contractName": "DAOAvatar",
  "sourceName": "contracts/dao/DAOAvatar.sol",
  "abi": [
    {
      "anonymous": false,
      "inputs": [
        {
          "indexed": true,
          "internalType": "address",
          "name": "_to",
          "type": "address"
        },
        {
          "indexed": false,
          "internalType": "bytes",
          "name": "_data",
          "type": "bytes"
        },
        {
          "indexed": false,
          "internalType": "uint256",
          "name": "_value",
          "type": "uint256"
        },
        {
          "indexed": false,
          "internalType": "bool",
          "name": "_success",
          "type": "bool"
        }
      ],
      "name": "CallExecuted",
      "type": "event"
    },
    {
      "anonymous": false,
      "inputs": [
        {
          "indexed": true,
          "internalType": "address",
          "name": "previousOwner",
          "type": "address"
        },
        {
          "indexed": true,
          "internalType": "address",
          "name": "newOwner",
          "type": "address"
        }
      ],
      "name": "OwnershipTransferred",
      "type": "event"
    },
    {
      "inputs": [
        {
          "internalType": "address",
          "name": "_to",
          "type": "address"
        },
        {
          "internalType": "bytes",
          "name": "_data",
          "type": "bytes"
        },
        {
          "internalType": "uint256",
          "name": "_value",
          "type": "uint256"
        }
      ],
      "name": "executeCall",
      "outputs": [
        {
          "internalType": "bool",
          "name": "",
          "type": "bool"
        },
        {
          "internalType": "bytes",
          "name": "",
          "type": "bytes"
        }
      ],
      "stateMutability": "nonpayable",
      "type": "function"
    },
    {
      "inputs": [
        {
          "internalType": "address",
          "name": "_owner",
          "type": "address"
        }
      ],
      "name": "initialize",
      "outputs": [],
      "stateMutability": "nonpayable",
      "type": "function"
    },
    {
      "inputs": [],
      "name": "owner",
      "outputs": [
        {
          "internalType": "address",
          "name": "",
          "type": "address"
        }
      ],
      "stateMutability": "view",
      "type": "function"
    },
    {
      "inputs": [],
      "name": "renounceOwnership",
      "outputs": [],
      "stateMutability": "nonpayable",
      "type": "function"
    },
    {
      "inputs": [
        {
          "internalType": "address",
          "name": "newOwner",
          "type": "address"
        }
      ],
      "name": "transferOwnership",
      "outputs": [],
      "stateMutability": "nonpayable",
      "type": "function"
    },
    {
      "stateMutability": "payable",
      "type": "receive"
    }
  ],
  "bytecode": "0x608060405234801561001057600080fd5b5061078a806100206000396000f3fe60806040526004361061004e5760003560e01c806354132d781461005a578063715018a6146100915780638da5cb5b146100a8578063c4d66de8146100d0578063f2fde38b146100f057600080fd5b3661005557005b600080fd5b34801561006657600080fd5b5061007a61007536600461052b565b610110565b604051610088929190610646565b60405180910390f35b34801561009d57600080fd5b506100a6610213565b005b3480156100b457600080fd5b506033546040516001600160a01b039091168152602001610088565b3480156100dc57600080fd5b506100a66100eb366004610669565b610249565b3480156100fc57600080fd5b506100a661010b366004610669565b6102c7565b60006060336001600160a01b03166101306033546001600160a01b031690565b6001600160a01b03161461015f5760405162461bcd60e51b81526004016101569061068b565b60405180910390fd5b600080866001600160a01b0316858760405161017b91906106c0565b60006040518083038185875af1925050503d80600081146101b8576040519150601f19603f3d011682016040523d82523d6000602084013e6101bd565b606091505b5091509150866001600160a01b03167fd515f7abd575c412e4ce5a689650ad0163229a40a8f7a281b4063b65b64cc8908787856040516101ff939291906106dc565b60405180910390a290969095509350505050565b6033546001600160a01b0316331461023d5760405162461bcd60e51b81526004016101569061068b565b6102476000610362565b565b600054610100900460ff1680610262575060005460ff16155b61027e5760405162461bcd60e51b815260040161015690610706565b600054610100900460ff161580156102a0576000805461ffff19166101011790555b6102a86103b4565b6102b1826102c7565b80156102c3576000805461ff00191690555b5050565b6033546001600160a01b031633146102f15760405162461bcd60e51b81526004016101569061068b565b6001600160a01b0381166103565760405162461bcd60e51b815260206004820152602660248201527f4f776e61626c653a206e6577206f776e657220697320746865207a65726f206160448201526564647265737360d01b6064820152608401610156565b61035f81610362565b50565b603380546001600160a01b038381166001600160a01b0319831681179093556040519116919082907f8be0079c531659141344cd1fd0a4f28419497f9722a3daafe3b4186f6b6457e090600090a35050565b600054610100900460ff16806103cd575060005460ff16155b6103e95760405162461bcd60e51b815260040161015690610706565b600054610100900460ff1615801561040b576000805461ffff19166101011790555b61041361042f565b61041b610499565b801561035f576000805461ff001916905550565b600054610100900460ff1680610448575060005460ff16155b6104645760405162461bcd60e51b815260040161015690610706565b600054610100900460ff1615801561041b576000805461ffff1916610101179055801561035f576000805461ff001916905550565b600054610100900460ff16806104b2575060005460ff16155b6104ce5760405162461bcd60e51b815260040161015690610706565b600054610100900460ff161580156104f0576000805461ffff19166101011790555b61041b33610362565b80356001600160a01b038116811461051057600080fd5b919050565b634e487b7160e01b600052604160045260246000fd5b60008060006060848603121561054057600080fd5b610549846104f9565b9250602084013567ffffffffffffffff8082111561056657600080fd5b818601915086601f83011261057a57600080fd5b81358181111561058c5761058c610515565b604051601f8201601f19908116603f011681019083821181831017156105b4576105b4610515565b816040528281528960208487010111156105cd57600080fd5b826020860160208301376000602084830101528096505050505050604084013590509250925092565b60005b838110156106115781810151838201526020016105f9565b50506000910152565b600081518084526106328160208601602086016105f6565b601f01601f19169290920160200192915050565b8215158152604060208201526000610661604083018461061a565b949350505050565b60006020828403121561067b57600080fd5b610684826104f9565b9392505050565b6020808252818101527f4f776e61626c653a2063616c6c6572206973206e6f7420746865206f776e6572604082015260600190565b600082516106d28184602087016105f6565b9190910192915050565b6060815260006106ef606083018661061a565b602083019490945250901515604090910152919050565b6020808252602e908201527f496e697469616c697a61626c653a20636f6e747261637420697320616c72656160408201526d191e481a5b9a5d1a585b1a5e995960921b60608201526080019056fea2646970667358221220417e1299c5f2b0d89bb1e025d2e65a80fe40a1807e8afbefaec3ca061f72866864736f6c63430008110033",
  "linkReferences": {},
  "deployedLinkReferences": {}
}