{
  "_format": "hh-sol-artifact-1",
  "contractName": "DAOController",
  "sourceName": "contracts/dao/DAOController.sol",
  "abi": [
    {
      "inputs": [],
      "name": "DAOController__CannotDisableLastSchemeWithManageSchemesPermission",
      "type": "error"
    },
    {
      "inputs": [],
      "name": "DAOController__CannotUnregisterLastSchemeWithManageSchemesPermission",
      "type": "error"
    },
    {
      "inputs": [],
      "name": "DAOController__EndCannotBeBiggerThanListLength",
      "type": "error"
    },
    {
      "inputs": [],
      "name": "DAOController__IdUsedByOtherScheme",
      "type": "error"
    },
    {
      "inputs": [],
      "name": "DAOController__SenderCannotChangeReputation",
      "type": "error"
    },
    {
      "inputs": [],
      "name": "DAOController__SenderCannotManageSchemes",
      "type": "error"
    },
    {
      "inputs": [],
      "name": "DAOController__SenderCannotPerformAvatarCalls",
      "type": "error"
    },
    {
      "inputs": [],
      "name": "DAOController__SenderIsNotRegisteredOrProposalIsInactive",
      "type": "error"
    },
    {
      "inputs": [],
      "name": "DAOController__SenderIsNotTheProposer",
      "type": "error"
    },
    {
      "inputs": [],
      "name": "DAOController__SenderNotRegistered",
      "type": "error"
    },
    {
      "inputs": [],
      "name": "DAOController__StartCannotBeBiggerThanEnd",
      "type": "error"
    },
    {
      "inputs": [],
      "name": "DAOController__StartCannotBeBiggerThanListLength",
      "type": "error"
    },
    {
      "anonymous": false,
      "inputs": [
        {
          "indexed": true,
          "internalType": "address",
          "name": "_sender",
          "type": "address"
        },
        {
          "indexed": true,
          "internalType": "address",
          "name": "_scheme",
          "type": "address"
        }
      ],
      "name": "RegisterScheme",
      "type": "event"
    },
    {
      "anonymous": false,
      "inputs": [
        {
          "indexed": true,
          "internalType": "address",
          "name": "_sender",
          "type": "address"
        },
        {
          "indexed": true,
          "internalType": "address",
          "name": "_scheme",
          "type": "address"
        }
      ],
      "name": "UnregisterScheme",
      "type": "event"
    },
    {
      "inputs": [
        {
          "internalType": "address",
          "name": "_contract",
          "type": "address"
        },
        {
          "internalType": "bytes",
          "name": "_data",
          "type": "bytes"
        },
        {
          "internalType": "contract DAOAvatar",
          "name": "_avatar",
          "type": "address"
        },
        {
          "internalType": "uint256",
          "name": "_value",
          "type": "uint256"
        }
      ],
      "name": "avatarCall",
      "outputs": [
        {
          "internalType": "bool",
          "name": "",
          "type": "bool"
        },
        {
          "internalType": "bytes",
          "name": "",
          "type": "bytes"
        }
      ],
      "stateMutability": "nonpayable",
      "type": "function"
    },
    {
      "inputs": [
        {
          "internalType": "uint256",
          "name": "_amount",
          "type": "uint256"
        },
        {
          "internalType": "address",
          "name": "_account",
          "type": "address"
        }
      ],
      "name": "burnReputation",
      "outputs": [
        {
          "internalType": "bool",
          "name": "",
          "type": "bool"
        }
      ],
      "stateMutability": "nonpayable",
      "type": "function"
    },
    {
      "inputs": [
        {
          "internalType": "bytes32",
          "name": "_proposalId",
          "type": "bytes32"
        }
      ],
      "name": "endProposal",
      "outputs": [],
      "stateMutability": "nonpayable",
      "type": "function"
    },
    {
      "inputs": [
        {
          "internalType": "uint256",
          "name": "_start",
          "type": "uint256"
        },
        {
          "internalType": "uint256",
          "name": "_end",
          "type": "uint256"
        }
      ],
      "name": "getActiveProposals",
      "outputs": [
        {
          "components": [
            {
              "internalType": "bytes32",
              "name": "proposalId",
              "type": "bytes32"
            },
            {
              "internalType": "address",
              "name": "scheme",
              "type": "address"
            }
          ],
          "internalType": "struct DAOController.ProposalAndScheme[]",
          "name": "activeProposalsArray",
          "type": "tuple[]"
        }
      ],
      "stateMutability": "view",
      "type": "function"
    },
    {
      "inputs": [],
      "name": "getActiveProposalsCount",
      "outputs": [
        {
          "internalType": "uint256",
          "name": "",
          "type": "uint256"
        }
      ],
      "stateMutability": "view",
      "type": "function"
    },
    {
      "inputs": [],
      "name": "getDaoReputation",
      "outputs": [
        {
          "internalType": "contract DAOReputation",
          "name": "",
          "type": "address"
        }
      ],
      "stateMutability": "view",
      "type": "function"
    },
    {
      "inputs": [
        {
          "internalType": "uint256",
          "name": "_start",
          "type": "uint256"
        },
        {
          "internalType": "uint256",
          "name": "_end",
          "type": "uint256"
        }
      ],
      "name": "getInactiveProposals",
      "outputs": [
        {
          "components": [
            {
              "internalType": "bytes32",
              "name": "proposalId",
              "type": "bytes32"
            },
            {
              "internalType": "address",
              "name": "scheme",
              "type": "address"
            }
          ],
          "internalType": "struct DAOController.ProposalAndScheme[]",
          "name": "inactiveProposalsArray",
          "type": "tuple[]"
        }
      ],
      "stateMutability": "view",
      "type": "function"
    },
    {
      "inputs": [],
      "name": "getInactiveProposalsCount",
      "outputs": [
        {
          "internalType": "uint256",
          "name": "",
          "type": "uint256"
        }
      ],
      "stateMutability": "view",
      "type": "function"
    },
    {
      "inputs": [
        {
          "internalType": "address",
          "name": "_scheme",
          "type": "address"
        }
      ],
      "name": "getSchemeCanChangeReputation",
      "outputs": [
        {
          "internalType": "bool",
          "name": "",
          "type": "bool"
        }
      ],
      "stateMutability": "view",
      "type": "function"
    },
    {
      "inputs": [
        {
          "internalType": "address",
          "name": "_scheme",
          "type": "address"
        }
      ],
      "name": "getSchemeCanMakeAvatarCalls",
      "outputs": [
        {
          "internalType": "bool",
          "name": "",
          "type": "bool"
        }
      ],
      "stateMutability": "view",
      "type": "function"
    },
    {
      "inputs": [
        {
          "internalType": "address",
          "name": "_scheme",
          "type": "address"
        }
      ],
      "name": "getSchemeCanManageSchemes",
      "outputs": [
        {
          "internalType": "bool",
          "name": "",
          "type": "bool"
        }
      ],
      "stateMutability": "view",
      "type": "function"
    },
    {
      "inputs": [
        {
          "internalType": "address",
          "name": "_scheme",
          "type": "address"
        }
      ],
      "name": "getSchemeParameters",
      "outputs": [
        {
          "internalType": "bytes32",
          "name": "",
          "type": "bytes32"
        }
      ],
      "stateMutability": "view",
      "type": "function"
    },
    {
      "inputs": [],
      "name": "getSchemesCountWithManageSchemesPermissions",
      "outputs": [
        {
          "internalType": "uint256",
          "name": "",
          "type": "uint256"
        }
      ],
      "stateMutability": "view",
      "type": "function"
    },
    {
      "inputs": [
        {
          "internalType": "address",
          "name": "_scheme",
          "type": "address"
        },
        {
          "internalType": "address",
          "name": "_reputationToken",
          "type": "address"
        },
        {
          "internalType": "bytes32",
          "name": "_paramsHash",
          "type": "bytes32"
        }
      ],
      "name": "initialize",
      "outputs": [],
      "stateMutability": "nonpayable",
      "type": "function"
    },
    {
      "inputs": [
        {
          "internalType": "address",
          "name": "_scheme",
          "type": "address"
        }
      ],
      "name": "isSchemeRegistered",
      "outputs": [
        {
          "internalType": "bool",
          "name": "",
          "type": "bool"
        }
      ],
      "stateMutability": "view",
      "type": "function"
    },
    {
      "inputs": [
        {
          "internalType": "uint256",
          "name": "_amount",
          "type": "uint256"
        },
        {
          "internalType": "address",
          "name": "_account",
          "type": "address"
        }
      ],
      "name": "mintReputation",
      "outputs": [
        {
          "internalType": "bool",
          "name": "",
          "type": "bool"
        }
      ],
      "stateMutability": "nonpayable",
      "type": "function"
    },
    {
      "inputs": [
        {
          "internalType": "address",
          "name": "_scheme",
          "type": "address"
        },
        {
          "internalType": "bytes32",
          "name": "_paramsHash",
          "type": "bytes32"
        },
        {
          "internalType": "bool",
          "name": "_canManageSchemes",
          "type": "bool"
        },
        {
          "internalType": "bool",
          "name": "_canMakeAvatarCalls",
          "type": "bool"
        },
        {
          "internalType": "bool",
          "name": "_canChangeReputation",
          "type": "bool"
        }
      ],
      "name": "registerScheme",
      "outputs": [
        {
          "internalType": "bool",
          "name": "",
          "type": "bool"
        }
      ],
      "stateMutability": "nonpayable",
      "type": "function"
    },
    {
      "inputs": [],
      "name": "reputationToken",
      "outputs": [
        {
          "internalType": "contract DAOReputation",
          "name": "",
          "type": "address"
        }
      ],
      "stateMutability": "view",
      "type": "function"
    },
    {
      "inputs": [
        {
          "internalType": "bytes32",
          "name": "",
          "type": "bytes32"
        }
      ],
      "name": "schemeOfProposal",
      "outputs": [
        {
          "internalType": "address",
          "name": "",
          "type": "address"
        }
      ],
      "stateMutability": "view",
      "type": "function"
    },
    {
      "inputs": [
        {
          "internalType": "address",
          "name": "",
          "type": "address"
        }
      ],
      "name": "schemes",
      "outputs": [
        {
          "internalType": "bytes32",
          "name": "paramsHash",
          "type": "bytes32"
        },
        {
          "internalType": "bool",
          "name": "isRegistered",
          "type": "bool"
        },
        {
          "internalType": "bool",
          "name": "canManageSchemes",
          "type": "bool"
        },
        {
          "internalType": "bool",
          "name": "canMakeAvatarCalls",
          "type": "bool"
        },
        {
          "internalType": "bool",
          "name": "canChangeReputation",
          "type": "bool"
        }
      ],
      "stateMutability": "view",
      "type": "function"
    },
    {
      "inputs": [],
      "name": "schemesWithManageSchemesPermission",
      "outputs": [
        {
          "internalType": "uint256",
          "name": "",
          "type": "uint256"
        }
      ],
      "stateMutability": "view",
      "type": "function"
    },
    {
      "inputs": [
        {
          "internalType": "bytes32",
          "name": "_proposalId",
          "type": "bytes32"
        }
      ],
      "name": "startProposal",
      "outputs": [],
      "stateMutability": "nonpayable",
      "type": "function"
    },
    {
      "inputs": [
        {
          "internalType": "address",
          "name": "_newOwner",
          "type": "address"
        }
      ],
      "name": "transferReputationOwnership",
      "outputs": [],
      "stateMutability": "nonpayable",
      "type": "function"
    },
    {
      "inputs": [
        {
          "internalType": "address",
          "name": "_scheme",
          "type": "address"
        }
      ],
      "name": "unregisterScheme",
      "outputs": [
        {
          "internalType": "bool",
          "name": "",
          "type": "bool"
        }
      ],
      "stateMutability": "nonpayable",
      "type": "function"
    }
  ],
  "bytecode": "0x608060405234801561001057600080fd5b506116e2806100206000396000f3fe608060405234801561001057600080fd5b50600436106101585760003560e01c80639e527e3f116100c3578063d90e0dad1161007c578063d90e0dad14610352578063db6149ce14610387578063ddbfcc6b146103fd578063dea9e24d14610410578063f135ed8914610423578063f3cda8061461043657600080fd5b80639e527e3f146102df578063ae3ee61d146102f2578063b00f3a8d14610305578063b3b470611461030d578063b50ae7fa14610320578063bff18eba1461034957600080fd5b806354c7adb91161011557806354c7adb91461026a5780636133f9851461027b578063653915e51461029057806371be960a146102a357806381d064c4146102ab57806398d32429146102be57600080fd5b80630c24af801461015d57806319f3dad1146101865780631e16d02d1461019c578063275bbe9b146101e257806329b392851461020d57806346e361b714610241575b600080fd5b61017061016b36600461123c565b610449565b60405161017d919061125e565b60405180910390f35b61018e610460565b60405190815260200161017d565b6101d26101aa3660046112ce565b6001600160a01b03166000908152600760205260409020600101546301000000900460ff1690565b604051901515815260200161017d565b6006546101f5906001600160a01b031681565b6040516001600160a01b03909116815260200161017d565b6101d261021b3660046112ce565b6001600160a01b0316600090815260076020526040902060010154610100900460ff1690565b61018e61024f3660046112ce565b6001600160a01b031660009081526007602052604090205490565b6006546001600160a01b03166101f5565b61028e6102893660046112eb565b610471565b005b6101d261029e3660046112ce565b6105e6565b61018e610775565b6101d26102b93660046112ce565b610781565b6102d16102cc36600461132c565b6107a5565b60405161017d9291906113f0565b61028e6102ed36600461142c565b61089b565b6101d2610300366004611453565b610930565b60085461018e565b61028e61031b36600461142c565b610b5e565b6101f561032e36600461142c565b6005602052600090815260409020546001600160a01b031681565b61018e60085481565b6101d26103603660046112ce565b6001600160a01b031660009081526007602052604090206001015462010000900460ff1690565b6103cd6103953660046112ce565b6007602052600090815260409020805460019091015460ff808216916101008104821691620100008204811691630100000090041685565b6040805195865293151560208601529115159284019290925290151560608301521515608082015260a00161017d565b6101d261040b3660046114bb565b610c2c565b6101d261041e3660046114bb565b610cde565b61017061043136600461123c565b610d51565b61028e6104443660046112ce565b610d5f565b606061045783836001610e6c565b90505b92915050565b600061046c600161108a565b905090565b600054610100900460ff168061048a575060005460ff16155b6104f15760405162461bcd60e51b815260206004820152602e60248201527f496e697469616c697a61626c653a20636f6e747261637420697320616c72656160448201526d191e481a5b9a5d1a585b1a5e995960921b606482015260840160405180910390fd5b600054610100900460ff16158015610513576000805461ffff19166101011790555b6040805160a0810182528381526001602080830182815283850183815260608501848152608086018581526001600160a01b03808d1660009081526007909652979094209551865591519484018054915192519351151563010000000263ff0000001994151562010000029490941663ffff0000199315156101000261ff00199715159790971661ffff199093169290921795909517919091161717909155600855600680549185166001600160a01b031990921691909117905580156105e0576000805461ff00191690555b50505050565b3360009081526007602052604081206001015460ff1661061957604051638909f6c360e01b815260040160405180910390fd5b33600090815260076020526040902060010154610100900460ff166106515760405163b12022ed60e01b815260040160405180910390fd5b6001600160a01b0382166000818152600760208181526040808420815160a0810183528154815260019091015460ff808216801515848701526101008304821615159484019490945262010000820481161515606084015263010000009091041615156080820152949093525215156000036106d05750600092915050565b806040015115610710576001600854116106fd5760405163037cc7cd60e61b815260040160405180910390fd5b600160085461070c9190611501565b6008555b6040516001600160a01b0384169033907f10bb2cf04cb8b902a8e736d494f1a51003be6d4b16ef6fb95ce62c38445023bf90600090a350506001600160a01b031660009081526007602052604081209081556001908101805463ffffffff1916905590565b600061046c600361108a565b6001600160a01b03811660009081526007602052604081206001015460ff1661045a565b3360009081526007602052604081206001015460609060ff166107db57604051638909f6c360e01b815260040160405180910390fd5b3360009081526007602052604090206001015462010000900460ff1661081457604051630506357960e51b815260040160405180910390fd5b604051630a8265af60e31b81526001600160a01b038516906354132d7890610846908a908a908a908990600401611514565b6000604051808303816000875af1158015610865573d6000803e3d6000fd5b505050506040513d6000823e601f3d908101601f1916820160405261088d9190810190611574565b915091509550959350505050565b3360009081526007602052604090206001015460ff166108ce57604051638909f6c360e01b815260040160405180910390fd5b6000818152600560205260409020546001600160a01b03161561090457604051630fbef66f60e11b815260040160405180910390fd5b61090f600182611094565b50600090815260056020526040902080546001600160a01b03191633179055565b3360009081526007602052604081206001015460ff1661096357604051638909f6c360e01b815260040160405180910390fd5b33600090815260076020526040902060010154610100900460ff1661099b5760405163b12022ed60e01b815260040160405180910390fd5b6001600160a01b038616600090815260076020908152604091829020825160a0810184528154815260019091015460ff8082161580159484019490945261010082048116151594830194909452620100008104841615156060830152630100000090049092161515608083015280610a1557508060400151155b8015610a1e5750845b15610a3957600854610a31906001611637565b600855610a83565b80604001518015610a48575084155b15610a8357600160085411610a7057604051639075a69b60e01b815260040160405180910390fd5b6001600854610a7f9190611501565b6008555b6040805160a0810182528781526001602080830182815289151584860190815289151560608601908152891515608087019081526001600160a01b038f1660008181526007909652888620975188559351969095018054925191519551151563010000000263ff0000001996151562010000029690961663ffff0000199215156101000261ff00199815159890981661ffff199094169390931796909617161792909217909255915133917f546816e99403df442acb68ef69562682a50762c20a3fb6b472f7af9923736cfc91a35060019695505050505050565b6000818152600560205260409020546001600160a01b03163314610b95576040516303f489af60e01b815260040160405180910390fd5b3360009081526007602052604090206001015460ff16158015610bf357506000818152600560209081526040808320546001600160a01b03168352600790915290206001015460ff16158015610bf35750610bf16001826110a0565b155b15610c1157604051630677854960e21b815260040160405180910390fd5b610c1c6001826110b8565b50610c28600382611094565b5050565b336000908152600760205260408120600101546301000000900460ff16610c6657604051630f6d02c560e31b815260040160405180910390fd5b600654604051632770a7eb60e21b81526001600160a01b0384811660048301526024820186905290911690639dc29fac906044015b6020604051808303816000875af1158015610cba573d6000803e3d6000fd5b505050506040513d601f19601f82011682018060405250810190610457919061164a565b336000908152600760205260408120600101546301000000900460ff16610d1857604051630f6d02c560e31b815260040160405180910390fd5b6006546040516340c10f1960e01b81526001600160a01b03848116600483015260248201869052909116906340c10f1990604401610c9b565b606061045783836003610e6c565b33600090815260076020526040902060010154610100900460ff16610d975760405163b12022ed60e01b815260040160405180910390fd5b3360009081526007602052604090206001015462010000900460ff16610dd057604051630506357960e51b815260040160405180910390fd5b336000908152600760205260409020600101546301000000900460ff16610e0a57604051630f6d02c560e31b815260040160405180910390fd5b60065460405163f2fde38b60e01b81526001600160a01b0383811660048301529091169063f2fde38b90602401600060405180830381600087803b158015610e5157600080fd5b505af1158015610e65573d6000803e3d6000fd5b5050505050565b60606000610e798361108a565b905080600003610ec9576040805160008082526020820190925290610ec0565b6040805180820190915260008082526020820152815260200190600190039081610e995790505b50915050611083565b80851115610eea5760405163167c40fb60e21b815260040160405180910390fd5b80841115610f0b576040516324a3657f60e21b815260040160405180910390fd5b83851115610f2c576040516316d87a1160e21b815260040160405180910390fd5b6000610f39600183611501565b905060008515610f495785610f4b565b815b9050600087610f5b836001611637565b610f659190611501565b90508067ffffffffffffffff811115610f8057610f8061155e565b604051908082528060200260200182016040528015610fc557816020015b6040805180820190915260008082526020820152815260200190600190039081610f9e5790505b50945060005b8181101561107d57610fe7610fe08a83611637565b88906110c4565b868281518110610ff957610ff9611667565b6020908102919091010151526005600061101d6110168c85611637565b8a906110c4565b815260200190815260200160002060009054906101000a90046001600160a01b031686828151811061105157611051611667565b6020908102919091018101516001600160a01b03909216910152806110758161167d565b915050610fcb565b50505050505b9392505050565b600061045a825490565b600061045783836110d0565b60008181526001830160205260408120541515610457565b6000610457838361111f565b60006104578383611212565b60008181526001830160205260408120546111175750815460018181018455600084815260208082209093018490558454848252828601909352604090209190915561045a565b50600061045a565b60008181526001830160205260408120548015611208576000611143600183611501565b855490915060009061115790600190611501565b90508181146111bc57600086600001828154811061117757611177611667565b906000526020600020015490508087600001848154811061119a5761119a611667565b6000918252602080832090910192909255918252600188019052604090208390555b85548690806111cd576111cd611696565b60019003818190600052602060002001600090559055856001016000868152602001908152602001600020600090556001935050505061045a565b600091505061045a565b600082600001828154811061122957611229611667565b9060005260206000200154905092915050565b6000806040838503121561124f57600080fd5b50508035926020909101359150565b602080825282518282018190526000919060409081850190868401855b828110156112a9578151805185528601516001600160a01b031686850152928401929085019060010161127b565b5091979650505050505050565b6001600160a01b03811681146112cb57600080fd5b50565b6000602082840312156112e057600080fd5b8135611083816112b6565b60008060006060848603121561130057600080fd5b833561130b816112b6565b9250602084013561131b816112b6565b929592945050506040919091013590565b60008060008060006080868803121561134457600080fd5b853561134f816112b6565b9450602086013567ffffffffffffffff8082111561136c57600080fd5b818801915088601f83011261138057600080fd5b81358181111561138f57600080fd5b8960208285010111156113a157600080fd5b60208301965080955050505060408601356113bb816112b6565b949793965091946060013592915050565b60005b838110156113e75781810151838201526020016113cf565b50506000910152565b821515815260406020820152600082518060408401526114178160608501602087016113cc565b601f01601f1916919091016060019392505050565b60006020828403121561143e57600080fd5b5035919050565b80151581146112cb57600080fd5b600080600080600060a0868803121561146b57600080fd5b8535611476816112b6565b945060208601359350604086013561148d81611445565b9250606086013561149d81611445565b915060808601356114ad81611445565b809150509295509295909350565b600080604083850312156114ce57600080fd5b8235915060208301356114e0816112b6565b809150509250929050565b634e487b7160e01b600052601160045260246000fd5b8181038181111561045a5761045a6114eb565b6001600160a01b038516815260606020820181905281018390528284608083013760006080848301015260006080601f19601f860116830101905082604083015295945050505050565b634e487b7160e01b600052604160045260246000fd5b6000806040838503121561158757600080fd5b825161159281611445565b602084015190925067ffffffffffffffff808211156115b057600080fd5b818501915085601f8301126115c457600080fd5b8151818111156115d6576115d661155e565b604051601f8201601f19908116603f011681019083821181831017156115fe576115fe61155e565b8160405282815288602084870101111561161757600080fd5b6116288360208301602088016113cc565b80955050505050509250929050565b8082018082111561045a5761045a6114eb565b60006020828403121561165c57600080fd5b815161108381611445565b634e487b7160e01b600052603260045260246000fd5b60006001820161168f5761168f6114eb565b5060010190565b634e487b7160e01b600052603160045260246000fdfea264697066735822122060a856f66e800863ad7f2c3b06416778264a397ba96d141ccbab7615f9fbd8e864736f6c63430008110033",
  "linkReferences": {},
  "deployedLinkReferences": {}
}