{
  "_format": "hh-sol-artifact-1",
  "contractName": "DAOController",
  "sourceName": "contracts/dao/DAOController.sol",
  "abi": [
    {
      "inputs": [],
      "name": "DAOController__CannotDisableLastSchemeWithManageSchemesPermission",
      "type": "error"
    },
    {
      "inputs": [],
      "name": "DAOController__CannotUnregisterLastSchemeWithManageSchemesPermission",
      "type": "error"
    },
    {
      "inputs": [],
      "name": "DAOController__SenderCannotChangeReputation",
      "type": "error"
    },
    {
      "inputs": [],
      "name": "DAOController__SenderCannotManageSchemes",
      "type": "error"
    },
    {
      "inputs": [],
      "name": "DAOController__SenderCannotPerformAvatarCalls",
      "type": "error"
    },
    {
      "inputs": [],
      "name": "DAOController__SenderIsNotRegisteredOrProposalIsInactive",
      "type": "error"
    },
    {
      "inputs": [],
      "name": "DAOController__SenderIsNotTheProposer",
      "type": "error"
    },
    {
      "inputs": [],
      "name": "DAOController__SenderNotRegistered",
      "type": "error"
    },
    {
      "anonymous": false,
      "inputs": [
        {
          "indexed": true,
          "internalType": "address",
          "name": "sender",
          "type": "address"
        },
        {
          "indexed": true,
          "internalType": "address",
          "name": "scheme",
          "type": "address"
        }
      ],
      "name": "RegisterScheme",
      "type": "event"
    },
    {
      "anonymous": false,
      "inputs": [
        {
          "indexed": true,
          "internalType": "address",
          "name": "sender",
          "type": "address"
        },
        {
          "indexed": true,
          "internalType": "address",
          "name": "scheme",
          "type": "address"
        }
      ],
      "name": "UnregisterScheme",
      "type": "event"
    },
    {
      "inputs": [
        {
          "internalType": "address",
          "name": "to",
          "type": "address"
        },
        {
          "internalType": "bytes",
          "name": "data",
          "type": "bytes"
        },
        {
          "internalType": "contract DAOAvatar",
          "name": "avatar",
          "type": "address"
        },
        {
          "internalType": "uint256",
          "name": "value",
          "type": "uint256"
        }
      ],
      "name": "avatarCall",
      "outputs": [
        {
          "internalType": "bool",
          "name": "callSuccess",
          "type": "bool"
        },
        {
          "internalType": "bytes",
          "name": "callData",
          "type": "bytes"
        }
      ],
      "stateMutability": "nonpayable",
      "type": "function"
    },
    {
      "inputs": [
        {
          "internalType": "uint256",
          "name": "amount",
          "type": "uint256"
        },
        {
          "internalType": "address",
          "name": "account",
          "type": "address"
        }
      ],
      "name": "burnReputation",
      "outputs": [
        {
          "internalType": "bool",
          "name": "success",
          "type": "bool"
        }
      ],
      "stateMutability": "nonpayable",
      "type": "function"
    },
    {
      "inputs": [],
      "name": "getDaoReputation",
      "outputs": [
        {
          "internalType": "contract DAOReputation",
          "name": "tokenAddress",
          "type": "address"
        }
      ],
      "stateMutability": "view",
      "type": "function"
    },
    {
      "inputs": [
        {
          "internalType": "address",
          "name": "scheme",
          "type": "address"
        }
      ],
      "name": "getSchemeCanChangeReputation",
      "outputs": [
        {
          "internalType": "bool",
          "name": "canChangeReputation",
          "type": "bool"
        }
      ],
      "stateMutability": "view",
      "type": "function"
    },
    {
      "inputs": [
        {
          "internalType": "address",
          "name": "scheme",
          "type": "address"
        }
      ],
      "name": "getSchemeCanMakeAvatarCalls",
      "outputs": [
        {
          "internalType": "bool",
          "name": "canMakeAvatarCalls",
          "type": "bool"
        }
      ],
      "stateMutability": "view",
      "type": "function"
    },
    {
      "inputs": [
        {
          "internalType": "address",
          "name": "scheme",
          "type": "address"
        }
      ],
      "name": "getSchemeCanManageSchemes",
      "outputs": [
        {
          "internalType": "bool",
          "name": "canManageSchemes",
          "type": "bool"
        }
      ],
      "stateMutability": "view",
      "type": "function"
    },
    {
      "inputs": [
        {
          "internalType": "address",
          "name": "scheme",
          "type": "address"
        }
      ],
      "name": "getSchemeParameters",
      "outputs": [
        {
          "internalType": "bytes32",
          "name": "paramsHash",
          "type": "bytes32"
        }
      ],
      "stateMutability": "view",
      "type": "function"
    },
    {
      "inputs": [],
      "name": "getSchemesWithManageSchemesPermissionsCount",
      "outputs": [
        {
          "internalType": "uint256",
          "name": "schemesWithManageSchemesPermissionCount",
          "type": "uint256"
        }
      ],
      "stateMutability": "view",
      "type": "function"
    },
    {
      "inputs": [
        {
          "internalType": "address",
          "name": "scheme",
          "type": "address"
        },
        {
          "internalType": "address",
          "name": "reputationTokenAddress",
          "type": "address"
        },
        {
          "internalType": "bytes32",
          "name": "paramsHash",
          "type": "bytes32"
        }
      ],
      "name": "initialize",
      "outputs": [],
      "stateMutability": "nonpayable",
      "type": "function"
    },
    {
      "inputs": [
        {
          "internalType": "address",
          "name": "scheme",
          "type": "address"
        }
      ],
      "name": "isSchemeRegistered",
      "outputs": [
        {
          "internalType": "bool",
          "name": "isRegistered",
          "type": "bool"
        }
      ],
      "stateMutability": "view",
      "type": "function"
    },
    {
      "inputs": [
        {
          "internalType": "uint256",
          "name": "amount",
          "type": "uint256"
        },
        {
          "internalType": "address",
          "name": "account",
          "type": "address"
        }
      ],
      "name": "mintReputation",
      "outputs": [
        {
          "internalType": "bool",
          "name": "success",
          "type": "bool"
        }
      ],
      "stateMutability": "nonpayable",
      "type": "function"
    },
    {
      "inputs": [
        {
          "internalType": "address",
          "name": "schemeAddress",
          "type": "address"
        },
        {
          "internalType": "bytes32",
          "name": "paramsHash",
          "type": "bytes32"
        },
        {
          "internalType": "bool",
          "name": "canManageSchemes",
          "type": "bool"
        },
        {
          "internalType": "bool",
          "name": "canMakeAvatarCalls",
          "type": "bool"
        },
        {
          "internalType": "bool",
          "name": "canChangeReputation",
          "type": "bool"
        }
      ],
      "name": "registerScheme",
      "outputs": [
        {
          "internalType": "bool",
          "name": "success",
          "type": "bool"
        }
      ],
      "stateMutability": "nonpayable",
      "type": "function"
    },
    {
      "inputs": [],
      "name": "reputationToken",
      "outputs": [
        {
          "internalType": "contract DAOReputation",
          "name": "",
          "type": "address"
        }
      ],
      "stateMutability": "view",
      "type": "function"
    },
    {
      "inputs": [
        {
          "internalType": "bytes32",
          "name": "",
          "type": "bytes32"
        }
      ],
      "name": "schemeOfProposal",
      "outputs": [
        {
          "internalType": "address",
          "name": "",
          "type": "address"
        }
      ],
      "stateMutability": "view",
      "type": "function"
    },
    {
      "inputs": [
        {
          "internalType": "address",
          "name": "",
          "type": "address"
        }
      ],
      "name": "schemes",
      "outputs": [
        {
          "internalType": "bytes32",
          "name": "paramsHash",
          "type": "bytes32"
        },
        {
          "internalType": "bool",
          "name": "isRegistered",
          "type": "bool"
        },
        {
          "internalType": "bool",
          "name": "canManageSchemes",
          "type": "bool"
        },
        {
          "internalType": "bool",
          "name": "canMakeAvatarCalls",
          "type": "bool"
        },
        {
          "internalType": "bool",
          "name": "canChangeReputation",
          "type": "bool"
        }
      ],
      "stateMutability": "view",
      "type": "function"
    },
    {
      "inputs": [],
      "name": "schemesWithManageSchemesPermission",
      "outputs": [
        {
          "internalType": "uint256",
          "name": "",
          "type": "uint256"
        }
      ],
      "stateMutability": "view",
      "type": "function"
    },
    {
      "inputs": [
        {
          "internalType": "address",
          "name": "newOwner",
          "type": "address"
        }
      ],
      "name": "transferReputationOwnership",
      "outputs": [],
      "stateMutability": "nonpayable",
      "type": "function"
    },
    {
      "inputs": [
        {
          "internalType": "address",
          "name": "schemeAddress",
          "type": "address"
        }
      ],
      "name": "unregisterScheme",
      "outputs": [
        {
          "internalType": "bool",
          "name": "success",
          "type": "bool"
        }
      ],
      "stateMutability": "nonpayable",
      "type": "function"
    }
  ],
  "bytecode": "0x608060405234801561001057600080fd5b50610ffc806100206000396000f3fe608060405234801561001057600080fd5b50600436106101165760003560e01c8063996e0764116100a2578063d90e0dad11610071578063d90e0dad146102b6578063db6149ce146102eb578063ddbfcc6b14610361578063dea9e24d14610374578063f3cda8061461038757600080fd5b8063996e076414610269578063ae3ee61d14610271578063b50ae7fa14610284578063bff18eba146102ad57600080fd5b806354c7adb9116100e957806354c7adb9146101fc5780636133f9851461020d578063653915e51461022257806381d064c41461023557806398d324291461024857600080fd5b80631e16d02d1461011b578063275bbe9b1461016657806329b392851461019157806346e361b7146101c5575b600080fd5b610151610129366004610c2d565b6001600160a01b03166000908152600260205260409020600101546301000000900460ff1690565b60405190151581526020015b60405180910390f35b600354610179906001600160a01b031681565b6040516001600160a01b03909116815260200161015d565b61015161019f366004610c2d565b6001600160a01b0316600090815260026020526040902060010154610100900460ff1690565b6101ee6101d3366004610c2d565b6001600160a01b031660009081526002602052604090205490565b60405190815260200161015d565b6003546001600160a01b0316610179565b61022061021b366004610c4a565b61039a565b005b610151610230366004610c2d565b61050f565b610151610243366004610c2d565b610692565b61025b610256366004610c8b565b6106b8565b60405161015d929190610d4f565b6004546101ee565b61015161027f366004610d99565b6107ae565b610179610292366004610e01565b6001602052600090815260409020546001600160a01b031681565b6101ee60045481565b6101516102c4366004610c2d565b6001600160a01b031660009081526002602052604090206001015462010000900460ff1690565b6103316102f9366004610c2d565b6002602052600090815260409020805460019091015460ff808216916101008104821691620100008204811691630100000090041685565b6040805195865293151560208601529115159284019290925290151560608301521515608082015260a00161015d565b61015161036f366004610e1a565b6109dc565b610151610382366004610e1a565b610a95565b610220610395366004610c2d565b610b08565b600054610100900460ff16806103b3575060005460ff16155b61041a5760405162461bcd60e51b815260206004820152602e60248201527f496e697469616c697a61626c653a20636f6e747261637420697320616c72656160448201526d191e481a5b9a5d1a585b1a5e995960921b606482015260840160405180910390fd5b600054610100900460ff1615801561043c576000805461ffff19166101011790555b6040805160a0810182528381526001602080830182815283850183815260608501848152608086018581526001600160a01b03808d1660009081526002909652979094209551865591519484018054915192519351151563010000000263ff0000001994151562010000029490941663ffff0000199315156101000261ff00199715159790971661ffff199093169290921795909517919091161717909155600455600380549185166001600160a01b03199092169190911790558015610509576000805461ff00191690555b50505050565b3360009081526002602052604081206001015460ff1661054257604051638909f6c360e01b815260040160405180910390fd5b33600090815260026020526040902060010154610100900460ff1661057a5760405163b12022ed60e01b815260040160405180910390fd5b6001600160a01b0382166000818152600260208181526040808420815160a0810183528154815260019091015460ff808216801515848701526101008304821615159484019490945262010000820481161515606084015263010000009091041615156080820152949093525215156000036105f95750600092915050565b806040015115610639576001600454116106265760405163037cc7cd60e61b815260040160405180910390fd5b60016004546106359190610e60565b6004555b6001600160a01b038316600081815260026020526040808220828155600101805463ffffffff191690555133917f10bb2cf04cb8b902a8e736d494f1a51003be6d4b16ef6fb95ce62c38445023bf91a350600192915050565b6001600160a01b03811660009081526002602052604081206001015460ff165b92915050565b3360009081526002602052604081206001015460609060ff166106ee57604051638909f6c360e01b815260040160405180910390fd5b3360009081526002602052604090206001015462010000900460ff1661072757604051630506357960e51b815260040160405180910390fd5b604051630a8265af60e31b81526001600160a01b038516906354132d7890610759908a908a908a908990600401610e73565b6000604051808303816000875af1158015610778573d6000803e3d6000fd5b505050506040513d6000823e601f3d908101601f191682016040526107a09190810190610ed3565b915091509550959350505050565b3360009081526002602052604081206001015460ff166107e157604051638909f6c360e01b815260040160405180910390fd5b33600090815260026020526040902060010154610100900460ff166108195760405163b12022ed60e01b815260040160405180910390fd5b6001600160a01b038616600090815260026020908152604091829020825160a0810184528154815260019091015460ff808216158015948401949094526101008204811615159483019490945262010000810484161515606083015263010000009004909216151560808301528061089357508060400151155b801561089c5750845b156108b7576004546108af906001610f96565b600455610901565b806040015180156108c6575084155b15610901576001600454116108ee57604051639075a69b60e01b815260040160405180910390fd5b60016004546108fd9190610e60565b6004555b6040805160a0810182528781526001602080830182815289151584860190815289151560608601908152891515608087019081526001600160a01b038f1660008181526002909652888620975188559351969095018054925191519551151563010000000263ff0000001996151562010000029690961663ffff0000199215156101000261ff00199815159890981661ffff199094169390931796909617161792909217909255915133917f546816e99403df442acb68ef69562682a50762c20a3fb6b472f7af9923736cfc91a35060019695505050505050565b336000908152600260205260408120600101546301000000900460ff16610a1657604051630f6d02c560e31b815260040160405180910390fd5b600354604051632770a7eb60e21b81526001600160a01b0384811660048301526024820186905290911690639dc29fac906044015b6020604051808303816000875af1158015610a6a573d6000803e3d6000fd5b505050506040513d601f19601f82011682018060405250810190610a8e9190610fa9565b9392505050565b336000908152600260205260408120600101546301000000900460ff16610acf57604051630f6d02c560e31b815260040160405180910390fd5b6003546040516340c10f1960e01b81526001600160a01b03848116600483015260248201869052909116906340c10f1990604401610a4b565b33600090815260026020526040902060010154610100900460ff16610b405760405163b12022ed60e01b815260040160405180910390fd5b3360009081526002602052604090206001015462010000900460ff16610b7957604051630506357960e51b815260040160405180910390fd5b336000908152600260205260409020600101546301000000900460ff16610bb357604051630f6d02c560e31b815260040160405180910390fd5b60035460405163f2fde38b60e01b81526001600160a01b0383811660048301529091169063f2fde38b90602401600060405180830381600087803b158015610bfa57600080fd5b505af1158015610c0e573d6000803e3d6000fd5b5050505050565b6001600160a01b0381168114610c2a57600080fd5b50565b600060208284031215610c3f57600080fd5b8135610a8e81610c15565b600080600060608486031215610c5f57600080fd5b8335610c6a81610c15565b92506020840135610c7a81610c15565b929592945050506040919091013590565b600080600080600060808688031215610ca357600080fd5b8535610cae81610c15565b9450602086013567ffffffffffffffff80821115610ccb57600080fd5b818801915088601f830112610cdf57600080fd5b813581811115610cee57600080fd5b896020828501011115610d0057600080fd5b6020830196508095505050506040860135610d1a81610c15565b949793965091946060013592915050565b60005b83811015610d46578181015183820152602001610d2e565b50506000910152565b82151581526040602082015260008251806040840152610d76816060850160208701610d2b565b601f01601f1916919091016060019392505050565b8015158114610c2a57600080fd5b600080600080600060a08688031215610db157600080fd5b8535610dbc81610c15565b9450602086013593506040860135610dd381610d8b565b92506060860135610de381610d8b565b91506080860135610df381610d8b565b809150509295509295909350565b600060208284031215610e1357600080fd5b5035919050565b60008060408385031215610e2d57600080fd5b823591506020830135610e3f81610c15565b809150509250929050565b634e487b7160e01b600052601160045260246000fd5b818103818111156106b2576106b2610e4a565b6001600160a01b038516815260606020820181905281018390528284608083013760006080848301015260006080601f19601f860116830101905082604083015295945050505050565b634e487b7160e01b600052604160045260246000fd5b60008060408385031215610ee657600080fd5b8251610ef181610d8b565b602084015190925067ffffffffffffffff80821115610f0f57600080fd5b818501915085601f830112610f2357600080fd5b815181811115610f3557610f35610ebd565b604051601f8201601f19908116603f01168101908382118183101715610f5d57610f5d610ebd565b81604052828152886020848701011115610f7657600080fd5b610f87836020830160208801610d2b565b80955050505050509250929050565b808201808211156106b2576106b2610e4a565b600060208284031215610fbb57600080fd5b8151610a8e81610d8b56fea26469706673582212207f9e3c9f05f872e227e458f1824ad1521510a17d111965beac810405077b3a7e64736f6c63430008110033",
  "linkReferences": {},
  "deployedLinkReferences": {}
}