{
  "_format": "hh-sol-artifact-1",
  "contractName": "DAOReputation",
  "sourceName": "contracts/dao/DAOReputation.sol",
  "abi": [
    {
      "inputs": [],
      "name": "DAOReputation__NoTransfer",
      "type": "error"
    },
    {
      "anonymous": false,
      "inputs": [
        {
          "indexed": true,
          "internalType": "address",
          "name": "owner",
          "type": "address"
        },
        {
          "indexed": true,
          "internalType": "address",
          "name": "spender",
          "type": "address"
        },
        {
          "indexed": false,
          "internalType": "uint256",
          "name": "value",
          "type": "uint256"
        }
      ],
      "name": "Approval",
      "type": "event"
    },
    {
      "anonymous": false,
      "inputs": [
        {
          "indexed": true,
          "internalType": "address",
          "name": "_from",
          "type": "address"
        },
        {
          "indexed": false,
          "internalType": "uint256",
          "name": "_amount",
          "type": "uint256"
        }
      ],
      "name": "Burn",
      "type": "event"
    },
    {
      "anonymous": false,
      "inputs": [
        {
          "indexed": true,
          "internalType": "address",
          "name": "_to",
          "type": "address"
        },
        {
          "indexed": false,
          "internalType": "uint256",
          "name": "_amount",
          "type": "uint256"
        }
      ],
      "name": "Mint",
      "type": "event"
    },
    {
      "anonymous": false,
      "inputs": [
        {
          "indexed": true,
          "internalType": "address",
          "name": "previousOwner",
          "type": "address"
        },
        {
          "indexed": true,
          "internalType": "address",
          "name": "newOwner",
          "type": "address"
        }
      ],
      "name": "OwnershipTransferred",
      "type": "event"
    },
    {
      "anonymous": false,
      "inputs": [
        {
          "indexed": false,
          "internalType": "uint256",
          "name": "id",
          "type": "uint256"
        }
      ],
      "name": "Snapshot",
      "type": "event"
    },
    {
      "anonymous": false,
      "inputs": [
        {
          "indexed": true,
          "internalType": "address",
          "name": "from",
          "type": "address"
        },
        {
          "indexed": true,
          "internalType": "address",
          "name": "to",
          "type": "address"
        },
        {
          "indexed": false,
          "internalType": "uint256",
          "name": "value",
          "type": "uint256"
        }
      ],
      "name": "Transfer",
      "type": "event"
    },
    {
      "inputs": [
        {
          "internalType": "address",
          "name": "owner",
          "type": "address"
        },
        {
          "internalType": "address",
          "name": "spender",
          "type": "address"
        }
      ],
      "name": "allowance",
      "outputs": [
        {
          "internalType": "uint256",
          "name": "",
          "type": "uint256"
        }
      ],
      "stateMutability": "view",
      "type": "function"
    },
    {
      "inputs": [
        {
          "internalType": "address",
          "name": "spender",
          "type": "address"
        },
        {
          "internalType": "uint256",
          "name": "amount",
          "type": "uint256"
        }
      ],
      "name": "approve",
      "outputs": [
        {
          "internalType": "bool",
          "name": "",
          "type": "bool"
        }
      ],
      "stateMutability": "nonpayable",
      "type": "function"
    },
    {
      "inputs": [
        {
          "internalType": "address",
          "name": "account",
          "type": "address"
        }
      ],
      "name": "balanceOf",
      "outputs": [
        {
          "internalType": "uint256",
          "name": "",
          "type": "uint256"
        }
      ],
      "stateMutability": "view",
      "type": "function"
    },
    {
      "inputs": [
        {
          "internalType": "address",
          "name": "account",
          "type": "address"
        },
        {
          "internalType": "uint256",
          "name": "snapshotId",
          "type": "uint256"
        }
      ],
      "name": "balanceOfAt",
      "outputs": [
        {
          "internalType": "uint256",
          "name": "",
          "type": "uint256"
        }
      ],
      "stateMutability": "view",
      "type": "function"
    },
    {
      "inputs": [
        {
          "internalType": "address",
          "name": "_account",
          "type": "address"
        },
        {
          "internalType": "uint256",
          "name": "_amount",
          "type": "uint256"
        }
      ],
      "name": "burn",
      "outputs": [
        {
          "internalType": "bool",
          "name": "",
          "type": "bool"
        }
      ],
      "stateMutability": "nonpayable",
      "type": "function"
    },
    {
      "inputs": [
        {
          "internalType": "address[]",
          "name": "_accounts",
          "type": "address[]"
        },
        {
          "internalType": "uint256[]",
          "name": "_amount",
          "type": "uint256[]"
        }
      ],
      "name": "burnMultiple",
      "outputs": [
        {
          "internalType": "bool",
          "name": "",
          "type": "bool"
        }
      ],
      "stateMutability": "nonpayable",
      "type": "function"
    },
    {
      "inputs": [],
      "name": "decimals",
      "outputs": [
        {
          "internalType": "uint8",
          "name": "",
          "type": "uint8"
        }
      ],
      "stateMutability": "view",
      "type": "function"
    },
    {
      "inputs": [
        {
          "internalType": "address",
          "name": "spender",
          "type": "address"
        },
        {
          "internalType": "uint256",
          "name": "subtractedValue",
          "type": "uint256"
        }
      ],
      "name": "decreaseAllowance",
      "outputs": [
        {
          "internalType": "bool",
          "name": "",
          "type": "bool"
        }
      ],
      "stateMutability": "nonpayable",
      "type": "function"
    },
    {
      "inputs": [],
      "name": "getCurrentSnapshotId",
      "outputs": [
        {
          "internalType": "uint256",
          "name": "",
          "type": "uint256"
        }
      ],
      "stateMutability": "view",
      "type": "function"
    },
    {
      "inputs": [
        {
          "internalType": "address",
          "name": "spender",
          "type": "address"
        },
        {
          "internalType": "uint256",
          "name": "addedValue",
          "type": "uint256"
        }
      ],
      "name": "increaseAllowance",
      "outputs": [
        {
          "internalType": "bool",
          "name": "",
          "type": "bool"
        }
      ],
      "stateMutability": "nonpayable",
      "type": "function"
    },
    {
      "inputs": [
        {
          "internalType": "string",
          "name": "name",
          "type": "string"
        },
        {
          "internalType": "string",
          "name": "symbol",
          "type": "string"
        }
      ],
      "name": "initialize",
      "outputs": [],
      "stateMutability": "nonpayable",
      "type": "function"
    },
    {
      "inputs": [
        {
          "internalType": "address",
          "name": "_account",
          "type": "address"
        },
        {
          "internalType": "uint256",
          "name": "_amount",
          "type": "uint256"
        }
      ],
      "name": "mint",
      "outputs": [
        {
          "internalType": "bool",
          "name": "",
          "type": "bool"
        }
      ],
      "stateMutability": "nonpayable",
      "type": "function"
    },
    {
      "inputs": [
        {
          "internalType": "address[]",
          "name": "_accounts",
          "type": "address[]"
        },
        {
          "internalType": "uint256[]",
          "name": "_amount",
          "type": "uint256[]"
        }
      ],
      "name": "mintMultiple",
      "outputs": [
        {
          "internalType": "bool",
          "name": "",
          "type": "bool"
        }
      ],
      "stateMutability": "nonpayable",
      "type": "function"
    },
    {
      "inputs": [],
      "name": "name",
      "outputs": [
        {
          "internalType": "string",
          "name": "",
          "type": "string"
        }
      ],
      "stateMutability": "view",
      "type": "function"
    },
    {
      "inputs": [],
      "name": "owner",
      "outputs": [
        {
          "internalType": "address",
          "name": "",
          "type": "address"
        }
      ],
      "stateMutability": "view",
      "type": "function"
    },
    {
      "inputs": [],
      "name": "renounceOwnership",
      "outputs": [],
      "stateMutability": "nonpayable",
      "type": "function"
    },
    {
      "inputs": [],
      "name": "symbol",
      "outputs": [
        {
          "internalType": "string",
          "name": "",
          "type": "string"
        }
      ],
      "stateMutability": "view",
      "type": "function"
    },
    {
      "inputs": [],
      "name": "totalSupply",
      "outputs": [
        {
          "internalType": "uint256",
          "name": "",
          "type": "uint256"
        }
      ],
      "stateMutability": "view",
      "type": "function"
    },
    {
      "inputs": [
        {
          "internalType": "uint256",
          "name": "snapshotId",
          "type": "uint256"
        }
      ],
      "name": "totalSupplyAt",
      "outputs": [
        {
          "internalType": "uint256",
          "name": "",
          "type": "uint256"
        }
      ],
      "stateMutability": "view",
      "type": "function"
    },
    {
      "inputs": [
        {
          "internalType": "address",
          "name": "recipient",
          "type": "address"
        },
        {
          "internalType": "uint256",
          "name": "amount",
          "type": "uint256"
        }
      ],
      "name": "transfer",
      "outputs": [
        {
          "internalType": "bool",
          "name": "",
          "type": "bool"
        }
      ],
      "stateMutability": "nonpayable",
      "type": "function"
    },
    {
      "inputs": [
        {
          "internalType": "address",
          "name": "sender",
          "type": "address"
        },
        {
          "internalType": "address",
          "name": "recipient",
          "type": "address"
        },
        {
          "internalType": "uint256",
          "name": "amount",
          "type": "uint256"
        }
      ],
      "name": "transferFrom",
      "outputs": [
        {
          "internalType": "bool",
          "name": "",
          "type": "bool"
        }
      ],
      "stateMutability": "nonpayable",
      "type": "function"
    },
    {
      "inputs": [
        {
          "internalType": "address",
          "name": "newOwner",
          "type": "address"
        }
      ],
      "name": "transferOwnership",
      "outputs": [],
      "stateMutability": "nonpayable",
      "type": "function"
    }
  ],
  "bytecode": "0x608060405234801561001057600080fd5b506119e7806100206000396000f3fe608060405234801561001057600080fd5b50600436106101425760003560e01c806370a08231116100b85780639dc29fac1161007c5780639dc29fac1461028c578063a457c2d71461029f578063a9059cbb146102b2578063d216294f146102c5578063dd62ed3e146102d8578063f2fde38b1461031157600080fd5b806370a0823114610225578063715018a61461024e5780638da5cb5b1461025657806395d89b4114610271578063981b24d01461027957600080fd5b8063313ce5671161010a578063313ce567146101c057806339509351146101cf57806340c10f19146101e25780634cd88b76146101f55780634ee2cd7e1461020a5780635439ad861461021d57600080fd5b806306fdde031461014757806307ea547714610165578063095ea7b31461018857806318160ddd1461019b57806323b872dd146101ad575b600080fd5b61014f610324565b60405161015c91906113c7565b60405180910390f35b610178610173366004611502565b6103b6565b604051901515815260200161015c565b6101786101963660046115c2565b6104c7565b6067545b60405190815260200161015c565b6101786101bb3660046115ec565b6104dd565b6040516012815260200161015c565b6101786101dd3660046115c2565b610587565b6101786101f03660046115c2565b6105c3565b610208610203366004611698565b61064f565b005b61019f6102183660046115c2565b6106cf565b61019f610728565b61019f6102333660046116f2565b6001600160a01b031660009081526065602052604090205490565b610208610737565b6033546040516001600160a01b03909116815260200161015c565b61014f61076d565b61019f61028736600461170d565b61077c565b61017861029a3660046115c2565b6107a7565b6101786102ad3660046115c2565b610822565b6101786102c03660046115c2565b6108bb565b6101786102d3366004611502565b6108c8565b61019f6102e6366004611726565b6001600160a01b03918216600090815260666020908152604080832093909416825291909152205490565b61020861031f3660046116f2565b6109c4565b60606068805461033390611759565b80601f016020809104026020016040519081016040528092919081815260200182805461035f90611759565b80156103ac5780601f10610381576101008083540402835291602001916103ac565b820191906000526020600020905b81548152906001019060200180831161038f57829003601f168201915b5050505050905090565b6033546000906001600160a01b031633146103ec5760405162461bcd60e51b81526004016103e390611793565b60405180910390fd5b60005b83518110156104bb5761043484828151811061040d5761040d6117c8565b6020026020010151848381518110610427576104276117c8565b6020026020010151610a5f565b838181518110610446576104466117c8565b60200260200101516001600160a01b03167f0f6798a560793a54c3bcfe86a93cde1e73087d944c0ea20544137d412139688584838151811061048a5761048a6117c8565b60200260200101516040516104a191815260200190565b60405180910390a2806104b3816117f4565b9150506103ef565b50600190505b92915050565b60006104d4338484610b4a565b50600192915050565b60006104ea848484610c6e565b6001600160a01b03841660009081526066602090815260408083203384529091529020548281101561056f5760405162461bcd60e51b815260206004820152602860248201527f45524332303a207472616e7366657220616d6f756e74206578636565647320616044820152676c6c6f77616e636560c01b60648201526084016103e3565b61057c8533858403610b4a565b506001949350505050565b3360008181526066602090815260408083206001600160a01b038716845290915281205490916104d49185906105be90869061180d565b610b4a565b6033546000906001600160a01b031633146105f05760405162461bcd60e51b81526004016103e390611793565b6105fa8383610a5f565b610602610c87565b50826001600160a01b03167f0f6798a560793a54c3bcfe86a93cde1e73087d944c0ea20544137d41213968858360405161063e91815260200190565b60405180910390a250600192915050565b600054610100900460ff1680610668575060005460ff16155b6106845760405162461bcd60e51b81526004016103e390611820565b600054610100900460ff161580156106a6576000805461ffff19166101011790555b6106b08383610ce1565b6106b8610d4a565b80156106ca576000805461ff00191690555b505050565b6001600160a01b0382166000908152609760205260408120819081906106f6908590610dc5565b915091508161071d576001600160a01b03851660009081526065602052604090205461071f565b805b95945050505050565b6000610732610ebb565b905090565b6033546001600160a01b031633146107615760405162461bcd60e51b81526004016103e390611793565b61076b6000610ec6565b565b60606069805461033390611759565b600080600061078c846098610dc5565b915091508161079d5760675461079f565b805b949350505050565b6033546000906001600160a01b031633146107d45760405162461bcd60e51b81526004016103e390611793565b6107de8383610f18565b6107e6610c87565b50826001600160a01b03167fcc16f5dbb4873280815c1ee09dbd06736cffcc184412cf7a71a0fdb75d397ca58360405161063e91815260200190565b3360009081526066602090815260408083206001600160a01b0386168452909152812054828110156108a45760405162461bcd60e51b815260206004820152602560248201527f45524332303a2064656372656173656420616c6c6f77616e63652062656c6f77604482015264207a65726f60d81b60648201526084016103e3565b6108b13385858403610b4a565b5060019392505050565b60006104d4338484610c6e565b6033546000906001600160a01b031633146108f55760405162461bcd60e51b81526004016103e390611793565b60005b83518110156104bb5761093d848281518110610916576109166117c8565b6020026020010151848381518110610930576109306117c8565b6020026020010151610f18565b83818151811061094f5761094f6117c8565b60200260200101516001600160a01b03167fcc16f5dbb4873280815c1ee09dbd06736cffcc184412cf7a71a0fdb75d397ca5848381518110610993576109936117c8565b60200260200101516040516109aa91815260200190565b60405180910390a2806109bc816117f4565b9150506108f8565b6033546001600160a01b031633146109ee5760405162461bcd60e51b81526004016103e390611793565b6001600160a01b038116610a535760405162461bcd60e51b815260206004820152602660248201527f4f776e61626c653a206e6577206f776e657220697320746865207a65726f206160448201526564647265737360d01b60648201526084016103e3565b610a5c81610ec6565b50565b6001600160a01b038216610ab55760405162461bcd60e51b815260206004820152601f60248201527f45524332303a206d696e7420746f20746865207a65726f20616464726573730060448201526064016103e3565b610ac160008383611072565b8060676000828254610ad3919061180d565b90915550506001600160a01b03821660009081526065602052604081208054839290610b0090849061180d565b90915550506040518181526001600160a01b038316906000907fddf252ad1be2c89b69c2b068fc378daa952ba7f163c4a11628f55a4df523b3ef9060200160405180910390a35050565b6001600160a01b038316610bac5760405162461bcd60e51b8152602060048201526024808201527f45524332303a20617070726f76652066726f6d20746865207a65726f206164646044820152637265737360e01b60648201526084016103e3565b6001600160a01b038216610c0d5760405162461bcd60e51b815260206004820152602260248201527f45524332303a20617070726f766520746f20746865207a65726f206164647265604482015261737360f01b60648201526084016103e3565b6001600160a01b0383811660008181526066602090815260408083209487168084529482529182902085905590518481527f8c5be1e5ebec7d5bd14f71427d1e84f3dd0314c0f7b2291e5b200ac8c7c3b925910160405180910390a3505050565b60405163b83abd2f60e01b815260040160405180910390fd5b6000610c97609a80546001019055565b6000610ca1610ebb565b90507f8030e83b04d87bef53480e26263266d6ca66863aa8506aca6f2559d18aa1cb6781604051610cd491815260200190565b60405180910390a1919050565b600054610100900460ff1680610cfa575060005460ff16155b610d165760405162461bcd60e51b81526004016103e390611820565b600054610100900460ff16158015610d38576000805461ffff19166101011790555b610d406110ba565b6106b88383611124565b600054610100900460ff1680610d63575060005460ff16155b610d7f5760405162461bcd60e51b81526004016103e390611820565b600054610100900460ff16158015610da1576000805461ffff19166101011790555b610da96110ba565b610db16111ab565b8015610a5c576000805461ff001916905550565b60008060008411610e115760405162461bcd60e51b815260206004820152601660248201527504552433230536e617073686f743a20696420697320360541b60448201526064016103e3565b610e19610ebb565b841115610e685760405162461bcd60e51b815260206004820152601d60248201527f4552433230536e617073686f743a206e6f6e6578697374656e7420696400000060448201526064016103e3565b6000610e74848661120b565b84549091508103610e8c576000809250925050610eb4565b6001846001018281548110610ea357610ea36117c8565b906000526020600020015492509250505b9250929050565b6000610732609a5490565b603380546001600160a01b038381166001600160a01b0319831681179093556040519116919082907f8be0079c531659141344cd1fd0a4f28419497f9722a3daafe3b4186f6b6457e090600090a35050565b6001600160a01b038216610f785760405162461bcd60e51b815260206004820152602160248201527f45524332303a206275726e2066726f6d20746865207a65726f206164647265736044820152607360f81b60648201526084016103e3565b610f8482600083611072565b6001600160a01b03821660009081526065602052604090205481811015610ff85760405162461bcd60e51b815260206004820152602260248201527f45524332303a206275726e20616d6f756e7420657863656564732062616c616e604482015261636560f01b60648201526084016103e3565b6001600160a01b038316600090815260656020526040812083830390556067805484929061102790849061186e565b90915550506040518281526000906001600160a01b038516907fddf252ad1be2c89b69c2b068fc378daa952ba7f163c4a11628f55a4df523b3ef9060200160405180910390a3505050565b6001600160a01b03831661109157611089826112d0565b6106ca611303565b6001600160a01b0382166110a857611089836112d0565b6110b1836112d0565b6106ca826112d0565b600054610100900460ff16806110d3575060005460ff16155b6110ef5760405162461bcd60e51b81526004016103e390611820565b600054610100900460ff16158015610db1576000805461ffff19166101011790558015610a5c576000805461ff001916905550565b600054610100900460ff168061113d575060005460ff16155b6111595760405162461bcd60e51b81526004016103e390611820565b600054610100900460ff1615801561117b576000805461ffff19166101011790555b606861118784826118cf565b50606961119483826118cf565b5080156106ca576000805461ff0019169055505050565b600054610100900460ff16806111c4575060005460ff16155b6111e05760405162461bcd60e51b81526004016103e390611820565b600054610100900460ff16158015611202576000805461ffff19166101011790555b610db133610ec6565b8154600090810361121e575060006104c1565b82546000905b8082101561127a5760006112388383611311565b90508486828154811061124d5761124d6117c8565b9060005260206000200154111561126657809150611274565b61127181600161180d565b92505b50611224565b6000821180156112af5750838561129260018561186e565b815481106112a2576112a26117c8565b9060005260206000200154145b156112c8576112bf60018361186e565b925050506104c1565b5090506104c1565b6001600160a01b0381166000908152609760209081526040808320606590925290912054610a5c9190611333565b611333565b61076b60986112fe60675490565b6000611320600284841861198f565b61132c9084841661180d565b9392505050565b600061133d610ebb565b9050806113498461137d565b10156106ca578254600180820185556000858152602080822090930193909355938401805494850181558252902090910155565b8054600090810361139057506000919050565b815482906113a09060019061186e565b815481106113b0576113b06117c8565b90600052602060002001549050919050565b919050565b600060208083528351808285015260005b818110156113f4578581018301518582016040015282016113d8565b506000604082860101526040601f19601f8301168501019250505092915050565b634e487b7160e01b600052604160045260246000fd5b604051601f8201601f1916810167ffffffffffffffff8111828210171561145457611454611415565b604052919050565b600067ffffffffffffffff82111561147657611476611415565b5060051b60200190565b80356001600160a01b03811681146113c257600080fd5b600082601f8301126114a857600080fd5b813560206114bd6114b88361145c565b61142b565b82815260059290921b840181019181810190868411156114dc57600080fd5b8286015b848110156114f757803583529183019183016114e0565b509695505050505050565b6000806040838503121561151557600080fd5b823567ffffffffffffffff8082111561152d57600080fd5b818501915085601f83011261154157600080fd5b813560206115516114b88361145c565b82815260059290921b8401810191818101908984111561157057600080fd5b948201945b838610156115955761158686611480565b82529482019490820190611575565b965050860135925050808211156115ab57600080fd5b506115b885828601611497565b9150509250929050565b600080604083850312156115d557600080fd5b6115de83611480565b946020939093013593505050565b60008060006060848603121561160157600080fd5b61160a84611480565b925061161860208501611480565b9150604084013590509250925092565b600082601f83011261163957600080fd5b813567ffffffffffffffff81111561165357611653611415565b611666601f8201601f191660200161142b565b81815284602083860101111561167b57600080fd5b816020850160208301376000918101602001919091529392505050565b600080604083850312156116ab57600080fd5b823567ffffffffffffffff808211156116c357600080fd5b6116cf86838701611628565b935060208501359150808211156116e557600080fd5b506115b885828601611628565b60006020828403121561170457600080fd5b61132c82611480565b60006020828403121561171f57600080fd5b5035919050565b6000806040838503121561173957600080fd5b61174283611480565b915061175060208401611480565b90509250929050565b600181811c9082168061176d57607f821691505b60208210810361178d57634e487b7160e01b600052602260045260246000fd5b50919050565b6020808252818101527f4f776e61626c653a2063616c6c6572206973206e6f7420746865206f776e6572604082015260600190565b634e487b7160e01b600052603260045260246000fd5b634e487b7160e01b600052601160045260246000fd5b600060018201611806576118066117de565b5060010190565b808201808211156104c1576104c16117de565b6020808252602e908201527f496e697469616c697a61626c653a20636f6e747261637420697320616c72656160408201526d191e481a5b9a5d1a585b1a5e995960921b606082015260800190565b818103818111156104c1576104c16117de565b601f8211156106ca57600081815260208120601f850160051c810160208610156118a85750805b601f850160051c820191505b818110156118c7578281556001016118b4565b505050505050565b815167ffffffffffffffff8111156118e9576118e9611415565b6118fd816118f78454611759565b84611881565b602080601f831160018114611932576000841561191a5750858301515b600019600386901b1c1916600185901b1785556118c7565b600085815260208120601f198616915b8281101561196157888601518255948401946001909101908401611942565b508582101561197f5787850151600019600388901b60f8161c191681555b5050505050600190811b01905550565b6000826119ac57634e487b7160e01b600052601260045260246000fd5b50049056fea26469706673582212201b9d27e1733b7c2f4a639c8ecab2c84cb3589f383b06d9109ee4cbc1df0d0a6a64736f6c63430008110033",
  "linkReferences": {},
  "deployedLinkReferences": {}
}