{
  "_format": "hh-sol-artifact-1",
  "contractName": "VotingMachine",
  "sourceName": "contracts/dao/votingMachine/VotingMachine.sol",
  "abi": [
    {
      "inputs": [
        {
          "internalType": "contract IERC20",
          "name": "stakingTokenAddress",
          "type": "address"
        }
      ],
      "stateMutability": "nonpayable",
      "type": "constructor"
    },
    {
      "inputs": [],
      "name": "VotingMachine__AddressNotRegisteredInSchemeRefounds",
      "type": "error"
    },
    {
      "inputs": [],
      "name": "VotingMachine__EndCannotBeBiggerThanListLength",
      "type": "error"
    },
    {
      "inputs": [],
      "name": "VotingMachine__InvalidNonce",
      "type": "error"
    },
    {
      "inputs": [],
      "name": "VotingMachine__InvalidOptionsAmount",
      "type": "error"
    },
    {
      "inputs": [],
      "name": "VotingMachine__InvalidParameters",
      "type": "error"
    },
    {
      "inputs": [],
      "name": "VotingMachine__NotEnoughtReputation",
      "type": "error"
    },
    {
      "inputs": [],
      "name": "VotingMachine__OnlySchemeOrAvatarCanSetSchemeRefound",
      "type": "error"
    },
    {
      "inputs": [],
      "name": "VotingMachine__ProposalAlreadyVoted",
      "type": "error"
    },
    {
      "inputs": [],
      "name": "VotingMachine__ProposalIsNotVotable",
      "type": "error"
    },
    {
      "inputs": [],
      "name": "VotingMachine__SchemeRefundBalanceIsZero",
      "type": "error"
    },
    {
      "inputs": [
        {
          "internalType": "string",
          "name": "",
          "type": "string"
        }
      ],
      "name": "VotingMachine__SetParametersError",
      "type": "error"
    },
    {
      "inputs": [],
      "name": "VotingMachine__StakingAmountIsTooHight",
      "type": "error"
    },
    {
      "inputs": [],
      "name": "VotingMachine__StakingAmountShouldBeBiggerThanZero",
      "type": "error"
    },
    {
      "inputs": [],
      "name": "VotingMachine__StartCannotBeBiggerThanEnd",
      "type": "error"
    },
    {
      "inputs": [],
      "name": "VotingMachine__StartCannotBeBiggerThanListLength",
      "type": "error"
    },
    {
      "inputs": [],
      "name": "VotingMachine__TotalStakesIsToHight",
      "type": "error"
    },
    {
      "inputs": [
        {
          "internalType": "address",
          "name": "to",
          "type": "address"
        },
        {
          "internalType": "uint256",
          "name": "amount",
          "type": "uint256"
        }
      ],
      "name": "VotingMachine__TransferFailed",
      "type": "error"
    },
    {
      "inputs": [],
      "name": "VotingMachine__TransferFromStakerFailed",
      "type": "error"
    },
    {
      "inputs": [],
      "name": "VotingMachine__VoterMustHaveReputation",
      "type": "error"
    },
    {
      "inputs": [],
      "name": "VotingMachine__WrongDecisionValue",
      "type": "error"
    },
    {
      "inputs": [],
      "name": "VotingMachine__WrongProposalStateToRedeem",
      "type": "error"
    },
    {
      "inputs": [],
      "name": "VotingMachine__WrongProposalStateToRedeemDaoBounty",
      "type": "error"
    },
    {
      "inputs": [],
      "name": "VotingMachine__WrongSigner",
      "type": "error"
    },
    {
      "inputs": [],
      "name": "VotingMachine__WrongStakingToken",
      "type": "error"
    },
    {
      "inputs": [],
      "name": "VotingMachine__WrongVoteShared",
      "type": "error"
    },
    {
      "anonymous": false,
      "inputs": [
        {
          "indexed": false,
          "internalType": "bytes32",
          "name": "proposalId",
          "type": "bytes32"
        },
        {
          "indexed": false,
          "internalType": "address",
          "name": "voter",
          "type": "address"
        },
        {
          "indexed": false,
          "internalType": "uint256",
          "name": "option",
          "type": "uint256"
        },
        {
          "indexed": false,
          "internalType": "uint256",
          "name": "amount",
          "type": "uint256"
        },
        {
          "indexed": false,
          "internalType": "uint256",
          "name": "nonce",
          "type": "uint256"
        },
        {
          "indexed": false,
          "internalType": "uint256",
          "name": "actionType",
          "type": "uint256"
        },
        {
          "indexed": false,
          "internalType": "bytes",
          "name": "signature",
          "type": "bytes"
        }
      ],
      "name": "ActionSigned",
      "type": "event"
    },
    {
      "anonymous": false,
      "inputs": [
        {
          "indexed": true,
          "internalType": "bytes32",
          "name": "proposalId",
          "type": "bytes32"
        },
        {
          "indexed": true,
          "internalType": "address",
          "name": "avatar",
          "type": "address"
        },
        {
          "indexed": false,
          "internalType": "uint256",
          "name": "option",
          "type": "uint256"
        },
        {
          "indexed": false,
          "internalType": "uint256",
          "name": "totalReputation",
          "type": "uint256"
        }
      ],
      "name": "ExecuteProposal",
      "type": "event"
    },
    {
      "anonymous": false,
      "inputs": [
        {
          "indexed": true,
          "internalType": "bytes32",
          "name": "proposalId",
          "type": "bytes32"
        },
        {
          "indexed": true,
          "internalType": "address",
          "name": "avatar",
          "type": "address"
        },
        {
          "indexed": false,
          "internalType": "uint256",
          "name": "numOfOptions",
          "type": "uint256"
        },
        {
          "indexed": false,
          "internalType": "address",
          "name": "proposer",
          "type": "address"
        },
        {
          "indexed": false,
          "internalType": "bytes32",
          "name": "paramsHash",
          "type": "bytes32"
        }
      ],
      "name": "NewProposal",
      "type": "event"
    },
    {
      "anonymous": false,
      "inputs": [
        {
          "indexed": false,
          "internalType": "string",
          "name": "",
          "type": "string"
        }
      ],
      "name": "ProposalExecuteResult",
      "type": "event"
    },
    {
      "anonymous": false,
      "inputs": [
        {
          "indexed": true,
          "internalType": "bytes32",
          "name": "proposalId",
          "type": "bytes32"
        },
        {
          "indexed": true,
          "internalType": "address",
          "name": "avatar",
          "type": "address"
        },
        {
          "indexed": true,
          "internalType": "address",
          "name": "beneficiary",
          "type": "address"
        },
        {
          "indexed": false,
          "internalType": "uint256",
          "name": "amount",
          "type": "uint256"
        }
      ],
      "name": "Redeem",
      "type": "event"
    },
    {
      "anonymous": false,
      "inputs": [
        {
          "indexed": true,
          "internalType": "bytes32",
          "name": "proposalId",
          "type": "bytes32"
        },
        {
          "indexed": true,
          "internalType": "address",
          "name": "avatar",
          "type": "address"
        },
        {
          "indexed": true,
          "internalType": "address",
          "name": "staker",
          "type": "address"
        },
        {
          "indexed": false,
          "internalType": "uint256",
          "name": "option",
          "type": "uint256"
        },
        {
          "indexed": false,
          "internalType": "uint256",
          "name": "amount",
          "type": "uint256"
        }
      ],
      "name": "Stake",
      "type": "event"
    },
    {
      "anonymous": false,
      "inputs": [
        {
          "indexed": true,
          "internalType": "bytes32",
          "name": "proposalId",
          "type": "bytes32"
        },
        {
          "indexed": false,
          "internalType": "enum VotingMachine.ProposalState",
          "name": "proposalState",
          "type": "uint8"
        }
      ],
      "name": "StateChange",
      "type": "event"
    },
    {
      "anonymous": false,
      "inputs": [
        {
          "indexed": true,
          "internalType": "address",
          "name": "avatar",
          "type": "address"
        },
        {
          "indexed": false,
          "internalType": "address",
          "name": "beneficiary",
          "type": "address"
        },
        {
          "indexed": false,
          "internalType": "uint256",
          "name": "amount",
          "type": "uint256"
        }
      ],
      "name": "UnclaimedDaoBounty",
      "type": "event"
    },
    {
      "anonymous": false,
      "inputs": [
        {
          "indexed": true,
          "internalType": "bytes32",
          "name": "proposalId",
          "type": "bytes32"
        },
        {
          "indexed": true,
          "internalType": "address",
          "name": "avatar",
          "type": "address"
        },
        {
          "indexed": true,
          "internalType": "address",
          "name": "voter",
          "type": "address"
        },
        {
          "indexed": false,
          "internalType": "uint256",
          "name": "option",
          "type": "uint256"
        },
        {
          "indexed": false,
          "internalType": "uint256",
          "name": "reputation",
          "type": "uint256"
        }
      ],
      "name": "VoteProposal",
      "type": "event"
    },
    {
      "anonymous": false,
      "inputs": [
        {
          "indexed": false,
          "internalType": "bytes32",
          "name": "proposalId",
          "type": "bytes32"
        },
        {
          "indexed": false,
          "internalType": "address",
          "name": "voter",
          "type": "address"
        },
        {
          "indexed": false,
          "internalType": "uint256",
          "name": "option",
          "type": "uint256"
        },
        {
          "indexed": false,
          "internalType": "uint256",
          "name": "amount",
          "type": "uint256"
        }
      ],
      "name": "VoteSignaled",
      "type": "event"
    },
    {
      "inputs": [],
      "name": "NO",
      "outputs": [
        {
          "internalType": "uint256",
          "name": "",
          "type": "uint256"
        }
      ],
      "stateMutability": "view",
      "type": "function"
    },
    {
      "inputs": [],
      "name": "NUM_OF_OPTIONS",
      "outputs": [
        {
          "internalType": "uint256",
          "name": "",
          "type": "uint256"
        }
      ],
      "stateMutability": "view",
      "type": "function"
    },
    {
      "inputs": [],
      "name": "SIGNED_ACTION_HASH_EIP712",
      "outputs": [
        {
          "internalType": "bytes32",
          "name": "",
          "type": "bytes32"
        }
      ],
      "stateMutability": "view",
      "type": "function"
    },
    {
      "inputs": [],
      "name": "YES",
      "outputs": [
        {
          "internalType": "uint256",
          "name": "",
          "type": "uint256"
        }
      ],
      "stateMutability": "view",
      "type": "function"
    },
    {
      "inputs": [
        {
          "internalType": "bytes32",
          "name": "proposalId",
          "type": "bytes32"
        }
      ],
      "name": "calculateBoostChange",
      "outputs": [
        {
          "internalType": "uint256",
          "name": "toBoost",
          "type": "uint256"
        }
      ],
      "stateMutability": "view",
      "type": "function"
    },
    {
      "inputs": [
        {
          "internalType": "uint256",
          "name": "thresholdConst",
          "type": "uint256"
        },
        {
          "internalType": "uint256",
          "name": "limitExponentValue",
          "type": "uint256"
        },
        {
          "internalType": "uint256",
          "name": "boostedProposalsCounter",
          "type": "uint256"
        }
      ],
      "name": "calculateThreshold",
      "outputs": [
        {
          "internalType": "uint256",
          "name": "threshold",
          "type": "uint256"
        }
      ],
      "stateMutability": "pure",
      "type": "function"
    },
    {
      "inputs": [
        {
          "internalType": "bytes32",
          "name": "proposalId",
          "type": "bytes32"
        }
      ],
      "name": "execute",
      "outputs": [
        {
          "internalType": "bool",
          "name": "proposalExecuted",
          "type": "bool"
        }
      ],
      "stateMutability": "nonpayable",
      "type": "function"
    },
    {
      "inputs": [
        {
          "internalType": "bytes32",
          "name": "proposalId",
          "type": "bytes32"
        },
        {
          "internalType": "address",
          "name": "voter",
          "type": "address"
        }
      ],
      "name": "executeSignaledVote",
      "outputs": [],
      "stateMutability": "nonpayable",
      "type": "function"
    },
    {
      "inputs": [
        {
          "internalType": "bytes32",
          "name": "proposalId",
          "type": "bytes32"
        },
        {
          "internalType": "address",
          "name": "staker",
          "type": "address"
        },
        {
          "internalType": "uint256",
          "name": "option",
          "type": "uint256"
        },
        {
          "internalType": "uint256",
          "name": "amount",
          "type": "uint256"
        },
        {
          "internalType": "bytes",
          "name": "signature",
          "type": "bytes"
        }
      ],
      "name": "executeSignedStake",
      "outputs": [
        {
          "internalType": "bool",
          "name": "proposalExecuted",
          "type": "bool"
        }
      ],
      "stateMutability": "nonpayable",
      "type": "function"
    },
    {
      "inputs": [
        {
          "internalType": "bytes32",
          "name": "proposalId",
          "type": "bytes32"
        },
        {
          "internalType": "address",
          "name": "voter",
          "type": "address"
        },
        {
          "internalType": "uint256",
          "name": "option",
          "type": "uint256"
        },
        {
          "internalType": "uint256",
          "name": "amount",
          "type": "uint256"
        },
        {
          "internalType": "bytes",
          "name": "signature",
          "type": "bytes"
        }
      ],
      "name": "executeSignedVote",
      "outputs": [],
      "stateMutability": "nonpayable",
      "type": "function"
    },
    {
      "inputs": [
        {
          "internalType": "uint256",
          "name": "start",
          "type": "uint256"
        },
        {
          "internalType": "uint256",
          "name": "end",
          "type": "uint256"
        },
        {
          "internalType": "address",
          "name": "avatar",
          "type": "address"
        }
      ],
      "name": "getActiveProposals",
      "outputs": [
        {
          "internalType": "bytes32[]",
          "name": "activeProposalsArray",
          "type": "bytes32[]"
        }
      ],
      "stateMutability": "view",
      "type": "function"
    },
    {
      "inputs": [
        {
          "internalType": "address",
          "name": "avatar",
          "type": "address"
        }
      ],
      "name": "getActiveProposalsCount",
      "outputs": [
        {
          "internalType": "uint256",
          "name": "activeProposalsCount",
          "type": "uint256"
        }
      ],
      "stateMutability": "view",
      "type": "function"
    },
    {
      "inputs": [],
      "name": "getAllowedRangeOfOptions",
      "outputs": [
        {
          "internalType": "uint256",
          "name": "min",
          "type": "uint256"
        },
        {
          "internalType": "uint256",
          "name": "max",
          "type": "uint256"
        }
      ],
      "stateMutability": "pure",
      "type": "function"
    },
    {
      "inputs": [
        {
          "internalType": "uint256",
          "name": "start",
          "type": "uint256"
        },
        {
          "internalType": "uint256",
          "name": "end",
          "type": "uint256"
        },
        {
          "internalType": "address",
          "name": "avatar",
          "type": "address"
        }
      ],
      "name": "getInactiveProposals",
      "outputs": [
        {
          "internalType": "bytes32[]",
          "name": "inactiveProposalsArray",
          "type": "bytes32[]"
        }
      ],
      "stateMutability": "view",
      "type": "function"
    },
    {
      "inputs": [
        {
          "internalType": "address",
          "name": "avatar",
          "type": "address"
        }
      ],
      "name": "getInactiveProposalsCount",
      "outputs": [
        {
          "internalType": "uint256",
          "name": "inactiveProposalsCount",
          "type": "uint256"
        }
      ],
      "stateMutability": "view",
      "type": "function"
    },
    {
      "inputs": [
        {
          "internalType": "bytes32",
          "name": "proposalId",
          "type": "bytes32"
        }
      ],
      "name": "getNumberOfOptions",
      "outputs": [
        {
          "internalType": "uint256",
          "name": "proposalOptionsAmount",
          "type": "uint256"
        }
      ],
      "stateMutability": "view",
      "type": "function"
    },
    {
      "inputs": [
        {
          "internalType": "uint256[8]",
          "name": "params",
          "type": "uint256[8]"
        }
      ],
      "name": "getParametersHash",
      "outputs": [
        {
          "internalType": "bytes32",
          "name": "paramsHash",
          "type": "bytes32"
        }
      ],
      "stateMutability": "pure",
      "type": "function"
    },
    {
      "inputs": [
        {
          "internalType": "bytes32",
          "name": "proposalId",
          "type": "bytes32"
        }
      ],
      "name": "getProposalAvatar",
      "outputs": [
        {
          "internalType": "address",
          "name": "avatarAddress",
          "type": "address"
        }
      ],
      "stateMutability": "view",
      "type": "function"
    },
    {
      "inputs": [
        {
          "internalType": "bytes32",
          "name": "proposalId",
          "type": "bytes32"
        }
      ],
      "name": "getProposalStatus",
      "outputs": [
        {
          "internalType": "uint256",
          "name": "votesNo",
          "type": "uint256"
        },
        {
          "internalType": "uint256",
          "name": "votesYes",
          "type": "uint256"
        },
        {
          "internalType": "uint256",
          "name": "preBoostedVotesNo",
          "type": "uint256"
        },
        {
          "internalType": "uint256",
          "name": "preBoostedVotesYes",
          "type": "uint256"
        },
        {
          "internalType": "uint256",
          "name": "totalStakesNo",
          "type": "uint256"
        },
        {
          "internalType": "uint256",
          "name": "totalStakesYes",
          "type": "uint256"
        }
      ],
      "stateMutability": "view",
      "type": "function"
    },
    {
      "inputs": [
        {
          "internalType": "bytes32",
          "name": "proposalId",
          "type": "bytes32"
        }
      ],
      "name": "getProposalTimes",
      "outputs": [
        {
          "internalType": "uint256[3]",
          "name": "times",
          "type": "uint256[3]"
        }
      ],
      "stateMutability": "nonpayable",
      "type": "function"
    },
    {
      "inputs": [
        {
          "internalType": "bytes32",
          "name": "paramsHash",
          "type": "bytes32"
        },
        {
          "internalType": "bytes32",
          "name": "schemeId",
          "type": "bytes32"
        }
      ],
      "name": "getSchemeThreshold",
      "outputs": [
        {
          "internalType": "uint256",
          "name": "schemeThreshold",
          "type": "uint256"
        }
      ],
      "stateMutability": "view",
      "type": "function"
    },
    {
      "inputs": [
        {
          "internalType": "bytes32",
          "name": "proposalId",
          "type": "bytes32"
        },
        {
          "internalType": "address",
          "name": "staker",
          "type": "address"
        }
      ],
      "name": "getStaker",
      "outputs": [
        {
          "internalType": "uint256",
          "name": "option",
          "type": "uint256"
        },
        {
          "internalType": "uint256",
          "name": "amount",
          "type": "uint256"
        }
      ],
      "stateMutability": "view",
      "type": "function"
    },
    {
      "inputs": [
        {
          "internalType": "bytes32",
          "name": "proposalId",
          "type": "bytes32"
        },
        {
          "internalType": "address",
          "name": "voter",
          "type": "address"
        }
      ],
      "name": "getVoter",
      "outputs": [
        {
          "internalType": "uint256",
          "name": "option",
          "type": "uint256"
        },
        {
          "internalType": "uint256",
          "name": "amount",
          "type": "uint256"
        }
      ],
      "stateMutability": "view",
      "type": "function"
    },
    {
      "inputs": [
        {
          "internalType": "bytes32",
          "name": "proposalId",
          "type": "bytes32"
        },
        {
          "internalType": "address",
          "name": "signer",
          "type": "address"
        },
        {
          "internalType": "uint256",
          "name": "option",
          "type": "uint256"
        },
        {
          "internalType": "uint256",
          "name": "amount",
          "type": "uint256"
        },
        {
          "internalType": "uint256",
          "name": "nonce",
          "type": "uint256"
        },
        {
          "internalType": "uint256",
          "name": "actionType",
          "type": "uint256"
        }
      ],
      "name": "hashAction",
      "outputs": [
        {
          "internalType": "bytes32",
          "name": "actionHash",
          "type": "bytes32"
        }
      ],
      "stateMutability": "view",
      "type": "function"
    },
    {
      "inputs": [
        {
          "internalType": "bytes32",
          "name": "proposalId",
          "type": "bytes32"
        }
      ],
      "name": "isVotable",
      "outputs": [
        {
          "internalType": "bool",
          "name": "isProposalVotable",
          "type": "bool"
        }
      ],
      "stateMutability": "view",
      "type": "function"
    },
    {
      "inputs": [
        {
          "internalType": "uint256",
          "name": "a",
          "type": "uint256"
        },
        {
          "internalType": "uint256",
          "name": "b",
          "type": "uint256"
        }
      ],
      "name": "multiplyRealMath",
      "outputs": [
        {
          "internalType": "uint256",
          "name": "",
          "type": "uint256"
        }
      ],
      "stateMutability": "pure",
      "type": "function"
    },
    {
      "inputs": [
        {
          "internalType": "bytes32",
          "name": "",
          "type": "bytes32"
        }
      ],
      "name": "parameters",
      "outputs": [
        {
          "internalType": "uint256",
          "name": "queuedVoteRequiredPercentage",
          "type": "uint256"
        },
        {
          "internalType": "uint256",
          "name": "queuedVotePeriodLimit",
          "type": "uint256"
        },
        {
          "internalType": "uint256",
          "name": "boostedVotePeriodLimit",
          "type": "uint256"
        },
        {
          "internalType": "uint256",
          "name": "preBoostedVotePeriodLimit",
          "type": "uint256"
        },
        {
          "internalType": "uint256",
          "name": "thresholdConst",
          "type": "uint256"
        },
        {
          "internalType": "uint256",
          "name": "limitExponentValue",
          "type": "uint256"
        },
        {
          "internalType": "uint256",
          "name": "quietEndingPeriod",
          "type": "uint256"
        },
        {
          "internalType": "uint256",
          "name": "daoBounty",
          "type": "uint256"
        },
        {
          "internalType": "uint256",
          "name": "boostedVoteRequiredPercentage",
          "type": "uint256"
        }
      ],
      "stateMutability": "view",
      "type": "function"
    },
    {
      "inputs": [
        {
          "internalType": "bytes32",
          "name": "",
          "type": "bytes32"
        }
      ],
      "name": "proposals",
      "outputs": [
        {
          "internalType": "bytes32",
          "name": "schemeId",
          "type": "bytes32"
        },
        {
          "internalType": "address",
          "name": "callbacks",
          "type": "address"
        },
        {
          "internalType": "enum VotingMachine.ProposalState",
          "name": "state",
          "type": "uint8"
        },
        {
          "internalType": "enum VotingMachine.ExecutionState",
          "name": "executionState",
          "type": "uint8"
        },
        {
          "internalType": "uint256",
          "name": "winningVote",
          "type": "uint256"
        },
        {
          "internalType": "address",
          "name": "proposer",
          "type": "address"
        },
        {
          "internalType": "uint256",
          "name": "currentBoostedVotePeriodLimit",
          "type": "uint256"
        },
        {
          "internalType": "bytes32",
          "name": "paramsHash",
          "type": "bytes32"
        },
        {
          "internalType": "uint256",
          "name": "daoBounty",
          "type": "uint256"
        },
        {
          "internalType": "uint256",
          "name": "totalStakes",
          "type": "uint256"
        },
        {
          "internalType": "uint256",
          "name": "secondsFromTimeOutTillExecuteBoosted",
          "type": "uint256"
        }
      ],
      "stateMutability": "view",
      "type": "function"
    },
    {
      "inputs": [],
      "name": "proposalsCnt",
      "outputs": [
        {
          "internalType": "uint256",
          "name": "",
          "type": "uint256"
        }
      ],
      "stateMutability": "view",
      "type": "function"
    },
    {
      "inputs": [
        {
          "internalType": "uint256",
          "name": "totalOptions",
          "type": "uint256"
        },
        {
          "internalType": "bytes32",
          "name": "paramsHash",
          "type": "bytes32"
        },
        {
          "internalType": "address",
          "name": "proposer",
          "type": "address"
        },
        {
          "internalType": "address",
          "name": "avatar",
          "type": "address"
        }
      ],
      "name": "propose",
      "outputs": [
        {
          "internalType": "bytes32",
          "name": "proposalId",
          "type": "bytes32"
        }
      ],
      "stateMutability": "nonpayable",
      "type": "function"
    },
    {
      "inputs": [
        {
          "internalType": "bytes32",
          "name": "proposalId",
          "type": "bytes32"
        },
        {
          "internalType": "address",
          "name": "beneficiary",
          "type": "address"
        }
      ],
      "name": "redeem",
      "outputs": [
        {
          "internalType": "uint256",
          "name": "reward",
          "type": "uint256"
        }
      ],
      "stateMutability": "nonpayable",
      "type": "function"
    },
    {
      "inputs": [
        {
          "internalType": "bytes32",
          "name": "",
          "type": "bytes32"
        }
      ],
      "name": "schemes",
      "outputs": [
        {
          "internalType": "address",
          "name": "avatar",
          "type": "address"
        },
        {
          "internalType": "uint256",
          "name": "stakingTokenBalance",
          "type": "uint256"
        },
        {
          "internalType": "uint256",
          "name": "voteGasBalance",
          "type": "uint256"
        },
        {
          "internalType": "uint256",
          "name": "voteGas",
          "type": "uint256"
        },
        {
          "internalType": "uint256",
          "name": "maxGasPrice",
          "type": "uint256"
        },
        {
          "internalType": "uint256",
          "name": "boostedProposalsCounter",
          "type": "uint256"
        },
        {
          "internalType": "uint256",
          "name": "preBoostedProposalsCounter",
          "type": "uint256"
        }
      ],
      "stateMutability": "view",
      "type": "function"
    },
    {
      "inputs": [
        {
          "internalType": "bytes32",
          "name": "proposalId",
          "type": "bytes32"
        }
      ],
      "name": "score",
      "outputs": [
        {
          "internalType": "uint256",
          "name": "proposalScore",
          "type": "uint256"
        }
      ],
      "stateMutability": "view",
      "type": "function"
    },
    {
      "inputs": [
        {
          "internalType": "uint256[8]",
          "name": "params",
          "type": "uint256[8]"
        }
      ],
      "name": "setParameters",
      "outputs": [
        {
          "internalType": "bytes32",
          "name": "paramsHash",
          "type": "bytes32"
        }
      ],
      "stateMutability": "nonpayable",
      "type": "function"
    },
    {
      "inputs": [
        {
          "internalType": "address",
          "name": "avatar",
          "type": "address"
        },
        {
          "internalType": "address",
          "name": "scheme",
          "type": "address"
        },
        {
          "internalType": "uint256",
          "name": "voteGas",
          "type": "uint256"
        },
        {
          "internalType": "uint256",
          "name": "maxGasPrice",
          "type": "uint256"
        }
      ],
      "name": "setSchemeRefund",
      "outputs": [],
      "stateMutability": "payable",
      "type": "function"
    },
    {
      "inputs": [
        {
          "internalType": "bytes32",
          "name": "proposalId",
          "type": "bytes32"
        },
        {
          "internalType": "address",
          "name": "voter",
          "type": "address"
        },
        {
          "internalType": "uint256",
          "name": "option",
          "type": "uint256"
        },
        {
          "internalType": "uint256",
          "name": "amount",
          "type": "uint256"
        },
        {
          "internalType": "uint256",
          "name": "nonce",
          "type": "uint256"
        },
        {
          "internalType": "uint256",
          "name": "actionType",
          "type": "uint256"
        },
        {
          "internalType": "bytes",
          "name": "signature",
          "type": "bytes"
        }
      ],
      "name": "shareSignedAction",
      "outputs": [],
      "stateMutability": "nonpayable",
      "type": "function"
    },
    {
      "inputs": [
        {
          "internalType": "bytes32",
          "name": "proposalId",
          "type": "bytes32"
        }
      ],
      "name": "shouldBoost",
      "outputs": [
        {
          "internalType": "bool",
          "name": "shouldProposalBeBoosted",
          "type": "bool"
        }
      ],
      "stateMutability": "view",
      "type": "function"
    },
    {
      "inputs": [
        {
          "internalType": "bytes32",
          "name": "proposalId",
          "type": "bytes32"
        },
        {
          "internalType": "uint256",
          "name": "option",
          "type": "uint256"
        },
        {
          "internalType": "uint256",
          "name": "amount",
          "type": "uint256"
        }
      ],
      "name": "signalVote",
      "outputs": [],
      "stateMutability": "nonpayable",
      "type": "function"
    },
    {
      "inputs": [
        {
          "internalType": "address",
          "name": "",
          "type": "address"
        }
      ],
      "name": "signerNonce",
      "outputs": [
        {
          "internalType": "uint256",
          "name": "",
          "type": "uint256"
        }
      ],
      "stateMutability": "view",
      "type": "function"
    },
    {
      "inputs": [
        {
          "internalType": "bytes32",
          "name": "proposalId",
          "type": "bytes32"
        },
        {
          "internalType": "uint256",
          "name": "option",
          "type": "uint256"
        },
        {
          "internalType": "uint256",
          "name": "amount",
          "type": "uint256"
        }
      ],
      "name": "stake",
      "outputs": [
        {
          "internalType": "bool",
          "name": "proposalExecuted",
          "type": "bool"
        }
      ],
      "stateMutability": "nonpayable",
      "type": "function"
    },
    {
      "inputs": [],
      "name": "stakingToken",
      "outputs": [
        {
          "internalType": "contract IERC20",
          "name": "",
          "type": "address"
        }
      ],
      "stateMutability": "view",
      "type": "function"
    },
    {
      "inputs": [
        {
          "internalType": "bytes32",
          "name": "proposalId",
          "type": "bytes32"
        },
        {
          "internalType": "uint256",
          "name": "option",
          "type": "uint256"
        },
        {
          "internalType": "uint256",
          "name": "amount",
          "type": "uint256"
        }
      ],
      "name": "vote",
      "outputs": [
        {
          "internalType": "bool",
          "name": "proposalExecuted",
          "type": "bool"
        }
      ],
      "stateMutability": "nonpayable",
      "type": "function"
    },
    {
      "inputs": [
        {
          "internalType": "bytes32",
          "name": "",
          "type": "bytes32"
        },
        {
          "internalType": "address",
          "name": "",
          "type": "address"
        }
      ],
      "name": "votesSignaled",
      "outputs": [
        {
          "internalType": "uint256",
          "name": "option",
          "type": "uint256"
        },
        {
          "internalType": "uint256",
          "name": "amount",
          "type": "uint256"
        }
      ],
      "stateMutability": "view",
      "type": "function"
    },
    {
      "inputs": [
        {
          "internalType": "address",
          "name": "scheme",
          "type": "address"
        }
      ],
      "name": "withdrawRefundBalance",
      "outputs": [],
      "stateMutability": "nonpayable",
      "type": "function"
    }
  ],
  "bytecode": "0x60806040523480156200001157600080fd5b5060405162004c6438038062004c64833981016040819052620000349162000082565b6001600160a01b0381166200005c576040516348ff4cf560e01b815260040160405180910390fd5b600b80546001600160a01b0319166001600160a01b0392909216919091179055620000b4565b6000602082840312156200009557600080fd5b81516001600160a01b0381168114620000ad57600080fd5b9392505050565b614ba080620000c46000396000f3fe6080604052600436106102675760003560e01c806388737b5e11610144578063c23a2403116100b6578063e38c08b01161007a578063e38c08b014610a81578063e5af18c514610aa1578063e751f27114610ac1578063f3b3129c14610ae1578063f5c84a9114610b01578063fb7c562314610b2157600080fd5b8063c23a2403146108f1578063c4c1d1e414610973578063c8f526e814610993578063cc3bf9e9146109c0578063d0d98cbb146109e057600080fd5b8063a5a7f9db11610108578063a5a7f9db146107eb578063a601a4a11461080b578063b2449d65146108f1578063b419f4ae14610906578063b8bd65bc14610933578063c08351061461095357600080fd5b806388737b5e146106cc57806393dfd045146106ec5780639b19849114610798578063a1eb9eda146107ab578063a30ccbe6146107cb57600080fd5b80633d6254c8116101dd57806370e544af116101a157806370e544af146105e7578063715112b21461060757806372f702f314610627578063764eaad31461065f57806380f5e0a11461068c578063886dcaca146106ac57600080fd5b80633d6254c81461054f5780633eb3022a146105715780635031049f146105875780636b812437146105a75780636f8b7633146105c757600080fd5b80632514e2bf1161022f5780632514e2bf146103b9578063278607dd146103f85780632daedd521461041857806330128f8e1461044857806332ed5b121461049357806338843e791461052f57600080fd5b8063025068041461026c5780630d4834421461031e57806316db51721461034157806321b4b3dc1461037657806322f0e36f1461038c575b600080fd5b34801561027857600080fd5b506102d56102873660046143aa565b60056020528060005260406000206000915090508060000154908060010154908060020154908060030154908060040154908060050154908060060154908060070154908060080154905089565b60408051998a5260208a0198909852968801959095526060870193909352608086019190915260a085015260c084015260e0830152610100820152610120015b60405180910390f35b34801561032a57600080fd5b50610333600181565b604051908152602001610315565b34801561034d57600080fd5b5061036161035c3660046143df565b610b41565b60408051928352602083019190915201610315565b34801561038257600080fd5b50610333600a5481565b34801561039857600080fd5b506103336103a736600461440b565b600c6020526000908152604090205481565b3480156103c557600080fd5b506103616103d43660046143df565b600d6020908152600092835260408084209091529082529020805460019091015482565b34801561040457600080fd5b50610333610413366004614426565b610b73565b34801561042457600080fd5b50610438610433366004614474565b610cfa565b6040519015158152602001610315565b34801561045457600080fd5b506103616104633660046143df565b60009182526002602090815260408084206001600160a01b03939093168452919052902080546001909101549091565b34801561049f57600080fd5b506105186104ae3660046143aa565b600660208190526000918252604090912080546001820154600283015460038401546004850154600586015496860154600787015460089097015495976001600160a01b038087169860ff600160a01b8904811699600160a81b909904169795909116949192918b565b6040516103159b9a999897969594939291906144ca565b34801561053b57600080fd5b5061043861054a366004614586565b610d12565b34801561055b57600080fd5b5061056f61056a3660046143df565b610e1c565b005b34801561057d57600080fd5b5060016002610361565b34801561059357600080fd5b506103336105a236600461440b565b610f00565b3480156105b357600080fd5b506103336105c23660046145f7565b610f27565b3480156105d357600080fd5b506103336105e236600461440b565b6112ea565b3480156105f357600080fd5b5061056f61060236600461440b565b61130b565b34801561061357600080fd5b5061056f610622366004614622565b6113e2565b34801561063357600080fd5b50600b54610647906001600160a01b031681565b6040516001600160a01b039091168152602001610315565b34801561066b57600080fd5b5061067f61067a3660046146a6565b6114fd565b60405161031591906146db565b34801561069857600080fd5b506104386106a73660046143aa565b611525565b3480156106b857600080fd5b506103336106c7366004614762565b611679565b3480156106d857600080fd5b506103336106e73660046147e1565b6116fa565b3480156106f857600080fd5b5061076b6107073660046143aa565b6000818152602081815260408083206001808552908352818420546002808652838620548787528386528487208488528652848720548288528588205498885260038752858820948852939095528386205490865292909420549395929490939092565b604080519687526020870195909552938501929092526060840152608083015260a082015260c001610315565b61056f6107a6366004614827565b611712565b3480156107b757600080fd5b506103336107c6366004614869565b6117f4565b3480156107d757600080fd5b5061056f6107e6366004614474565b611828565b3480156107f757600080fd5b5061056f610806366004614586565b61193b565b34801561081757600080fd5b506103336040517f6164647265737320566f74696e674d616368696e654164647265737300000000602082015271189e5d195ccccc88141c9bdc1bdcd85b125960721b603c8201526d30b2323932b9b99029b4b3b732b960911b604e8201526b75696e7432353620566f746560a01b605c8201527475696e7432353620416d6f756e74546f5374616b6560581b60688201526c75696e74323536204e6f6e636560981b607d8201526c39ba3934b7339020b1ba34b7b760991b608a8201526097016040516020818303038152906040528051906020012081565b3480156108fd57600080fd5b50610333600281565b34801561091257600080fd5b506103336109213660046143aa565b6000908152600e602052604090205490565b34801561093f57600080fd5b5061033361094e366004614869565b611a72565b34801561095f57600080fd5b5061043861096e3660046143aa565b611a7e565b34801561097f57600080fd5b5061064761098e3660046143aa565b611b09565b34801561099f57600080fd5b506109b36109ae3660046143aa565b611b31565b604051610315919061488b565b3480156109cc57600080fd5b506103336109db3660046143df565b611b80565b3480156109ec57600080fd5b50610a426109fb3660046143aa565b60076020526000908152604090208054600182015460028301546003840154600485015460058601546006909601546001600160a01b039095169593949293919290919087565b604080516001600160a01b0390981688526020880196909652948601939093526060850191909152608084015260a083015260c082015260e001610315565b348015610a8d57600080fd5b50610438610a9c366004614474565b6120a3565b348015610aad57600080fd5b50610333610abc3660046143aa565b612100565b348015610acd57600080fd5b50610438610adc3660046143aa565b612139565b348015610aed57600080fd5b5061067f610afc3660046146a6565b61216b565b348015610b0d57600080fd5b50610333610b1c3660046143aa565b612193565b348015610b2d57600080fd5b50610333610b3c366004614474565b6123a0565b60008281526004602090815260408083206001600160a01b0385168452909152902080546001909101545b9250929050565b604080518082018252600d81526c566f74696e674d616368696e6560981b6020918201528151808301835260018152603160f81b9082015281517f8b73c3c69bb8fe3d512ecc4cf759cc79239f7b179b0ffacaa9a75d522b39400f818301527f5c73065f3b262485dd25d9c20243fe792204f48dc2064efb8309c6cfa776f927818401527fc89efdaa54c0f20c7adf612882df0950f5a951637e0307cdcb4c672f298b8bc660608201524660808201523060a0808301919091528351808303909101815260c0820184528051908301207f8d7c6ad2a22a364e8ac038d4e057e1efbf2b87ba890588ecd6e068cf14586cd460e08301526101008201999099526001600160a01b03979097166101208801526101408701959095526101608601939093526101808501919091526101a080850191909152815180850390910181526101c08401825280519083012061190160f01b6101e08501526101e28401949094526102028084019490945280518084039094018452610222909201909152815191012090565b6000610d08848484336123b6565b90505b9392505050565b600080610d4988888888600c60008d6001600160a01b03166001600160a01b03168152602001908152602001600020546002610b73565b9050610d9684848080601f016020809104026020016040519081016040528093929190818152602001838380828437600092019190915250610d9092508591506126ce9050565b90612709565b6001600160a01b0316876001600160a01b031614610dc757604051632725ce3960e01b815260040160405180910390fd5b6001600160a01b0387166000908152600c6020526040902054610deb9060016148d2565b6001600160a01b0388166000908152600c6020526040902055610e108887878a6123b6565b98975050505050505050565b81610e2681611a7e565b610e43576040516361a1e91560e01b815260040160405180910390fd5b6000838152600d602090815260408083206001600160a01b0386168452909152902054610e8357604051630666f2bb60e11b815260040160405180910390fd5b6000838152600d602090815260408083206001600160a01b038616845290915290208054600190910154610ebb91859185919061272d565b506000838152600d602090815260408083206001600160a01b038616845282528083208381556001018390558583526006909152902054610efb90612c45565b505050565b6001600160a01b0381166000908152600860205260408120610f2190612d08565b92915050565b600061271082351180610f3c57506113888235105b15610fa5576040516351253d8b60e01b815260206004820152602d60248201527f35303030203c3d20717565756564566f7465526571756972656450657263656e60448201526c074616765203c3d20313030303609c1b60648201526084015b60405180910390fd5b613e8060808301351180610fbf57506103e8608083013511155b1561100d576040516351253d8b60e01b815260206004820152601e60248201527f31303030203c207468726573686f6c64436f6e7374203c3d20313630303000006044820152606401610f9c565b60a08201356040830135101561107a576040516351253d8b60e01b815260206004820152602b60248201527f626f6f73746564566f7465506572696f644c696d6974203e3d2071756965744560448201526a1b991a5b99d4195c9a5bd960aa1b6064820152608401610f9c565b60c08201356110cc576040516351253d8b60e01b815260206004820152601760248201527f64616f426f756e74792073686f756c64206265203e20300000000000000000006044820152606401610f9c565b60e0820135823511611160576040516351253d8b60e01b815260206004820152605060248201527f717565756564566f7465526571756972656450657263656e746167652073686f60448201527f756c6420656220686967686572207468616e20626f6f73746564566f7465526560648201526f71756972656450657263656e7461676560801b608482015260a401610f9c565b6040805161010081810190925261118f9184906008908390839080828437600092019190915250611679915050565b905060ac60026107d05b613e808110156111fa576080850135811080156111c457506111bc8160026148fb565b608086013511155b156111da576111d38284614912565b92506111fa565b816111e481614934565b92506111f390508160026148fb565b9050611199565b5060408051610120810182528535815260208087013590820152858201359181019190915260608086013590820152608080820190611247908701356001600160d81b03166103e8612d12565b81526020810184905260a0860135604082015260c08601356060820152608001856007602002013581525060056000858152602001908152602001600020600082015181600001556020820151816001015560408201518160020155606082015181600301556080820151816004015560a0820151816005015560c0820151816006015560e0820151816007015561010082015181600801559050505050919050565b6001600160a01b0381166000908152600960205260408120610f2190612d08565b6000338260405160200161132092919061494d565b60408051601f19818403018152918152815160209283012060008181526007909352912060030154909150611368576040516303afe48d60e61b815260040160405180910390fd5b600081815260076020526040902060020154611397576040516325891ff160e21b815260040160405180910390fd5b60008181526007602052604080822060020180549083905590519091339183156108fc0291849190818181858888f193505050501580156113dc573d6000803e3d6000fd5b50505050565b87866113fa826000908152600e602052604090205490565b811180611405575080155b156114235760405163ed5a18b160e01b815260040160405180910390fd5b60006114338b8b8b8b8b8b610b73565b905061147a85858080601f016020809104026020016040519081016040528093929190818152602001838380828437600092019190915250610d9092508591506126ce9050565b6001600160a01b03168a6001600160a01b0316146114ab57604051632725ce3960e01b815260040160405180910390fd5b7f7cbcdc8a2bb6897d833d348c838b3c54b98377efa00f98a27c42a85408644ec68b8b8b8b8b8b8b8b6040516114e8989796959493929190614974565b60405180910390a15050505050505050505050565b6001600160a01b0381166000908152600960205260409020606090610d089085908590612d4a565b60008181526006602090815260408083208151610180810183528154815260018201546001600160a01b0381169482019490945284939092830190600160a01b900460ff16600781111561157b5761157b6144a0565b600781111561158c5761158c6144a0565b81526020016001820160159054906101000a900460ff1660068111156115b4576115b46144a0565b60068111156115c5576115c56144a0565b8152600282015460208201526003808301546001600160a01b0316604080840191909152600484015460608085019190915260058501546080850152600685015460a0850152600785015460c0850152600885015460e08501528151908101918290526101009093019291600985019182845b8154815260200190600101908083116116385750505050508152505090506116688160e0015182600001516117f4565b61167184612100565b119392505050565b805160208083015160408085015160608087015160808089015160a0808b015160c0808d015160e0808f01518b519d8e019e909e52998c019a909a52958a019690965291880192909252860152840152820152610100810191909152600090610120015b604051602081830303815290604052805190602001209050919050565b60006117096002858585612eb4565b95945050505050565b60006001600160a01b038416330361175457338560405160200161173792919061494d565b604051602081830303815290604052805190602001209050611790565b6001600160a01b038516330361179057833360405160200161177792919061494d565b6040516020818303038152906040528051906020012090505b806117ae57604051630694c18560e31b815260040160405180910390fd5b6000818152600760205260409020600201546117cb9034906148d2565b600091825260076020526040909120600281019190915560038101929092556004909101555050565b6000828152600560208181526040808420600481015490840154868652600790935290842090920154610d0b9291906123a0565b8261183281611a7e565b61184f576040516361a1e91560e01b815260040160405180910390fd5b8383611867826000908152600e602052604090205490565b811180611872575080155b156118905760405163ed5a18b160e01b815260040160405180910390fd5b6000868152600d60209081526040808320338452909152902054156118c857604051635f921f3760e01b815260040160405180910390fd5b6000868152600d602090815260408083203380855290835292819020888155600101879055805189815291820192909252908101869052606081018590527f0aad680ea090e3d71ef3942023475bbf0e4092d03db1a09f00e9a8f2e046e2829060800160405180910390a1505050505050565b8561194581611a7e565b611962576040516361a1e91560e01b815260040160405180910390fd5b6001600160a01b0386166000908152600c602052604081205461198e9089908990899089906001610b73565b90506119d584848080601f016020809104026020016040519081016040528093929190818152602001838380828437600092019190915250610d9092508591506126ce9050565b6001600160a01b0316876001600160a01b031614611a0657604051632725ce3960e01b815260040160405180910390fd5b6001600160a01b0387166000908152600c6020526040902054611a2a9060016148d2565b6001600160a01b0388166000908152600c6020526040902055611a4f8888888861272d565b50600088815260066020526040902054611a6890612c45565b5050505050505050565b6000610d0b8383613241565b600081815260066020526040812060010154600160a01b900460ff166005816007811115611aae57611aae6144a0565b1480611acb57506006816007811115611ac957611ac96144a0565b145b80611ae757506007816007811115611ae557611ae56144a0565b145b80610d0b57506004816007811115611b0157611b016144a0565b149392505050565b600090815260066020908152604080832054835260079091529020546001600160a01b031690565b611b396142c7565b6000828152600660205260409081902081516060810190925260090160038282826020028201915b815481526020019060010190808311611b615750505050509050919050565b600082815260066020526040812060026001820154600160a01b900460ff166007811115611bb057611bb06144a0565b14158015611bde575060036001820154600160a01b900460ff166007811115611bdb57611bdb6144a0565b14155b8015611c095750600180820154600160a01b900460ff166007811115611c0657611c066144a0565b14155b15611c275760405163677ab11960e01b815260040160405180910390fd5b600581810154600090815260208281526040808320815161012081018352815481526001808301548286015260028084015483860152600380850154606085015260048086015460808601529885015460a085015260068086015460c0860152600786015460e08601526008909501546101008501528c88529786528487206001600160a01b038c168852865284872080830154948a01548d8952988752858820918852955283862054908652928520549197509492939291611ce9916148d2565b611cf391906149d8565b600183015490915015611f4057600180850154600160a01b900460ff166007811115611d2157611d216144a0565b14158015611d33575060028401548254145b15611f38576000878152600360209081526040808320600288015484529091529020546001830154611d669083906148fb565b611d709190614912565b825490955060011901611f385760008781526003602090815260408083206002880154845290915281205460e08501516001850154611daf91906148fb565b611db99190614912565b600b549091506001600160a01b031663dd62ed3e611dd68a611b09565b6040516001600160e01b031960e084901b1681526001600160a01b039091166004820152306024820152604401602060405180830381865afa158015611e20573d6000803e3d6000fd5b505050506040513d601f19601f82011682018060405250810190611e4491906149eb565b811015611ee457600b546001600160a01b03166323b872dd611e658a611b09565b6040516001600160e01b031960e084901b1681526001600160a01b039182166004820152908a166024820152604481018490526064016020604051808303816000875af1158015611eba573d6000803e3d6000fd5b505050506040513d601f19601f82011682018060405250810190611ede9190614a04565b50611f36565b611eed88611b09565b604080516001600160a01b038a811682526020820185905292909216917fa0761a444ed6a1da1e3d9aceebe666c374f9a076d53ecd2fdb2fee8056f82cf5910160405180910390a25b505b600060018301555b841561209957848460070154611f5691906149d8565b600780860191909155845460009081526020919091526040902060010154611f7f9086906149d8565b845460009081526007602052604080822060010192909255600b54915163a9059cbb60e01b81526001600160a01b038981166004830152602482018990529192919091169063a9059cbb906044016020604051808303816000875af1158015611fec573d6000803e3d6000fd5b505050506040513d601f19601f820116820180604052508101906120109190614a04565b90508061204257604051635168c45f60e11b81526001600160a01b038816600482015260248101879052604401610f9c565b84546000908152600760209081526040918290205491518881526001600160a01b038a81169316918b917f6d26871c9f457d104b2122485f659f126f7a0cf6938cf20482c03f49794a2fbf910160405180910390a4505b5050505092915050565b6000836120af81611a7e565b6120cc576040516361a1e91560e01b815260040160405180910390fd5b6000858152600660205260408120906120e78733888861272d565b90506120f68260000154612c45565b9695505050505050565b600081815260036020908152604080832060018452909152808220546002835290822054610f21916001600160d81b0390911690612d12565b60008161214581611a7e565b612162576040516361a1e91560e01b815260040160405180910390fd5b610d0b836132aa565b6001600160a01b0381166000908152600860205260409020606090610d089085908590612d4a565b60008181526006602090815260408083208151610180810183528154815260018201546001600160a01b0381169482019490945284939092830190600160a01b900460ff1660078111156121e9576121e96144a0565b60078111156121fa576121fa6144a0565b81526020016001820160159054906101000a900460ff166006811115612222576122226144a0565b6006811115612233576122336144a0565b8152600282015460208201526003808301546001600160a01b0316604080840191909152600484015460608085019190915260058501546080850152600685015460a0850152600785015460c0850152600885015460e08501528151908101918290526101009093019291600985019182845b8154815260200190600101908083116122a6575050509190925250505060e081018051600090815260056020818152604080842060040154945184528084208301548651855260079092528084206006015486518552908420909201549495509193612317939291610b3c916148d2565b6000858152600360209081526040808320600184529091528120549192509061234b906123458460026148d2565b90613241565b6000868152600360209081526040808320600284529091529020549091508111156123955760008581526003602090815260408083206002845290915290205461170990826149d8565b506000949350505050565b6000610d086123af8385613d82565b8590613d98565b6000848152600e6020526040812054859085908111806123d4575080155b156123f25760405163ed5a18b160e01b815260040160405180910390fd5b60008511612413576040516330f759b560e21b815260040160405180910390fd5b61241c876132aa565b1561242a57600192506126c4565b600087815260066020526040902060056001820154600160a01b900460ff16600781111561245a5761245a6144a0565b14158015612488575060046001820154600160a01b900460ff166007811115612485576124856144a0565b14155b156124975760009350506126c4565b60008881526004602090815260408083206001600160a01b038916845290915290206001810154158015906124cd575080548814155b156124dd576000945050506126c4565b600b546040516323b872dd60e01b81526001600160a01b038881166004830152306024830152604482018a905260009216906323b872dd906064016020604051808303816000875af1158015612537573d6000803e3d6000fd5b505050506040513d601f19601f8201168201806040525081019061255b9190614a04565b90508061257b57604051633750dfa560e11b815260040160405180910390fd5b8254600090815260076020526040812060010180548a929061259e9084906148d2565b909155505060078301546125b39089906148d2565b600784015560018201546125c89089906148d2565b60018301819055898355600160801b10156125f6576040516302beac3360e21b815260040160405180910390fd5b600160801b8360070154111561261f5760405163062fcaff60e21b815260040160405180910390fd5b60008a81526003602090815260408083208c845290915290205461264390896148d2565b60008b81526003602090815260408083208d84528252808320939093558554825260078152908290205482518c81529182018b90526001600160a01b038a8116939116918d917fd0239d7d4acf51def4507fa173be466927de5d75d8b10d840cd6994d6e10231091015b60405180910390a46126be8a6132aa565b95505050505b5050949350505050565b6040517f19457468657265756d205369676e6564204d6573736167653a0a3332000000006020820152603c8101829052600090605c016116dd565b60008060006127188585613ddf565b9150915061272581613e4a565b509392505050565b6000848152600e60205260408120548590849081118061274b575080155b156127695760405163ed5a18b160e01b815260040160405180910390fd5b612772876132aa565b1561278057600192506126c4565b6000878152600660208181526040808420600580820154865280845282862083516101208101855281548152600180830154828801526002830154828701526003830154606083015260048084015460808401529383015460a08301528288015460c0830152600783015460e08301526008909201546101008201528e885295909452928101549151634ac41bc760e11b81526001600160a01b038c811694820194909452602481018d905293949093909290911690639588378e90604401602060405180830381865afa15801561285c573d6000803e3d6000fd5b505050506040513d601f19601f8201168201806040525081019061288091906149eb565b9050806000036128a357604051631e4e424d60e31b815260040160405180910390fd5b868110156128c457604051632328906960e11b815260040160405180910390fd5b866000036128d0578096505b60008a81526002602090815260408083206001600160a01b038d1684529091529020600101541561290757600095505050506126c4565b60008a8152602081815260408083208b845290915290205461292990886148d2565b60008b8152602081815260408083208c845290915280822083905560028501548252812054908a9052108061298e575060008a81526020818152604080832060028601548452909152808220546001835291205414801561298e575060028260020154145b15612aad5760066001830154600160a01b900460ff1660078111156129b5576129b56144a0565b1480156129e357508260c0015183604001516129d191906149d8565b600a8301546129e090426149d8565b10155b80612a0d575060076001830154600160a01b900460ff166007811115612a0b57612a0b6144a0565b145b15612aa55760076001830154600160a01b900460ff166007811115612a3457612a346144a0565b14612a9e5760c0830151600483015560018201805460ff60a01b1916600760a01b17908190556040518b917f21aca7f0285ccddeca2935074d3e36b5ab8fea0327f84cbbf12cf1b6d1a749f991612a9591600160a01b900460ff1690614a26565b60405180910390a25b42600a8301555b600282018890555b604080516060810182528981526020810189905290810160056001850154600160a01b900460ff166007811115612ae657612ae66144a0565b1480612b11575060046001850154600160a01b900460ff166007811115612b0f57612b0f6144a0565b145b1515905260008b81526002602081815260408084206001600160a01b038f1685528252928390208451815590840151600182015592909101519101805460ff191691151591909117905560056001830154600160a01b900460ff166007811115612b7d57612b7d6144a0565b1480612ba8575060046001830154600160a01b900460ff166007811115612ba657612ba66144a0565b145b15612bec5760008a81526001602090815260408083208b8452909152902054612bd190886148d2565b60008b81526001602090815260408083208c84529091529020555b81546000908152600760209081526040918290205482518b81529182018a90526001600160a01b038c8116939116918d917f066c061a3792cb3eb64a441a928655fcbafb4a54b49725fe9cd2951df5e7189e91016126ad565b60008181526007602052604090206003015415612d0557600081815260076020526040812060040154612c79903a90613d82565b600083815260076020526040902060030154612c9591906148fb565b6000838152600760205260409020600201549091508111612d035760008281526007602052604081206002018054839290612cd19084906149d8565b9091555050604051339082156108fc029083906000818181858888f19350505050158015610efb573d6000803e3d6000fd5b505b50565b6000610f21825490565b6000610d0b612d2e600160281b6001600160d81b0386166148fb565b612d45600160281b6001600160d81b0386166148fb565b614000565b60606000612d5783612d08565b905080600003612d77575050604080516000815260208101909152610d0b565b80851115612d98576040516368d3b91b60e01b815260040160405180910390fd5b80841115612db957604051635798cc0960e01b815260040160405180910390fd5b83851115612dda5760405163ecb193ab60e01b815260040160405180910390fd5b6000612de76001836149d8565b905060008515612df75785612df9565b815b9050600087612e098360016148d2565b612e1391906149d8565b90508067ffffffffffffffff811115612e2e57612e2e61471f565b604051908082528060200260200182016040528015612e57578160200160208202803683370190505b50945060005b81811015612ea857612e79612e728a836148d2565b889061401b565b868281518110612e8b57612e8b6148e5565b602090810291909101015280612ea081614934565b915050612e5d565b50505050509392505050565b60006002851015612ed8576040516336d37ddf60e11b815260040160405180910390fd5b6000848152600560205260409020546113881115612f0957604051631189a84760e31b815260040160405180910390fd5b600a546040516bffffffffffffffffffffffff193060601b1660208201526034810191909152605401604051602081830303815290604052805190602001209050600a546001612f5991906148d2565b600a55612f646142e5565b336020808301829052604051612f7d929186910161494d565b60408051601f19818403018152918152815160209283012083526004838201526101608301514290526000878152600583528181206002015460c08501526001600160a01b0387811660a08601526001608086015260e08501899052845182526007909352205416613046576001600160a01b03831661301c578051600090815260076020526040902080546001600160a01b03191633179055613046565b8051600090815260076020526040902080546001600160a01b0319166001600160a01b0385161790555b60008581526005602090815260408083206007908101546101008601819052868552600384528285206001808752908552838620919091558685526006845293829020855181559285015193830180546001600160a01b031981166001600160a01b039096169586178255928601518695909391926001600160a81b03199092161790600160a01b9084908111156130e0576130e06144a0565b0217905550606082015160018201805460ff60a81b1916600160a81b83600681111561310e5761310e6144a0565b02179055506080820151600282015560a0820151600380830180546001600160a01b0319166001600160a01b039093169290921790915560c0830151600483015560e0830151600583015561010083015160068301556101208301516007830155610140830151600883015561016083015161318f91600984019190614357565b5050506000828152600e602052604081208790556131d49083906008906131b583611b09565b6001600160a01b03168152602081019190915260400160002090614027565b5080516000908152600760209081526040918290205482518981526001600160a01b0388811693820193909352928301889052169083907f75b4ff136cc5de5957574c797de3334eb1c141271922b825eb071e0487ba2c5c9060600160405180910390a350949350505050565b60008061324e83856148fb565b90508261325b8583614912565b146132a05760405162461bcd60e51b81526020600482015260156024820152745265616c4d617468206d756c206f766572666c6f7760581b6044820152606401610f9c565b60281c9392505050565b6000816132b681611a7e565b6132d3576040516361a1e91560e01b815260040160405180910390fd5b60008381526006602081815260408084206005808201548652808452828620835161012081018552815481526001808301548288015260028301548287015260038301546060830152600483015460808301529282015460a08201529581015460c087015260078082015460e088015260089091015461010087015283516101808101855283548152918301546001600160a01b038116958301959095529195939092869290840191600160a01b900460ff1690811115613396576133966144a0565b60078111156133a7576133a76144a0565b81526020016001820160159054906101000a900460ff1660068111156133cf576133cf6144a0565b60068111156133e0576133e06144a0565b8152600282015460208201526003808301546001600160a01b0316604080840191909152600484015460608085019190915260058501546080850152600685015460a0850152600785015460c0850152600885015460e08501528151908101918290526101009093019291600985019182845b8154815260200190600101908083116134535750505091909252505050600184015460405163b551c37360e01b8152600481018990529192506000916001600160a01b039091169063b551c37390602401602060405180830381865afa1580156134c1573d6000803e3d6000fd5b505050506040513d601f19601f820116820180604052508101906134e591906149eb565b83519091506134f661271083614912565b61350091906148fb565b6000888152602081815260408083206002890154845290915290205411156135f85760046001850154600160a01b900460ff166007811115613544576135446144a0565b036135635760018401805460ff60a81b1916600160a91b1790556135de565b60056001850154600160a01b900460ff166007811115613585576135856144a0565b036135c85760018401805460ff60a81b1916600160aa1b179055835460009081526007602052604081206006018054916135be83614a34565b91905055506135de565b60018401805460ff60a81b1916600360a91b1790555b60018401805460ff60a01b1916600160a11b179055613809565b60046001850154600160a01b900460ff16600781111561361a5761361a6144a0565b036136ad576020830151600985015461363390426149d8565b1061365f5760018481018054600287019290925561ffff60a01b1990911661030160a01b1790556136ad565b61366887611525565b156136ad5760018401805460ff60a01b1916600560a01b17905542600b850155835460009081526007602052604081206006018054916136a783614934565b91905055505b60056001850154600160a01b900460ff1660078111156136cf576136cf6144a0565b03613809576060830151600b8501546136e890426149d8565b106137af576136f687611525565b15613770578354600090815260076020526040902060050154611000111561376b5760018401805460ff60a01b1916600360a11b1790556060830151600b85015461374191906148d2565b600a8501558354600090815260076020526040812060050180549161376583614934565b91905055505b613786565b60018401805460ff60a01b1916600160a21b1790555b835460009081526007602052604081206006018054916137a583614a34565b9190505550613809565b6137c1846005015485600001546117f4565b6137ca88612100565b116138095760018401805460ff60a01b1916600160a21b1790558354600090815260076020526040812060060180549161380383614a34565b91905055505b60066001850154600160a01b900460ff16600781111561382b5761382b6144a0565b1480613856575060076001850154600160a01b900460ff166007811115613854576138546144a0565b145b156138f0576004840154600a85015461386f90426149d8565b106138f05761010083015161388661271083614912565b61389091906148fb565b60008881526020818152604080832060028901548452909152902054106138cd5760018401805461ffff60a01b191661060360a01b1790556138f0565b60018481018054600287019290925561ffff60a01b1990911661050160a01b1790555b60006001850154600160a81b900460ff166006811115613912576139126144a0565b14613ca45760056001850154600160a81b900460ff166006811115613939576139396144a0565b1480613964575060066001850154600160a81b900460ff166006811115613962576139626144a0565b145b1561398e578354600090815260076020526040812060050180549161398883614a34565b91905055505b6139be876008600061399f8b611b09565b6001600160a01b03168152602081019190915260400160002090614033565b506139d087600960006131b58b611b09565b50835460009081526007602090815260409182902054600287015483519081529182018490526001600160a01b03169189917f37471b9c9d295ffb1309ad070b8964700bfb7b555e8e8292d0b6cbc7dba35d10910160405180910390a3600184015460028501546040516305bd908560e41b8152600481018a905260248101919091526001600160a01b0390911690635bd90850906044016020604051808303816000875af1925050508015613aa3575060408051601f3d908101601f19168201909252613aa091810190614a04565b60015b613be857613aaf614a4b565b806308c379a003613b255750613ac3614a67565b80613ace5750613b9f565b6001858101805460ff60a81b1916600160a81b835b02179055507fc47b365839edd5ceac2af5379b7e67092809eeac75e4f9303a4ad42d0d3c067e81604051613b179190614ae6565b60405180910390a150613c24565b634e487b7103613b9f57613b37614b34565b90613b425750613b9f565b60018501805460ff60a81b1916600160a81b17905560408051602081018390527fc47b365839edd5ceac2af5379b7e67092809eeac75e4f9303a4ad42d0d3c067e910160408051601f1981840301815290829052613b1791614ae6565b3d808015613bc9576040519150601f19603f3d011682016040523d82523d6000602084013e613bce565b606091505b506001858101805460ff60a81b1916600160a81b83613ae3565b506040805160208082526000908201527fc47b365839edd5ceac2af5379b7e67092809eeac75e4f9303a4ad42d0d3c067e910160405180910390a15b60018401546002850154604051639a299d0560e01b8152600481018a905260248101919091526001600160a01b0390911690639a299d05906044016020604051808303816000875af1158015613c7e573d6000803e3d6000fd5b505050506040513d601f19601f82011682018060405250810190613ca29190614a04565b505b6001840154600160a01b900460ff166007811115613cc457613cc46144a0565b82604001516007811115613cda57613cda6144a0565b14613d2857600184015460405188917f21aca7f0285ccddeca2935074d3e36b5ab8fea0327f84cbbf12cf1b6d1a749f991613d1f91600160a01b900460ff1690614a26565b60405180910390a25b60006001850154600160a81b900460ff166006811115613d4a57613d4a6144a0565b14158015613d775750600180850154600160a81b900460ff166006811115613d7457613d746144a0565b14155b979650505050505050565b6000818310613d915781610d0b565b5090919050565b60008282600160281b5b81156117095781600116600103613dc057613dbd8184613241565b90505b60019190911c908115613dda57613dd78384613241565b92505b613da2565b6000808251604103613e155760208301516040840151606085015160001a613e098782858561403f565b94509450505050610b6c565b8251604003613e3e5760208301516040840151613e3386838361412c565b935093505050610b6c565b50600090506002610b6c565b6000816004811115613e5e57613e5e6144a0565b03613e665750565b6001816004811115613e7a57613e7a6144a0565b03613ec75760405162461bcd60e51b815260206004820152601860248201527f45434453413a20696e76616c6964207369676e617475726500000000000000006044820152606401610f9c565b6002816004811115613edb57613edb6144a0565b03613f285760405162461bcd60e51b815260206004820152601f60248201527f45434453413a20696e76616c6964207369676e6174757265206c656e677468006044820152606401610f9c565b6003816004811115613f3c57613f3c6144a0565b03613f945760405162461bcd60e51b815260206004820152602260248201527f45434453413a20696e76616c6964207369676e6174757265202773272076616c604482015261756560f01b6064820152608401610f9c565b6004816004811115613fa857613fa86144a0565b03612d055760405162461bcd60e51b815260206004820152602260248201527f45434453413a20696e76616c6964207369676e6174757265202776272076616c604482015261756560f01b6064820152608401610f9c565b600081614011600160281b856148fb565b610d0b9190614912565b6000610d0b838361415b565b6000610d0b8383614185565b6000610d0b83836141d4565b6000807f7fffffffffffffffffffffffffffffff5d576e7357a4501ddfe92f46681b20a08311156140765750600090506003614123565b8460ff16601b1415801561408e57508460ff16601c14155b1561409f5750600090506004614123565b6040805160008082526020820180845289905260ff881692820192909252606081018690526080810185905260019060a0016020604051602081039080840390855afa1580156140f3573d6000803e3d6000fd5b5050604051601f1901519150506001600160a01b03811661411c57600060019250925050614123565b9150600090505b94509492505050565b6000806001600160ff1b03831660ff84901c601b0161414d8782888561403f565b935093505050935093915050565b6000826000018281548110614172576141726148e5565b9060005260206000200154905092915050565b60008181526001830160205260408120546141cc57508154600181810184556000848152602080822090930184905584548482528286019093526040902091909155610f21565b506000610f21565b600081815260018301602052604081205480156142bd5760006141f86001836149d8565b855490915060009061420c906001906149d8565b905081811461427157600086600001828154811061422c5761422c6148e5565b906000526020600020015490508087600001848154811061424f5761424f6148e5565b6000918252602080832090910192909255918252600188019052604090208390555b855486908061428257614282614b54565b600190038181906000526020600020016000905590558560010160008681526020019081526020016000206000905560019350505050610f21565b6000915050610f21565b60405180606001604052806003906020820280368337509192915050565b604080516101808101825260008082526020820181905290918201908152602001600081526020016000815260200160006001600160a01b0316815260200160008152602001600080191681526020016000815260200160008152602001600081526020016143526142c7565b905290565b8260038101928215614385579160200282015b8281111561438557825182559160200191906001019061436a565b50614391929150614395565b5090565b5b808211156143915760008155600101614396565b6000602082840312156143bc57600080fd5b5035919050565b80356001600160a01b03811681146143da57600080fd5b919050565b600080604083850312156143f257600080fd5b82359150614402602084016143c3565b90509250929050565b60006020828403121561441d57600080fd5b610d0b826143c3565b60008060008060008060c0878903121561443f57600080fd5b8635955061444f602088016143c3565b95989597505050506040840135936060810135936080820135935060a0909101359150565b60008060006060848603121561448957600080fd5b505081359360208301359350604090920135919050565b634e487b7160e01b600052602160045260246000fd5b600881106144c6576144c66144a0565b9052565b8b81526001600160a01b038b811660208301526101608201906144f0604084018d6144b6565b60078b10614500576145006144a0565b606083019a909a5260808201989098529590971660a086015260c085019390935260e084019190915261010083015261012082015261014001919091529392505050565b60008083601f84011261455657600080fd5b50813567ffffffffffffffff81111561456e57600080fd5b602083019150836020828501011115610b6c57600080fd5b60008060008060008060a0878903121561459f57600080fd5b863595506145af602088016143c3565b94506040870135935060608701359250608087013567ffffffffffffffff8111156145d957600080fd5b6145e589828a01614544565b979a9699509497509295939492505050565b600061010080838503121561460b57600080fd5b83818401111561461a57600080fd5b509092915050565b60008060008060008060008060e0898b03121561463e57600080fd5b8835975061464e60208a016143c3565b965060408901359550606089013594506080890135935060a0890135925060c089013567ffffffffffffffff81111561468657600080fd5b6146928b828c01614544565b999c989b5096995094979396929594505050565b6000806000606084860312156146bb57600080fd5b83359250602084013591506146d2604085016143c3565b90509250925092565b6020808252825182820181905260009190848201906040850190845b81811015614713578351835292840192918401916001016146f7565b50909695505050505050565b634e487b7160e01b600052604160045260246000fd5b601f8201601f1916810167ffffffffffffffff8111828210171561475b5761475b61471f565b6040525050565b600061010080838503121561477657600080fd5b83601f84011261478557600080fd5b60405181810181811067ffffffffffffffff821117156147a7576147a761471f565b6040529083019080858311156147bc57600080fd5b845b838110156147d65780358252602091820191016147be565b509095945050505050565b600080600080608085870312156147f757600080fd5b843593506020850135925061480e604086016143c3565b915061481c606086016143c3565b905092959194509250565b6000806000806080858703121561483d57600080fd5b614846856143c3565b9350614854602086016143c3565b93969395505050506040820135916060013590565b6000806040838503121561487c57600080fd5b50508035926020909101359150565b60608101818360005b60038110156148b3578151835260209283019290910190600101614894565b50505092915050565b634e487b7160e01b600052601160045260246000fd5b80820180821115610f2157610f216148bc565b634e487b7160e01b600052603260045260246000fd5b8082028115828204841417610f2157610f216148bc565b60008261492f57634e487b7160e01b600052601260045260246000fd5b500490565b600060018201614946576149466148bc565b5060010190565b6bffffffffffffffffffffffff19606093841b811682529190921b16601482015260280190565b88815260018060a01b03881660208201528660408201528560608201528460808201528360a082015260e060c08201528160e082015260006101008385828501376000838501820152601f909301601f191690910190910198975050505050505050565b81810381811115610f2157610f216148bc565b6000602082840312156149fd57600080fd5b5051919050565b600060208284031215614a1657600080fd5b81518015158114610d0b57600080fd5b60208101610f2182846144b6565b600081614a4357614a436148bc565b506000190190565b600060033d1115614a645760046000803e5060005160e01c5b90565b600060443d1015614a755790565b6040516003193d81016004833e81513d67ffffffffffffffff8160248401118184111715614aa557505050505090565b8285019150815181811115614abd5750505050505090565b843d8701016020828501011115614ad75750505050505090565b6147d660208286010187614735565b600060208083528351808285015260005b81811015614b1357858101830151858201604001528201614af7565b506000604082860101526040601f19601f8301168501019250505092915050565b60008060233d1115614b50576020600460003e50506000516001905b9091565b634e487b7160e01b600052603160045260246000fdfea26469706673582212204a157deb8123af780a76638fec1b8d4476b36d30df604eed4e4027cc53d490aa64736f6c63430008110033",
  "linkReferences": {},
  "deployedLinkReferences": {}
}