{
  "_format": "hh-sol-artifact-1",
  "contractName": "DAOController",
  "sourceName": "contracts/dao/DAOController.sol",
  "abi": [
    {
      "inputs": [],
      "name": "DAOController__CannotDisableLastSchemeWithManageSchemesPermission",
      "type": "error"
    },
    {
      "inputs": [],
      "name": "DAOController__CannotRegisterSchemeWithNullParamsHash",
      "type": "error"
    },
    {
      "inputs": [],
      "name": "DAOController__CannotUnregisterLastSchemeWithManageSchemesPermission",
      "type": "error"
    },
    {
      "inputs": [],
      "name": "DAOController__SenderCannotChangeReputation",
      "type": "error"
    },
    {
      "inputs": [],
      "name": "DAOController__SenderCannotManageSchemes",
      "type": "error"
    },
    {
      "inputs": [],
      "name": "DAOController__SenderCannotPerformAvatarCalls",
      "type": "error"
    },
    {
      "inputs": [],
      "name": "DAOController__SenderIsNotRegisteredOrProposalIsInactive",
      "type": "error"
    },
    {
      "inputs": [],
      "name": "DAOController__SenderIsNotTheProposer",
      "type": "error"
    },
    {
      "inputs": [],
      "name": "DAOController__SenderNotRegistered",
      "type": "error"
    },
    {
      "anonymous": false,
      "inputs": [
        {
          "indexed": true,
          "internalType": "address",
          "name": "sender",
          "type": "address"
        },
        {
          "indexed": true,
          "internalType": "address",
          "name": "scheme",
          "type": "address"
        }
      ],
      "name": "RegisterScheme",
      "type": "event"
    },
    {
      "anonymous": false,
      "inputs": [
        {
          "indexed": true,
          "internalType": "address",
          "name": "sender",
          "type": "address"
        },
        {
          "indexed": true,
          "internalType": "address",
          "name": "scheme",
          "type": "address"
        }
      ],
      "name": "UnregisterScheme",
      "type": "event"
    },
    {
      "inputs": [
        {
          "internalType": "address",
          "name": "to",
          "type": "address"
        },
        {
          "internalType": "bytes",
          "name": "data",
          "type": "bytes"
        },
        {
          "internalType": "contract DAOAvatar",
          "name": "avatar",
          "type": "address"
        },
        {
          "internalType": "uint256",
          "name": "value",
          "type": "uint256"
        }
      ],
      "name": "avatarCall",
      "outputs": [
        {
          "internalType": "bool",
          "name": "callSuccess",
          "type": "bool"
        },
        {
          "internalType": "bytes",
          "name": "callData",
          "type": "bytes"
        }
      ],
      "stateMutability": "nonpayable",
      "type": "function"
    },
    {
      "inputs": [
        {
          "internalType": "uint256",
          "name": "amount",
          "type": "uint256"
        },
        {
          "internalType": "address",
          "name": "account",
          "type": "address"
        }
      ],
      "name": "burnReputation",
      "outputs": [
        {
          "internalType": "bool",
          "name": "success",
          "type": "bool"
        }
      ],
      "stateMutability": "nonpayable",
      "type": "function"
    },
    {
      "inputs": [],
      "name": "getDaoReputation",
      "outputs": [
        {
          "internalType": "contract DAOReputation",
          "name": "tokenAddress",
          "type": "address"
        }
      ],
      "stateMutability": "view",
      "type": "function"
    },
    {
      "inputs": [
        {
          "internalType": "address",
          "name": "scheme",
          "type": "address"
        }
      ],
      "name": "getSchemeCanChangeReputation",
      "outputs": [
        {
          "internalType": "bool",
          "name": "canChangeReputation",
          "type": "bool"
        }
      ],
      "stateMutability": "view",
      "type": "function"
    },
    {
      "inputs": [
        {
          "internalType": "address",
          "name": "scheme",
          "type": "address"
        }
      ],
      "name": "getSchemeCanMakeAvatarCalls",
      "outputs": [
        {
          "internalType": "bool",
          "name": "canMakeAvatarCalls",
          "type": "bool"
        }
      ],
      "stateMutability": "view",
      "type": "function"
    },
    {
      "inputs": [
        {
          "internalType": "address",
          "name": "scheme",
          "type": "address"
        }
      ],
      "name": "getSchemeCanManageSchemes",
      "outputs": [
        {
          "internalType": "bool",
          "name": "canManageSchemes",
          "type": "bool"
        }
      ],
      "stateMutability": "view",
      "type": "function"
    },
    {
      "inputs": [
        {
          "internalType": "address",
          "name": "scheme",
          "type": "address"
        }
      ],
      "name": "getSchemeParameters",
      "outputs": [
        {
          "internalType": "bytes32",
          "name": "paramsHash",
          "type": "bytes32"
        }
      ],
      "stateMutability": "view",
      "type": "function"
    },
    {
      "inputs": [],
      "name": "getSchemesWithManageSchemesPermissionsCount",
      "outputs": [
        {
          "internalType": "uint256",
          "name": "schemesWithManageSchemesPermissionCount",
          "type": "uint256"
        }
      ],
      "stateMutability": "view",
      "type": "function"
    },
    {
      "inputs": [
        {
          "internalType": "address",
          "name": "scheme",
          "type": "address"
        },
        {
          "internalType": "address",
          "name": "reputationTokenAddress",
          "type": "address"
        },
        {
          "internalType": "bytes32",
          "name": "paramsHash",
          "type": "bytes32"
        }
      ],
      "name": "initialize",
      "outputs": [],
      "stateMutability": "nonpayable",
      "type": "function"
    },
    {
      "inputs": [
        {
          "internalType": "uint256",
          "name": "amount",
          "type": "uint256"
        },
        {
          "internalType": "address",
          "name": "account",
          "type": "address"
        }
      ],
      "name": "mintReputation",
      "outputs": [
        {
          "internalType": "bool",
          "name": "success",
          "type": "bool"
        }
      ],
      "stateMutability": "nonpayable",
      "type": "function"
    },
    {
      "inputs": [
        {
          "internalType": "address",
          "name": "schemeAddress",
          "type": "address"
        },
        {
          "internalType": "bytes32",
          "name": "paramsHash",
          "type": "bytes32"
        },
        {
          "internalType": "bool",
          "name": "canManageSchemes",
          "type": "bool"
        },
        {
          "internalType": "bool",
          "name": "canMakeAvatarCalls",
          "type": "bool"
        },
        {
          "internalType": "bool",
          "name": "canChangeReputation",
          "type": "bool"
        }
      ],
      "name": "registerScheme",
      "outputs": [
        {
          "internalType": "bool",
          "name": "success",
          "type": "bool"
        }
      ],
      "stateMutability": "nonpayable",
      "type": "function"
    },
    {
      "inputs": [],
      "name": "reputationToken",
      "outputs": [
        {
          "internalType": "contract DAOReputation",
          "name": "",
          "type": "address"
        }
      ],
      "stateMutability": "view",
      "type": "function"
    },
    {
      "inputs": [
        {
          "internalType": "bytes32",
          "name": "",
          "type": "bytes32"
        }
      ],
      "name": "schemeOfProposal",
      "outputs": [
        {
          "internalType": "address",
          "name": "",
          "type": "address"
        }
      ],
      "stateMutability": "view",
      "type": "function"
    },
    {
      "inputs": [
        {
          "internalType": "address",
          "name": "",
          "type": "address"
        }
      ],
      "name": "schemes",
      "outputs": [
        {
          "internalType": "bytes32",
          "name": "paramsHash",
          "type": "bytes32"
        },
        {
          "internalType": "bool",
          "name": "canManageSchemes",
          "type": "bool"
        },
        {
          "internalType": "bool",
          "name": "canMakeAvatarCalls",
          "type": "bool"
        },
        {
          "internalType": "bool",
          "name": "canChangeReputation",
          "type": "bool"
        }
      ],
      "stateMutability": "view",
      "type": "function"
    },
    {
      "inputs": [],
      "name": "schemesWithManageSchemesPermission",
      "outputs": [
        {
          "internalType": "uint256",
          "name": "",
          "type": "uint256"
        }
      ],
      "stateMutability": "view",
      "type": "function"
    },
    {
      "inputs": [
        {
          "internalType": "address",
          "name": "newOwner",
          "type": "address"
        }
      ],
      "name": "transferReputationOwnership",
      "outputs": [],
      "stateMutability": "nonpayable",
      "type": "function"
    },
    {
      "inputs": [
        {
          "internalType": "address",
          "name": "schemeAddress",
          "type": "address"
        }
      ],
      "name": "unregisterScheme",
      "outputs": [
        {
          "internalType": "bool",
          "name": "success",
          "type": "bool"
        }
      ],
      "stateMutability": "nonpayable",
      "type": "function"
    }
  ],
  "bytecode": "0x608060405234801561001057600080fd5b50610eab806100206000396000f3fe608060405234801561001057600080fd5b506004361061010b5760003560e01c8063996e0764116100a2578063d90e0dad11610071578063d90e0dad14610292578063db6149ce146102c6578063ddbfcc6b1461032b578063dea9e24d1461033e578063f3cda8061461035157600080fd5b8063996e076414610245578063ae3ee61d1461024d578063b50ae7fa14610260578063bff18eba1461028957600080fd5b806354c7adb9116100de57806354c7adb9146101eb5780636133f985146101fc578063653915e51461021157806398d324291461022457600080fd5b80631e16d02d14610110578063275bbe9b1461015a57806329b392851461018557806346e361b7146101b4575b600080fd5b61014561011e366004610ad5565b6001600160a01b031660009081526002602052604090206001015462010000900460ff1690565b60405190151581526020015b60405180910390f35b60035461016d906001600160a01b031681565b6040516001600160a01b039091168152602001610151565b610145610193366004610ad5565b6001600160a01b031660009081526002602052604090206001015460ff1690565b6101dd6101c2366004610ad5565b6001600160a01b031660009081526002602052604090205490565b604051908152602001610151565b6003546001600160a01b031661016d565b61020f61020a366004610af9565b610364565b005b61014561021f366004610ad5565b6104ba565b610237610232366004610b3a565b6105f0565b604051610151929190610bfe565b6004546101dd565b61014561025b366004610c48565b6106b2565b61016d61026e366004610cb0565b6001602052600090815260409020546001600160a01b031681565b6101dd60045481565b6101456102a0366004610ad5565b6001600160a01b0316600090815260026020526040902060010154610100900460ff1690565b6103036102d4366004610ad5565b6002602052600090815260409020805460019091015460ff808216916101008104821691620100009091041684565b6040805194855292151560208501529015159183019190915215156060820152608001610151565b610145610339366004610cc9565b61088b565b61014561034c366004610cc9565b610945565b61020f61035f366004610ad5565b6109b7565b600054610100900460ff168061037d575060005460ff16155b6103e45760405162461bcd60e51b815260206004820152602e60248201527f496e697469616c697a61626c653a20636f6e747261637420697320616c72656160448201526d191e481a5b9a5d1a585b1a5e995960921b606482015260840160405180910390fd5b600054610100900460ff16158015610406576000805461ffff19166101011790555b6040805160808101825283815260016020808301828152838501838152606085018481526001600160a01b038b8116600090815260029095529690932094518555905193830180549151925161ffff1990921694151561ff00191694909417610100921515929092029190911762ff00001916620100009115159190910217909155600455600380546001600160a01b03191691851691909117905580156104b4576000805461ff00191690555b50505050565b3360009081526002602052604081206001015460ff166104ed5760405163b12022ed60e01b815260040160405180910390fd5b6001600160a01b0382166000908152600260209081526040918290208251608081018452815480825260019092015460ff8082161515948301949094526101008104841615159482019490945262010000909304909116151560608301526105585750600092915050565b806020015115610598576001600454116105855760405163037cc7cd60e61b815260040160405180910390fd5b60016004546105949190610d0f565b6004555b6001600160a01b038316600081815260026020526040808220828155600101805462ffffff191690555133917f10bb2cf04cb8b902a8e736d494f1a51003be6d4b16ef6fb95ce62c38445023bf91a350600192915050565b33600090815260026020526040812060010154606090610100900460ff1661062b57604051630506357960e51b815260040160405180910390fd5b604051630a8265af60e31b81526001600160a01b038516906354132d789061065d908a908a908a908990600401610d22565b6000604051808303816000875af115801561067c573d6000803e3d6000fd5b505050506040513d6000823e601f3d908101601f191682016040526106a49190810190610d82565b915091509550959350505050565b3360009081526002602052604081206001015460ff166106e55760405163b12022ed60e01b815260040160405180910390fd5b6001600160a01b03861660009081526002602090815260409182902082516080810184528154815260019091015460ff808216151593830193909352610100810483161515938201939093526201000090920416151560608201528561075e576040516328b5fc6b60e21b815260040160405180910390fd5b806020015115801561076d5750845b1561078857600454610780906001610e45565b6004556107d2565b80602001518015610797575084155b156107d2576001600454116107bf57604051639075a69b60e01b815260040160405180910390fd5b60016004546107ce9190610d0f565b6004555b604080516080810182528781528615156020808301918252871515838501908152871515606085019081526001600160a01b038d166000818152600290945286842095518655935160019095018054925191511515620100000262ff0000199215156101000261ff00199715159790971661ffff1990941693909317959095171617909255915133917f546816e99403df442acb68ef69562682a50762c20a3fb6b472f7af9923736cfc91a35060019695505050505050565b3360009081526002602052604081206001015462010000900460ff166108c457604051630f6d02c560e31b815260040160405180910390fd5b600354604051632770a7eb60e21b81526001600160a01b0384811660048301526024820186905290911690639dc29fac906044015b6020604051808303816000875af1158015610918573d6000803e3d6000fd5b505050506040513d601f19601f8201168201806040525081019061093c9190610e58565b90505b92915050565b3360009081526002602052604081206001015462010000900460ff1661097e57604051630f6d02c560e31b815260040160405180910390fd5b6003546040516340c10f1960e01b81526001600160a01b03848116600483015260248201869052909116906340c10f19906044016108f9565b3360009081526002602052604090206001015460ff166109ea5760405163b12022ed60e01b815260040160405180910390fd5b33600090815260026020526040902060010154610100900460ff16610a2257604051630506357960e51b815260040160405180910390fd5b3360009081526002602052604090206001015462010000900460ff16610a5b57604051630f6d02c560e31b815260040160405180910390fd5b60035460405163f2fde38b60e01b81526001600160a01b0383811660048301529091169063f2fde38b90602401600060405180830381600087803b158015610aa257600080fd5b505af1158015610ab6573d6000803e3d6000fd5b5050505050565b6001600160a01b0381168114610ad257600080fd5b50565b600060208284031215610ae757600080fd5b8135610af281610abd565b9392505050565b600080600060608486031215610b0e57600080fd5b8335610b1981610abd565b92506020840135610b2981610abd565b929592945050506040919091013590565b600080600080600060808688031215610b5257600080fd5b8535610b5d81610abd565b9450602086013567ffffffffffffffff80821115610b7a57600080fd5b818801915088601f830112610b8e57600080fd5b813581811115610b9d57600080fd5b896020828501011115610baf57600080fd5b6020830196508095505050506040860135610bc981610abd565b949793965091946060013592915050565b60005b83811015610bf5578181015183820152602001610bdd565b50506000910152565b82151581526040602082015260008251806040840152610c25816060850160208701610bda565b601f01601f1916919091016060019392505050565b8015158114610ad257600080fd5b600080600080600060a08688031215610c6057600080fd5b8535610c6b81610abd565b9450602086013593506040860135610c8281610c3a565b92506060860135610c9281610c3a565b91506080860135610ca281610c3a565b809150509295509295909350565b600060208284031215610cc257600080fd5b5035919050565b60008060408385031215610cdc57600080fd5b823591506020830135610cee81610abd565b809150509250929050565b634e487b7160e01b600052601160045260246000fd5b8181038181111561093f5761093f610cf9565b6001600160a01b038516815260606020820181905281018390528284608083013760006080848301015260006080601f19601f860116830101905082604083015295945050505050565b634e487b7160e01b600052604160045260246000fd5b60008060408385031215610d9557600080fd5b8251610da081610c3a565b602084015190925067ffffffffffffffff80821115610dbe57600080fd5b818501915085601f830112610dd257600080fd5b815181811115610de457610de4610d6c565b604051601f8201601f19908116603f01168101908382118183101715610e0c57610e0c610d6c565b81604052828152886020848701011115610e2557600080fd5b610e36836020830160208801610bda565b80955050505050509250929050565b8082018082111561093f5761093f610cf9565b600060208284031215610e6a57600080fd5b8151610af281610c3a56fea2646970667358221220dab8995bd36ffedd08d3134354998656e446c1f6d04f8dacbc73c81f0245a62c64736f6c63430008110033",
  "linkReferences": {},
  "deployedLinkReferences": {}
}