{
  "_format": "hh-sol-artifact-1",
  "contractName": "ERC20Token",
  "sourceName": "contracts/utils/ERC20/ERC20Token.sol",
  "abi": [
    {
      "anonymous": false,
      "inputs": [
        {
          "indexed": true,
          "internalType": "address",
          "name": "owner",
          "type": "address"
        },
        {
          "indexed": true,
          "internalType": "address",
          "name": "spender",
          "type": "address"
        },
        {
          "indexed": false,
          "internalType": "uint256",
          "name": "value",
          "type": "uint256"
        }
      ],
      "name": "Approval",
      "type": "event"
    },
    {
      "anonymous": false,
      "inputs": [
        {
          "indexed": true,
          "internalType": "address",
          "name": "from",
          "type": "address"
        },
        {
          "indexed": true,
          "internalType": "address",
          "name": "to",
          "type": "address"
        },
        {
          "indexed": false,
          "internalType": "uint256",
          "name": "value",
          "type": "uint256"
        }
      ],
      "name": "Transfer",
      "type": "event"
    },
    {
      "inputs": [
        {
          "internalType": "address",
          "name": "owner",
          "type": "address"
        },
        {
          "internalType": "address",
          "name": "spender",
          "type": "address"
        }
      ],
      "name": "allowance",
      "outputs": [
        {
          "internalType": "uint256",
          "name": "",
          "type": "uint256"
        }
      ],
      "stateMutability": "view",
      "type": "function"
    },
    {
      "inputs": [
        {
          "internalType": "address",
          "name": "spender",
          "type": "address"
        },
        {
          "internalType": "uint256",
          "name": "amount",
          "type": "uint256"
        }
      ],
      "name": "approve",
      "outputs": [
        {
          "internalType": "bool",
          "name": "",
          "type": "bool"
        }
      ],
      "stateMutability": "nonpayable",
      "type": "function"
    },
    {
      "inputs": [
        {
          "internalType": "address",
          "name": "account",
          "type": "address"
        }
      ],
      "name": "balanceOf",
      "outputs": [
        {
          "internalType": "uint256",
          "name": "",
          "type": "uint256"
        }
      ],
      "stateMutability": "view",
      "type": "function"
    },
    {
      "inputs": [],
      "name": "decimals",
      "outputs": [
        {
          "internalType": "uint8",
          "name": "",
          "type": "uint8"
        }
      ],
      "stateMutability": "view",
      "type": "function"
    },
    {
      "inputs": [
        {
          "internalType": "address",
          "name": "spender",
          "type": "address"
        },
        {
          "internalType": "uint256",
          "name": "subtractedValue",
          "type": "uint256"
        }
      ],
      "name": "decreaseAllowance",
      "outputs": [
        {
          "internalType": "bool",
          "name": "",
          "type": "bool"
        }
      ],
      "stateMutability": "nonpayable",
      "type": "function"
    },
    {
      "inputs": [
        {
          "internalType": "address",
          "name": "spender",
          "type": "address"
        },
        {
          "internalType": "uint256",
          "name": "addedValue",
          "type": "uint256"
        }
      ],
      "name": "increaseAllowance",
      "outputs": [
        {
          "internalType": "bool",
          "name": "",
          "type": "bool"
        }
      ],
      "stateMutability": "nonpayable",
      "type": "function"
    },
    {
      "inputs": [
        {
          "internalType": "string",
          "name": "name",
          "type": "string"
        },
        {
          "internalType": "string",
          "name": "symbol",
          "type": "string"
        },
        {
          "internalType": "address",
          "name": "_initialAccount",
          "type": "address"
        },
        {
          "internalType": "uint256",
          "name": "_totalSupply",
          "type": "uint256"
        }
      ],
      "name": "initialize",
      "outputs": [],
      "stateMutability": "nonpayable",
      "type": "function"
    },
    {
      "inputs": [],
      "name": "name",
      "outputs": [
        {
          "internalType": "string",
          "name": "",
          "type": "string"
        }
      ],
      "stateMutability": "view",
      "type": "function"
    },
    {
      "inputs": [],
      "name": "symbol",
      "outputs": [
        {
          "internalType": "string",
          "name": "",
          "type": "string"
        }
      ],
      "stateMutability": "view",
      "type": "function"
    },
    {
      "inputs": [],
      "name": "totalSupply",
      "outputs": [
        {
          "internalType": "uint256",
          "name": "",
          "type": "uint256"
        }
      ],
      "stateMutability": "view",
      "type": "function"
    },
    {
      "inputs": [
        {
          "internalType": "address",
          "name": "recipient",
          "type": "address"
        },
        {
          "internalType": "uint256",
          "name": "amount",
          "type": "uint256"
        }
      ],
      "name": "transfer",
      "outputs": [
        {
          "internalType": "bool",
          "name": "",
          "type": "bool"
        }
      ],
      "stateMutability": "nonpayable",
      "type": "function"
    },
    {
      "inputs": [
        {
          "internalType": "address",
          "name": "sender",
          "type": "address"
        },
        {
          "internalType": "address",
          "name": "recipient",
          "type": "address"
        },
        {
          "internalType": "uint256",
          "name": "amount",
          "type": "uint256"
        }
      ],
      "name": "transferFrom",
      "outputs": [
        {
          "internalType": "bool",
          "name": "",
          "type": "bool"
        }
      ],
      "stateMutability": "nonpayable",
      "type": "function"
    }
  ],
  "bytecode": "0x6080806040523461001657610e7b908161001c8239f35b600080fdfe6080604081815260048036101561001557600080fd5b600092833560e01c90816306fdde031461095b57508063095ea7b31461093157806318160ddd1461091257806323b872dd14610855578063313ce5671461083957806339509351146107e957806370a08231146107b157806395d89b41146106d0578063a457c2d714610629578063a9059cbb146105f8578063dd62ed3e146105ab5763f542033f146100a757600080fd5b346105a75760803660031901126105a75767ffffffffffffffff9181358381116105a3576100d89036908401610ab5565b9160243584811161059f576100f09036908301610ab5565b6044356001600160a01b03811694919085900361059b5786549560ff90818860081c16978815809981610591575b61012790610de2565b610580575b50885492828460081c16938415809581610576575b61014a90610de2565b610565575b508954838160081c1690811580928161055b575b61016c90610de2565b61054a575b5061053c575b8954838160081c1693610194851595869283610531575b50610de2565b610520575b50845182811161050d57806101af603654610b0c565b96601f9788811161049f575b506020908d89841160011461041c5792610411575b50508160011b916000199060031b1c1916176036555b80519182116103fe5781906101fc603754610b0c565b868111610392575b5060209086831160011461030f578b92610304575b50508160011b916000199060031b1c1916176037555b6102f6575b6102e8575b83156102a85750507fddf252ad1be2c89b69c2b068fc378daa952ba7f163c4a11628f55a4df523b3ef602085926064359061027682603554610b46565b6035558585526033835280852061028e838254610b46565b905551908152a361029c5780f35b805461ff001916815580f35b6020606493519262461bcd60e51b845283015260248201527f45524332303a206d696e7420746f20746865207a65726f2061646472657373006044820152fd5b855461ff0019168655610239565b865461ff0019168755610234565b015190503880610219565b60378c527f42a7b7dd785cd69714a189dffb3fd7d7174edc9ece837694ce50f7078f7c31ae9250601f1984168c5b81811061037a5750908460019594939210610361575b505050811b0160375561022f565b015160001960f88460031b161c19169055388080610353565b9293602060018192878601518155019501930161033d565b90915060378b527f42a7b7dd785cd69714a189dffb3fd7d7174edc9ece837694ce50f7078f7c31ae8680850160051c820192602086106103f5575b9085949392910160051c01905b8181106103e75750610204565b8c81558493506001016103da565b925081926103cd565b634e487b7160e01b8a526041865260248afd5b0151905038806101d0565b603681527f4a11f94e20a93c79f6ec743a1954ec4fc2c08429ae2122118bf234b2185c81b89350601f198516905b818110610487575090846001959493921061046e575b505050811b016036556101e6565b015160001960f88460031b161c19169055388080610460565b9293602060018192878601518155019501930161044a565b90915060368d527f4a11f94e20a93c79f6ec743a1954ec4fc2c08429ae2122118bf234b2185c81b88880850160051c82019260208610610504575b859493910160051c909101908e5b8282106104f65750506101bb565b81558493506001018e6104e8565b925081926104da565b634e487b7160e01b8b526041875260248bfd5b61ffff1916610101178a5538610199565b90508316153861018e565b895461ff0019168a55610177565b61ffff1916610101178b5538610171565b5081861615610163565b61ffff1916610101178a553861014f565b5081851615610141565b61ffff19166101011789553861012c565b508184161561011e565b8680fd5b8580fd5b8480fd5b8280fd5b5050346105f457806003193601126105f457806020926105c9610a4c565b6105d1610a67565b6001600160a01b0391821683526034865283832091168252845220549051908152f35b5080fd5b5050346105f457806003193601126105f457602090610622610618610a4c565b6024359033610b69565b5160018152f35b5082346106cd57826003193601126106cd57610643610a4c565b918360243592338152603460205281812060018060a01b038616825260205220549082821061067c576020856106228585038733610ce0565b608490602086519162461bcd60e51b8352820152602560248201527f45524332303a2064656372656173656420616c6c6f77616e63652062656c6f77604482015264207a65726f60d81b6064820152fd5b80fd5b5050346105f457816003193601126105f457805190826037546106f281610b0c565b80855291600191808316908115610789575060011461072c575b50505061071e82610728940383610a7d565b5191829182610a03565b0390f35b9450603785527f42a7b7dd785cd69714a189dffb3fd7d7174edc9ece837694ce50f7078f7c31ae5b8286106107715750505061071e826020610728958201019461070c565b80546020878701810191909152909501948101610754565b61072897508693506020925061071e94915060ff191682840152151560051b8201019461070c565b5050346105f45760203660031901126105f45760209181906001600160a01b036107d9610a4c565b1681526033845220549051908152f35b5050346105f457806003193601126105f45761062260209261083261080c610a4c565b338352603486528483206001600160a01b03821684528652918490205460243590610b46565b9033610ce0565b5050346105f457816003193601126105f4576020905160128152f35b5082346106cd5760603660031901126106cd57610870610a4c565b918361087a610a67565b92610889604435809587610b69565b6001600160a01b03851681526034602090815282822033835290522054908282106108be576020856106228585033388610ce0565b608490602086519162461bcd60e51b8352820152602860248201527f45524332303a207472616e7366657220616d6f756e74206578636565647320616044820152676c6c6f77616e636560c01b6064820152fd5b5050346105f457816003193601126105f4576020906035549051908152f35b5050346105f457806003193601126105f457602090610622610951610a4c565b6024359033610ce0565b849084346105a757826003193601126105a7578260365461097b81610b0c565b8085529160019180831690811561078957506001146109a65750505061071e82610728940383610a7d565b9450603685527f4a11f94e20a93c79f6ec743a1954ec4fc2c08429ae2122118bf234b2185c81b85b8286106109eb5750505061071e826020610728958201019461070c565b805460208787018101919091529095019481016109ce565b6020808252825181830181905290939260005b828110610a3857505060409293506000838284010152601f8019910116010190565b818101860151848201604001528501610a16565b600435906001600160a01b0382168203610a6257565b600080fd5b602435906001600160a01b0382168203610a6257565b90601f8019910116810190811067ffffffffffffffff821117610a9f57604052565b634e487b7160e01b600052604160045260246000fd5b81601f82011215610a625780359067ffffffffffffffff8211610a9f5760405192610aea601f8401601f191660200185610a7d565b82845260208383010111610a6257816000926020809301838601378301015290565b90600182811c92168015610b3c575b6020831014610b2657565b634e487b7160e01b600052602260045260246000fd5b91607f1691610b1b565b91908201809211610b5357565b634e487b7160e01b600052601160045260246000fd5b6001600160a01b03908116918215610c8d5716918215610c3c5760008281526033602052604081205491808310610be857604082827fddf252ad1be2c89b69c2b068fc378daa952ba7f163c4a11628f55a4df523b3ef95876020965260338652038282205586815220610bdd828254610b46565b9055604051908152a3565b60405162461bcd60e51b815260206004820152602660248201527f45524332303a207472616e7366657220616d6f756e7420657863656564732062604482015265616c616e636560d01b6064820152608490fd5b60405162461bcd60e51b815260206004820152602360248201527f45524332303a207472616e7366657220746f20746865207a65726f206164647260448201526265737360e81b6064820152608490fd5b60405162461bcd60e51b815260206004820152602560248201527f45524332303a207472616e736665722066726f6d20746865207a65726f206164604482015264647265737360d81b6064820152608490fd5b6001600160a01b03908116918215610d915716918215610d415760207f8c5be1e5ebec7d5bd14f71427d1e84f3dd0314c0f7b2291e5b200ac8c7c3b925918360005260348252604060002085600052825280604060002055604051908152a3565b60405162461bcd60e51b815260206004820152602260248201527f45524332303a20617070726f766520746f20746865207a65726f206164647265604482015261737360f01b6064820152608490fd5b60405162461bcd60e51b8152602060048201526024808201527f45524332303a20617070726f76652066726f6d20746865207a65726f206164646044820152637265737360e01b6064820152608490fd5b15610de957565b60405162461bcd60e51b815260206004820152602e60248201527f496e697469616c697a61626c653a20636f6e747261637420697320616c72656160448201526d191e481a5b9a5d1a585b1a5e995960921b6064820152608490fdfea264697066735822122096d92dc33c50d3e9fb43aa8bf12f9693adf146a94d46228b65952230c007a05d64736f6c63430008110033",
  "linkReferences": {},
  "deployedLinkReferences": {}
}