{
  "_format": "hh-sol-artifact-1",
  "contractName": "PermissionRegistry",
  "sourceName": "contracts/utils/PermissionRegistry.sol",
  "abi": [
    {
      "anonymous": false,
      "inputs": [
        {
          "indexed": true,
          "internalType": "address",
          "name": "previousOwner",
          "type": "address"
        },
        {
          "indexed": true,
          "internalType": "address",
          "name": "newOwner",
          "type": "address"
        }
      ],
      "name": "OwnershipTransferred",
      "type": "event"
    },
    {
      "anonymous": false,
      "inputs": [
        {
          "indexed": false,
          "internalType": "address",
          "name": "from",
          "type": "address"
        },
        {
          "indexed": false,
          "internalType": "address",
          "name": "to",
          "type": "address"
        },
        {
          "indexed": false,
          "internalType": "bytes4",
          "name": "functionSignature",
          "type": "bytes4"
        },
        {
          "indexed": false,
          "internalType": "uint256",
          "name": "fromTime",
          "type": "uint256"
        },
        {
          "indexed": false,
          "internalType": "uint256",
          "name": "value",
          "type": "uint256"
        }
      ],
      "name": "PermissionSet",
      "type": "event"
    },
    {
      "inputs": [
        {
          "internalType": "address",
          "name": "from",
          "type": "address"
        },
        {
          "internalType": "address",
          "name": "token",
          "type": "address"
        },
        {
          "internalType": "uint256",
          "name": "valueAllowed",
          "type": "uint256"
        },
        {
          "internalType": "uint256",
          "name": "index",
          "type": "uint256"
        }
      ],
      "name": "addERC20Limit",
      "outputs": [],
      "stateMutability": "nonpayable",
      "type": "function"
    },
    {
      "inputs": [
        {
          "internalType": "address",
          "name": "from",
          "type": "address"
        }
      ],
      "name": "checkERC20Limits",
      "outputs": [
        {
          "internalType": "bool",
          "name": "",
          "type": "bool"
        }
      ],
      "stateMutability": "view",
      "type": "function"
    },
    {
      "inputs": [
        {
          "internalType": "address",
          "name": "",
          "type": "address"
        },
        {
          "internalType": "address",
          "name": "",
          "type": "address"
        },
        {
          "internalType": "bytes4",
          "name": "",
          "type": "bytes4"
        }
      ],
      "name": "ethPermissions",
      "outputs": [
        {
          "internalType": "uint256",
          "name": "valueTransferred",
          "type": "uint256"
        },
        {
          "internalType": "uint256",
          "name": "valueTransferedOnBlock",
          "type": "uint256"
        },
        {
          "internalType": "uint256",
          "name": "valueAllowed",
          "type": "uint256"
        },
        {
          "internalType": "uint256",
          "name": "fromTime",
          "type": "uint256"
        }
      ],
      "stateMutability": "view",
      "type": "function"
    },
    {
      "inputs": [
        {
          "internalType": "address",
          "name": "from",
          "type": "address"
        },
        {
          "internalType": "uint256",
          "name": "index",
          "type": "uint256"
        }
      ],
      "name": "executeUpdateERC20Limit",
      "outputs": [],
      "stateMutability": "nonpayable",
      "type": "function"
    },
    {
      "inputs": [
        {
          "internalType": "address",
          "name": "from",
          "type": "address"
        },
        {
          "internalType": "address",
          "name": "token",
          "type": "address"
        }
      ],
      "name": "getERC20Limit",
      "outputs": [
        {
          "internalType": "uint256",
          "name": "",
          "type": "uint256"
        }
      ],
      "stateMutability": "view",
      "type": "function"
    },
    {
      "inputs": [
        {
          "internalType": "address",
          "name": "from",
          "type": "address"
        },
        {
          "internalType": "address",
          "name": "to",
          "type": "address"
        },
        {
          "internalType": "bytes4",
          "name": "functionSignature",
          "type": "bytes4"
        }
      ],
      "name": "getETHPermission",
      "outputs": [
        {
          "internalType": "uint256",
          "name": "valueAllowed",
          "type": "uint256"
        },
        {
          "internalType": "uint256",
          "name": "fromTime",
          "type": "uint256"
        }
      ],
      "stateMutability": "view",
      "type": "function"
    },
    {
      "inputs": [
        {
          "internalType": "address",
          "name": "from",
          "type": "address"
        }
      ],
      "name": "getETHPermissionDelay",
      "outputs": [
        {
          "internalType": "uint256",
          "name": "",
          "type": "uint256"
        }
      ],
      "stateMutability": "view",
      "type": "function"
    },
    {
      "inputs": [],
      "name": "initialize",
      "outputs": [],
      "stateMutability": "nonpayable",
      "type": "function"
    },
    {
      "inputs": [],
      "name": "owner",
      "outputs": [
        {
          "internalType": "address",
          "name": "",
          "type": "address"
        }
      ],
      "stateMutability": "view",
      "type": "function"
    },
    {
      "inputs": [
        {
          "internalType": "address",
          "name": "",
          "type": "address"
        }
      ],
      "name": "permissionDelay",
      "outputs": [
        {
          "internalType": "uint256",
          "name": "",
          "type": "uint256"
        }
      ],
      "stateMutability": "view",
      "type": "function"
    },
    {
      "inputs": [],
      "name": "renounceOwnership",
      "outputs": [],
      "stateMutability": "nonpayable",
      "type": "function"
    },
    {
      "inputs": [],
      "name": "setERC20Balances",
      "outputs": [],
      "stateMutability": "nonpayable",
      "type": "function"
    },
    {
      "inputs": [
        {
          "internalType": "address",
          "name": "from",
          "type": "address"
        },
        {
          "internalType": "address",
          "name": "to",
          "type": "address"
        },
        {
          "internalType": "bytes4",
          "name": "functionSignature",
          "type": "bytes4"
        },
        {
          "internalType": "uint256",
          "name": "valueAllowed",
          "type": "uint256"
        },
        {
          "internalType": "bool",
          "name": "allowed",
          "type": "bool"
        }
      ],
      "name": "setETHPermission",
      "outputs": [],
      "stateMutability": "nonpayable",
      "type": "function"
    },
    {
      "inputs": [
        {
          "internalType": "address",
          "name": "from",
          "type": "address"
        },
        {
          "internalType": "uint256",
          "name": "_timeDelay",
          "type": "uint256"
        }
      ],
      "name": "setETHPermissionDelay",
      "outputs": [],
      "stateMutability": "nonpayable",
      "type": "function"
    },
    {
      "inputs": [
        {
          "internalType": "address",
          "name": "from",
          "type": "address"
        },
        {
          "internalType": "address",
          "name": "to",
          "type": "address"
        },
        {
          "internalType": "bytes4",
          "name": "functionSignature",
          "type": "bytes4"
        },
        {
          "internalType": "uint256",
          "name": "valueTransferred",
          "type": "uint256"
        }
      ],
      "name": "setETHPermissionUsed",
      "outputs": [],
      "stateMutability": "nonpayable",
      "type": "function"
    },
    {
      "inputs": [
        {
          "internalType": "address",
          "name": "newOwner",
          "type": "address"
        }
      ],
      "name": "transferOwnership",
      "outputs": [],
      "stateMutability": "nonpayable",
      "type": "function"
    },
    {
      "inputs": [
        {
          "internalType": "address",
          "name": "from",
          "type": "address"
        },
        {
          "internalType": "uint256",
          "name": "index",
          "type": "uint256"
        },
        {
          "internalType": "uint256",
          "name": "newValueAllowed",
          "type": "uint256"
        }
      ],
      "name": "updateERC20Limit",
      "outputs": [],
      "stateMutability": "nonpayable",
      "type": "function"
    }
  ],
  "bytecode": "0x608060405234801561001057600080fd5b50611b67806100206000396000f3fe608060405234801561001057600080fd5b506004361061010b5760003560e01c80638d2b9eff116100a2578063e926b6b511610071578063e926b6b514610250578063ea41790414610279578063eed47033146102a1578063f2fde38b146102b4578063fb0fde85146102c757600080fd5b80638d2b9eff1461019c5780638da5cb5b146101bc578063bcbe6d7b146101d7578063c10c29c11461023d57600080fd5b8063443f863f116100de578063443f863f146101535780636cfe048914610179578063715018a61461018c5780638129fc1c1461019457600080fd5b8063108764761461011057806322146e1f1461012557806331952632146101385780633e7a47b21461014b575b600080fd5b61012361011e366004611782565b6102ea565b005b6101236101333660046117ac565b610349565b6101236101463660046117df565b61046e565b61012361083a565b610166610161366004611821565b6109a3565b6040519081526020015b60405180910390f35b61012361018736600461186c565b610a77565b610123610c90565b610123610cf4565b6101666101aa3660046118d3565b60656020526000908152604090205481565b6033546040516001600160a01b039091168152602001610170565b61021d6101e53660046118ee565b606660209081526000938452604080852082529284528284209052825290208054600182015460028301546003909301549192909184565b604080519485526020850193909352918301526060820152608001610170565b61012361024b366004611782565b610d67565b61016661025e3660046118d3565b6001600160a01b031660009081526065602052604090205490565b61028c6102873660046118ee565b610ff1565b60408051928352602083019190915201610170565b6101236102af366004611931565b61107a565b6101236102c23660046118d3565b611201565b6102da6102d53660046118d3565b6112c9565b6040519015158152602001610170565b6033546001600160a01b0316331461032d576001600160a01b038216331461032d5760405162461bcd60e51b81526004016103249061197c565b60405180910390fd5b6001600160a01b03909116600090815260656020526040902055565b6033546001600160a01b03163314610383576001600160a01b03831633146103835760405162461bcd60e51b81526004016103249061197c565b6001600160a01b03831660009081526067602052604090205482106103ba5760405162461bcd60e51b8152600401610324906119d1565b6001600160a01b0383166000908152606560205260409020546103de904290611572565b6001600160a01b038416600090815260676020526040902080548490811061040857610408611a18565b9060005260206000209060050201600401819055508060676000856001600160a01b03166001600160a01b03168152602001908152602001600020838154811061045457610454611a18565b906000526020600020906005020160030181905550505050565b6033546001600160a01b031633146104a8576001600160a01b03841633146104a85760405162461bcd60e51b81526004016103249061197c565b6001600160a01b038416600090815260676020526040902054808211156104e15760405162461bcd60e51b8152600401610324906119d1565b6001600160a01b03841661054f5760405162461bcd60e51b815260206004820152602f60248201527f5065726d697373696f6e52656769737472793a20546f6b656e2061646472657360448201526e0732063616e6e6f742062652030783608c1b6064820152608401610324565b60005b8181101561061b576001600160a01b0386811660009081526067602052604090208054918716918390811061058957610589611a18565b60009182526020909120600590910201546001600160a01b0316036106095760405162461bcd60e51b815260206004820152603060248201527f5065726d697373696f6e52656769737472793a204c696d6974206f6e20746f6b60448201526f195b88185b1c9958591e48185919195960821b6064820152608401610324565b8061061381611a44565b915050610552565b50808203610649576001600160a01b03851660009081526067602052604081208054600101815590526106f9565b6001600160a01b038516600090815260676020526040812080548490811061067357610673611a18565b60009182526020909120600590910201546001600160a01b0316146106f95760405162461bcd60e51b815260206004820152603660248201527f5065726d697373696f6e52656769737472793a2043616e74206f7665727269646044820152751948195e1a5cdd195b9d08115490cc8c081b1a5b5a5d60521b6064820152608401610324565b6001600160a01b038516600090815260676020526040902080548591908490811061072657610726611a18565b6000918252602080832060059290920290910180546001600160a01b0319166001600160a01b03948516179055918716815260679091526040902080548491908490811061077657610776611a18565b60009182526020909120600590910201600201556040516370a0823160e01b81526001600160a01b0386811660048301528516906370a0823190602401602060405180830381865afa1580156107d0573d6000803e3d6000fd5b505050506040513d601f19601f820116820180604052508101906107f49190611a5d565b6001600160a01b038616600090815260676020526040902080548490811061081e5761081e611a18565b9060005260206000209060050201600101819055505050505050565b336000908152606860205260409020544311156109a1573360009081526068602052604081204390555b3360009081526067602052604090205481101561099f5733600090815260676020526040812080548390811061089c5761089c611a18565b60009182526020909120600590910201546001600160a01b03161461098d573360009081526067602052604090208054829081106108dc576108dc611a18565b60009182526020909120600590910201546040516370a0823160e01b81523360048201526001600160a01b03909116906370a0823190602401602060405180830381865afa158015610932573d6000803e3d6000fd5b505050506040513d601f19601f820116820180604052508101906109569190611a5d565b33600090815260676020526040902080548390811061097757610977611a18565b9060005260206000209060050201600101819055505b8061099781611a44565b915050610864565b505b565b6000805b6001600160a01b038416600090815260676020526040902054811015610a6b576001600160a01b038481166000908152606760205260409020805491851691839081106109f6576109f6611a18565b60009182526020909120600590910201546001600160a01b031603610a59576001600160a01b0384166000908152606760205260409020805482908110610a3f57610a3f611a18565b906000526020600020906005020160020154915050610a71565b80610a6381611a44565b9150506109a7565b50600090505b92915050565b6033546001600160a01b03163314610ab1576001600160a01b0385163314610ab15760405162461bcd60e51b81526004016103249061197c565b306001600160a01b03851603610b395760405162461bcd60e51b815260206004820152604160248201527f5065726d697373696f6e52656769737472793a2043616e74207365742065746860448201527f5065726d697373696f6e7320746f205065726d697373696f6e526567697374726064820152607960f81b608482015260a401610324565b8015610bad576001600160a01b038516600090815260656020526040902054610b63904290611572565b6001600160a01b03868116600090815260666020908152604080832093891683529281528282206001600160e01b0319881683529052206003810191909155600201829055610bf2565b6001600160a01b03858116600090815260666020908152604080832093881683529281528282206001600160e01b031987168352905290812060038101829055600201555b6001600160a01b0385811660008181526066602090815260408083209489168084529482528083206001600160e01b03198916808552908352928190206003810154600290910154825195865292850195909552830191909152606082019290925260808101919091527fa8d1883748320f844ad63c0685f3f5372c0932122cbbdd9fd172781458d768cc9060a00160405180910390a15050505050565b6033546001600160a01b03163314610cea5760405162461bcd60e51b815260206004820181905260248201527f4f776e61626c653a2063616c6c6572206973206e6f7420746865206f776e65726044820152606401610324565b6109a16000611585565b600054610100900460ff1680610d0d575060005460ff16155b610d295760405162461bcd60e51b815260040161032490611a76565b600054610100900460ff16158015610d4b576000805461ffff19166101011790555b610d536115d7565b801561099f576000805461ff001916905550565b6001600160a01b0382166000908152606760205260408120805483908110610d9157610d91611a18565b906000526020600020906005020160040154905080600014158015610db557508042115b610e1c5760405162461bcd60e51b815260206004820152603260248201527f5065726d697373696f6e52656769737472793a2043616e742065786563757465604482015271207065726d697373696f6e2075706461746560701b6064820152608401610324565b6001600160a01b0383166000908152606760205260408120805484908110610e4657610e46611a18565b906000526020600020906005020160030154905080600003610f12576040805160a0810182526000808252602080830182905282840182905260608301829052608083018290526001600160a01b03881682526067905291909120805485908110610eb357610eb3611a18565b600091825260209182902083516005929092020180546001600160a01b0319166001600160a01b039092169190911781559082015160018201556040820151600282015560608201516003820155608090910151600490910155610feb565b6001600160a01b0384166000908152606760205260408120805485908110610f3c57610f3c611a18565b9060005260206000209060050201600401819055508060676000866001600160a01b03166001600160a01b031681526020019081526020016000208481548110610f8857610f88611a18565b906000526020600020906005020160020181905550600060676000866001600160a01b03166001600160a01b031681526020019081526020016000208481548110610fd557610fd5611a18565b9060005260206000209060050201600301819055505b50505050565b600080836001600160a01b0316856001600160a01b0316148061101c57506001600160a01b03841630145b1561102d5750600090506001611072565b50506001600160a01b03838116600090815260666020908152604080832093861683529281528282206001600160e01b03198516835290522060028101546003909101545b935093915050565b6001600160a01b03841633146110a25760405162461bcd60e51b81526004016103249061197c565b80156110da576001600160a01b0384166000908152606660209081526040808320838052825280832090915290206110da908261163e565b60006110e7858585610ff1565b9150508015611196574281106111505760405162461bcd60e51b815260206004820152602860248201527f5065726d697373696f6e52656769737472793a2043616c6c206e6f7420616c6c6044820152671bddd959081e595d60c21b6064820152608401610324565b6001600160a01b03808616600090815260666020908152604080832093881683529281528282206001600160e01b031987168352905220611191908361163e565b6111fa565b6001600160e01b03198316156111fa5760405162461bcd60e51b8152602060048201526024808201527f5065726d697373696f6e52656769737472793a2043616c6c206e6f7420616c6c6044820152631bddd95960e21b6064820152608401610324565b5050505050565b6033546001600160a01b0316331461125b5760405162461bcd60e51b815260206004820181905260248201527f4f776e61626c653a2063616c6c6572206973206e6f7420746865206f776e65726044820152606401610324565b6001600160a01b0381166112c05760405162461bcd60e51b815260206004820152602660248201527f4f776e61626c653a206e6577206f776e657220697320746865207a65726f206160448201526564647265737360d01b6064820152608401610324565b61099f81611585565b6001600160a01b03811660009081526068602052604081205443146113485760405162461bcd60e51b815260206004820152602f60248201527f5065726d697373696f6e52656769737472793a20455243323020696e6974696160448201526e1b15985b1d595cc81b9bdd081cd95d608a1b6064820152608401610324565b60005b6001600160a01b038316600090815260676020526040902054811015611569576001600160a01b038316600090815260676020526040812080548390811061139557611395611a18565b60009182526020909120600590910201546001600160a01b031614611557576001600160a01b03831660009081526067602052604081208054839081106113de576113de611a18565b60009182526020909120600590910201546040516370a0823160e01b81526001600160a01b038681166004830152909116906370a0823190602401602060405180830381865afa158015611436573d6000803e3d6000fd5b505050506040513d601f19601f8201168201806040525081019061145a9190611a5d565b6001600160a01b03851660009081526067602052604090208054919250908390811061148857611488611a18565b906000526020600020906005020160010154811015611555576001600160a01b03841660009081526067602052604090208054839081106114cb576114cb611a18565b9060005260206000209060050201600201546115378260676000886001600160a01b03166001600160a01b03168152602001908152602001600020858154811061151757611517611a18565b90600052602060002090600502016001015461169090919063ffffffff16565b11156115555760405162461bcd60e51b815260040161032490611ac4565b505b8061156181611a44565b91505061134b565b50600192915050565b600061157e8284611b0b565b9392505050565b603380546001600160a01b038381166001600160a01b0319831681179093556040519116919082907f8be0079c531659141344cd1fd0a4f28419497f9722a3daafe3b4186f6b6457e090600090a35050565b600054610100900460ff16806115f0575060005460ff16155b61160c5760405162461bcd60e51b815260040161032490611a76565b600054610100900460ff1615801561162e576000805461ffff19166101011790555b61163661169c565b610d53611706565b438260010154101561165857436001830155808255611667565b81546116649082611572565b82555b60028201548254111561168c5760405162461bcd60e51b815260040161032490611ac4565b5050565b600061157e8284611b1e565b600054610100900460ff16806116b5575060005460ff16155b6116d15760405162461bcd60e51b815260040161032490611a76565b600054610100900460ff16158015610d53576000805461ffff1916610101179055801561099f576000805461ff001916905550565b600054610100900460ff168061171f575060005460ff16155b61173b5760405162461bcd60e51b815260040161032490611a76565b600054610100900460ff1615801561175d576000805461ffff19166101011790555b610d5333611585565b80356001600160a01b038116811461177d57600080fd5b919050565b6000806040838503121561179557600080fd5b61179e83611766565b946020939093013593505050565b6000806000606084860312156117c157600080fd5b6117ca84611766565b95602085013595506040909401359392505050565b600080600080608085870312156117f557600080fd5b6117fe85611766565b935061180c60208601611766565b93969395505050506040820135916060013590565b6000806040838503121561183457600080fd5b61183d83611766565b915061184b60208401611766565b90509250929050565b80356001600160e01b03198116811461177d57600080fd5b600080600080600060a0868803121561188457600080fd5b61188d86611766565b945061189b60208701611766565b93506118a960408701611854565b925060608601359150608086013580151581146118c557600080fd5b809150509295509295909350565b6000602082840312156118e557600080fd5b61157e82611766565b60008060006060848603121561190357600080fd5b61190c84611766565b925061191a60208501611766565b915061192860408501611854565b90509250925092565b6000806000806080858703121561194757600080fd5b61195085611766565b935061195e60208601611766565b925061196c60408601611854565b9396929550929360600135925050565b60208082526035908201527f5065726d697373696f6e52656769737472793a204f6e6c79206f776e65722063604082015274616e20737065636966792066726f6d2076616c756560581b606082015260800190565b60208082526027908201527f5065726d697373696f6e52656769737472793a20496e646578206f7574206f6660408201526620626f756e647360c81b606082015260800190565b634e487b7160e01b600052603260045260246000fd5b634e487b7160e01b600052601160045260246000fd5b600060018201611a5657611a56611a2e565b5060010190565b600060208284031215611a6f57600080fd5b5051919050565b6020808252602e908201527f496e697469616c697a61626c653a20636f6e747261637420697320616c72656160408201526d191e481a5b9a5d1a585b1a5e995960921b606082015260800190565b60208082526027908201527f5065726d697373696f6e52656769737472793a2056616c7565206c696d6974206040820152661c995858da195960ca1b606082015260800190565b80820180821115610a7157610a71611a2e565b81810381811115610a7157610a71611a2e56fea26469706673582212202566f2f2d26a2fe48fa46f36df93a728cf0079788a4c6fd6873c8f064a9ceb3f64736f6c63430008110033",
  "linkReferences": {},
  "deployedLinkReferences": {}
}