{
  "_format": "hh-sol-artifact-1",
  "contractName": "PermissionRegistry",
  "sourceName": "contracts/utils/PermissionRegistry.sol",
  "abi": [
    {
      "anonymous": false,
      "inputs": [
        {
          "indexed": true,
          "internalType": "address",
          "name": "previousOwner",
          "type": "address"
        },
        {
          "indexed": true,
          "internalType": "address",
          "name": "newOwner",
          "type": "address"
        }
      ],
      "name": "OwnershipTransferred",
      "type": "event"
    },
    {
      "anonymous": false,
      "inputs": [
        {
          "indexed": false,
          "internalType": "address",
          "name": "from",
          "type": "address"
        },
        {
          "indexed": false,
          "internalType": "address",
          "name": "to",
          "type": "address"
        },
        {
          "indexed": false,
          "internalType": "bytes4",
          "name": "functionSignature",
          "type": "bytes4"
        },
        {
          "indexed": false,
          "internalType": "uint256",
          "name": "fromTime",
          "type": "uint256"
        },
        {
          "indexed": false,
          "internalType": "uint256",
          "name": "value",
          "type": "uint256"
        }
      ],
      "name": "PermissionSet",
      "type": "event"
    },
    {
      "inputs": [
        {
          "internalType": "address",
          "name": "from",
          "type": "address"
        },
        {
          "internalType": "address",
          "name": "token",
          "type": "address"
        },
        {
          "internalType": "uint256",
          "name": "valueAllowed",
          "type": "uint256"
        },
        {
          "internalType": "uint256",
          "name": "index",
          "type": "uint256"
        }
      ],
      "name": "addERC20Limit",
      "outputs": [],
      "stateMutability": "nonpayable",
      "type": "function"
    },
    {
      "inputs": [
        {
          "internalType": "address",
          "name": "from",
          "type": "address"
        }
      ],
      "name": "checkERC20Limits",
      "outputs": [
        {
          "internalType": "bool",
          "name": "",
          "type": "bool"
        }
      ],
      "stateMutability": "nonpayable",
      "type": "function"
    },
    {
      "inputs": [
        {
          "internalType": "address",
          "name": "",
          "type": "address"
        },
        {
          "internalType": "address",
          "name": "",
          "type": "address"
        },
        {
          "internalType": "bytes4",
          "name": "",
          "type": "bytes4"
        }
      ],
      "name": "ethPermissions",
      "outputs": [
        {
          "internalType": "uint256",
          "name": "valueTransferred",
          "type": "uint256"
        },
        {
          "internalType": "uint256",
          "name": "valueTransferedOnBlock",
          "type": "uint256"
        },
        {
          "internalType": "uint256",
          "name": "valueAllowed",
          "type": "uint256"
        },
        {
          "internalType": "uint256",
          "name": "fromTime",
          "type": "uint256"
        }
      ],
      "stateMutability": "view",
      "type": "function"
    },
    {
      "inputs": [
        {
          "internalType": "address",
          "name": "from",
          "type": "address"
        },
        {
          "internalType": "uint256",
          "name": "index",
          "type": "uint256"
        }
      ],
      "name": "executeRemoveERC20Limit",
      "outputs": [],
      "stateMutability": "nonpayable",
      "type": "function"
    },
    {
      "inputs": [
        {
          "internalType": "address",
          "name": "from",
          "type": "address"
        },
        {
          "internalType": "address",
          "name": "token",
          "type": "address"
        }
      ],
      "name": "getERC20Limit",
      "outputs": [
        {
          "internalType": "uint256",
          "name": "",
          "type": "uint256"
        }
      ],
      "stateMutability": "view",
      "type": "function"
    },
    {
      "inputs": [
        {
          "internalType": "address",
          "name": "from",
          "type": "address"
        },
        {
          "internalType": "address",
          "name": "to",
          "type": "address"
        },
        {
          "internalType": "bytes4",
          "name": "functionSignature",
          "type": "bytes4"
        }
      ],
      "name": "getETHPermission",
      "outputs": [
        {
          "internalType": "uint256",
          "name": "valueAllowed",
          "type": "uint256"
        },
        {
          "internalType": "uint256",
          "name": "fromTime",
          "type": "uint256"
        }
      ],
      "stateMutability": "view",
      "type": "function"
    },
    {
      "inputs": [
        {
          "internalType": "address",
          "name": "from",
          "type": "address"
        }
      ],
      "name": "getETHPermissionDelay",
      "outputs": [
        {
          "internalType": "uint256",
          "name": "",
          "type": "uint256"
        }
      ],
      "stateMutability": "view",
      "type": "function"
    },
    {
      "inputs": [],
      "name": "initialize",
      "outputs": [],
      "stateMutability": "nonpayable",
      "type": "function"
    },
    {
      "inputs": [],
      "name": "owner",
      "outputs": [
        {
          "internalType": "address",
          "name": "",
          "type": "address"
        }
      ],
      "stateMutability": "view",
      "type": "function"
    },
    {
      "inputs": [
        {
          "internalType": "address",
          "name": "",
          "type": "address"
        }
      ],
      "name": "permissionDelay",
      "outputs": [
        {
          "internalType": "uint256",
          "name": "",
          "type": "uint256"
        }
      ],
      "stateMutability": "view",
      "type": "function"
    },
    {
      "inputs": [
        {
          "internalType": "address",
          "name": "from",
          "type": "address"
        },
        {
          "internalType": "uint256",
          "name": "index",
          "type": "uint256"
        }
      ],
      "name": "removeERC20Limit",
      "outputs": [],
      "stateMutability": "nonpayable",
      "type": "function"
    },
    {
      "inputs": [],
      "name": "renounceOwnership",
      "outputs": [],
      "stateMutability": "nonpayable",
      "type": "function"
    },
    {
      "inputs": [],
      "name": "setERC20Balances",
      "outputs": [],
      "stateMutability": "nonpayable",
      "type": "function"
    },
    {
      "inputs": [
        {
          "internalType": "address",
          "name": "from",
          "type": "address"
        },
        {
          "internalType": "address",
          "name": "to",
          "type": "address"
        },
        {
          "internalType": "bytes4",
          "name": "functionSignature",
          "type": "bytes4"
        },
        {
          "internalType": "uint256",
          "name": "valueAllowed",
          "type": "uint256"
        },
        {
          "internalType": "bool",
          "name": "allowed",
          "type": "bool"
        }
      ],
      "name": "setETHPermission",
      "outputs": [],
      "stateMutability": "nonpayable",
      "type": "function"
    },
    {
      "inputs": [
        {
          "internalType": "address",
          "name": "from",
          "type": "address"
        },
        {
          "internalType": "uint256",
          "name": "_timeDelay",
          "type": "uint256"
        }
      ],
      "name": "setETHPermissionDelay",
      "outputs": [],
      "stateMutability": "nonpayable",
      "type": "function"
    },
    {
      "inputs": [
        {
          "internalType": "address",
          "name": "from",
          "type": "address"
        },
        {
          "internalType": "address",
          "name": "to",
          "type": "address"
        },
        {
          "internalType": "bytes4",
          "name": "functionSignature",
          "type": "bytes4"
        },
        {
          "internalType": "uint256",
          "name": "valueTransferred",
          "type": "uint256"
        }
      ],
      "name": "setETHPermissionUsed",
      "outputs": [],
      "stateMutability": "nonpayable",
      "type": "function"
    },
    {
      "inputs": [
        {
          "internalType": "address",
          "name": "newOwner",
          "type": "address"
        }
      ],
      "name": "transferOwnership",
      "outputs": [],
      "stateMutability": "nonpayable",
      "type": "function"
    }
  ],
  "bytecode": "0x60808060405234610016576114e9908161001c8239f35b600080fdfe6040608081526004908136101561001557600080fd5b600090813560e01c80631087647614610fce5780633195263214610c8e5780633e7a47b214610b98578063443f863f14610b6457806348ec8bb614610ac15780636cfe048914610850578063715018a6146107f05780638129fc1c146106915780638d2b9eff146104c45780638da5cb5b146106695780639692010c14610585578063bcbe6d7b146104fb578063e926b6b5146104c4578063ea41790414610483578063eed4703314610309578063f2fde38b1461026d5763fb0fde85146100dc57600080fd5b346102695760209182600319360112610266576001600160a01b039384610101611021565b16938483526068815283832054430361020c57825b8584526067808352858520548210156102035760016101378388882061127a565b50015490878652808452838961014f858a8a2061127a565b5054168851918280926370a0823160e01b82528c8a83015260249485915afa9081156101f95788916101c8575b5083039283116101b757506101b292916101ad91898852855260026101a3848a8a2061127a565b500154101561132b565b6112ac565b610116565b634e487b7160e01b87526011865286fd5b90508581813d83116101f2575b6101df8183611258565b810103126101ee57513861017c565b8780fd5b503d6101d5565b89513d8a823e3d90fd5b82865160018152f35b835162461bcd60e51b815291820152602f60248201527f5065726d697373696f6e52656769737472793a20455243323020696e6974696160448201526e1b15985b1d595cc81b9bdd081cd95d608a1b606482015260849150fd5b80fd5b5080fd5b50823461030557602036600319011261030557610288611021565b9160018060a01b0361029f81603354163314611069565b8316156102b357836102b0846110b4565b80f35b906020608492519162461bcd60e51b8352820152602660248201527f4f776e61626c653a206e6577206f776e657220697320746865207a65726f206160448201526564647265737360d01b6064820152fd5b8280fd5b50913461026957608036600319011261026957610324611021565b9261032d61103c565b610335611052565b906064359384610453575b61034b8383896113c7565b905080156103e85742111561039457506102b0949560018060a01b0380911687526066602052838720911686526020528185209063ffffffff60e01b1685526020528320611387565b608490602085519162461bcd60e51b8352820152602860248201527f5065726d697373696f6e52656769737472793a2043616c6c206e6f7420616c6c6044820152671bddd959081e595d60c21b6064820152fd5b509495509192506001600160e01b031916905061040457505080f35b906020608492519162461bcd60e51b83528201526024808201527f5065726d697373696f6e52656769737472793a2043616c6c206e6f7420616c6c6044820152631bddd95960e21b6064820152fd5b60018060a01b0387168652606660205283862086805260205283862060205261047e85858820611387565b610340565b50903461026657606036600319011261026657506104b86104a2611021565b6104aa61103c565b6104b2611052565b916113c7565b82519182526020820152f35b50346102695760203660031901126102695760209181906001600160a01b036104eb611021565b1681526065845220549051908152f35b50346102695760603660031901126102695780608092610519611021565b61052161103c565b610529611052565b6001600160a01b039283168452606660209081528585209290931684529082528383206001600160e01b031990911683528152919020805460018201546002830154600390930154855192835293820152928301526060820152f35b50913461026957826003193601126102695761059f611021565b6024359060018060a01b031691828452606760205260036105c28387872061127a565b50015442101561060a575061060490846102b0949551936105e285611226565b868552866020860152868286015286606086015286526067602052852061127a565b906112d1565b608490602086519162461bcd60e51b8352820152603360248201527f5065726d697373696f6e52656769737472793a2043616e742065786563757465604482015272081c195c9b5a5cdcda5bdb881c995b5bdd985b606a1b6064820152fd5b503461026957816003193601126102695760335490516001600160a01b039091168152602090f35b8234610266578060031936011261026657805460ff808260081c169182158093816107e6575b6106c0906110fd565b6107d5575b50825490808260081c169182158093816107cb575b6106e3906110fd565b6107ba575b508354818160081c169081158092816107b0575b610705906110fd565b61079f575b50610791575b8354818160081c169161072d831593849283610786575b506110fd565b610775575b5061073c336110b4565b610767575b610759575b61074d5780f35b805461ff001916815580f35b815461ff0019168255610746565b825461ff0019168355610741565b61ffff191661010117845584610732565b905083161588610727565b835461ff0019168455610710565b61ffff19166101011785558561070a565b50818416156106fc565b61ffff1916610101178455846106e8565b50818316156106da565b61ffff1916610101178355836106c5565b50818316156106b7565b823461026657806003193601126102665760335481906001600160a01b0381169061081c338314611069565b6001600160a01b0319166033557f8be0079c531659141344cd1fd0a4f28419497f9722a3daafe3b4186f6b6457e08280a380f35b50346102695760a03660031901126102695761086a611021565b9061087361103c565b9161087c611052565b92608435918215158303610abd576033546001600160a01b0392839182163303610aab575b1692308414610a3857156109bb57818116808752602060658152858820544201918242116109a857889950908160a0989796959493927fa8d1883748320f844ad63c0685f3f5372c0932122cbbdd9fd172781458d768cc9a5260668252868b20868c528252868b209263ffffffff60e01b891693848d5283526003888d2001558a5260668152858a20858b528152858a20918a52526064356002858a2001555b16928387526020926066845280882083895284528088209163ffffffff60e01b16918289528452600381892001549285895260668552818920818a528552818920838a5285526002828a20015494825196875286015284015260608301526080820152a180f35b634e487b7160e01b895260118a52602489fd5b7fa8d1883748320f844ad63c0685f3f5372c0932122cbbdd9fd172781458d768cc95965090818160a09695949316808952602060668152858a20858b528152858a209163ffffffff60e01b881692838c5282528a600388822001558a5260668152858a20858b528152858a20918a52528760028582200155610941565b845162461bcd60e51b81526020818a0152604160248201527f5065726d697373696f6e52656769737472793a2043616e74207365742065746860448201527f5065726d697373696f6e7320746f205065726d697373696f6e526567697374726064820152607960f81b608482015260a490fd5b610ab83383851614611160565b6108a1565b8580fd5b50829034610305578060031936011261030557610adc611021565b60335460243592916001600160a01b039182163303610b52575b168085526067602052610b0d8286205484106111ca565b808552606560205281852054420193844211610b3f5750845260676020528320600391610b399161127a565b50015580f35b634e487b7160e01b865260119052602485fd5b610b5f3383831614611160565b610af6565b5034610269578060031936011261026957602090610b91610b83611021565b610b8b61103c565b90611437565b9051908152f35b50823461030557826003193601126103055733835260209160688352808420544311610bc2578380f35b4381852055835b33855260679081855282862054811015610c825760249185610bed83868a2061127a565b505485516370a0823160e01b8152338882015294859182906001600160a01b03165afa908115610c78578791610c43575b610c3e935033885286526001610c3683868a2061127a565b5001556112ac565b610bc9565b90508583813d8311610c71575b610c5a8183611258565b81010312610c6d57610c3e925190610c1e565b8680fd5b503d610c50565b84513d89823e3d90fd5b50505050508180808380f35b5082903461030557608036600319011261030557610caa611021565b610cb261103c565b603354606493604493853593928535916001600160a01b039182919082163303610fbc575b169889815260679282602096858852610cf5878520548a11156111ca565b16938415610f63578551906370a0823160e01b8252338c83015260249888838b818a5afa928315610f59578593610f26575b508d8552818952878520548103610e325750835b8d855281895287852054811015610dca578686610d5a838b892061127a565b50541614610d7057610d6b906112ac565b610d3b565b50865162461bcd60e51b8152808d018990526030818b01527f5065726d697373696f6e52656769737472793a204c696d6974206f6e20746f6b818c01526f195b88185b1c9958591e48185919195960821b818d0152608490fd5b50935093985094965097988852855281872094825196610de988611226565b875286015284015283606084015281549468010000000000000000861015610e21575050836106049160016102b0959601815561127a565b634e487b7160e01b85526041905283fd5b9b939c97989099919594610e4c8d8f99809e969a2061127a565b505416610ec7575050505092610b3995928998959260039895838b52858552610e7788888d2061127a565b50906bffffffffffffffffffffffff60a01b825416179055828a528484526001610ea388888d2061127a565b5001558189528383526002610eba87878c2061127a565b500155875252842061127a565b8a5162461bcd60e51b81529384018990526036908401527f5065726d697373696f6e52656769737472793a2043616e74206f76657272696490830152751948195e1a5cdd195b9d08115490cc8c081b1a5b5a5d60521b90820152608490fd5b9092508881813d8311610f52575b610f3e8183611258565b81010312610f4e5751918e610d27565b8480fd5b503d610f34565b88513d87823e3d90fd5b855162461bcd60e51b8152808c01889052602f60248201527f5065726d697373696f6e52656769737472793a20546f6b656e20616464726573818b01526e0732063616e6e6f742062652030783608c1b818c0152608490fd5b610fc93383831614611160565b610cd7565b5034610269578060031936011261026957610fe7611021565b6033546001600160a01b0391908216330361100f575b16825260656020526024359082205580f35b61101c3383831614611160565b610ffd565b600435906001600160a01b038216820361103757565b600080fd5b602435906001600160a01b038216820361103757565b604435906001600160e01b03198216820361103757565b1561107057565b606460405162461bcd60e51b815260206004820152602060248201527f4f776e61626c653a2063616c6c6572206973206e6f7420746865206f776e65726044820152fd5b603380546001600160a01b039283166001600160a01b0319821681179092559091167f8be0079c531659141344cd1fd0a4f28419497f9722a3daafe3b4186f6b6457e0600080a3565b1561110457565b60405162461bcd60e51b815260206004820152602e60248201527f496e697469616c697a61626c653a20636f6e747261637420697320616c72656160448201526d191e481a5b9a5d1a585b1a5e995960921b6064820152608490fd5b1561116757565b60405162461bcd60e51b815260206004820152603560248201527f5065726d697373696f6e52656769737472793a204f6e6c79206f776e65722063604482015274616e20737065636966792066726f6d2076616c756560581b6064820152608490fd5b156111d157565b60405162461bcd60e51b815260206004820152602760248201527f5065726d697373696f6e52656769737472793a20496e646578206f7574206f6660448201526620626f756e647360c81b6064820152608490fd5b6080810190811067ffffffffffffffff82111761124257604052565b634e487b7160e01b600052604160045260246000fd5b90601f8019910116810190811067ffffffffffffffff82111761124257604052565b80548210156112965760005260206000209060021b0190600090565b634e487b7160e01b600052603260045260246000fd5b60001981146112bb5760010190565b634e487b7160e01b600052601160045260246000fd5b919061131557805182546001600160a01b0319166001600160a01b039190911617825560208101516001830155604081015160028301556060015160039190910155565b634e487b7160e01b600052600060045260246000fd5b1561133257565b60405162461bcd60e51b815260206004820152602760248201527f5065726d697373696f6e52656769737472793a2056616c7565206c696d6974206044820152661c995858da195960ca1b6064820152608490fd5b6001810180544311156113af57916113ad9243905581555b60028154910154101561132b565b565b5080549182018092116112bb576113ad91815561139f565b6001600160a01b039081169392911690838214801561142e575b156113f25750509050600090600190565b60009384526066602090815260408086209386529281528285206001600160e01b03199290921685525290912060028101546003909101549091565b503082146113e1565b60005b60018060a01b038083168060005260679060209082825260409384600020548610156114a6578061146e878760002061127a565b5054169088161461148b5750505050611486906112ac565b61143a565b600296506114a095506000525260002061127a565b50015490565b505050505050505060009056fea2646970667358221220a9379a55301caf246bc447ec63f80c38a9868010b3fd659ab708faafe0a1a28564736f6c63430008110033",
  "linkReferences": {},
  "deployedLinkReferences": {}
}